{
  "contractName": "CallLibrary",
  "abi": [
    {
      "inputs": [
        {
          "internalType": "string",
          "name": "_word",
          "type": "string"
        }
      ],
      "name": "callString",
      "outputs": [
        {
          "internalType": "string",
          "name": "",
          "type": "string"
        }
      ],
      "stateMutability": "view",
      "type": "function"
    },
    {
      "inputs": [
        {
          "internalType": "bytes",
          "name": "_signature",
          "type": "bytes"
        },
        {
          "internalType": "bytes32",
          "name": "_ethHash",
          "type": "bytes32"
        }
      ],
      "name": "verify",
      "outputs": [
        {
          "internalType": "address",
          "name": "",
          "type": "address"
        }
      ],
      "stateMutability": "pure",
      "type": "function"
    },
    {
      "inputs": [
        {
          "components": [
            {
              "internalType": "string",
              "name": "name",
              "type": "string"
            }
          ],
          "internalType": "struct LibraryTest.Holder",
          "name": "_holder",
          "type": "tuple"
        }
      ],
      "name": "testStruc",
      "outputs": [
        {
          "components": [
            {
              "internalType": "string",
              "name": "name",
              "type": "string"
            }
          ],
          "internalType": "struct LibraryTest.Holder",
          "name": "",
          "type": "tuple"
        }
      ],
      "stateMutability": "pure",
      "type": "function"
    }
  ],
  "bytecode": "0x608060405234801561001057600080fd5b50610b1b806100206000396000f3fe608060405234801561001057600080fd5b50600436106100415760003560e01c80634eaa48a2146100465780636b40634114610076578063ce53152d146100a6575b600080fd5b610060600480360381019061005b919061043b565b6100d6565b60405161006d9190610536565b60405180910390f35b610090600480360381019061008b919061062f565b610162565b60405161009d91906106cc565b60405180910390f35b6100c060048036038101906100bb91906106e7565b6101e6565b6040516100cd919061077a565b60405180910390f35b6100de61026c565b73__LibraryTest___________________________63c7b63f29836040518263ffffffff1660e01b81526004016101159190610810565b600060405180830381865af4158015610132573d6000803e3d6000fd5b505050506040513d6000823e3d601f19601f8201168201806040525081019061015b91906108fa565b9050919050565b600073__LibraryTest___________________________63e198932684846040518363ffffffff1660e01b815260040161019d9291906109a7565b602060405180830381865af41580156101ba573d6000803e3d6000fd5b505050506040513d601f19601f820116820180604052508101906101de9190610a03565b905092915050565b606073__LibraryTest___________________________63f9fbd554836040518263ffffffff1660e01b815260040161021f9190610a7a565b600060405180830381865af415801561023c573d6000803e3d6000fd5b505050506040513d6000823e3d601f19601f820116820180604052508101906102659190610a9c565b9050919050565b6040518060200160405280606081525090565b6000604051905090565b600080fd5b600080fd5b600080fd5b6000601f19601f8301169050919050565b7f4e487b7100000000000000000000000000000000000000000000000000000000600052604160045260246000fd5b6102e182610298565b810181811067ffffffffffffffff82111715610300576102ff6102a9565b5b80604052505050565b600061031361027f565b905061031f82826102d8565b919050565b600080fd5b600080fd5b600080fd5b600067ffffffffffffffff82111561034e5761034d6102a9565b5b61035782610298565b9050602081019050919050565b82818337600083830152505050565b600061038661038184610333565b610309565b9050828152602081018484840111156103a2576103a161032e565b5b6103ad848285610364565b509392505050565b600082601f8301126103ca576103c9610329565b5b81356103da848260208601610373565b91505092915050565b6000602082840312156103f9576103f8610293565b5b6104036020610309565b9050600082013567ffffffffffffffff81111561042357610422610324565b5b61042f848285016103b5565b60008301525092915050565b60006020828403121561045157610450610289565b5b600082013567ffffffffffffffff81111561046f5761046e61028e565b5b61047b848285016103e3565b91505092915050565b600081519050919050565b600082825260208201905092915050565b60005b838110156104be5780820151818401526020810190506104a3565b838111156104cd576000848401525b50505050565b60006104de82610484565b6104e8818561048f565b93506104f88185602086016104a0565b61050181610298565b840191505092915050565b6000602083016000830151848203600086015261052982826104d3565b9150508091505092915050565b60006020820190508181036000830152610550818461050c565b905092915050565b600067ffffffffffffffff821115610573576105726102a9565b5b61057c82610298565b9050602081019050919050565b600061059c61059784610558565b610309565b9050828152602081018484840111156105b8576105b761032e565b5b6105c3848285610364565b509392505050565b600082601f8301126105e0576105df610329565b5b81356105f0848260208601610589565b91505092915050565b6000819050919050565b61060c816105f9565b811461061757600080fd5b50565b60008135905061062981610603565b92915050565b6000806040838503121561064657610645610289565b5b600083013567ffffffffffffffff8111156106645761066361028e565b5b610670858286016105cb565b92505060206106818582860161061a565b9150509250929050565b600073ffffffffffffffffffffffffffffffffffffffff82169050919050565b60006106b68261068b565b9050919050565b6106c6816106ab565b82525050565b60006020820190506106e160008301846106bd565b92915050565b6000602082840312156106fd576106fc610289565b5b600082013567ffffffffffffffff81111561071b5761071a61028e565b5b610727848285016103b5565b91505092915050565b600082825260208201905092915050565b600061074c82610484565b6107568185610730565b93506107668185602086016104a0565b61076f81610298565b840191505092915050565b600060208201905081810360008301526107948184610741565b905092915050565b600082825260208201905092915050565b60006107b882610484565b6107c2818561079c565b93506107d28185602086016104a0565b6107db81610298565b840191505092915050565b6000602083016000830151848203600086015261080382826107ad565b9150508091505092915050565b6000602082019050818103600083015261082a81846107e6565b905092915050565b600061084561084084610333565b610309565b9050828152602081018484840111156108615761086061032e565b5b61086c8482856104a0565b509392505050565b600082601f83011261088957610888610329565b5b8151610899848260208601610832565b91505092915050565b6000602082840312156108b8576108b7610293565b5b6108c26020610309565b9050600082015167ffffffffffffffff8111156108e2576108e1610324565b5b6108ee84828501610874565b60008301525092915050565b6000602082840312156109105761090f610289565b5b600082015167ffffffffffffffff81111561092e5761092d61028e565b5b61093a848285016108a2565b91505092915050565b600081519050919050565b600082825260208201905092915050565b600061096a82610943565b610974818561094e565b93506109848185602086016104a0565b61098d81610298565b840191505092915050565b6109a1816105f9565b82525050565b600060408201905081810360008301526109c1818561095f565b90506109d06020830184610998565b9392505050565b6109e0816106ab565b81146109eb57600080fd5b50565b6000815190506109fd816109d7565b92915050565b600060208284031215610a1957610a18610289565b5b6000610a27848285016109ee565b91505092915050565b600082825260208201905092915050565b6000610a4c82610484565b610a568185610a30565b9350610a668185602086016104a0565b610a6f81610298565b840191505092915050565b60006020820190508181036000830152610a948184610a41565b905092915050565b600060208284031215610ab257610ab1610289565b5b600082015167ffffffffffffffff811115610ad057610acf61028e565b5b610adc84828501610874565b9150509291505056fea2646970667358221220e35279f99276762f8c43ff11e3c7c4ea9f011b9b8758efd192cbe969203b47af64736f6c634300080a0033",
  "immutableReferences": {},
  "source": "pragma solidity 0.8.10;\n\n////      Just for testing purpose.\n\n\n\nlibrary LibraryTest {\n\n    \n\n    struct Holder {\n        string name;\n    }\n\n    function add(string memory _word) internal view returns(string memory) {\n        return _word;\n    }\n\n    function test(string memory _data) external view returns(string memory) {\n        return add(_data);\n    }\n\n    function testStruct(Holder memory _holder) external pure returns(Holder memory) {\n        return _holder;\n    }\n\n    function verifySignature(bytes memory _signature, bytes32 _ethHash) external pure returns (address) {\n\n\n        //(bytes32 r, bytes32 s, uint8 v) = _split(_signature);\n        bytes32 r;\n        bytes32 s;\n        uint8 v;\n\n\n        require(_signature.length == 65, \"0x5f\"); // invalid signature length\n\n        assembly {\n\n            r := mload(add(_signature, 32))\n            s := mload(add(_signature, 64))\n            v := byte(0, mload(add(_signature, 96)))\n           \n\n        }\n\n        require (ecrecover(_ethHash, v, r, s) != address(0), \"0x59\"); // invalid signer\n        return ecrecover(_ethHash, v, r, s);\n\n    }\n\n    function decodeData(bytes memory _encodedSignature) external pure returns (bytes memory, bytes32, bool, bool) {\n        return abi.decode(_encodedSignature, (bytes, bytes32, bool, bool));\n    }\n\n\n}\n\ncontract CallLibrary {\n\n\n    function callString(string memory _word) external view returns (string memory) {\n        return LibraryTest.test(_word);\n    }\n\n    function verify(bytes memory _signature, bytes32 _ethHash) external pure returns (address) {\n        return LibraryTest.verifySignature(_signature, _ethHash);\n    }\n\n    function testStruc(LibraryTest.Holder memory _holder) external pure returns(LibraryTest.Holder memory) {\n        return LibraryTest.testStruct(_holder);\n    }\n\n\n}",
  "sourcePath": "/home/komolehin/Documents/blockchain/TANGLE/security-token/contracts/Test.sol",
  "compiler": {
    "name": "solc",
    "version": "0.8.10+commit.fc410830.Emscripten.clang"
  },
  "schemaVersion": "3.4.6",
  "updatedAt": "2022-04-26T09:47:11.777Z",
  "devdoc": {
    "kind": "dev",
    "methods": {},
    "version": 1
  },
  "userdoc": {
    "kind": "user",
    "methods": {},
    "version": 1
  }
}