{
  "contractName": "Certificate",
  "abi": [
    {
      "inputs": [
        {
          "internalType": "bytes",
          "name": "_data",
          "type": "bytes"
        },
        {
          "internalType": "uint256",
          "name": "_amount",
          "type": "uint256"
        },
        {
          "internalType": "address",
          "name": "_verifyingAddress",
          "type": "address"
        },
        {
          "internalType": "uint256",
          "name": "_nonce",
          "type": "uint256"
        },
        {
          "internalType": "string",
          "name": "_name",
          "type": "string"
        }
      ],
      "name": "returnSigner",
      "outputs": [
        {
          "internalType": "address",
          "name": "",
          "type": "address"
        }
      ],
      "stateMutability": "view",
      "type": "function"
    }
  ],
  "bytecode": "0x610eed610053600b82828239805160001a607314610046577f4e487b7100000000000000000000000000000000000000000000000000000000600052600060045260246000fd5b30600052607381538281f3fe73000000000000000000000000000000000000000030146080604052600436106100355760003560e01c8063c93f23971461003a575b600080fd5b610054600480360381019061004f91906106c2565b61006a565b604051610061919061078d565b60405180910390f35b60008060008060006100bf8c8c8080601f016020809104026020016040519081016040528093929190818152602001838380828437600081840152601f19601f820116905080830192505050505050506101b1565b9350935093509350600061018d6040518060a001604052808c73ffffffffffffffffffffffffffffffffffffffff1681526020016040518060400160405280600181526020017f310000000000000000000000000000000000000000000000000000000000000081525081526020018a8a8080601f016020809104026020016040519081016040528093929190818152602001838380828437600081840152601f19601f82011690508083019250505050505050815260200161053981526020018681525084848e8d6101e8565b9050600061019b8683610289565b9050809650505050505050979650505050505050565b606060006101bd610521565b6101c5610521565b848060200190518101906101d99190610acf565b93509350935093509193509193565b6000807f2408ebdf69a7183c08f5e97e4277df987a6182ce43c17c7ce7826d3451891d889050610217876103b6565b8161022188610437565b61022a88610437565b8787604051602001610240959493929190610ba8565b60405160208183030381529060405280519060200120604051602001610267929190610c73565b6040516020818303038152906040528051906020012091505095945050505050565b600080600080610298866104b9565b925092509250600073ffffffffffffffffffffffffffffffffffffffff16600186838686604051600081526020016040526040516102d99493929190610cc6565b6020604051602081039080840390855afa1580156102fb573d6000803e3d6000fd5b5050506020604051035173ffffffffffffffffffffffffffffffffffffffff16141561035c576040517f08c379a000000000000000000000000000000000000000000000000000000000815260040161035390610d68565b60405180910390fd5b6001858285856040516000815260200160405260405161037f9493929190610cc6565b6020604051602081039080840390855afa1580156103a1573d6000803e3d6000fd5b50505060206040510351935050505092915050565b6000807fd87cd6ef79d4e2b95e15ce8abf732db51ec771f1ca2edccf22a46c729ac5647290508083604001518051906020012084602001518051906020012085606001518660000151876080015160405160200161041996959493929190610d97565b60405160208183030381529060405280519060200120915050919050565b6000807fdebebf0c3f435e851b79f957a72d453bb5f1901a18d643317f7cab8877565926905080836000015180519060200120846020015180519060200120856040015180519060200120866060015160405160200161049b959493929190610df8565b60405160208183030381529060405280519060200120915050919050565b60008060006041845114610502576040517f08c379a00000000000000000000000000000000000000000000000000000000081526004016104f990610e97565b60405180910390fd5b6020840151925060408401519150606084015160001a90509193909250565b6040518060800160405280606081526020016060815260200160608152602001600073ffffffffffffffffffffffffffffffffffffffff1681525090565b6000604051905090565b600080fd5b600080fd5b600080fd5b600080fd5b600080fd5b60008083601f84011261059857610597610573565b5b8235905067ffffffffffffffff8111156105b5576105b4610578565b5b6020830191508360018202830111156105d1576105d061057d565b5b9250929050565b6000819050919050565b6105eb816105d8565b81146105f657600080fd5b50565b600081359050610608816105e2565b92915050565b600073ffffffffffffffffffffffffffffffffffffffff82169050919050565b60006106398261060e565b9050919050565b6106498161062e565b811461065457600080fd5b50565b60008135905061066681610640565b92915050565b60008083601f84011261068257610681610573565b5b8235905067ffffffffffffffff81111561069f5761069e610578565b5b6020830191508360018202830111156106bb576106ba61057d565b5b9250929050565b600080600080600080600060a0888a0312156106e1576106e0610569565b5b600088013567ffffffffffffffff8111156106ff576106fe61056e565b5b61070b8a828b01610582565b9750975050602061071e8a828b016105f9565b955050604061072f8a828b01610657565b94505060606107408a828b016105f9565b935050608088013567ffffffffffffffff8111156107615761076061056e565b5b61076d8a828b0161066c565b925092505092959891949750929550565b6107878161062e565b82525050565b60006020820190506107a2600083018461077e565b92915050565b600080fd5b6000601f19601f8301169050919050565b7f4e487b7100000000000000000000000000000000000000000000000000000000600052604160045260246000fd5b6107f6826107ad565b810181811067ffffffffffffffff82111715610815576108146107be565b5b80604052505050565b600061082861055f565b905061083482826107ed565b919050565b600067ffffffffffffffff821115610854576108536107be565b5b61085d826107ad565b9050602081019050919050565b60005b8381101561088857808201518184015260208101905061086d565b83811115610897576000848401525b50505050565b60006108b06108ab84610839565b61081e565b9050828152602081018484840111156108cc576108cb6107a8565b5b6108d784828561086a565b509392505050565b600082601f8301126108f4576108f3610573565b5b815161090484826020860161089d565b91505092915050565b6000819050919050565b6109208161090d565b811461092b57600080fd5b50565b60008151905061093d81610917565b92915050565b600080fd5b600080fd5b600067ffffffffffffffff821115610968576109676107be565b5b610971826107ad565b9050602081019050919050565b600061099161098c8461094d565b61081e565b9050828152602081018484840111156109ad576109ac6107a8565b5b6109b884828561086a565b509392505050565b600082601f8301126109d5576109d4610573565b5b81516109e584826020860161097e565b91505092915050565b6000815190506109fd81610640565b92915050565b600060808284031215610a1957610a18610943565b5b610a23608061081e565b9050600082015167ffffffffffffffff811115610a4357610a42610948565b5b610a4f848285016109c0565b600083015250602082015167ffffffffffffffff811115610a7357610a72610948565b5b610a7f848285016109c0565b602083015250604082015167ffffffffffffffff811115610aa357610aa2610948565b5b610aaf848285016109c0565b6040830152506060610ac3848285016109ee565b60608301525092915050565b60008060008060808587031215610ae957610ae8610569565b5b600085015167ffffffffffffffff811115610b0757610b0661056e565b5b610b13878288016108df565b9450506020610b248782880161092e565b935050604085015167ffffffffffffffff811115610b4557610b4461056e565b5b610b5187828801610a03565b925050606085015167ffffffffffffffff811115610b7257610b7161056e565b5b610b7e87828801610a03565b91505092959194509250565b610b938161090d565b82525050565b610ba2816105d8565b82525050565b600060a082019050610bbd6000830188610b8a565b610bca6020830187610b8a565b610bd76040830186610b8a565b610be46060830185610b99565b610bf16080830184610b99565b9695505050505050565b600081905092915050565b7f1901000000000000000000000000000000000000000000000000000000000000600082015250565b6000610c3c600283610bfb565b9150610c4782610c06565b600282019050919050565b6000819050919050565b610c6d610c688261090d565b610c52565b82525050565b6000610c7e82610c2f565b9150610c8a8285610c5c565b602082019150610c9a8284610c5c565b6020820191508190509392505050565b600060ff82169050919050565b610cc081610caa565b82525050565b6000608082019050610cdb6000830187610b8a565b610ce86020830186610cb7565b610cf56040830185610b8a565b610d026060830184610b8a565b95945050505050565b600082825260208201905092915050565b7f3078353900000000000000000000000000000000000000000000000000000000600082015250565b6000610d52600483610d0b565b9150610d5d82610d1c565b602082019050919050565b60006020820190508181036000830152610d8181610d45565b9050919050565b610d918161062e565b82525050565b600060c082019050610dac6000830189610b8a565b610db96020830188610b8a565b610dc66040830187610b8a565b610dd36060830186610b99565b610de06080830185610d88565b610ded60a0830184610b8a565b979650505050505050565b600060a082019050610e0d6000830188610b8a565b610e1a6020830187610b8a565b610e276040830186610b8a565b610e346060830185610b8a565b610e416080830184610d88565b9695505050505050565b7f3078356600000000000000000000000000000000000000000000000000000000600082015250565b6000610e81600483610d0b565b9150610e8c82610e4b565b602082019050919050565b60006020820190508181036000830152610eb081610e74565b905091905056fea26469706673582212206e04e04e83c14f2af345a5808c818f02038413019e19746a16056b336e74b4d464736f6c634300080a0033",
  "immutableReferences": {},
  "source": "pragma solidity 0.8.10;\n\n\nlibrary Certificate {\n\n\n    struct Holder {\n\n        string firstName;\n        string lastName;\n        string location;\n        address walletAddress;\n        \n        \n    }\n\n\n    struct TransferData {\n\n        Holder from;\n        Holder to;\n        uint256 amount;\n        uint256 nonce;\n\n    }\n\n    struct DomainData {\n\n        address verifyingContract;\n        string version;\n        string name;\n        uint256 chainId;\n        bytes32 salt;\n\n    }\n   \n    /// @notice this function generates hashes the domain separator for the signature\n    /// @dev Enclose the strings in bytes during encoding\n    \n\n    function generateDomainSepartor(DomainData memory _domainData) internal pure returns (bytes32) {\n\n        bytes32 EIP712_DOMAIN_HASH_TYPE = keccak256(\"EIP712Domain(string name,string version,uint256 chainId,address verifyingContract,bytes32 salt)\");\n\n        return keccak256(abi.encode(\n            EIP712_DOMAIN_HASH_TYPE,\n            keccak256(bytes(_domainData.name)),\n            keccak256(bytes(_domainData.version)),\n            _domainData.chainId,\n            _domainData.verifyingContract,\n            _domainData.salt\n        ));\n    }\n\n\n    function hashHolder(Holder memory _holder) internal pure returns (bytes32) {\n\n        bytes32 HOLDER_TYPED_HASH = keccak256(\"Holder(string firstName,string lastName,string location,address walletAddress)\");\n        return keccak256(abi.encode(HOLDER_TYPED_HASH, keccak256(bytes(_holder.firstName)),  keccak256(bytes(_holder.lastName)), keccak256(bytes(_holder.location)), _holder.walletAddress));\n        \n    }\n\n\n\n    /// @notice this function generates the signed signature prefixed with \\x19\\x01. The result will be used to verify the signer\n    /// @param  _from The struct of the account to be debited\n    /// @param  _to The struct of the account to be credited\n   \n\n    function hashTransfer(DomainData memory _domainData, Holder memory _from, Holder memory _to, uint256 _amount, uint256 _nonce) internal pure returns (bytes32) {\n        \n        bytes32 TRANSFER_TYPED_HASH = keccak256(\"TransferData(Holder from,Holder to,uint256 amount,uint256 nonce)Holder(string firstName,string lastName,string location,address walletAddress)\");\n        \n        return keccak256(\n            abi.encodePacked(\n            \"\\x19\\x01\", \n                generateDomainSepartor(_domainData),\n                keccak256(abi.encode(\n                    TRANSFER_TYPED_HASH,\n                    hashHolder(_from),\n                    hashHolder(_to),\n                    _amount,\n                    _nonce\n                ))\n\n            ));\n    }\n\n\n\n    // @notice This function computes the r s v value of a signature\n    // @param _signature The data generated from the signed Typed data \n    // @return r s v values\n    \n\n    function _split(bytes memory _signature) internal pure returns (bytes32 r, bytes32 s, uint8 v) {\n\n        require(_signature.length == 65, \"0x5f\"); // invalid signature length\n\n        assembly {\n\n            r := mload(add(_signature, 32))\n            s := mload(add(_signature, 64))\n            v := byte(0, mload(add(_signature, 96)))\n           \n\n        }\n\n    }\n\n    /// @notice verify the signer of a signature using the prefixed signed hash\n    /// @param _signature The data generated from the signed Typed data \n    /// @param _ethHash The prefixed signature generated by the contract\n    /// @return the address of the signer\n\n    function verifySignature(bytes memory _signature, bytes32 _ethHash) internal pure returns (address) {\n\n\n        (bytes32 r, bytes32 s, uint8 v) = _split(_signature);\n\n        require (ecrecover(_ethHash, v, r, s) != address(0), \"0x59\"); // invalid signer\n        return ecrecover(_ethHash, v, r, s);\n\n    }\n\n\n    /// @notice decode the typed signature bytes data and the hash bytes32 data from the encoded data\n    /// @param _encodedDataWithSignature The encoded data containing the signature and the signature hash \n    /// @return the signature and the hash\n\n    function decodeData(bytes memory _encodedDataWithSignature) private pure returns (bytes memory, bytes32, Holder memory, Holder memory) {\n        \n        return abi.decode(_encodedDataWithSignature, (bytes, bytes32, Holder, Holder));\n\n    }\n\n\n\n    function returnSigner(bytes calldata _data, uint256 _amount, address _verifyingAddress, uint256 _nonce, string calldata _name) external view returns (address) {\n\n        (bytes memory _signature, bytes32 _salt, Holder memory _from, Holder memory _to) = decodeData(_data);\n         \n        bytes32 _prefixedHash = hashTransfer(DomainData(_verifyingAddress, \"1\", _name, 1337, _salt), _from, _to, _amount, _nonce);\n        address _signer = verifySignature(_signature, _prefixedHash);\n        \n        return _signer;\n\n    }\n\n   \n}",
  "sourcePath": "/home/komolehin/Documents/blockchain/TANGLE/security-token/contracts/utils/CertificateLibrary.sol",
  "compiler": {
    "name": "solc",
    "version": "0.8.10+commit.fc410830.Emscripten.clang"
  },
  "schemaVersion": "3.4.6",
  "updatedAt": "2022-05-12T22:30:36.816Z",
  "devdoc": {
    "kind": "dev",
    "methods": {},
    "version": 1
  },
  "userdoc": {
    "kind": "user",
    "methods": {},
    "version": 1
  }
}