{
  "contractName": "Certificate",
  "abi": [
    {
      "inputs": [],
      "name": "hashedSignature",
      "outputs": [
        {
          "internalType": "bytes32",
          "name": "",
          "type": "bytes32"
        }
      ],
      "stateMutability": "view",
      "type": "function"
    },
    {
      "inputs": [],
      "name": "messageToSign",
      "outputs": [
        {
          "internalType": "bytes32",
          "name": "",
          "type": "bytes32"
        }
      ],
      "stateMutability": "view",
      "type": "function"
    },
    {
      "inputs": [],
      "name": "returnedSigner",
      "outputs": [
        {
          "internalType": "address",
          "name": "",
          "type": "address"
        }
      ],
      "stateMutability": "view",
      "type": "function"
    },
    {
      "inputs": [
        {
          "internalType": "string",
          "name": "_message",
          "type": "string"
        }
      ],
      "name": "generateMessageHash",
      "outputs": [
        {
          "internalType": "bytes32",
          "name": "",
          "type": "bytes32"
        }
      ],
      "stateMutability": "nonpayable",
      "type": "function"
    },
    {
      "inputs": [
        {
          "internalType": "bytes32",
          "name": "_messageHash",
          "type": "bytes32"
        }
      ],
      "name": "generateEthSignHash",
      "outputs": [
        {
          "internalType": "bytes32",
          "name": "",
          "type": "bytes32"
        }
      ],
      "stateMutability": "nonpayable",
      "type": "function"
    },
    {
      "inputs": [
        {
          "internalType": "bytes",
          "name": "_signature",
          "type": "bytes"
        }
      ],
      "name": "_split",
      "outputs": [
        {
          "internalType": "bytes32",
          "name": "r",
          "type": "bytes32"
        },
        {
          "internalType": "bytes32",
          "name": "s",
          "type": "bytes32"
        },
        {
          "internalType": "uint8",
          "name": "v",
          "type": "uint8"
        }
      ],
      "stateMutability": "nonpayable",
      "type": "function"
    },
    {
      "inputs": [
        {
          "internalType": "bytes32",
          "name": "_signedHash",
          "type": "bytes32"
        },
        {
          "internalType": "bytes",
          "name": "_signature",
          "type": "bytes"
        }
      ],
      "name": "verifySignature",
      "outputs": [
        {
          "internalType": "address",
          "name": "",
          "type": "address"
        }
      ],
      "stateMutability": "nonpayable",
      "type": "function"
    }
  ],
  "bytecode": "0x608060405234801561001057600080fd5b50610998806100206000396000f3fe608060405234801561001057600080fd5b506004361061007d5760003560e01c806376578fc21161005b57806376578fc2146100ee578063b120db321461011e578063daca6f781461013c578063e15a245a1461016c5761007d565b806336049492146100825780633ce5e7f8146100a05780636e87bdab146100be575b600080fd5b61008a61019e565b6040516100979190610398565b60405180910390f35b6100a86101c4565b6040516100b591906103cc565b60405180910390f35b6100d860048036038101906100d39190610541565b6101ca565b6040516100e591906103cc565b60405180910390f35b610108600480360381019061010391906105b6565b610203565b60405161011591906103cc565b60405180910390f35b61012661023c565b60405161013391906103cc565b60405180910390f35b61015660048036038101906101519190610684565b610242565b6040516101639190610398565b60405180910390f35b610186600480360381019061018191906106e0565b6102ef565b60405161019593929190610745565b60405180910390f35b600260009054906101000a900473ffffffffffffffffffffffffffffffffffffffff1681565b60015481565b6000816040516020016101dd91906107f6565b604051602081830303815290604052805190602001206000819055506000549050919050565b600081604051602001610216919061087a565b604051602081830303815290604052805190602001206001819055506001549050919050565b60005481565b600080600080610251856102ef565b9250925092506001868285856040516000815260200160405260405161027a94939291906108a0565b6020604051602081039080840390855afa15801561029c573d6000803e3d6000fd5b50505060206040510351600260006101000a81548173ffffffffffffffffffffffffffffffffffffffff021916908373ffffffffffffffffffffffffffffffffffffffff16021790555050505092915050565b60008060006041845114610338576040517f08c379a000000000000000000000000000000000000000000000000000000000815260040161032f90610942565b60405180910390fd5b6020840151925060408401519150606084015160001a90509193909250565b600073ffffffffffffffffffffffffffffffffffffffff82169050919050565b600061038282610357565b9050919050565b61039281610377565b82525050565b60006020820190506103ad6000830184610389565b92915050565b6000819050919050565b6103c6816103b3565b82525050565b60006020820190506103e160008301846103bd565b92915050565b6000604051905090565b600080fd5b600080fd5b600080fd5b600080fd5b6000601f19601f8301169050919050565b7f4e487b7100000000000000000000000000000000000000000000000000000000600052604160045260246000fd5b61044e82610405565b810181811067ffffffffffffffff8211171561046d5761046c610416565b5b80604052505050565b60006104806103e7565b905061048c8282610445565b919050565b600067ffffffffffffffff8211156104ac576104ab610416565b5b6104b582610405565b9050602081019050919050565b82818337600083830152505050565b60006104e46104df84610491565b610476565b905082815260208101848484011115610500576104ff610400565b5b61050b8482856104c2565b509392505050565b600082601f830112610528576105276103fb565b5b81356105388482602086016104d1565b91505092915050565b600060208284031215610557576105566103f1565b5b600082013567ffffffffffffffff811115610575576105746103f6565b5b61058184828501610513565b91505092915050565b610593816103b3565b811461059e57600080fd5b50565b6000813590506105b08161058a565b92915050565b6000602082840312156105cc576105cb6103f1565b5b60006105da848285016105a1565b91505092915050565b600067ffffffffffffffff8211156105fe576105fd610416565b5b61060782610405565b9050602081019050919050565b6000610627610622846105e3565b610476565b90508281526020810184848401111561064357610642610400565b5b61064e8482856104c2565b509392505050565b600082601f83011261066b5761066a6103fb565b5b813561067b848260208601610614565b91505092915050565b6000806040838503121561069b5761069a6103f1565b5b60006106a9858286016105a1565b925050602083013567ffffffffffffffff8111156106ca576106c96103f6565b5b6106d685828601610656565b9150509250929050565b6000602082840312156106f6576106f56103f1565b5b600082013567ffffffffffffffff811115610714576107136103f6565b5b61072084828501610656565b91505092915050565b600060ff82169050919050565b61073f81610729565b82525050565b600060608201905061075a60008301866103bd565b61076760208301856103bd565b6107746040830184610736565b949350505050565b600081519050919050565b600081905092915050565b60005b838110156107b0578082015181840152602081019050610795565b838111156107bf576000848401525b50505050565b60006107d08261077c565b6107da8185610787565b93506107ea818560208601610792565b80840191505092915050565b600061080282846107c5565b915081905092915050565b7f19457468657265756d205369676e6564204d6573736167653a0a333200000000600082015250565b6000610843601c83610787565b915061084e8261080d565b601c82019050919050565b6000819050919050565b61087461086f826103b3565b610859565b82525050565b600061088582610836565b91506108918284610863565b60208201915081905092915050565b60006080820190506108b560008301876103bd565b6108c26020830186610736565b6108cf60408301856103bd565b6108dc60608301846103bd565b95945050505050565b600082825260208201905092915050565b7f696e76616c6964207369676e6174757265206c656e6774680000000000000000600082015250565b600061092c6018836108e5565b9150610937826108f6565b602082019050919050565b6000602082019050818103600083015261095b8161091f565b905091905056fea2646970667358221220a3a400556601ce52a8392675723842bc032b1b1c66487948837c3c78d84f196c64736f6c634300080a0033",
  "immutableReferences": {},
  "source": "pragma solidity 0.8.10;\r\n\r\n\r\n\r\n\r\ncontract Certificate {\r\n\r\n    //  this contract is to test data how data signature and signature verification works\r\n\r\n    //  ********************** steps *************************************** //\r\n\r\n    //  1. Have the message (structured data should be EIP 712 standard)\r\n    //  2. Hash the Message\r\n    //  3. Sign the hashed Message\r\n    //  4. Hash the hashed message by prefixing it with \"\\x19Ethereum Signed Message:\\n32\"\r\n    //  5. Verify the signer using the hash gotten in 4 and the signature\r\n\r\n\r\n    bytes32 public messageToSign;\r\n    bytes32 public hashedSignature;\r\n    address public returnedSigner;\r\n\r\n\r\n    // generate the message hash\r\n\r\n    function generateMessageHash(string memory _message) public returns (bytes32) {\r\n\r\n\r\n        messageToSign = keccak256(abi.encodePacked(_message));\r\n        return messageToSign;\r\n\r\n    }\r\n\r\n    //  generate a signed hash of the message hash\r\n\r\n    function generateEthSignHash(bytes32 _messageHash) public returns (bytes32) {\r\n\r\n        hashedSignature =  keccak256(abi.encodePacked(\r\n            \"\\x19Ethereum Signed Message:\\n32\",\r\n            _messageHash\r\n        ));\r\n\r\n        return hashedSignature;\r\n\r\n    }\r\n\r\n\r\n    function _split(bytes memory _signature) public returns (bytes32 r, bytes32 s, uint8 v) {\r\n\r\n        require(_signature.length == 65, \"invalid signature length\");\r\n\r\n        assembly {\r\n\r\n            r := mload(add(_signature, 32))\r\n            s := mload(add(_signature, 64))\r\n            v := byte(0, mload(add(_signature, 96)))\r\n\r\n        }\r\n\r\n    }\r\n\r\n    // verify the signer using the ethereum signed hash and the signature\r\n\r\n    function verifySignature(bytes32 _signedHash, bytes memory _signature) public returns (address) {\r\n\r\n            (bytes32 r, bytes32 s, uint8 v) = _split(_signature);\r\n\r\n            returnedSigner = ecrecover(_signedHash, v, r, s);\r\n\r\n    }\r\n\r\n\r\n}",
  "sourcePath": "C:\\Users\\Uju Nobei\\Documents\\Israel Linux\\blockchain\\TANGL\\security token\\contracts\\SignatureVerification.sol",
  "compiler": {
    "name": "solc",
    "version": "0.8.10+commit.fc410830.Emscripten.clang"
  },
  "schemaVersion": "3.4.3",
  "updatedAt": "2022-02-14T20:37:29.494Z",
  "devdoc": {
    "kind": "dev",
    "methods": {},
    "version": 1
  },
  "userdoc": {
    "kind": "user",
    "methods": {},
    "version": 1
  }
}