{
  "contractName": "Certificate",
  "abi": [
    {
      "inputs": [
        {
          "internalType": "bytes",
          "name": "_encodedDataWithSignature",
          "type": "bytes"
        }
      ],
      "name": "decodeData",
      "outputs": [
        {
          "internalType": "bytes",
          "name": "",
          "type": "bytes"
        },
        {
          "internalType": "bytes32",
          "name": "",
          "type": "bytes32"
        },
        {
          "internalType": "uint256",
          "name": "",
          "type": "uint256"
        },
        {
          "components": [
            {
              "internalType": "string",
              "name": "firstName",
              "type": "string"
            },
            {
              "internalType": "string",
              "name": "lastName",
              "type": "string"
            },
            {
              "internalType": "string",
              "name": "location",
              "type": "string"
            },
            {
              "internalType": "address",
              "name": "walletAddress",
              "type": "address"
            }
          ],
          "internalType": "struct Certificate.Holder",
          "name": "",
          "type": "tuple"
        },
        {
          "components": [
            {
              "internalType": "string",
              "name": "firstName",
              "type": "string"
            },
            {
              "internalType": "string",
              "name": "lastName",
              "type": "string"
            },
            {
              "internalType": "string",
              "name": "location",
              "type": "string"
            },
            {
              "internalType": "address",
              "name": "walletAddress",
              "type": "address"
            }
          ],
          "internalType": "struct Certificate.Holder",
          "name": "",
          "type": "tuple"
        }
      ],
      "stateMutability": "pure",
      "type": "function",
      "constant": true
    },
    {
      "inputs": [
        {
          "internalType": "bytes",
          "name": "_signature",
          "type": "bytes"
        },
        {
          "internalType": "bytes32",
          "name": "_salt",
          "type": "bytes32"
        },
        {
          "internalType": "uint256",
          "name": "_nonce",
          "type": "uint256"
        },
        {
          "components": [
            {
              "internalType": "string",
              "name": "firstName",
              "type": "string"
            },
            {
              "internalType": "string",
              "name": "lastName",
              "type": "string"
            },
            {
              "internalType": "string",
              "name": "location",
              "type": "string"
            },
            {
              "internalType": "address",
              "name": "walletAddress",
              "type": "address"
            }
          ],
          "internalType": "struct Certificate.Holder",
          "name": "_from",
          "type": "tuple"
        },
        {
          "components": [
            {
              "internalType": "string",
              "name": "firstName",
              "type": "string"
            },
            {
              "internalType": "string",
              "name": "lastName",
              "type": "string"
            },
            {
              "internalType": "string",
              "name": "location",
              "type": "string"
            },
            {
              "internalType": "address",
              "name": "walletAddress",
              "type": "address"
            }
          ],
          "internalType": "struct Certificate.Holder",
          "name": "_to",
          "type": "tuple"
        },
        {
          "internalType": "uint256",
          "name": "_amount",
          "type": "uint256"
        },
        {
          "internalType": "address",
          "name": "_verifyingAddress",
          "type": "address"
        },
        {
          "internalType": "string",
          "name": "_name",
          "type": "string"
        }
      ],
      "name": "returnSigner",
      "outputs": [
        {
          "internalType": "address",
          "name": "",
          "type": "address"
        }
      ],
      "stateMutability": "pure",
      "type": "function",
      "constant": true
    }
  ],
  "bytecode": "0x61137d610053600b82828239805160001a607314610046577f4e487b7100000000000000000000000000000000000000000000000000000000600052600060045260246000fd5b30600052607381538281f3fe73000000000000000000000000000000000000000030146080604052600436106100405760003560e01c8063447a06f514610045578063e4268d9214610079575b600080fd5b61005f600480360381019061005a91906106e4565b6100a9565b6040516100709594939291906108ee565b60405180910390f35b610093600480360381019061008e9190610c07565b6100e5565b6040516100a09190610d45565b60405180910390f35b60606000806100b661054c565b6100be61054c565b858060200190518101906100d29190610f4b565b9450945094509450945091939590929450565b6000806101ac6040518060a001604052808773ffffffffffffffffffffffffffffffffffffffff1681526020016040518060400160405280600181526020017f3100000000000000000000000000000000000000000000000000000000000000815250815260200186868080601f016020809104026020016040519081016040528093929190818152602001838380828437600081840152601f19601f82011690508083019250505050505050815260200161053981526020018c8152508989898d610213565b905060006101fe8d8d8080601f016020809104026020016040519081016040528093929190818152602001838380828437600081840152601f19601f82011690508083019250505050505050836102b4565b905080925050509a9950505050505050505050565b6000807f2408ebdf69a7183c08f5e97e4277df987a6182ce43c17c7ce7826d3451891d889050610242876103e1565b8161024c88610462565b61025588610462565b878760405160200161026b959493929190611038565b60405160208183030381529060405280519060200120604051602001610292929190611103565b6040516020818303038152906040528051906020012091505095945050505050565b6000806000806102c3866104e4565b925092509250600073ffffffffffffffffffffffffffffffffffffffff16600186838686604051600081526020016040526040516103049493929190611156565b6020604051602081039080840390855afa158015610326573d6000803e3d6000fd5b5050506020604051035173ffffffffffffffffffffffffffffffffffffffff161415610387576040517f08c379a000000000000000000000000000000000000000000000000000000000815260040161037e906111f8565b60405180910390fd5b600185828585604051600081526020016040526040516103aa9493929190611156565b6020604051602081039080840390855afa1580156103cc573d6000803e3d6000fd5b50505060206040510351935050505092915050565b6000807fd87cd6ef79d4e2b95e15ce8abf732db51ec771f1ca2edccf22a46c729ac5647290508083604001518051906020012084602001518051906020012085606001518660000151876080015160405160200161044496959493929190611227565b60405160208183030381529060405280519060200120915050919050565b6000807fdebebf0c3f435e851b79f957a72d453bb5f1901a18d643317f7cab887756592690508083600001518051906020012084602001518051906020012085604001518051906020012086606001516040516020016104c6959493929190611288565b60405160208183030381529060405280519060200120915050919050565b6000806000604184511461052d576040517f08c379a000000000000000000000000000000000000000000000000000000000815260040161052490611327565b60405180910390fd5b6020840151925060408401519150606084015160001a90509193909250565b6040518060800160405280606081526020016060815260200160608152602001600073ffffffffffffffffffffffffffffffffffffffff1681525090565b6000604051905090565b600080fd5b600080fd5b600080fd5b600080fd5b6000601f19601f8301169050919050565b7f4e487b7100000000000000000000000000000000000000000000000000000000600052604160045260246000fd5b6105f1826105a8565b810181811067ffffffffffffffff821117156106105761060f6105b9565b5b80604052505050565b600061062361058a565b905061062f82826105e8565b919050565b600067ffffffffffffffff82111561064f5761064e6105b9565b5b610658826105a8565b9050602081019050919050565b82818337600083830152505050565b600061068761068284610634565b610619565b9050828152602081018484840111156106a3576106a26105a3565b5b6106ae848285610665565b509392505050565b600082601f8301126106cb576106ca61059e565b5b81356106db848260208601610674565b91505092915050565b6000602082840312156106fa576106f9610594565b5b600082013567ffffffffffffffff81111561071857610717610599565b5b610724848285016106b6565b91505092915050565b600081519050919050565b600082825260208201905092915050565b60005b8381101561076757808201518184015260208101905061074c565b83811115610776576000848401525b50505050565b60006107878261072d565b6107918185610738565b93506107a1818560208601610749565b6107aa816105a8565b840191505092915050565b6000819050919050565b6107c8816107b5565b82525050565b6000819050919050565b6107e1816107ce565b82525050565b600081519050919050565b600082825260208201905092915050565b600061080e826107e7565b61081881856107f2565b9350610828818560208601610749565b610831816105a8565b840191505092915050565b600073ffffffffffffffffffffffffffffffffffffffff82169050919050565b60006108678261083c565b9050919050565b6108778161085c565b82525050565b6000608083016000830151848203600086015261089a8282610803565b915050602083015184820360208601526108b48282610803565b915050604083015184820360408601526108ce8282610803565b91505060608301516108e3606086018261086e565b508091505092915050565b600060a0820190508181036000830152610908818861077c565b905061091760208301876107bf565b61092460408301866107d8565b8181036060830152610936818561087d565b9050818103608083015261094a818461087d565b90509695505050505050565b600080fd5b600080fd5b60008083601f8401126109765761097561059e565b5b8235905067ffffffffffffffff81111561099357610992610956565b5b6020830191508360018202830111156109af576109ae61095b565b5b9250929050565b6109bf816107b5565b81146109ca57600080fd5b50565b6000813590506109dc816109b6565b92915050565b6109eb816107ce565b81146109f657600080fd5b50565b600081359050610a08816109e2565b92915050565b600080fd5b600080fd5b600067ffffffffffffffff821115610a3357610a326105b9565b5b610a3c826105a8565b9050602081019050919050565b6000610a5c610a5784610a18565b610619565b905082815260208101848484011115610a7857610a776105a3565b5b610a83848285610665565b509392505050565b600082601f830112610aa057610a9f61059e565b5b8135610ab0848260208601610a49565b91505092915050565b610ac28161085c565b8114610acd57600080fd5b50565b600081359050610adf81610ab9565b92915050565b600060808284031215610afb57610afa610a0e565b5b610b056080610619565b9050600082013567ffffffffffffffff811115610b2557610b24610a13565b5b610b3184828501610a8b565b600083015250602082013567ffffffffffffffff811115610b5557610b54610a13565b5b610b6184828501610a8b565b602083015250604082013567ffffffffffffffff811115610b8557610b84610a13565b5b610b9184828501610a8b565b6040830152506060610ba584828501610ad0565b60608301525092915050565b60008083601f840112610bc757610bc661059e565b5b8235905067ffffffffffffffff811115610be457610be3610956565b5b602083019150836001820283011115610c0057610bff61095b565b5b9250929050565b6000806000806000806000806000806101008b8d031215610c2b57610c2a610594565b5b60008b013567ffffffffffffffff811115610c4957610c48610599565b5b610c558d828e01610960565b9a509a50506020610c688d828e016109cd565b9850506040610c798d828e016109f9565b97505060608b013567ffffffffffffffff811115610c9a57610c99610599565b5b610ca68d828e01610ae5565b96505060808b013567ffffffffffffffff811115610cc757610cc6610599565b5b610cd38d828e01610ae5565b95505060a0610ce48d828e016109f9565b94505060c0610cf58d828e01610ad0565b93505060e08b013567ffffffffffffffff811115610d1657610d15610599565b5b610d228d828e01610bb1565b92509250509295989b9194979a5092959850565b610d3f8161085c565b82525050565b6000602082019050610d5a6000830184610d36565b92915050565b6000610d73610d6e84610634565b610619565b905082815260208101848484011115610d8f57610d8e6105a3565b5b610d9a848285610749565b509392505050565b600082601f830112610db757610db661059e565b5b8151610dc7848260208601610d60565b91505092915050565b600081519050610ddf816109b6565b92915050565b600081519050610df4816109e2565b92915050565b6000610e0d610e0884610a18565b610619565b905082815260208101848484011115610e2957610e286105a3565b5b610e34848285610749565b509392505050565b600082601f830112610e5157610e5061059e565b5b8151610e61848260208601610dfa565b91505092915050565b600081519050610e7981610ab9565b92915050565b600060808284031215610e9557610e94610a0e565b5b610e9f6080610619565b9050600082015167ffffffffffffffff811115610ebf57610ebe610a13565b5b610ecb84828501610e3c565b600083015250602082015167ffffffffffffffff811115610eef57610eee610a13565b5b610efb84828501610e3c565b602083015250604082015167ffffffffffffffff811115610f1f57610f1e610a13565b5b610f2b84828501610e3c565b6040830152506060610f3f84828501610e6a565b60608301525092915050565b600080600080600060a08688031215610f6757610f66610594565b5b600086015167ffffffffffffffff811115610f8557610f84610599565b5b610f9188828901610da2565b9550506020610fa288828901610dd0565b9450506040610fb388828901610de5565b935050606086015167ffffffffffffffff811115610fd457610fd3610599565b5b610fe088828901610e7f565b925050608086015167ffffffffffffffff81111561100157611000610599565b5b61100d88828901610e7f565b9150509295509295909350565b611023816107b5565b82525050565b611032816107ce565b82525050565b600060a08201905061104d600083018861101a565b61105a602083018761101a565b611067604083018661101a565b6110746060830185611029565b6110816080830184611029565b9695505050505050565b600081905092915050565b7f1901000000000000000000000000000000000000000000000000000000000000600082015250565b60006110cc60028361108b565b91506110d782611096565b600282019050919050565b6000819050919050565b6110fd6110f8826107b5565b6110e2565b82525050565b600061110e826110bf565b915061111a82856110ec565b60208201915061112a82846110ec565b6020820191508190509392505050565b600060ff82169050919050565b6111508161113a565b82525050565b600060808201905061116b600083018761101a565b6111786020830186611147565b611185604083018561101a565b611192606083018461101a565b95945050505050565b600082825260208201905092915050565b7f3078353900000000000000000000000000000000000000000000000000000000600082015250565b60006111e260048361119b565b91506111ed826111ac565b602082019050919050565b60006020820190508181036000830152611211816111d5565b9050919050565b6112218161085c565b82525050565b600060c08201905061123c600083018961101a565b611249602083018861101a565b611256604083018761101a565b6112636060830186611029565b6112706080830185611218565b61127d60a083018461101a565b979650505050505050565b600060a08201905061129d600083018861101a565b6112aa602083018761101a565b6112b7604083018661101a565b6112c4606083018561101a565b6112d16080830184611218565b9695505050505050565b7f3078356600000000000000000000000000000000000000000000000000000000600082015250565b600061131160048361119b565b915061131c826112db565b602082019050919050565b6000602082019050818103600083015261134081611304565b905091905056fea26469706673582212205e745fbdeab4a3054a0cd9ac58e451e9267612fd283eb35c096f6beebfce469364736f6c634300080a0033",
  "immutableReferences": {},
  "source": "pragma solidity 0.8.10;\n\n//  SPDX-License-Identifier: UNLICENSED\n\n\nlibrary Certificate {\n\n\n    struct Holder {\n\n        string firstName;\n        string lastName;\n        string location;\n        address walletAddress;\n        \n        \n    }\n\n\n    struct TransferData {\n\n        Holder from;\n        Holder to;\n        uint256 amount;\n        uint256 nonce;\n\n    }\n\n    struct DomainData {\n\n        address verifyingContract;\n        string version;\n        string name;\n        uint256 chainId;\n        bytes32 salt;\n\n    }\n   \n    /// @notice this function generates hashes the domain separator for the signature\n    /// @dev Enclose the strings in bytes during encoding\n    \n\n    function generateDomainSepartor(DomainData memory _domainData) internal pure returns (bytes32) {\n\n        bytes32 EIP712_DOMAIN_HASH_TYPE = keccak256(\"EIP712Domain(string name,string version,uint256 chainId,address verifyingContract,bytes32 salt)\");\n\n        return keccak256(abi.encode(\n            EIP712_DOMAIN_HASH_TYPE,\n            keccak256(bytes(_domainData.name)),\n            keccak256(bytes(_domainData.version)),\n            _domainData.chainId,\n            _domainData.verifyingContract,\n            _domainData.salt\n        ));\n    }\n\n\n    function hashHolder(Holder memory _holder) internal pure returns (bytes32) {\n\n        bytes32 HOLDER_TYPED_HASH = keccak256(\"Holder(string firstName,string lastName,string location,address walletAddress)\");\n        return keccak256(abi.encode(HOLDER_TYPED_HASH, keccak256(bytes(_holder.firstName)),  keccak256(bytes(_holder.lastName)), keccak256(bytes(_holder.location)), _holder.walletAddress));\n        \n    }\n\n\n\n    /// @notice this function generates the signed signature prefixed with \\x19\\x01. The result will be used to verify the signer\n    /// @param  _from The struct of the account to be debited\n    /// @param  _to The struct of the account to be credited\n   \n\n    function hashTransfer(DomainData memory _domainData, Holder memory _from, Holder memory _to, uint256 _amount, uint256 _nonce) internal pure returns (bytes32) {\n        \n        bytes32 TRANSFER_TYPED_HASH = keccak256(\"TransferData(Holder from,Holder to,uint256 amount,uint256 nonce)Holder(string firstName,string lastName,string location,address walletAddress)\");\n        \n        return keccak256(\n            abi.encodePacked(\n            \"\\x19\\x01\", \n                generateDomainSepartor(_domainData),\n                keccak256(abi.encode(\n                    TRANSFER_TYPED_HASH,\n                    hashHolder(_from),\n                    hashHolder(_to),\n                    _amount,\n                    _nonce\n                ))\n\n            ));\n    }\n\n\n\n    // @notice This function computes the r s v value of a signature\n    // @param _signature The data generated from the signed Typed data \n    // @return r s v values\n    \n\n    function _split(bytes memory _signature) internal pure returns (bytes32 r, bytes32 s, uint8 v) {\n\n        require(_signature.length == 65, \"0x5f\"); // invalid signature length\n\n        assembly {\n\n            r := mload(add(_signature, 32))\n            s := mload(add(_signature, 64))\n            v := byte(0, mload(add(_signature, 96)))\n           \n\n        }\n\n    }\n\n    /// @notice verify the signer of a signature using the prefixed signed hash\n    /// @param _signature The data generated from the signed Typed data \n    /// @param _ethHash The prefixed signature generated by the contract\n    /// @return the address of the signer\n\n    function verifySignature(bytes memory _signature, bytes32 _ethHash) internal pure returns (address) {\n\n\n        (bytes32 r, bytes32 s, uint8 v) = _split(_signature);\n\n        require (ecrecover(_ethHash, v, r, s) != address(0), \"0x59\"); // invalid signer\n        return ecrecover(_ethHash, v, r, s);\n\n    }\n\n\n    /// @notice decode the typed signature bytes data and the hash bytes32 data from the encoded data\n    /// @param _encodedDataWithSignature The encoded data containing the signature and the signature hash \n    /// @return the signature and the hash\n\n    function decodeData(bytes memory _encodedDataWithSignature) external pure returns (bytes memory, bytes32, uint256, Holder memory, Holder memory) {\n        \n        return abi.decode(_encodedDataWithSignature, (bytes, bytes32, uint256, Holder, Holder));\n\n    }\n\n\n\n    function returnSigner(bytes calldata _signature, bytes32 _salt, uint256 _nonce, Holder memory _from, Holder memory _to , uint256 _amount, address _verifyingAddress, string calldata _name) external pure returns (address) {\n\n        bytes32 _prefixedHash = hashTransfer(DomainData(_verifyingAddress, \"1\", _name, 1337, _salt), _from, _to, _amount, _nonce);\n        address _signer = verifySignature(_signature, _prefixedHash);\n        \n        return _signer;\n\n    }\n\n   \n}",
  "sourcePath": "/Users/veteran/Documents/blockchain/Tangl/security-token/contracts/utils/CertificateLibrary.sol",
  "compiler": {
    "name": "solc",
    "version": "0.8.10+commit.fc410830.Emscripten.clang"
  },
  "schemaVersion": "3.4.8",
  "updatedAt": "2022-09-11T13:59:58.881Z",
  "networkType": "ethereum",
  "devdoc": {
    "kind": "dev",
    "methods": {
      "decodeData(bytes)": {
        "params": {
          "_encodedDataWithSignature": "The encoded data containing the signature and the signature hash "
        },
        "returns": {
          "_0": "the signature and the hash"
        }
      }
    },
    "version": 1
  },
  "userdoc": {
    "kind": "user",
    "methods": {
      "decodeData(bytes)": {
        "notice": "decode the typed signature bytes data and the hash bytes32 data from the encoded data"
      }
    },
    "version": 1
  }
}