{
  "contractName": "Certificate",
  "abi": [
    {
      "inputs": [
        {
          "internalType": "bytes",
          "name": "_encodedDataWithSignature",
          "type": "bytes"
        }
      ],
      "name": "decodeData",
      "outputs": [
        {
          "internalType": "bytes",
          "name": "",
          "type": "bytes"
        },
        {
          "internalType": "bytes32",
          "name": "",
          "type": "bytes32"
        },
        {
          "components": [
            {
              "internalType": "string",
              "name": "firstName",
              "type": "string"
            },
            {
              "internalType": "string",
              "name": "lastName",
              "type": "string"
            },
            {
              "internalType": "string",
              "name": "location",
              "type": "string"
            },
            {
              "internalType": "address",
              "name": "walletAddress",
              "type": "address"
            }
          ],
          "internalType": "struct Certificate.Holder",
          "name": "",
          "type": "tuple"
        },
        {
          "components": [
            {
              "internalType": "string",
              "name": "firstName",
              "type": "string"
            },
            {
              "internalType": "string",
              "name": "lastName",
              "type": "string"
            },
            {
              "internalType": "string",
              "name": "location",
              "type": "string"
            },
            {
              "internalType": "address",
              "name": "walletAddress",
              "type": "address"
            }
          ],
          "internalType": "struct Certificate.Holder",
          "name": "",
          "type": "tuple"
        }
      ],
      "stateMutability": "pure",
      "type": "function"
    },
    {
      "inputs": [
        {
          "internalType": "bytes",
          "name": "_data",
          "type": "bytes"
        },
        {
          "internalType": "uint256",
          "name": "_amount",
          "type": "uint256"
        },
        {
          "internalType": "address",
          "name": "_verifyingAddress",
          "type": "address"
        },
        {
          "internalType": "uint256",
          "name": "_nonce",
          "type": "uint256"
        },
        {
          "internalType": "string",
          "name": "_name",
          "type": "string"
        }
      ],
      "name": "returnSigner",
      "outputs": [
        {
          "internalType": "address",
          "name": "",
          "type": "address"
        }
      ],
      "stateMutability": "view",
      "type": "function"
    }
  ],
  "bytecode": "0x611186610053600b82828239805160001a607314610046577f4e487b7100000000000000000000000000000000000000000000000000000000600052600060045260246000fd5b30600052607381538281f3fe73000000000000000000000000000000000000000030146080604052600436106100405760003560e01c8063447a06f514610045578063c93f239714610078575b600080fd5b61005f600480360381019061005a91906106f7565b6100a8565b60405161006f94939291906108e8565b60405180910390f35b610092600480360381019061008d9190610a5a565b6100df565b60405161009f9190610b25565b60405180910390f35b606060006100b461055f565b6100bc61055f565b848060200190518101906100d09190610d68565b93509350935093509193509193565b60008060008060006101348c8c8080601f016020809104026020016040519081016040528093929190818152602001838380828437600081840152601f19601f820116905080830192505050505050506100a8565b935093509350935060006102026040518060a001604052808c73ffffffffffffffffffffffffffffffffffffffff1681526020016040518060400160405280600181526020017f310000000000000000000000000000000000000000000000000000000000000081525081526020018a8a8080601f016020809104026020016040519081016040528093929190818152602001838380828437600081840152601f19601f82011690508083019250505050505050815260200161053981526020018681525084848e8d610226565b9050600061021086836102c7565b9050809650505050505050979650505050505050565b6000807f2408ebdf69a7183c08f5e97e4277df987a6182ce43c17c7ce7826d3451891d889050610255876103f4565b8161025f88610475565b61026888610475565b878760405160200161027e959493929190610e41565b604051602081830303815290604052805190602001206040516020016102a5929190610f0c565b6040516020818303038152906040528051906020012091505095945050505050565b6000806000806102d6866104f7565b925092509250600073ffffffffffffffffffffffffffffffffffffffff16600186838686604051600081526020016040526040516103179493929190610f5f565b6020604051602081039080840390855afa158015610339573d6000803e3d6000fd5b5050506020604051035173ffffffffffffffffffffffffffffffffffffffff16141561039a576040517f08c379a000000000000000000000000000000000000000000000000000000000815260040161039190611001565b60405180910390fd5b600185828585604051600081526020016040526040516103bd9493929190610f5f565b6020604051602081039080840390855afa1580156103df573d6000803e3d6000fd5b50505060206040510351935050505092915050565b6000807fd87cd6ef79d4e2b95e15ce8abf732db51ec771f1ca2edccf22a46c729ac5647290508083604001518051906020012084602001518051906020012085606001518660000151876080015160405160200161045796959493929190611030565b60405160208183030381529060405280519060200120915050919050565b6000807fdebebf0c3f435e851b79f957a72d453bb5f1901a18d643317f7cab887756592690508083600001518051906020012084602001518051906020012085604001518051906020012086606001516040516020016104d9959493929190611091565b60405160208183030381529060405280519060200120915050919050565b60008060006041845114610540576040517f08c379a000000000000000000000000000000000000000000000000000000000815260040161053790611130565b60405180910390fd5b6020840151925060408401519150606084015160001a90509193909250565b6040518060800160405280606081526020016060815260200160608152602001600073ffffffffffffffffffffffffffffffffffffffff1681525090565b6000604051905090565b600080fd5b600080fd5b600080fd5b600080fd5b6000601f19601f8301169050919050565b7f4e487b7100000000000000000000000000000000000000000000000000000000600052604160045260246000fd5b610604826105bb565b810181811067ffffffffffffffff82111715610623576106226105cc565b5b80604052505050565b600061063661059d565b905061064282826105fb565b919050565b600067ffffffffffffffff821115610662576106616105cc565b5b61066b826105bb565b9050602081019050919050565b82818337600083830152505050565b600061069a61069584610647565b61062c565b9050828152602081018484840111156106b6576106b56105b6565b5b6106c1848285610678565b509392505050565b600082601f8301126106de576106dd6105b1565b5b81356106ee848260208601610687565b91505092915050565b60006020828403121561070d5761070c6105a7565b5b600082013567ffffffffffffffff81111561072b5761072a6105ac565b5b610737848285016106c9565b91505092915050565b600081519050919050565b600082825260208201905092915050565b60005b8381101561077a57808201518184015260208101905061075f565b83811115610789576000848401525b50505050565b600061079a82610740565b6107a4818561074b565b93506107b481856020860161075c565b6107bd816105bb565b840191505092915050565b6000819050919050565b6107db816107c8565b82525050565b600081519050919050565b600082825260208201905092915050565b6000610808826107e1565b61081281856107ec565b935061082281856020860161075c565b61082b816105bb565b840191505092915050565b600073ffffffffffffffffffffffffffffffffffffffff82169050919050565b600061086182610836565b9050919050565b61087181610856565b82525050565b6000608083016000830151848203600086015261089482826107fd565b915050602083015184820360208601526108ae82826107fd565b915050604083015184820360408601526108c882826107fd565b91505060608301516108dd6060860182610868565b508091505092915050565b60006080820190508181036000830152610902818761078f565b905061091160208301866107d2565b81810360408301526109238185610877565b905081810360608301526109378184610877565b905095945050505050565b600080fd5b600080fd5b60008083601f840112610962576109616105b1565b5b8235905067ffffffffffffffff81111561097f5761097e610942565b5b60208301915083600182028301111561099b5761099a610947565b5b9250929050565b6000819050919050565b6109b5816109a2565b81146109c057600080fd5b50565b6000813590506109d2816109ac565b92915050565b6109e181610856565b81146109ec57600080fd5b50565b6000813590506109fe816109d8565b92915050565b60008083601f840112610a1a57610a196105b1565b5b8235905067ffffffffffffffff811115610a3757610a36610942565b5b602083019150836001820283011115610a5357610a52610947565b5b9250929050565b600080600080600080600060a0888a031215610a7957610a786105a7565b5b600088013567ffffffffffffffff811115610a9757610a966105ac565b5b610aa38a828b0161094c565b97509750506020610ab68a828b016109c3565b9550506040610ac78a828b016109ef565b9450506060610ad88a828b016109c3565b935050608088013567ffffffffffffffff811115610af957610af86105ac565b5b610b058a828b01610a04565b925092505092959891949750929550565b610b1f81610856565b82525050565b6000602082019050610b3a6000830184610b16565b92915050565b6000610b53610b4e84610647565b61062c565b905082815260208101848484011115610b6f57610b6e6105b6565b5b610b7a84828561075c565b509392505050565b600082601f830112610b9757610b966105b1565b5b8151610ba7848260208601610b40565b91505092915050565b610bb9816107c8565b8114610bc457600080fd5b50565b600081519050610bd681610bb0565b92915050565b600080fd5b600080fd5b600067ffffffffffffffff821115610c0157610c006105cc565b5b610c0a826105bb565b9050602081019050919050565b6000610c2a610c2584610be6565b61062c565b905082815260208101848484011115610c4657610c456105b6565b5b610c5184828561075c565b509392505050565b600082601f830112610c6e57610c6d6105b1565b5b8151610c7e848260208601610c17565b91505092915050565b600081519050610c96816109d8565b92915050565b600060808284031215610cb257610cb1610bdc565b5b610cbc608061062c565b9050600082015167ffffffffffffffff811115610cdc57610cdb610be1565b5b610ce884828501610c59565b600083015250602082015167ffffffffffffffff811115610d0c57610d0b610be1565b5b610d1884828501610c59565b602083015250604082015167ffffffffffffffff811115610d3c57610d3b610be1565b5b610d4884828501610c59565b6040830152506060610d5c84828501610c87565b60608301525092915050565b60008060008060808587031215610d8257610d816105a7565b5b600085015167ffffffffffffffff811115610da057610d9f6105ac565b5b610dac87828801610b82565b9450506020610dbd87828801610bc7565b935050604085015167ffffffffffffffff811115610dde57610ddd6105ac565b5b610dea87828801610c9c565b925050606085015167ffffffffffffffff811115610e0b57610e0a6105ac565b5b610e1787828801610c9c565b91505092959194509250565b610e2c816107c8565b82525050565b610e3b816109a2565b82525050565b600060a082019050610e566000830188610e23565b610e636020830187610e23565b610e706040830186610e23565b610e7d6060830185610e32565b610e8a6080830184610e32565b9695505050505050565b600081905092915050565b7f1901000000000000000000000000000000000000000000000000000000000000600082015250565b6000610ed5600283610e94565b9150610ee082610e9f565b600282019050919050565b6000819050919050565b610f06610f01826107c8565b610eeb565b82525050565b6000610f1782610ec8565b9150610f238285610ef5565b602082019150610f338284610ef5565b6020820191508190509392505050565b600060ff82169050919050565b610f5981610f43565b82525050565b6000608082019050610f746000830187610e23565b610f816020830186610f50565b610f8e6040830185610e23565b610f9b6060830184610e23565b95945050505050565b600082825260208201905092915050565b7f3078353900000000000000000000000000000000000000000000000000000000600082015250565b6000610feb600483610fa4565b9150610ff682610fb5565b602082019050919050565b6000602082019050818103600083015261101a81610fde565b9050919050565b61102a81610856565b82525050565b600060c0820190506110456000830189610e23565b6110526020830188610e23565b61105f6040830187610e23565b61106c6060830186610e32565b6110796080830185611021565b61108660a0830184610e23565b979650505050505050565b600060a0820190506110a66000830188610e23565b6110b36020830187610e23565b6110c06040830186610e23565b6110cd6060830185610e23565b6110da6080830184611021565b9695505050505050565b7f3078356600000000000000000000000000000000000000000000000000000000600082015250565b600061111a600483610fa4565b9150611125826110e4565b602082019050919050565b600060208201905081810360008301526111498161110d565b905091905056fea264697066735822122075dd8ad904bdebad3e6b1675fbb268fe7f17fd21499ca703025b3a9f08a0447664736f6c634300080a0033",
  "immutableReferences": {},
  "source": "pragma solidity 0.8.10;\n\n\nlibrary Certificate {\n\n\n    struct Holder {\n\n        string firstName;\n        string lastName;\n        string location;\n        address walletAddress;\n        \n        \n    }\n\n\n    struct TransferData {\n\n        Holder from;\n        Holder to;\n        uint256 amount;\n        uint256 nonce;\n\n    }\n\n    struct DomainData {\n\n        address verifyingContract;\n        string version;\n        string name;\n        uint256 chainId;\n        bytes32 salt;\n\n    }\n   \n    /// @notice this function generates hashes the domain separator for the signature\n    /// @dev Enclose the strings in bytes during encoding\n    \n\n    function generateDomainSepartor(DomainData memory _domainData) internal pure returns (bytes32) {\n\n        bytes32 EIP712_DOMAIN_HASH_TYPE = keccak256(\"EIP712Domain(string name,string version,uint256 chainId,address verifyingContract,bytes32 salt)\");\n\n        return keccak256(abi.encode(\n            EIP712_DOMAIN_HASH_TYPE,\n            keccak256(bytes(_domainData.name)),\n            keccak256(bytes(_domainData.version)),\n            _domainData.chainId,\n            _domainData.verifyingContract,\n            _domainData.salt\n        ));\n    }\n\n\n    function hashHolder(Holder memory _holder) internal pure returns (bytes32) {\n\n        bytes32 HOLDER_TYPED_HASH = keccak256(\"Holder(string firstName,string lastName,string location,address walletAddress)\");\n        return keccak256(abi.encode(HOLDER_TYPED_HASH, keccak256(bytes(_holder.firstName)),  keccak256(bytes(_holder.lastName)), keccak256(bytes(_holder.location)), _holder.walletAddress));\n        \n    }\n\n\n\n    /// @notice this function generates the signed signature prefixed with \\x19\\x01. The result will be used to verify the signer\n    /// @param  _from The struct of the account to be debited\n    /// @param  _to The struct of the account to be credited\n   \n\n    function hashTransfer(DomainData memory _domainData, Holder memory _from, Holder memory _to, uint256 _amount, uint256 _nonce) internal pure returns (bytes32) {\n        \n        bytes32 TRANSFER_TYPED_HASH = keccak256(\"TransferData(Holder from,Holder to,uint256 amount,uint256 nonce)Holder(string firstName,string lastName,string location,address walletAddress)\");\n        \n        return keccak256(\n            abi.encodePacked(\n            \"\\x19\\x01\", \n                generateDomainSepartor(_domainData),\n                keccak256(abi.encode(\n                    TRANSFER_TYPED_HASH,\n                    hashHolder(_from),\n                    hashHolder(_to),\n                    _amount,\n                    _nonce\n                ))\n\n            ));\n    }\n\n\n\n    // @notice This function computes the r s v value of a signature\n    // @param _signature The data generated from the signed Typed data \n    // @return r s v values\n    \n\n    function _split(bytes memory _signature) internal pure returns (bytes32 r, bytes32 s, uint8 v) {\n\n        require(_signature.length == 65, \"0x5f\"); // invalid signature length\n\n        assembly {\n\n            r := mload(add(_signature, 32))\n            s := mload(add(_signature, 64))\n            v := byte(0, mload(add(_signature, 96)))\n           \n\n        }\n\n    }\n\n    /// @notice verify the signer of a signature using the prefixed signed hash\n    /// @param _signature The data generated from the signed Typed data \n    /// @param _ethHash The prefixed signature generated by the contract\n    /// @return the address of the signer\n\n    function verifySignature(bytes memory _signature, bytes32 _ethHash) internal pure returns (address) {\n\n\n        (bytes32 r, bytes32 s, uint8 v) = _split(_signature);\n\n        require (ecrecover(_ethHash, v, r, s) != address(0), \"0x59\"); // invalid signer\n        return ecrecover(_ethHash, v, r, s);\n\n    }\n\n\n    /// @notice decode the typed signature bytes data and the hash bytes32 data from the encoded data\n    /// @param _encodedDataWithSignature The encoded data containing the signature and the signature hash \n    /// @return the signature and the hash\n\n    function decodeData(bytes memory _encodedDataWithSignature) public pure returns (bytes memory, bytes32, Holder memory, Holder memory) {\n        \n        return abi.decode(_encodedDataWithSignature, (bytes, bytes32, Holder, Holder));\n\n    }\n\n\n\n    function returnSigner(bytes calldata _data, uint256 _amount, address _verifyingAddress, uint256 _nonce, string calldata _name) public view returns (address) {\n\n        (bytes memory _signature, bytes32 _salt, Holder memory _from, Holder memory _to) = decodeData(_data);\n         \n        bytes32 _prefixedHash = hashTransfer(DomainData(_verifyingAddress, \"1\", _name, 1337, _salt), _from, _to, _amount, _nonce);\n        address _signer = verifySignature(_signature, _prefixedHash);\n        \n        return _signer;\n\n    }\n\n   \n}",
  "sourcePath": "/home/komolehin/Documents/blockchain/TANGLE/security-token/contracts/utils/CertificateLibrary.sol",
  "compiler": {
    "name": "solc",
    "version": "0.8.10+commit.fc410830.Emscripten.clang"
  },
  "schemaVersion": "3.4.6",
  "updatedAt": "2022-05-12T22:18:15.328Z",
  "devdoc": {
    "kind": "dev",
    "methods": {
      "decodeData(bytes)": {
        "params": {
          "_encodedDataWithSignature": "The encoded data containing the signature and the signature hash "
        },
        "returns": {
          "_0": "the signature and the hash"
        }
      }
    },
    "version": 1
  },
  "userdoc": {
    "kind": "user",
    "methods": {
      "decodeData(bytes)": {
        "notice": "decode the typed signature bytes data and the hash bytes32 data from the encoded data"
      }
    },
    "version": 1
  }
}