{
  "contractName": "Certificate",
  "abi": [
    {
      "inputs": [
        {
          "components": [
            {
              "internalType": "address",
              "name": "verifyingContract",
              "type": "address"
            },
            {
              "internalType": "string",
              "name": "version",
              "type": "string"
            },
            {
              "internalType": "string",
              "name": "name",
              "type": "string"
            },
            {
              "internalType": "uint256",
              "name": "chainId",
              "type": "uint256"
            },
            {
              "internalType": "bytes32",
              "name": "salt",
              "type": "bytes32"
            }
          ],
          "internalType": "struct Certificate.DomainData",
          "name": "_domainData",
          "type": "tuple"
        },
        {
          "components": [
            {
              "internalType": "string",
              "name": "firstName",
              "type": "string"
            },
            {
              "internalType": "string",
              "name": "lastName",
              "type": "string"
            },
            {
              "internalType": "string",
              "name": "location",
              "type": "string"
            },
            {
              "internalType": "address",
              "name": "walletAddress",
              "type": "address"
            }
          ],
          "internalType": "struct Certificate.Holder",
          "name": "_from",
          "type": "tuple"
        },
        {
          "components": [
            {
              "internalType": "string",
              "name": "firstName",
              "type": "string"
            },
            {
              "internalType": "string",
              "name": "lastName",
              "type": "string"
            },
            {
              "internalType": "string",
              "name": "location",
              "type": "string"
            },
            {
              "internalType": "address",
              "name": "walletAddress",
              "type": "address"
            }
          ],
          "internalType": "struct Certificate.Holder",
          "name": "_to",
          "type": "tuple"
        },
        {
          "internalType": "uint256",
          "name": "_amount",
          "type": "uint256"
        }
      ],
      "name": "hashTransfer",
      "outputs": [
        {
          "internalType": "bytes32",
          "name": "",
          "type": "bytes32"
        }
      ],
      "stateMutability": "pure",
      "type": "function",
      "constant": true
    },
    {
      "inputs": [
        {
          "internalType": "bytes",
          "name": "_signature",
          "type": "bytes"
        },
        {
          "internalType": "bytes32",
          "name": "_ethHash",
          "type": "bytes32"
        }
      ],
      "name": "verifySignature",
      "outputs": [
        {
          "internalType": "address",
          "name": "",
          "type": "address"
        }
      ],
      "stateMutability": "pure",
      "type": "function",
      "constant": true
    },
    {
      "inputs": [
        {
          "internalType": "bytes",
          "name": "_encodedSignature",
          "type": "bytes"
        }
      ],
      "name": "decodeData",
      "outputs": [
        {
          "internalType": "bytes",
          "name": "",
          "type": "bytes"
        },
        {
          "internalType": "bytes32",
          "name": "",
          "type": "bytes32"
        },
        {
          "internalType": "bool",
          "name": "",
          "type": "bool"
        },
        {
          "internalType": "bool",
          "name": "",
          "type": "bool"
        }
      ],
      "stateMutability": "pure",
      "type": "function",
      "constant": true
    }
  ],
  "bytecode": "0x610fce610053600b82828239805160001a607314610046577f4e487b7100000000000000000000000000000000000000000000000000000000600052600060045260246000fd5b30600052607381538281f3fe730000000000000000000000000000000000000000301460806040526004361061004b5760003560e01c8063447a06f51461005057806396cb2bc914610083578063e1989326146100b3575b600080fd5b61006a6004803603810190610065919061059d565b6100e3565b60405161007a94939291906106a2565b60405180910390f35b61009d600480360381019061009891906109e9565b61010d565b6040516100aa9190610aa4565b60405180910390f35b6100cd60048036038101906100c89190610abf565b6101ab565b6040516100da9190610b2a565b60405180910390f35b60606000806000848060200190518101906100fe9190610bf6565b93509350935093509193509193565b6000807f4e471c5cc26fe7da713d5b9fea88685970ca3d3aea1f230bc17b6397ce6d78eb905061013c866102d8565b8161014687610359565b61014f87610359565b866040516020016101639493929190610c97565b6040516020818303038152906040528051906020012060405160200161018a929190610d54565b60405160208183030381529060405280519060200120915050949350505050565b6000806000806101ba866103db565b925092509250600073ffffffffffffffffffffffffffffffffffffffff16600186838686604051600081526020016040526040516101fb9493929190610da7565b6020604051602081039080840390855afa15801561021d573d6000803e3d6000fd5b5050506020604051035173ffffffffffffffffffffffffffffffffffffffff16141561027e576040517f08c379a000000000000000000000000000000000000000000000000000000000815260040161027590610e49565b60405180910390fd5b600185828585604051600081526020016040526040516102a19493929190610da7565b6020604051602081039080840390855afa1580156102c3573d6000803e3d6000fd5b50505060206040510351935050505092915050565b6000807fd87cd6ef79d4e2b95e15ce8abf732db51ec771f1ca2edccf22a46c729ac5647290508083604001518051906020012084602001518051906020012085606001518660000151876080015160405160200161033b96959493929190610e78565b60405160208183030381529060405280519060200120915050919050565b6000807fdebebf0c3f435e851b79f957a72d453bb5f1901a18d643317f7cab887756592690508083600001518051906020012084602001518051906020012085604001518051906020012086606001516040516020016103bd959493929190610ed9565b60405160208183030381529060405280519060200120915050919050565b60008060006041845114610424576040517f08c379a000000000000000000000000000000000000000000000000000000000815260040161041b90610f78565b60405180910390fd5b6020840151925060408401519150606084015160001a90509193909250565b6000604051905090565b600080fd5b600080fd5b600080fd5b600080fd5b6000601f19601f8301169050919050565b7f4e487b7100000000000000000000000000000000000000000000000000000000600052604160045260246000fd5b6104aa82610461565b810181811067ffffffffffffffff821117156104c9576104c8610472565b5b80604052505050565b60006104dc610443565b90506104e882826104a1565b919050565b600067ffffffffffffffff82111561050857610507610472565b5b61051182610461565b9050602081019050919050565b82818337600083830152505050565b600061054061053b846104ed565b6104d2565b90508281526020810184848401111561055c5761055b61045c565b5b61056784828561051e565b509392505050565b600082601f83011261058457610583610457565b5b813561059484826020860161052d565b91505092915050565b6000602082840312156105b3576105b261044d565b5b600082013567ffffffffffffffff8111156105d1576105d0610452565b5b6105dd8482850161056f565b91505092915050565b600081519050919050565b600082825260208201905092915050565b60005b83811015610620578082015181840152602081019050610605565b8381111561062f576000848401525b50505050565b6000610640826105e6565b61064a81856105f1565b935061065a818560208601610602565b61066381610461565b840191505092915050565b6000819050919050565b6106818161066e565b82525050565b60008115159050919050565b61069c81610687565b82525050565b600060808201905081810360008301526106bc8187610635565b90506106cb6020830186610678565b6106d86040830185610693565b6106e56060830184610693565b95945050505050565b600080fd5b600080fd5b600073ffffffffffffffffffffffffffffffffffffffff82169050919050565b6000610723826106f8565b9050919050565b61073381610718565b811461073e57600080fd5b50565b6000813590506107508161072a565b92915050565b600067ffffffffffffffff82111561077157610770610472565b5b61077a82610461565b9050602081019050919050565b600061079a61079584610756565b6104d2565b9050828152602081018484840111156107b6576107b561045c565b5b6107c184828561051e565b509392505050565b600082601f8301126107de576107dd610457565b5b81356107ee848260208601610787565b91505092915050565b6000819050919050565b61080a816107f7565b811461081557600080fd5b50565b60008135905061082781610801565b92915050565b6108368161066e565b811461084157600080fd5b50565b6000813590506108538161082d565b92915050565b600060a0828403121561086f5761086e6106ee565b5b61087960a06104d2565b9050600061088984828501610741565b600083015250602082013567ffffffffffffffff8111156108ad576108ac6106f3565b5b6108b9848285016107c9565b602083015250604082013567ffffffffffffffff8111156108dd576108dc6106f3565b5b6108e9848285016107c9565b60408301525060606108fd84828501610818565b606083015250608061091184828501610844565b60808301525092915050565b600060808284031215610933576109326106ee565b5b61093d60806104d2565b9050600082013567ffffffffffffffff81111561095d5761095c6106f3565b5b610969848285016107c9565b600083015250602082013567ffffffffffffffff81111561098d5761098c6106f3565b5b610999848285016107c9565b602083015250604082013567ffffffffffffffff8111156109bd576109bc6106f3565b5b6109c9848285016107c9565b60408301525060606109dd84828501610741565b60608301525092915050565b60008060008060808587031215610a0357610a0261044d565b5b600085013567ffffffffffffffff811115610a2157610a20610452565b5b610a2d87828801610859565b945050602085013567ffffffffffffffff811115610a4e57610a4d610452565b5b610a5a8782880161091d565b935050604085013567ffffffffffffffff811115610a7b57610a7a610452565b5b610a878782880161091d565b9250506060610a9887828801610818565b91505092959194509250565b6000602082019050610ab96000830184610678565b92915050565b60008060408385031215610ad657610ad561044d565b5b600083013567ffffffffffffffff811115610af457610af3610452565b5b610b008582860161056f565b9250506020610b1185828601610844565b9150509250929050565b610b2481610718565b82525050565b6000602082019050610b3f6000830184610b1b565b92915050565b6000610b58610b53846104ed565b6104d2565b905082815260208101848484011115610b7457610b7361045c565b5b610b7f848285610602565b509392505050565b600082601f830112610b9c57610b9b610457565b5b8151610bac848260208601610b45565b91505092915050565b600081519050610bc48161082d565b92915050565b610bd381610687565b8114610bde57600080fd5b50565b600081519050610bf081610bca565b92915050565b60008060008060808587031215610c1057610c0f61044d565b5b600085015167ffffffffffffffff811115610c2e57610c2d610452565b5b610c3a87828801610b87565b9450506020610c4b87828801610bb5565b9350506040610c5c87828801610be1565b9250506060610c6d87828801610be1565b91505092959194509250565b610c828161066e565b82525050565b610c91816107f7565b82525050565b6000608082019050610cac6000830187610c79565b610cb96020830186610c79565b610cc66040830185610c79565b610cd36060830184610c88565b95945050505050565b600081905092915050565b7f1901000000000000000000000000000000000000000000000000000000000000600082015250565b6000610d1d600283610cdc565b9150610d2882610ce7565b600282019050919050565b6000819050919050565b610d4e610d498261066e565b610d33565b82525050565b6000610d5f82610d10565b9150610d6b8285610d3d565b602082019150610d7b8284610d3d565b6020820191508190509392505050565b600060ff82169050919050565b610da181610d8b565b82525050565b6000608082019050610dbc6000830187610c79565b610dc96020830186610d98565b610dd66040830185610c79565b610de36060830184610c79565b95945050505050565b600082825260208201905092915050565b7f3078353900000000000000000000000000000000000000000000000000000000600082015250565b6000610e33600483610dec565b9150610e3e82610dfd565b602082019050919050565b60006020820190508181036000830152610e6281610e26565b9050919050565b610e7281610718565b82525050565b600060c082019050610e8d6000830189610c79565b610e9a6020830188610c79565b610ea76040830187610c79565b610eb46060830186610c88565b610ec16080830185610e69565b610ece60a0830184610c79565b979650505050505050565b600060a082019050610eee6000830188610c79565b610efb6020830187610c79565b610f086040830186610c79565b610f156060830185610c79565b610f226080830184610e69565b9695505050505050565b7f3078356600000000000000000000000000000000000000000000000000000000600082015250565b6000610f62600483610dec565b9150610f6d82610f2c565b602082019050919050565b60006020820190508181036000830152610f9181610f55565b905091905056fea2646970667358221220e60f40fd3dfb3b3e5d0bf20568a07d2bd1963993946e5a6bd2279ece1d37c78e64736f6c634300080a0033",
  "immutableReferences": {},
  "source": "pragma solidity 0.8.10;\n\n\nlibrary Certificate {\n\n\n    struct Holder {\n\n        string firstName;\n        string lastName;\n        string location;\n        address walletAddress;\n        \n        \n    }\n\n\n    struct TransferData {\n\n        Holder from;\n        Holder to;\n        uint256 amount;\n\n    }\n\n    struct DomainData {\n\n        address verifyingContract;\n        string version;\n        string name;\n        uint256 chainId;\n        bytes32 salt;\n\n    }\n   \n    /// @notice this function generates hashes the domain separator for the signature\n    /// @dev Enclose the strings in bytes during encoding\n    \n\n    function generateDomainSepartor(DomainData memory _domainData) internal pure returns (bytes32) {\n\n        bytes32 EIP712_DOMAIN_HASH_TYPE = keccak256(\"EIP712Domain(string name,string version,uint256 chainId,address verifyingContract,bytes32 salt)\");\n\n        return keccak256(abi.encode(\n            EIP712_DOMAIN_HASH_TYPE,\n            keccak256(bytes(_domainData.name)),\n            keccak256(bytes(_domainData.version)),\n            _domainData.chainId,\n            _domainData.verifyingContract,\n            _domainData.salt\n        ));\n    }\n\n\n    function hashHolder(Holder memory _holder) internal pure returns (bytes32) {\n\n        bytes32 HOLDER_TYPED_HASH = keccak256(\"Holder(string firstName,string lastName,string location,address walletAddress)\");\n        return keccak256(abi.encode(HOLDER_TYPED_HASH, keccak256(bytes(_holder.firstName)),  keccak256(bytes(_holder.lastName)), keccak256(bytes(_holder.location)), _holder.walletAddress));\n        \n    }\n\n\n\n    /// @notice this function generates the signed signature prefixed with \\x19\\x01. The result will be used to verify the signer\n    /// @param  _from The struct of the account to be debited\n    /// @param  _to The struct of the account to be credited\n   \n\n    function hashTransfer(DomainData memory _domainData, Holder memory _from, Holder memory _to, uint256 _amount) external pure returns (bytes32) {\n        \n        bytes32 TRANSFER_TYPED_HASH = keccak256(\"TransferData(Holder from,Holder to,uint256 amount)Holder(string firstName,string lastName,string location,address walletAddress)\");\n        \n        return keccak256(\n            abi.encodePacked(\n            \"\\x19\\x01\", \n                generateDomainSepartor(_domainData),\n                keccak256(abi.encode(\n                    TRANSFER_TYPED_HASH,\n                    hashHolder(_from),\n                    hashHolder(_to),\n                    _amount\n                ))\n\n            ));\n    }\n\n\n\n    // @notice This function computes the r s v value of a signature\n    // @param _signature The data generated from the signed Typed data \n    // @return r s v values\n    \n\n    function _split(bytes memory _signature) internal pure returns (bytes32 r, bytes32 s, uint8 v) {\n\n        require(_signature.length == 65, \"0x5f\"); // invalid signature length\n\n        assembly {\n\n            r := mload(add(_signature, 32))\n            s := mload(add(_signature, 64))\n            v := byte(0, mload(add(_signature, 96)))\n           \n\n        }\n\n    }\n\n    /// @notice verify the signer of a signature using the prefixed signed hash\n    /// @param _signature The data generated from the signed Typed data \n    /// @param _ethHash The prefixed signature generated by the contract\n    /// @return the address of the signer\n\n    function verifySignature(bytes memory _signature, bytes32 _ethHash) external pure returns (address) {\n\n\n        (bytes32 r, bytes32 s, uint8 v) = _split(_signature);\n\n        require (ecrecover(_ethHash, v, r, s) != address(0), \"0x59\"); // invalid signer\n        return ecrecover(_ethHash, v, r, s);\n\n    }\n\n\n    /// @notice decode the typed signature bytes data and the hash bytes32 data from the encoded data\n    /// @param _encodedSignature The encoded data containing the signature and the signature hash \n    /// @return the signature and the hash\n\n    function decodeData(bytes memory _encodedSignature) external pure returns (bytes memory, bytes32, bool, bool) {\n        return abi.decode(_encodedSignature, (bytes, bytes32, bool, bool));\n    }\n\n}",
  "sourcePath": "/home/komolehin/Documents/blockchain/TANGLE/security-token/contracts/utils/CertificateLibrary.sol",
  "compiler": {
    "name": "solc",
    "version": "0.8.10+commit.fc410830.Emscripten.clang"
  },
  "schemaVersion": "3.4.6",
  "updatedAt": "2022-04-26T10:00:40.174Z",
  "networkType": "ethereum",
  "devdoc": {
    "kind": "dev",
    "methods": {
      "decodeData(bytes)": {
        "params": {
          "_encodedSignature": "The encoded data containing the signature and the signature hash "
        },
        "returns": {
          "_0": "the signature and the hash"
        }
      },
      "hashTransfer(Certificate.DomainData,Certificate.Holder,Certificate.Holder,uint256)": {
        "params": {
          "_from": "The struct of the account to be debited",
          "_to": "The struct of the account to be credited"
        }
      },
      "verifySignature(bytes,bytes32)": {
        "params": {
          "_ethHash": "The prefixed signature generated by the contract",
          "_signature": "The data generated from the signed Typed data "
        },
        "returns": {
          "_0": "the address of the signer"
        }
      }
    },
    "version": 1
  },
  "userdoc": {
    "kind": "user",
    "methods": {
      "decodeData(bytes)": {
        "notice": "decode the typed signature bytes data and the hash bytes32 data from the encoded data"
      },
      "hashTransfer(Certificate.DomainData,Certificate.Holder,Certificate.Holder,uint256)": {
        "notice": "this function generates the signed signature prefixed with \\x19\\x01. The result will be used to verify the signer"
      },
      "verifySignature(bytes,bytes32)": {
        "notice": "verify the signer of a signature using the prefixed signed hash"
      }
    },
    "version": 1
  }
}