{
  "contractName": "Certificate",
  "abi": [
    {
      "inputs": [],
      "name": "returnedSigner",
      "outputs": [
        {
          "internalType": "address",
          "name": "",
          "type": "address"
        }
      ],
      "stateMutability": "view",
      "type": "function"
    },
    {
      "inputs": [
        {
          "components": [
            {
              "internalType": "string",
              "name": "firstName",
              "type": "string"
            },
            {
              "internalType": "string",
              "name": "lastName",
              "type": "string"
            },
            {
              "internalType": "string",
              "name": "location",
              "type": "string"
            },
            {
              "internalType": "address",
              "name": "walletAddress",
              "type": "address"
            }
          ],
          "internalType": "struct Certificate.Holder",
          "name": "_from",
          "type": "tuple"
        },
        {
          "components": [
            {
              "internalType": "string",
              "name": "firstName",
              "type": "string"
            },
            {
              "internalType": "string",
              "name": "lastName",
              "type": "string"
            },
            {
              "internalType": "string",
              "name": "location",
              "type": "string"
            },
            {
              "internalType": "address",
              "name": "walletAddress",
              "type": "address"
            }
          ],
          "internalType": "struct Certificate.Holder",
          "name": "_to",
          "type": "tuple"
        },
        {
          "internalType": "uint256",
          "name": "_amount",
          "type": "uint256"
        }
      ],
      "name": "hashTransfer",
      "outputs": [
        {
          "internalType": "bytes32",
          "name": "",
          "type": "bytes32"
        }
      ],
      "stateMutability": "pure",
      "type": "function"
    },
    {
      "inputs": [
        {
          "internalType": "bytes",
          "name": "_signature",
          "type": "bytes"
        },
        {
          "internalType": "bytes32",
          "name": "_ethHash",
          "type": "bytes32"
        }
      ],
      "name": "verifySignature",
      "outputs": [
        {
          "internalType": "address",
          "name": "",
          "type": "address"
        }
      ],
      "stateMutability": "pure",
      "type": "function"
    }
  ],
  "bytecode": "0x608060405234801561001057600080fd5b50610cb7806100206000396000f3fe608060405234801561001057600080fd5b50600436106100415760003560e01c806328aa98a9146100465780633604949214610076578063e198932614610094575b600080fd5b610060600480360381019061005b919061076e565b6100c4565b60405161006d9190610812565b60405180910390f35b61007e6101cd565b60405161008b919061083c565b60405180910390f35b6100ae60048036038101906100a99190610924565b6101f3565b6040516100bb919061083c565b60405180910390f35b600061014073549f71200b5ee3f3c04ef5a29e7c70d40e42ed836040518060400160405280600181526020017f31000000000000000000000000000000000000000000000000000000000000008152506105397f54132a91a1bafcf3d90beaad0c0d5f0bda635715da5017e515739dbb823f282d60001b610320565b7f4e471c5cc26fe7da713d5b9fea88685970ca3d3aea1f230bc17b6397ce6d78eb61016a866103c5565b610173866103c5565b85604051602001610187949392919061098f565b604051602081830303815290604052805190602001206040516020016101ae929190610a4c565b6040516020818303038152906040528051906020012090509392505050565b600160009054906101000a900473ffffffffffffffffffffffffffffffffffffffff1681565b60008060008061020286610442565b925092509250600073ffffffffffffffffffffffffffffffffffffffff16600186838686604051600081526020016040526040516102439493929190610a9f565b6020604051602081039080840390855afa158015610265573d6000803e3d6000fd5b5050506020604051035173ffffffffffffffffffffffffffffffffffffffff1614156102c6576040517f08c379a00000000000000000000000000000000000000000000000000000000081526004016102bd90610b41565b60405180910390fd5b600185828585604051600081526020016040526040516102e99493929190610a9f565b6020604051602081039080840390855afa15801561030b573d6000803e3d6000fd5b50505060206040510351935050505092915050565b6000807fd87cd6ef79d4e2b95e15ce8abf732db51ec771f1ca2edccf22a46c729ac564729050806040518060400160405280601681526020017f54414e474c204341504954414c20504152544e455253000000000000000000008152508051906020012086805190602001208689876040516020016103a496959493929190610b61565b60405160208183030381529060405280519060200120915050949350505050565b60007fdebebf0c3f435e851b79f957a72d453bb5f1901a18d643317f7cab88775659268260000151805190602001208360200151805190602001208460400151805190602001208560600151604051602001610425959493929190610bc2565b604051602081830303815290604052805190602001209050919050565b6000806000604184511461048b576040517f08c379a000000000000000000000000000000000000000000000000000000000815260040161048290610c61565b60405180910390fd5b6020840151925060408401519150606084015160001a90509193909250565b6000604051905090565b600080fd5b600080fd5b600080fd5b6000601f19601f8301169050919050565b7f4e487b7100000000000000000000000000000000000000000000000000000000600052604160045260246000fd5b61050c826104c3565b810181811067ffffffffffffffff8211171561052b5761052a6104d4565b5b80604052505050565b600061053e6104aa565b905061054a8282610503565b919050565b600080fd5b600080fd5b600080fd5b600067ffffffffffffffff821115610579576105786104d4565b5b610582826104c3565b9050602081019050919050565b82818337600083830152505050565b60006105b16105ac8461055e565b610534565b9050828152602081018484840111156105cd576105cc610559565b5b6105d884828561058f565b509392505050565b600082601f8301126105f5576105f4610554565b5b813561060584826020860161059e565b91505092915050565b600073ffffffffffffffffffffffffffffffffffffffff82169050919050565b60006106398261060e565b9050919050565b6106498161062e565b811461065457600080fd5b50565b60008135905061066681610640565b92915050565b600060808284031215610682576106816104be565b5b61068c6080610534565b9050600082013567ffffffffffffffff8111156106ac576106ab61054f565b5b6106b8848285016105e0565b600083015250602082013567ffffffffffffffff8111156106dc576106db61054f565b5b6106e8848285016105e0565b602083015250604082013567ffffffffffffffff81111561070c5761070b61054f565b5b610718848285016105e0565b604083015250606061072c84828501610657565b60608301525092915050565b6000819050919050565b61074b81610738565b811461075657600080fd5b50565b60008135905061076881610742565b92915050565b600080600060608486031215610787576107866104b4565b5b600084013567ffffffffffffffff8111156107a5576107a46104b9565b5b6107b18682870161066c565b935050602084013567ffffffffffffffff8111156107d2576107d16104b9565b5b6107de8682870161066c565b92505060406107ef86828701610759565b9150509250925092565b6000819050919050565b61080c816107f9565b82525050565b60006020820190506108276000830184610803565b92915050565b6108368161062e565b82525050565b6000602082019050610851600083018461082d565b92915050565b600067ffffffffffffffff821115610872576108716104d4565b5b61087b826104c3565b9050602081019050919050565b600061089b61089684610857565b610534565b9050828152602081018484840111156108b7576108b6610559565b5b6108c284828561058f565b509392505050565b600082601f8301126108df576108de610554565b5b81356108ef848260208601610888565b91505092915050565b610901816107f9565b811461090c57600080fd5b50565b60008135905061091e816108f8565b92915050565b6000806040838503121561093b5761093a6104b4565b5b600083013567ffffffffffffffff811115610959576109586104b9565b5b610965858286016108ca565b92505060206109768582860161090f565b9150509250929050565b61098981610738565b82525050565b60006080820190506109a46000830187610803565b6109b16020830186610803565b6109be6040830185610803565b6109cb6060830184610980565b95945050505050565b600081905092915050565b7f1901000000000000000000000000000000000000000000000000000000000000600082015250565b6000610a156002836109d4565b9150610a20826109df565b600282019050919050565b6000819050919050565b610a46610a41826107f9565b610a2b565b82525050565b6000610a5782610a08565b9150610a638285610a35565b602082019150610a738284610a35565b6020820191508190509392505050565b600060ff82169050919050565b610a9981610a83565b82525050565b6000608082019050610ab46000830187610803565b610ac16020830186610a90565b610ace6040830185610803565b610adb6060830184610803565b95945050505050565b600082825260208201905092915050565b7f3078353900000000000000000000000000000000000000000000000000000000600082015250565b6000610b2b600483610ae4565b9150610b3682610af5565b602082019050919050565b60006020820190508181036000830152610b5a81610b1e565b9050919050565b600060c082019050610b766000830189610803565b610b836020830188610803565b610b906040830187610803565b610b9d6060830186610980565b610baa608083018561082d565b610bb760a0830184610803565b979650505050505050565b600060a082019050610bd76000830188610803565b610be46020830187610803565b610bf16040830186610803565b610bfe6060830185610803565b610c0b608083018461082d565b9695505050505050565b7f3078356600000000000000000000000000000000000000000000000000000000600082015250565b6000610c4b600483610ae4565b9150610c5682610c15565b602082019050919050565b60006020820190508181036000830152610c7a81610c3e565b905091905056fea2646970667358221220fa21ab60f8adb4cbacdb282ebbd5c978e1711256b6d5502757c8006df229aec164736f6c634300080a0033",
  "immutableReferences": {},
  "source": "pragma solidity 0.8.10;\r\n\r\n\r\ncontract Certificate {\r\n\r\n\r\n    struct Holder {\r\n\r\n        string firstName;\r\n        string lastName;\r\n        string location;\r\n        address walletAddress;\r\n        \r\n        \r\n    }\r\n\r\n\r\n    struct TransferData {\r\n\r\n        Holder from;\r\n        Holder to;\r\n        uint256 amount;\r\n\r\n    }\r\n\r\n    mapping(bytes => bool) internal _signatures;        // this map will store the used signatures to ensure that a signature can not be reused\r\n\r\n\r\n    bytes32 private constant HOLDER_TYPED_HASH = keccak256(\"Holder(string firstName,string lastName,string location,address walletAddress)\");\r\n    bytes32 private constant TRANSFER_TYPED_HASH = keccak256(\"TransferData(Holder from,Holder to,uint256 amount)Holder(string firstName,string lastName,string location,address walletAddress)\");\r\n    address public returnedSigner;\r\n\r\n   \r\n    /// @notice this function generates hashes the domain separator for the signature\r\n    /// @dev Enclose the strings in bytes during encoding\r\n    /// @param verifyingContract The contract that will be used to verify the signatue\r\n    /// @param version The version of the Dapp\r\n    /// @param chainId The chain Id where the data will be signed\r\n    /// @param salt An hardcoded byte32. One of the security measures for the signature\r\n\r\n    function generateDomainSepartor (address verifyingContract, string memory version, uint256 chainId, bytes32 salt) internal pure returns (bytes32) {\r\n\r\n        bytes32 EIP712_DOMAIN_HASH_TYPE = keccak256(\"EIP712Domain(string name,string version,uint256 chainId,address verifyingContract,bytes32 salt)\");\r\n\r\n        return keccak256(abi.encode(\r\n            EIP712_DOMAIN_HASH_TYPE,\r\n            keccak256(bytes(\"TANGL CAPITAL PARTNERS\")),\r\n            keccak256(bytes(version)),\r\n            chainId,\r\n            verifyingContract,\r\n            salt\r\n        ));\r\n    }\r\n\r\n\r\n    function hashHolder(Holder memory _holder) internal pure returns (bytes32) {\r\n\r\n        return keccak256(abi.encode(HOLDER_TYPED_HASH, keccak256(bytes(_holder.firstName)),  keccak256(bytes(_holder.lastName)), keccak256(bytes(_holder.location)), _holder.walletAddress));\r\n        \r\n    }\r\n\r\n\r\n\r\n    /// @notice this function generates the signed signature prefixed with \\x19\\x01. The result will be used to verify the signer\r\n    /// @param  _from The struct of the account to be debited\r\n    /// @param  _to The struct of the account to be credited\r\n    /// @dev    the hashHolder function hashes the _from and _to separately as they are different Holders entirely\r\n    /// @return the prefixed hash\r\n\r\n    function hashTransfer(Holder memory _from, Holder memory _to, uint256 _amount) public pure returns (bytes32) {\r\n        \r\n        return keccak256(\r\n            abi.encodePacked(\r\n                \"\\x19\\x01\", \r\n                generateDomainSepartor(0x549f71200b5Ee3F3C04EF5A29e7c70d40E42ed83, \"1\", 1337, 0x54132a91a1bafcf3d90beaad0c0d5f0bda635715da5017e515739dbb823f282d),\r\n                keccak256(abi.encode(\r\n                    TRANSFER_TYPED_HASH,\r\n                    hashHolder(_from),\r\n                    hashHolder(_to),\r\n                    _amount\r\n                ))\r\n\r\n            ));\r\n    }\r\n\r\n\r\n\r\n    /// @notice This function computes the r s v value of a signature\r\n    /// @param _signature The data generated from the signed Typed data \r\n    /// @return r s v values\r\n    \r\n\r\n    function _split(bytes memory _signature) internal pure returns (bytes32 r, bytes32 s, uint8 v) {\r\n\r\n        require(_signature.length == 65, \"0x5f\"); // invalid signature length\r\n\r\n        assembly {\r\n\r\n            r := mload(add(_signature, 32))\r\n            s := mload(add(_signature, 64))\r\n            v := byte(0, mload(add(_signature, 96)))\r\n           \r\n\r\n        }\r\n\r\n    }\r\n\r\n    /// @notice verify the signer of a signature using the prefixed signed hash\r\n    /// @param _signature The data generated from the signed Typed data \r\n    /// @param _ethHash The prefixed signature generated by the contract\r\n    /// @return the address of the signer\r\n\r\n    function verifySignature(bytes memory _signature, bytes32 _ethHash) public pure returns (address) {\r\n\r\n\r\n        (bytes32 r, bytes32 s, uint8 v) = _split(_signature);\r\n        require (ecrecover(_ethHash, v, r, s) != address(0), \"0x59\"); // invalid signer\r\n        return ecrecover(_ethHash, v, r, s);\r\n\r\n    }\r\n\r\n\r\n    /// @notice decode the typed signature bytes data and the hash bytes32 data from the encoded data\r\n    /// @param _encodedSignature The encoded data containing the signature and the signature hash \r\n    /// @return the signature and the hash\r\n\r\n    function decodeData(bytes memory _encodedSignature) internal pure returns (bytes memory, bytes32, bool, bool) {\r\n        return abi.decode(_encodedSignature, (bytes, bytes32, bool, bool));\r\n    }\r\n\r\n}",
  "sourcePath": "C:\\Users\\komolehin\\Documents\\Israel Linux\\blockchain\\TANGL\\security token\\contracts\\utils\\Certificate.sol",
  "compiler": {
    "name": "solc",
    "version": "0.8.10+commit.fc410830.Emscripten.clang"
  },
  "schemaVersion": "3.4.6",
  "updatedAt": "2022-03-27T20:15:20.822Z",
  "devdoc": {
    "kind": "dev",
    "methods": {
      "hashTransfer((string,string,string,address),(string,string,string,address),uint256)": {
        "details": "the hashHolder function hashes the _from and _to separately as they are different Holders entirely",
        "params": {
          "_from": "The struct of the account to be debited",
          "_to": "The struct of the account to be credited"
        },
        "returns": {
          "_0": "the prefixed hash"
        }
      },
      "verifySignature(bytes,bytes32)": {
        "params": {
          "_ethHash": "The prefixed signature generated by the contract",
          "_signature": "The data generated from the signed Typed data "
        },
        "returns": {
          "_0": "the address of the signer"
        }
      }
    },
    "version": 1
  },
  "userdoc": {
    "kind": "user",
    "methods": {
      "hashTransfer((string,string,string,address),(string,string,string,address),uint256)": {
        "notice": "this function generates the signed signature prefixed with \\x19\\x01. The result will be used to verify the signer"
      },
      "verifySignature(bytes,bytes32)": {
        "notice": "verify the signer of a signature using the prefixed signed hash"
      }
    },
    "version": 1
  }
}