{
  "contractName": "EIP712",
  "abi": [
    {
      "inputs": [],
      "name": "_ethHash",
      "outputs": [
        {
          "internalType": "bytes32",
          "name": "",
          "type": "bytes32"
        }
      ],
      "stateMutability": "view",
      "type": "function",
      "constant": true
    },
    {
      "inputs": [
        {
          "components": [
            {
              "internalType": "address",
              "name": "_from",
              "type": "address"
            },
            {
              "internalType": "address",
              "name": "_to",
              "type": "address"
            },
            {
              "internalType": "uint256",
              "name": "_amount",
              "type": "uint256"
            }
          ],
          "internalType": "struct EIP712.Identitty",
          "name": "_identity",
          "type": "tuple"
        }
      ],
      "name": "hashIdentity",
      "outputs": [
        {
          "internalType": "bytes32",
          "name": "",
          "type": "bytes32"
        }
      ],
      "stateMutability": "pure",
      "type": "function",
      "constant": true
    },
    {
      "inputs": [
        {
          "components": [
            {
              "internalType": "address",
              "name": "_from",
              "type": "address"
            },
            {
              "internalType": "address",
              "name": "_to",
              "type": "address"
            },
            {
              "internalType": "uint256",
              "name": "_amount",
              "type": "uint256"
            }
          ],
          "internalType": "struct EIP712.Identitty",
          "name": "_identity",
          "type": "tuple"
        }
      ],
      "name": "ethHash",
      "outputs": [
        {
          "internalType": "bytes32",
          "name": "",
          "type": "bytes32"
        }
      ],
      "stateMutability": "nonpayable",
      "type": "function"
    }
  ],
  "bytecode": "0x6080604052306000806101000a81548173ffffffffffffffffffffffffffffffffffffffff021916908373ffffffffffffffffffffffffffffffffffffffff1602179055506040518060a00160405280606381526020016108c2606391396040518060400160405280600981526020017f44617070204e616d650000000000000000000000000000000000000000000000815250805190602001206040518060400160405280600181526020017f31000000000000000000000000000000000000000000000000000000000000008152508051906020012061169160008054906101000a900473ffffffffffffffffffffffffffffffffffffffff167f54132a91a1bafcf3d90beaad0c0d5f0bda635715da5017e515739dbb823f282d60001b604051602001610134969594939291906102a9565b6040516020818303038152906040528051906020012060025534801561015957600080fd5b50610315565b600081519050919050565b600081905092915050565b60005b83811015610193578082015181840152602081019050610178565b838111156101a2576000848401525b50505050565b60006101b38261015f565b6101bd818561016a565b93506101cd818560208601610175565b80840191505092915050565b6000819050919050565b6000819050919050565b6101fe6101f9826101d9565b6101e3565b82525050565b6000819050919050565b6000819050919050565b61022961022482610204565b61020e565b82525050565b600073ffffffffffffffffffffffffffffffffffffffff82169050919050565b600061025a8261022f565b9050919050565b60008160601b9050919050565b600061027982610261565b9050919050565b600061028b8261026e565b9050919050565b6102a361029e8261024f565b610280565b82525050565b60006102b582896101a8565b91506102c182886101ed565b6020820191506102d182876101ed565b6020820191506102e18286610218565b6020820191506102f18285610292565b60148201915061030182846101ed565b602082019150819050979650505050505050565b61059e806103246000396000f3fe608060405234801561001057600080fd5b50600436106100415760003560e01c80633fb587b6146100465780635609c246146100765780637ece0995146100a6575b600080fd5b610060600480360381019061005b9190610301565b6100c4565b60405161006d9190610347565b60405180910390f35b610090600480360381019061008b9190610301565b61011e565b60405161009d9190610347565b60405180910390f35b6100ae610163565b6040516100bb9190610347565b60405180910390f35b6000604051806060016040528060358152602001610534603591398260000151836020015184604001516040516020016101019493929190610445565b604051602081830303815290604052805190602001209050919050565b600060025461012c836100c4565b60405160200161013d9291906104fc565b604051602081830303815290604052805190602001206001819055506001549050919050565b60015481565b6000604051905090565b600080fd5b600080fd5b6000601f19601f8301169050919050565b7f4e487b7100000000000000000000000000000000000000000000000000000000600052604160045260246000fd5b6101c68261017d565b810181811067ffffffffffffffff821117156101e5576101e461018e565b5b80604052505050565b60006101f8610169565b905061020482826101bd565b919050565b600073ffffffffffffffffffffffffffffffffffffffff82169050919050565b600061023482610209565b9050919050565b61024481610229565b811461024f57600080fd5b50565b6000813590506102618161023b565b92915050565b6000819050919050565b61027a81610267565b811461028557600080fd5b50565b60008135905061029781610271565b92915050565b6000606082840312156102b3576102b2610178565b5b6102bd60606101ee565b905060006102cd84828501610252565b60008301525060206102e184828501610252565b60208301525060406102f584828501610288565b60408301525092915050565b60006060828403121561031757610316610173565b5b60006103258482850161029d565b91505092915050565b6000819050919050565b6103418161032e565b82525050565b600060208201905061035c6000830184610338565b92915050565b600081519050919050565b600081905092915050565b60005b8381101561039657808201518184015260208101905061037b565b838111156103a5576000848401525b50505050565b60006103b682610362565b6103c0818561036d565b93506103d0818560208601610378565b80840191505092915050565b60008160601b9050919050565b60006103f4826103dc565b9050919050565b6000610406826103e9565b9050919050565b61041e61041982610229565b6103fb565b82525050565b6000819050919050565b61043f61043a82610267565b610424565b82525050565b600061045182876103ab565b915061045d828661040d565b60148201915061046d828561040d565b60148201915061047d828461042e565b60208201915081905095945050505050565b7f5c7831395c783031000000000000000000000000000000000000000000000000600082015250565b60006104c560088361036d565b91506104d08261048f565b600882019050919050565b6000819050919050565b6104f66104f18261032e565b6104db565b82525050565b6000610507826104b8565b915061051382856104e5565b60208201915061052382846104e5565b602082019150819050939250505056fe4964656e746974792861646472657373205f66726f6d2c2061646472657373205f746f2c2075696e74323536205f616d6f756e7429a2646970667358221220340a8006db2e2dac412603bc67224896b7c54b0f1b10eb3666dec7e9b1bf190464736f6c634300080a0033454950373132446f6d61696e28737472696e67206e616d652c20737472696e672076657273696f6e2c2075696e7432353620636861696e49642c206164647265737320766572696679696e67436f6e74726163742c20627974657333322073616c7429",
  "immutableReferences": {},
  "source": "pragma solidity 0.8.10;\r\n\r\ncontract EIP712 {\r\n\r\n    //  EIP712 standard for signing a structured data\r\n\r\n    struct Identitty {\r\n\r\n        address _from;\r\n        address _to;\r\n        uint256 _amount;\r\n\r\n    }\r\n\r\n    string constant IDENTITY_TYPEHASH = \"Identity(address _from, address _to, uint256 _amount)\";\r\n\r\n\r\n    // ******* Define the Domain Separator Values ****** //\r\n\r\n    uint256 constant chainId = 5777;\r\n    address verifyingContract = address(this);\r\n    bytes32 constant salt = 0x54132a91a1bafcf3d90beaad0c0d5f0bda635715da5017e515739dbb823f282d;      // an hardcoded salt value\r\n    string constant EIP712_DOMAIN_HASH_TYPE = \"EIP712Domain(string name, string version, uint256 chainId, address verifyingContract, bytes32 salt)\";\r\n\r\n    bytes32 public _ethHash;\r\n\r\n    bytes32 DOMAIN_SEPARATOR = keccak256(abi.encodePacked(\r\n\r\n        EIP712_DOMAIN_HASH_TYPE,\r\n        keccak256(bytes(\"Dapp Name\")),\r\n        keccak256(bytes(\"1\")),\r\n        chainId,\r\n        verifyingContract,\r\n        salt\r\n\r\n    ));\r\n\r\n    // function to hash the Identity data\r\n\r\n    function hashIdentity(Identitty memory _identity) public pure returns (bytes32) {\r\n\r\n        return keccak256(abi.encodePacked(IDENTITY_TYPEHASH, _identity._from, _identity._to, _identity._amount));\r\n\r\n    }\r\n\r\n\r\n    // function to hash the hashed Identity\r\n\r\n    function ethHash(Identitty memory _identity) public returns (bytes32) {\r\n        \r\n        _ethHash =  keccak256(\r\n            abi.encodePacked(\r\n                \"\\\\x19\\\\x01\",\r\n                DOMAIN_SEPARATOR,\r\n                hashIdentity(_identity)\r\n                \r\n            )\r\n        );\r\n\r\n        return _ethHash;\r\n    }\r\n\r\n\r\n\r\n\r\n}\r\n\r\n",
  "sourcePath": "C:\\Users\\Uju Nobei\\Documents\\Israel Linux\\blockchain\\TANGL\\security token\\contracts\\EIP712Certificate.sol",
  "compiler": {
    "name": "solc",
    "version": "0.8.10+commit.fc410830.Emscripten.clang"
  },
  "schemaVersion": "3.4.3",
  "updatedAt": "2022-02-14T20:45:11.589Z",
  "networkType": "ethereum",
  "devdoc": {
    "kind": "dev",
    "methods": {},
    "version": 1
  },
  "userdoc": {
    "kind": "user",
    "methods": {},
    "version": 1
  }
}