{
  "contractName": "EIP712",
  "abi": [
    {
      "inputs": [],
      "name": "_ethHash",
      "outputs": [
        {
          "internalType": "bytes32",
          "name": "",
          "type": "bytes32"
        }
      ],
      "stateMutability": "view",
      "type": "function"
    },
    {
      "inputs": [],
      "name": "returnedSigner",
      "outputs": [
        {
          "internalType": "address",
          "name": "",
          "type": "address"
        }
      ],
      "stateMutability": "view",
      "type": "function"
    },
    {
      "inputs": [
        {
          "components": [
            {
              "internalType": "string",
              "name": "_from",
              "type": "string"
            },
            {
              "internalType": "uint256",
              "name": "_amount",
              "type": "uint256"
            }
          ],
          "internalType": "struct EIP712.Identity",
          "name": "_identity",
          "type": "tuple"
        }
      ],
      "name": "hashIdentity",
      "outputs": [
        {
          "internalType": "bytes32",
          "name": "",
          "type": "bytes32"
        }
      ],
      "stateMutability": "pure",
      "type": "function"
    },
    {
      "inputs": [
        {
          "components": [
            {
              "internalType": "string",
              "name": "_from",
              "type": "string"
            },
            {
              "internalType": "uint256",
              "name": "_amount",
              "type": "uint256"
            }
          ],
          "internalType": "struct EIP712.Identity",
          "name": "_identity",
          "type": "tuple"
        }
      ],
      "name": "ethHash",
      "outputs": [
        {
          "internalType": "bytes32",
          "name": "",
          "type": "bytes32"
        }
      ],
      "stateMutability": "nonpayable",
      "type": "function"
    },
    {
      "inputs": [
        {
          "internalType": "bytes",
          "name": "_signature",
          "type": "bytes"
        }
      ],
      "name": "_split",
      "outputs": [
        {
          "internalType": "bytes32",
          "name": "r",
          "type": "bytes32"
        },
        {
          "internalType": "bytes32",
          "name": "s",
          "type": "bytes32"
        },
        {
          "internalType": "uint8",
          "name": "v",
          "type": "uint8"
        }
      ],
      "stateMutability": "nonpayable",
      "type": "function"
    },
    {
      "inputs": [
        {
          "internalType": "bytes",
          "name": "_signature",
          "type": "bytes"
        }
      ],
      "name": "verifySignature",
      "outputs": [
        {
          "internalType": "address",
          "name": "",
          "type": "address"
        }
      ],
      "stateMutability": "nonpayable",
      "type": "function"
    },
    {
      "inputs": [],
      "name": "chainID",
      "outputs": [
        {
          "internalType": "uint256",
          "name": "",
          "type": "uint256"
        }
      ],
      "stateMutability": "view",
      "type": "function"
    }
  ],
  "bytecode": "0x608060405273549f71200b5ee3f3c04ef5a29e7c70d40e42ed83600160006101000a81548173ffffffffffffffffffffffffffffffffffffffff021916908373ffffffffffffffffffffffffffffffffffffffff1602179055507fd87cd6ef79d4e2b95e15ce8abf732db51ec771f1ca2edccf22a46c729ac564726040518060400160405280600581526020017f54414e474c000000000000000000000000000000000000000000000000000000815250805190602001206040518060400160405280600181526020017f3100000000000000000000000000000000000000000000000000000000000000815250805190602001206004600160009054906101000a900473ffffffffffffffffffffffffffffffffffffffff167f54132a91a1bafcf3d90beaad0c0d5f0bda635715da5017e515739dbb823f282d60001b604051602001610152969594939291906101f0565b6040516020818303038152906040528051906020012060035534801561017757600080fd5b50610251565b6000819050919050565b6101908161017d565b82525050565b6000819050919050565b6101a981610196565b82525050565b600073ffffffffffffffffffffffffffffffffffffffff82169050919050565b60006101da826101af565b9050919050565b6101ea816101cf565b82525050565b600060c0820190506102056000830189610187565b6102126020830188610187565b61021f6040830187610187565b61022c60608301866101a0565b61023960808301856101e1565b61024660a0830184610187565b979650505050505050565b6109b6806102606000396000f3fe608060405234801561001057600080fd5b506004361061007d5760003560e01c806382bb89691161005b57806382bb8969146100ee578063adc879e91461011e578063e15a245a1461013c578063f80af9841461016e5761007d565b8063213eba921461008257806336049492146100b25780637ece0995146100d0575b600080fd5b61009c60048036038101906100979190610598565b61019e565b6040516100a991906105fa565b60405180910390f35b6100ba6101e3565b6040516100c79190610656565b60405180910390f35b6100d8610207565b6040516100e591906105fa565b60405180910390f35b61010860048036038101906101039190610598565b61020d565b60405161011591906105fa565b60405180910390f35b610126610270565b6040516101339190610680565b60405180910390f35b6101566004803603810190610151919061073c565b61027d565b604051610165939291906107a1565b60405180910390f35b6101886004803603810190610183919061073c565b6102e5565b6040516101959190610656565b60405180910390f35b60006003546101ac8361020d565b6040516020016101bd929190610850565b604051602081830303815290604052805190602001206002819055506002549050919050565b60008054906101000a900473ffffffffffffffffffffffffffffffffffffffff1681565b60025481565b60007fda45495d5659544e46ecf022c93d3b572406bde5592bb03d331cbc8728061d9f826000015180519060200120836020015160405160200161025393929190610887565b604051602081830303815290604052805190602001209050919050565b6000804690508091505090565b600080600060418451146102c6576040517f08c379a00000000000000000000000000000000000000000000000000000000081526004016102bd9061091b565b60405180910390fd5b6020840151925060408401519150606084015160001a90509193909250565b6000806000806102f48561027d565b92509250925060016002548285856040516000815260200160405260405161031f949392919061093b565b6020604051602081039080840390855afa158015610341573d6000803e3d6000fd5b505050602060405103516000806101000a81548173ffffffffffffffffffffffffffffffffffffffff021916908373ffffffffffffffffffffffffffffffffffffffff160217905550505050919050565b6000604051905090565b600080fd5b600080fd5b600080fd5b6000601f19601f8301169050919050565b7f4e487b7100000000000000000000000000000000000000000000000000000000600052604160045260246000fd5b6103f4826103ab565b810181811067ffffffffffffffff82111715610413576104126103bc565b5b80604052505050565b6000610426610392565b905061043282826103eb565b919050565b600080fd5b600080fd5b600080fd5b600067ffffffffffffffff821115610461576104606103bc565b5b61046a826103ab565b9050602081019050919050565b82818337600083830152505050565b600061049961049484610446565b61041c565b9050828152602081018484840111156104b5576104b4610441565b5b6104c0848285610477565b509392505050565b600082601f8301126104dd576104dc61043c565b5b81356104ed848260208601610486565b91505092915050565b6000819050919050565b610509816104f6565b811461051457600080fd5b50565b60008135905061052681610500565b92915050565b600060408284031215610542576105416103a6565b5b61054c604061041c565b9050600082013567ffffffffffffffff81111561056c5761056b610437565b5b610578848285016104c8565b600083015250602061058c84828501610517565b60208301525092915050565b6000602082840312156105ae576105ad61039c565b5b600082013567ffffffffffffffff8111156105cc576105cb6103a1565b5b6105d88482850161052c565b91505092915050565b6000819050919050565b6105f4816105e1565b82525050565b600060208201905061060f60008301846105eb565b92915050565b600073ffffffffffffffffffffffffffffffffffffffff82169050919050565b600061064082610615565b9050919050565b61065081610635565b82525050565b600060208201905061066b6000830184610647565b92915050565b61067a816104f6565b82525050565b60006020820190506106956000830184610671565b92915050565b600067ffffffffffffffff8211156106b6576106b56103bc565b5b6106bf826103ab565b9050602081019050919050565b60006106df6106da8461069b565b61041c565b9050828152602081018484840111156106fb576106fa610441565b5b610706848285610477565b509392505050565b600082601f8301126107235761072261043c565b5b81356107338482602086016106cc565b91505092915050565b6000602082840312156107525761075161039c565b5b600082013567ffffffffffffffff8111156107705761076f6103a1565b5b61077c8482850161070e565b91505092915050565b600060ff82169050919050565b61079b81610785565b82525050565b60006060820190506107b660008301866105eb565b6107c360208301856105eb565b6107d06040830184610792565b949350505050565b600081905092915050565b7f1901000000000000000000000000000000000000000000000000000000000000600082015250565b60006108196002836107d8565b9150610824826107e3565b600282019050919050565b6000819050919050565b61084a610845826105e1565b61082f565b82525050565b600061085b8261080c565b91506108678285610839565b6020820191506108778284610839565b6020820191508190509392505050565b600060608201905061089c60008301866105eb565b6108a960208301856105eb565b6108b66040830184610671565b949350505050565b600082825260208201905092915050565b7f696e76616c6964207369676e6174757265206c656e6774680000000000000000600082015250565b60006109056018836108be565b9150610910826108cf565b602082019050919050565b60006020820190508181036000830152610934816108f8565b9050919050565b600060808201905061095060008301876105eb565b61095d6020830186610792565b61096a60408301856105eb565b61097760608301846105eb565b9594505050505056fea26469706673582212203bb6ce894375bb10f91a3c5ce95376fbbf01385f29663ac5bedff745dc11f94964736f6c634300080a0033",
  "immutableReferences": {},
  "source": "pragma solidity 0.8.10;\r\n\r\ncontract EIP712 {\r\n\r\n    //  EIP712 standard for signing a structured data\r\n\r\n\r\n\r\n    struct Identity {\r\n\r\n        string _from;\r\n        //string _to;\r\n        uint256 _amount;\r\n\r\n    }\r\n\r\n    address public returnedSigner;\r\n    \r\n\r\n    \r\n\r\n    bytes32 constant IDENTITY_TYPEHASH = keccak256(\"Identity(string _from,uint256 _amount)\");\r\n\r\n\r\n    // ******* Define the Domain Separator Values ****** //\r\n\r\n    uint256 constant chainId = 4;\r\n    address verifyingContract = 0x549f71200b5Ee3F3C04EF5A29e7c70d40E42ed83; // an hardcoded contract address\r\n    bytes32 constant salt = 0x54132a91a1bafcf3d90beaad0c0d5f0bda635715da5017e515739dbb823f282d;      // an hardcoded salt value\r\n    bytes32 constant EIP712_DOMAIN_HASH_TYPE = keccak256(\"EIP712Domain(string name,string version,uint256 chainId,address verifyingContract,bytes32 salt)\");\r\n\r\n    bytes32 public _ethHash;\r\n\r\n    bytes32 DOMAIN_SEPARATOR = keccak256(abi.encode(\r\n\r\n        EIP712_DOMAIN_HASH_TYPE,\r\n        keccak256(bytes(\"TANGL\")),\r\n        keccak256(bytes(\"1\")),\r\n        chainId,\r\n        verifyingContract,\r\n        salt\r\n\r\n    ));\r\n\r\n    // function to hash the Identity data\r\n\r\n    function hashIdentity(Identity memory _identity) public pure returns (bytes32) {\r\n \r\n\r\n        return keccak256(abi.encode(IDENTITY_TYPEHASH, keccak256(bytes(_identity._from)),  _identity._amount));\r\n\r\n    }\r\n\r\n\r\n    // function to hash the hashed Identity\r\n\r\n    function ethHash(Identity memory _identity) public returns (bytes32) {\r\n        \r\n        _ethHash =  keccak256(abi.encodePacked(\"\\x19\\x01\", DOMAIN_SEPARATOR, hashIdentity(_identity)));\r\n\r\n        return _ethHash;\r\n    }\r\n    \r\n\r\n    // recover function\r\n\r\n    function _split(bytes memory _signature) public returns (bytes32 r, bytes32 s, uint8 v) {\r\n\r\n        require(_signature.length == 65, \"invalid signature length\");\r\n\r\n        assembly {\r\n\r\n            r := mload(add(_signature, 32))\r\n            s := mload(add(_signature, 64))\r\n            v := byte(0, mload(add(_signature, 96)))\r\n           \r\n\r\n        }\r\n\r\n    }\r\n\r\n    // verify the signer using the ethereum signed hash and the signature\r\n\r\n    function verifySignature(bytes memory _signature) public returns (address) {\r\n\r\n\r\n            (bytes32 r, bytes32 s, uint8 v) = _split(_signature);\r\n\r\n            returnedSigner = ecrecover(_ethHash, v, r, s);\r\n\r\n    }\r\n\r\n    function chainID() external view returns (uint256) {\r\n\r\n        uint256 id;\r\n        assembly {\r\n            id := chainid()\r\n        }\r\n\r\n        return id;\r\n\r\n    }\r\n\r\n\r\n\r\n}\r\n\r\n",
  "sourcePath": "C:\\Users\\Uju Nobei\\Documents\\Israel Linux\\blockchain\\TANGL\\security token\\contracts\\EIP712Certificate.sol",
  "compiler": {
    "name": "solc",
    "version": "0.8.10+commit.fc410830.Emscripten.clang"
  },
  "schemaVersion": "3.4.6",
  "updatedAt": "2022-03-24T19:03:09.120Z",
  "networkType": "ethereum",
  "devdoc": {
    "kind": "dev",
    "methods": {},
    "version": 1
  },
  "userdoc": {
    "kind": "user",
    "methods": {},
    "version": 1
  }
}