{
  "contractName": "ERC1400",
  "abi": [
    {
      "inputs": [
        {
          "internalType": "string",
          "name": "_name",
          "type": "string"
        },
        {
          "internalType": "string",
          "name": "_symbol",
          "type": "string"
        },
        {
          "internalType": "uint256",
          "name": "_granularity",
          "type": "uint256"
        },
        {
          "internalType": "uint256",
          "name": "_totalSupply",
          "type": "uint256"
        },
        {
          "internalType": "bytes32[]",
          "name": "defaultPartitions",
          "type": "bytes32[]"
        }
      ],
      "stateMutability": "nonpayable",
      "type": "constructor"
    },
    {
      "anonymous": false,
      "inputs": [
        {
          "indexed": false,
          "internalType": "address",
          "name": "_tokenHolder",
          "type": "address"
        },
        {
          "indexed": false,
          "internalType": "address",
          "name": "_externalAddress",
          "type": "address"
        },
        {
          "indexed": false,
          "internalType": "uint256",
          "name": "_amount",
          "type": "uint256"
        }
      ],
      "name": "Approval",
      "type": "event"
    },
    {
      "anonymous": false,
      "inputs": [
        {
          "indexed": true,
          "internalType": "address",
          "name": "_operator",
          "type": "address"
        },
        {
          "indexed": true,
          "internalType": "address",
          "name": "_tokenHolder",
          "type": "address"
        }
      ],
      "name": "AuthorizedOperator",
      "type": "event"
    },
    {
      "anonymous": false,
      "inputs": [
        {
          "indexed": true,
          "internalType": "bytes32",
          "name": "_partition",
          "type": "bytes32"
        },
        {
          "indexed": true,
          "internalType": "address",
          "name": "_operator",
          "type": "address"
        },
        {
          "indexed": true,
          "internalType": "address",
          "name": "_tokenHolder",
          "type": "address"
        }
      ],
      "name": "AuthorizedOperatorByPartition",
      "type": "event"
    },
    {
      "anonymous": false,
      "inputs": [
        {
          "indexed": false,
          "internalType": "address",
          "name": "_controller",
          "type": "address"
        },
        {
          "indexed": true,
          "internalType": "address",
          "name": "_tokenHolder",
          "type": "address"
        },
        {
          "indexed": false,
          "internalType": "uint256",
          "name": "_value",
          "type": "uint256"
        },
        {
          "indexed": false,
          "internalType": "bytes",
          "name": "_data",
          "type": "bytes"
        },
        {
          "indexed": false,
          "internalType": "bytes",
          "name": "_operatorData",
          "type": "bytes"
        }
      ],
      "name": "ControllerRedemption",
      "type": "event"
    },
    {
      "anonymous": false,
      "inputs": [
        {
          "indexed": false,
          "internalType": "address",
          "name": "_controller",
          "type": "address"
        },
        {
          "indexed": true,
          "internalType": "address",
          "name": "_from",
          "type": "address"
        },
        {
          "indexed": true,
          "internalType": "address",
          "name": "_to",
          "type": "address"
        },
        {
          "indexed": false,
          "internalType": "uint256",
          "name": "_value",
          "type": "uint256"
        },
        {
          "indexed": false,
          "internalType": "bytes",
          "name": "_data",
          "type": "bytes"
        },
        {
          "indexed": false,
          "internalType": "bytes",
          "name": "_operatorData",
          "type": "bytes"
        }
      ],
      "name": "ControllerTransfer",
      "type": "event"
    },
    {
      "anonymous": false,
      "inputs": [
        {
          "indexed": true,
          "internalType": "bytes32",
          "name": "_name",
          "type": "bytes32"
        },
        {
          "indexed": false,
          "internalType": "string",
          "name": "_uri",
          "type": "string"
        },
        {
          "indexed": false,
          "internalType": "bytes32",
          "name": "_documentHash",
          "type": "bytes32"
        }
      ],
      "name": "Document",
      "type": "event"
    },
    {
      "anonymous": false,
      "inputs": [
        {
          "indexed": false,
          "internalType": "address",
          "name": "_to",
          "type": "address"
        },
        {
          "indexed": false,
          "internalType": "uint256",
          "name": "_amountIssued",
          "type": "uint256"
        },
        {
          "indexed": false,
          "internalType": "uint256",
          "name": "_totalSupply",
          "type": "uint256"
        },
        {
          "indexed": false,
          "internalType": "uint256",
          "name": "_timeIssued",
          "type": "uint256"
        }
      ],
      "name": "Issued",
      "type": "event"
    },
    {
      "anonymous": false,
      "inputs": [
        {
          "indexed": true,
          "internalType": "bytes32",
          "name": "_partition",
          "type": "bytes32"
        },
        {
          "indexed": true,
          "internalType": "address",
          "name": "_operator",
          "type": "address"
        },
        {
          "indexed": true,
          "internalType": "address",
          "name": "_to",
          "type": "address"
        },
        {
          "indexed": false,
          "internalType": "uint256",
          "name": "_amount",
          "type": "uint256"
        },
        {
          "indexed": false,
          "internalType": "bytes",
          "name": "_data",
          "type": "bytes"
        },
        {
          "indexed": false,
          "internalType": "bytes",
          "name": "_operatorData",
          "type": "bytes"
        }
      ],
      "name": "IssuedByPartition",
      "type": "event"
    },
    {
      "anonymous": false,
      "inputs": [
        {
          "indexed": true,
          "internalType": "address",
          "name": "_operator",
          "type": "address"
        },
        {
          "indexed": true,
          "internalType": "address",
          "name": "_from",
          "type": "address"
        },
        {
          "indexed": false,
          "internalType": "uint256",
          "name": "_value",
          "type": "uint256"
        },
        {
          "indexed": false,
          "internalType": "bytes",
          "name": "_data",
          "type": "bytes"
        }
      ],
      "name": "Redeemed",
      "type": "event"
    },
    {
      "anonymous": false,
      "inputs": [
        {
          "indexed": true,
          "internalType": "bytes32",
          "name": "_partition",
          "type": "bytes32"
        },
        {
          "indexed": true,
          "internalType": "address",
          "name": "_operator",
          "type": "address"
        },
        {
          "indexed": true,
          "internalType": "address",
          "name": "_from",
          "type": "address"
        },
        {
          "indexed": false,
          "internalType": "uint256",
          "name": "_amount",
          "type": "uint256"
        },
        {
          "indexed": false,
          "internalType": "bytes",
          "name": "_operatorData",
          "type": "bytes"
        }
      ],
      "name": "RedeemedByPartition",
      "type": "event"
    },
    {
      "anonymous": false,
      "inputs": [
        {
          "indexed": true,
          "internalType": "address",
          "name": "_operator",
          "type": "address"
        },
        {
          "indexed": true,
          "internalType": "address",
          "name": "_tokenHolder",
          "type": "address"
        }
      ],
      "name": "RevokedOperator",
      "type": "event"
    },
    {
      "anonymous": false,
      "inputs": [
        {
          "indexed": true,
          "internalType": "bytes32",
          "name": "_partition",
          "type": "bytes32"
        },
        {
          "indexed": true,
          "internalType": "address",
          "name": "_operator",
          "type": "address"
        },
        {
          "indexed": true,
          "internalType": "address",
          "name": "_tokenHolder",
          "type": "address"
        }
      ],
      "name": "RevokedOperatorByPartition",
      "type": "event"
    },
    {
      "anonymous": false,
      "inputs": [
        {
          "indexed": false,
          "internalType": "address",
          "name": "_from",
          "type": "address"
        },
        {
          "indexed": false,
          "internalType": "address",
          "name": "_to",
          "type": "address"
        },
        {
          "indexed": false,
          "internalType": "uint256",
          "name": "_amount",
          "type": "uint256"
        }
      ],
      "name": "Transfer",
      "type": "event"
    },
    {
      "anonymous": false,
      "inputs": [
        {
          "indexed": true,
          "internalType": "bytes32",
          "name": "_fromPartition",
          "type": "bytes32"
        },
        {
          "indexed": false,
          "internalType": "address",
          "name": "_operator",
          "type": "address"
        },
        {
          "indexed": true,
          "internalType": "address",
          "name": "_from",
          "type": "address"
        },
        {
          "indexed": true,
          "internalType": "address",
          "name": "_to",
          "type": "address"
        },
        {
          "indexed": false,
          "internalType": "uint256",
          "name": "_value",
          "type": "uint256"
        },
        {
          "indexed": false,
          "internalType": "bytes",
          "name": "_data",
          "type": "bytes"
        },
        {
          "indexed": false,
          "internalType": "bytes",
          "name": "_operatorData",
          "type": "bytes"
        }
      ],
      "name": "TransferByPartition",
      "type": "event"
    },
    {
      "anonymous": false,
      "inputs": [
        {
          "indexed": false,
          "internalType": "address",
          "name": "_investor",
          "type": "address"
        },
        {
          "indexed": false,
          "internalType": "uint256",
          "name": "_timeAdded",
          "type": "uint256"
        }
      ],
      "name": "WhiteList",
      "type": "event"
    },
    {
      "inputs": [],
      "name": "granularity",
      "outputs": [
        {
          "internalType": "uint256",
          "name": "",
          "type": "uint256"
        }
      ],
      "stateMutability": "view",
      "type": "function"
    },
    {
      "inputs": [],
      "name": "name",
      "outputs": [
        {
          "internalType": "string",
          "name": "",
          "type": "string"
        }
      ],
      "stateMutability": "view",
      "type": "function"
    },
    {
      "inputs": [],
      "name": "symbol",
      "outputs": [
        {
          "internalType": "string",
          "name": "",
          "type": "string"
        }
      ],
      "stateMutability": "view",
      "type": "function"
    },
    {
      "inputs": [],
      "name": "totalSupply",
      "outputs": [
        {
          "internalType": "uint256",
          "name": "",
          "type": "uint256"
        }
      ],
      "stateMutability": "view",
      "type": "function"
    },
    {
      "inputs": [
        {
          "internalType": "bytes32[]",
          "name": "newDefaultPartitions",
          "type": "bytes32[]"
        }
      ],
      "name": "setDefaultPartitions",
      "outputs": [],
      "stateMutability": "nonpayable",
      "type": "function"
    },
    {
      "inputs": [
        {
          "internalType": "bytes32",
          "name": "_name",
          "type": "bytes32"
        },
        {
          "internalType": "string",
          "name": "_uri",
          "type": "string"
        },
        {
          "internalType": "bytes32",
          "name": "_documentHash",
          "type": "bytes32"
        }
      ],
      "name": "setDocument",
      "outputs": [],
      "stateMutability": "nonpayable",
      "type": "function"
    },
    {
      "inputs": [
        {
          "internalType": "bytes32",
          "name": "_name",
          "type": "bytes32"
        }
      ],
      "name": "getDocument",
      "outputs": [
        {
          "internalType": "string",
          "name": "uri",
          "type": "string"
        },
        {
          "internalType": "bytes32",
          "name": "docHash",
          "type": "bytes32"
        }
      ],
      "stateMutability": "view",
      "type": "function"
    },
    {
      "inputs": [
        {
          "internalType": "address",
          "name": "_tokenHolder",
          "type": "address"
        }
      ],
      "name": "balanceOf",
      "outputs": [
        {
          "internalType": "uint256",
          "name": "",
          "type": "uint256"
        }
      ],
      "stateMutability": "view",
      "type": "function"
    },
    {
      "inputs": [
        {
          "internalType": "bytes32",
          "name": "_partition",
          "type": "bytes32"
        },
        {
          "internalType": "address",
          "name": "_tokenHolder",
          "type": "address"
        }
      ],
      "name": "balanceOfByPartition",
      "outputs": [
        {
          "internalType": "uint256",
          "name": "",
          "type": "uint256"
        }
      ],
      "stateMutability": "view",
      "type": "function"
    },
    {
      "inputs": [
        {
          "internalType": "address",
          "name": "_tokenHolder",
          "type": "address"
        }
      ],
      "name": "partitionsOf",
      "outputs": [
        {
          "internalType": "bytes32[]",
          "name": "",
          "type": "bytes32[]"
        }
      ],
      "stateMutability": "view",
      "type": "function"
    },
    {
      "inputs": [
        {
          "internalType": "address",
          "name": "_externalAddress",
          "type": "address"
        },
        {
          "internalType": "uint256",
          "name": "_value",
          "type": "uint256"
        }
      ],
      "name": "approve",
      "outputs": [
        {
          "internalType": "bool",
          "name": "success",
          "type": "bool"
        }
      ],
      "stateMutability": "nonpayable",
      "type": "function"
    },
    {
      "inputs": [
        {
          "internalType": "address",
          "name": "_to",
          "type": "address"
        },
        {
          "internalType": "uint256",
          "name": "_value",
          "type": "uint256"
        }
      ],
      "name": "transfer",
      "outputs": [
        {
          "internalType": "bool",
          "name": "success",
          "type": "bool"
        }
      ],
      "stateMutability": "nonpayable",
      "type": "function"
    },
    {
      "inputs": [
        {
          "internalType": "address",
          "name": "_from",
          "type": "address"
        },
        {
          "internalType": "address",
          "name": "_to",
          "type": "address"
        },
        {
          "internalType": "uint256",
          "name": "_value",
          "type": "uint256"
        }
      ],
      "name": "transferFrom",
      "outputs": [
        {
          "internalType": "bool",
          "name": "success",
          "type": "bool"
        }
      ],
      "stateMutability": "nonpayable",
      "type": "function"
    },
    {
      "inputs": [
        {
          "internalType": "address",
          "name": "_to",
          "type": "address"
        },
        {
          "internalType": "uint256",
          "name": "_value",
          "type": "uint256"
        },
        {
          "internalType": "bytes",
          "name": "_data",
          "type": "bytes"
        }
      ],
      "name": "transferWithData",
      "outputs": [],
      "stateMutability": "nonpayable",
      "type": "function"
    },
    {
      "inputs": [
        {
          "internalType": "address",
          "name": "_from",
          "type": "address"
        },
        {
          "internalType": "address",
          "name": "_to",
          "type": "address"
        },
        {
          "internalType": "uint256",
          "name": "_value",
          "type": "uint256"
        },
        {
          "internalType": "bytes",
          "name": "_data",
          "type": "bytes"
        }
      ],
      "name": "transferFromWithData",
      "outputs": [],
      "stateMutability": "nonpayable",
      "type": "function"
    },
    {
      "inputs": [
        {
          "internalType": "bytes32",
          "name": "_partition",
          "type": "bytes32"
        },
        {
          "internalType": "address",
          "name": "_to",
          "type": "address"
        },
        {
          "internalType": "uint256",
          "name": "_value",
          "type": "uint256"
        },
        {
          "internalType": "bytes",
          "name": "_data",
          "type": "bytes"
        }
      ],
      "name": "transferByPartition",
      "outputs": [
        {
          "internalType": "bytes32",
          "name": "",
          "type": "bytes32"
        }
      ],
      "stateMutability": "nonpayable",
      "type": "function"
    },
    {
      "inputs": [
        {
          "internalType": "bytes32",
          "name": "_partition",
          "type": "bytes32"
        },
        {
          "internalType": "address",
          "name": "_from",
          "type": "address"
        },
        {
          "internalType": "address",
          "name": "_to",
          "type": "address"
        },
        {
          "internalType": "uint256",
          "name": "_value",
          "type": "uint256"
        },
        {
          "internalType": "bytes",
          "name": "_data",
          "type": "bytes"
        },
        {
          "internalType": "bytes",
          "name": "_operatorData",
          "type": "bytes"
        }
      ],
      "name": "operatorTransferByPartition",
      "outputs": [
        {
          "internalType": "bytes32",
          "name": "",
          "type": "bytes32"
        }
      ],
      "stateMutability": "nonpayable",
      "type": "function"
    },
    {
      "inputs": [],
      "name": "isControllable",
      "outputs": [
        {
          "internalType": "bool",
          "name": "",
          "type": "bool"
        }
      ],
      "stateMutability": "view",
      "type": "function"
    },
    {
      "inputs": [
        {
          "internalType": "address",
          "name": "_controller",
          "type": "address"
        }
      ],
      "name": "isController",
      "outputs": [
        {
          "internalType": "bool",
          "name": "",
          "type": "bool"
        }
      ],
      "stateMutability": "view",
      "type": "function"
    },
    {
      "inputs": [
        {
          "internalType": "bool",
          "name": "_status",
          "type": "bool"
        }
      ],
      "name": "setControllability",
      "outputs": [],
      "stateMutability": "nonpayable",
      "type": "function"
    },
    {
      "inputs": [
        {
          "internalType": "address",
          "name": "_controller",
          "type": "address"
        }
      ],
      "name": "setController",
      "outputs": [],
      "stateMutability": "nonpayable",
      "type": "function"
    },
    {
      "inputs": [],
      "name": "getControllers",
      "outputs": [
        {
          "internalType": "address[]",
          "name": "",
          "type": "address[]"
        }
      ],
      "stateMutability": "view",
      "type": "function"
    },
    {
      "inputs": [
        {
          "internalType": "address",
          "name": "_controller",
          "type": "address"
        }
      ],
      "name": "removeController",
      "outputs": [],
      "stateMutability": "nonpayable",
      "type": "function"
    },
    {
      "inputs": [
        {
          "internalType": "address",
          "name": "_from",
          "type": "address"
        },
        {
          "internalType": "address",
          "name": "_to",
          "type": "address"
        },
        {
          "internalType": "uint256",
          "name": "_value",
          "type": "uint256"
        },
        {
          "internalType": "bytes",
          "name": "_data",
          "type": "bytes"
        },
        {
          "internalType": "bytes",
          "name": "_operatorData",
          "type": "bytes"
        }
      ],
      "name": "controllerTransfer",
      "outputs": [],
      "stateMutability": "nonpayable",
      "type": "function"
    },
    {
      "inputs": [
        {
          "internalType": "address",
          "name": "_tokenHolder",
          "type": "address"
        },
        {
          "internalType": "uint256",
          "name": "_value",
          "type": "uint256"
        },
        {
          "internalType": "bytes",
          "name": "_data",
          "type": "bytes"
        },
        {
          "internalType": "bytes",
          "name": "_operatorData",
          "type": "bytes"
        }
      ],
      "name": "controllerRedeem",
      "outputs": [],
      "stateMutability": "nonpayable",
      "type": "function"
    },
    {
      "inputs": [
        {
          "internalType": "address",
          "name": "_operator",
          "type": "address"
        }
      ],
      "name": "authorizeOperator",
      "outputs": [],
      "stateMutability": "nonpayable",
      "type": "function"
    },
    {
      "inputs": [
        {
          "internalType": "address",
          "name": "_operator",
          "type": "address"
        }
      ],
      "name": "revokeOperator",
      "outputs": [],
      "stateMutability": "nonpayable",
      "type": "function"
    },
    {
      "inputs": [
        {
          "internalType": "bytes32",
          "name": "_partition",
          "type": "bytes32"
        },
        {
          "internalType": "address",
          "name": "_operator",
          "type": "address"
        }
      ],
      "name": "authorizeOperatorByPartition",
      "outputs": [],
      "stateMutability": "nonpayable",
      "type": "function"
    },
    {
      "inputs": [
        {
          "internalType": "bytes32",
          "name": "_partition",
          "type": "bytes32"
        },
        {
          "internalType": "address",
          "name": "_operator",
          "type": "address"
        }
      ],
      "name": "revokeOperatorByPartition",
      "outputs": [],
      "stateMutability": "nonpayable",
      "type": "function"
    },
    {
      "inputs": [
        {
          "internalType": "address",
          "name": "_operator",
          "type": "address"
        },
        {
          "internalType": "address",
          "name": "_tokenHolder",
          "type": "address"
        }
      ],
      "name": "isOperator",
      "outputs": [
        {
          "internalType": "bool",
          "name": "",
          "type": "bool"
        }
      ],
      "stateMutability": "view",
      "type": "function"
    },
    {
      "inputs": [
        {
          "internalType": "bytes32",
          "name": "_partition",
          "type": "bytes32"
        },
        {
          "internalType": "address",
          "name": "_operator",
          "type": "address"
        },
        {
          "internalType": "address",
          "name": "_tokenHolder",
          "type": "address"
        }
      ],
      "name": "isOperatorForPartition",
      "outputs": [
        {
          "internalType": "bool",
          "name": "",
          "type": "bool"
        }
      ],
      "stateMutability": "view",
      "type": "function"
    },
    {
      "inputs": [],
      "name": "isIssuable",
      "outputs": [
        {
          "internalType": "bool",
          "name": "",
          "type": "bool"
        }
      ],
      "stateMutability": "view",
      "type": "function"
    },
    {
      "inputs": [
        {
          "internalType": "address",
          "name": "_tokenHolder",
          "type": "address"
        },
        {
          "internalType": "uint256",
          "name": "_value",
          "type": "uint256"
        },
        {
          "internalType": "bytes",
          "name": "_data",
          "type": "bytes"
        }
      ],
      "name": "issue",
      "outputs": [],
      "stateMutability": "nonpayable",
      "type": "function"
    },
    {
      "inputs": [
        {
          "internalType": "bytes32",
          "name": "_partition",
          "type": "bytes32"
        },
        {
          "internalType": "address",
          "name": "_tokenHolder",
          "type": "address"
        },
        {
          "internalType": "uint256",
          "name": "_value",
          "type": "uint256"
        },
        {
          "internalType": "bytes",
          "name": "_data",
          "type": "bytes"
        }
      ],
      "name": "issueByPartition",
      "outputs": [],
      "stateMutability": "nonpayable",
      "type": "function"
    },
    {
      "inputs": [
        {
          "internalType": "uint256",
          "name": "_value",
          "type": "uint256"
        },
        {
          "internalType": "bytes",
          "name": "_data",
          "type": "bytes"
        }
      ],
      "name": "redeem",
      "outputs": [],
      "stateMutability": "nonpayable",
      "type": "function"
    },
    {
      "inputs": [
        {
          "internalType": "address",
          "name": "_tokenHolder",
          "type": "address"
        },
        {
          "internalType": "uint256",
          "name": "_value",
          "type": "uint256"
        },
        {
          "internalType": "bytes",
          "name": "_data",
          "type": "bytes"
        }
      ],
      "name": "redeemFrom",
      "outputs": [],
      "stateMutability": "nonpayable",
      "type": "function"
    },
    {
      "inputs": [
        {
          "internalType": "bytes32",
          "name": "_partition",
          "type": "bytes32"
        },
        {
          "internalType": "uint256",
          "name": "_value",
          "type": "uint256"
        },
        {
          "internalType": "bytes",
          "name": "_data",
          "type": "bytes"
        }
      ],
      "name": "redeemByPartition",
      "outputs": [],
      "stateMutability": "nonpayable",
      "type": "function"
    },
    {
      "inputs": [
        {
          "internalType": "bytes32",
          "name": "_partition",
          "type": "bytes32"
        },
        {
          "internalType": "address",
          "name": "_tokenHolder",
          "type": "address"
        },
        {
          "internalType": "uint256",
          "name": "_value",
          "type": "uint256"
        },
        {
          "internalType": "bytes",
          "name": "_operatorData",
          "type": "bytes"
        }
      ],
      "name": "operatorRedeemByPartition",
      "outputs": [],
      "stateMutability": "nonpayable",
      "type": "function"
    },
    {
      "inputs": [
        {
          "internalType": "address",
          "name": "_to",
          "type": "address"
        },
        {
          "internalType": "uint256",
          "name": "_value",
          "type": "uint256"
        },
        {
          "internalType": "bytes",
          "name": "_data",
          "type": "bytes"
        }
      ],
      "name": "canTransfer",
      "outputs": [
        {
          "internalType": "bytes1",
          "name": "code",
          "type": "bytes1"
        },
        {
          "internalType": "bytes32",
          "name": "reason",
          "type": "bytes32"
        }
      ],
      "stateMutability": "view",
      "type": "function"
    },
    {
      "inputs": [
        {
          "internalType": "address",
          "name": "_from",
          "type": "address"
        },
        {
          "internalType": "address",
          "name": "_to",
          "type": "address"
        },
        {
          "internalType": "uint256",
          "name": "_value",
          "type": "uint256"
        },
        {
          "internalType": "bytes",
          "name": "_data",
          "type": "bytes"
        }
      ],
      "name": "canTransferFrom",
      "outputs": [
        {
          "internalType": "bytes1",
          "name": "code",
          "type": "bytes1"
        },
        {
          "internalType": "bytes32",
          "name": "reason",
          "type": "bytes32"
        }
      ],
      "stateMutability": "view",
      "type": "function"
    },
    {
      "inputs": [
        {
          "internalType": "address",
          "name": "_from",
          "type": "address"
        },
        {
          "internalType": "address",
          "name": "_to",
          "type": "address"
        },
        {
          "internalType": "bytes32",
          "name": "_partition",
          "type": "bytes32"
        },
        {
          "internalType": "uint256",
          "name": "_value",
          "type": "uint256"
        },
        {
          "internalType": "bytes",
          "name": "_data",
          "type": "bytes"
        }
      ],
      "name": "canTransferByPartition",
      "outputs": [
        {
          "internalType": "bytes1",
          "name": "",
          "type": "bytes1"
        },
        {
          "internalType": "bytes32",
          "name": "",
          "type": "bytes32"
        },
        {
          "internalType": "bytes32",
          "name": "",
          "type": "bytes32"
        }
      ],
      "stateMutability": "view",
      "type": "function"
    },
    {
      "inputs": [],
      "name": "totalPartitions",
      "outputs": [
        {
          "internalType": "bytes32[]",
          "name": "",
          "type": "bytes32[]"
        }
      ],
      "stateMutability": "view",
      "type": "function"
    },
    {
      "inputs": [
        {
          "internalType": "bytes32[]",
          "name": "_newTotalPartitions",
          "type": "bytes32[]"
        }
      ],
      "name": "setTotalPartitions",
      "outputs": [],
      "stateMutability": "nonpayable",
      "type": "function"
    }
  ],
  "bytecode": "0x60806040526000600460146101000a81548160ff0219169083151502179055506001600460156101000a81548160ff0219169083151502179055506001600460166101000a81548160ff0219169083151502179055503480156200006257600080fd5b5060405162005db138038062005db183398181016040528101906200008891906200054a565b8460009080519060200190620000a09291906200013b565b508360019080519060200190620000b99291906200013b565b5082600a620000c99190620007b2565b6002819055508160038190555033600460006101000a81548173ffffffffffffffffffffffffffffffffffffffff021916908373ffffffffffffffffffffffffffffffffffffffff16021790555080600690805190602001906200012f929190620001cc565b50505050505062000868565b828054620001499062000832565b90600052602060002090601f0160209004810192826200016d5760008555620001b9565b82601f106200018857805160ff1916838001178555620001b9565b82800160010185558215620001b9579182015b82811115620001b85782518255916020019190600101906200019b565b5b509050620001c891906200021e565b5090565b8280548282559060005260206000209081019282156200020b579160200282015b828111156200020a578251825591602001919060010190620001ed565b5b5090506200021a91906200023d565b5090565b5b80821115620002395760008160009055506001016200021f565b5090565b5b80821115620002585760008160009055506001016200023e565b5090565b6000604051905090565b600080fd5b600080fd5b600080fd5b600080fd5b6000601f19601f8301169050919050565b7f4e487b7100000000000000000000000000000000000000000000000000000000600052604160045260246000fd5b620002c5826200027a565b810181811067ffffffffffffffff82111715620002e757620002e66200028b565b5b80604052505050565b6000620002fc6200025c565b90506200030a8282620002ba565b919050565b600067ffffffffffffffff8211156200032d576200032c6200028b565b5b62000338826200027a565b9050602081019050919050565b60005b838110156200036557808201518184015260208101905062000348565b8381111562000375576000848401525b50505050565b6000620003926200038c846200030f565b620002f0565b905082815260208101848484011115620003b157620003b062000275565b5b620003be84828562000345565b509392505050565b600082601f830112620003de57620003dd62000270565b5b8151620003f08482602086016200037b565b91505092915050565b6000819050919050565b6200040e81620003f9565b81146200041a57600080fd5b50565b6000815190506200042e8162000403565b92915050565b600067ffffffffffffffff8211156200045257620004516200028b565b5b602082029050602081019050919050565b600080fd5b6000819050919050565b6200047d8162000468565b81146200048957600080fd5b50565b6000815190506200049d8162000472565b92915050565b6000620004ba620004b48462000434565b620002f0565b90508083825260208201905060208402830185811115620004e057620004df62000463565b5b835b818110156200050d5780620004f888826200048c565b845260208401935050602081019050620004e2565b5050509392505050565b600082601f8301126200052f576200052e62000270565b5b815162000541848260208601620004a3565b91505092915050565b600080600080600060a0868803121562000569576200056862000266565b5b600086015167ffffffffffffffff8111156200058a57620005896200026b565b5b6200059888828901620003c6565b955050602086015167ffffffffffffffff811115620005bc57620005bb6200026b565b5b620005ca88828901620003c6565b9450506040620005dd888289016200041d565b9350506060620005f0888289016200041d565b925050608086015167ffffffffffffffff8111156200061457620006136200026b565b5b620006228882890162000517565b9150509295509295909350565b7f4e487b7100000000000000000000000000000000000000000000000000000000600052601160045260246000fd5b60008160011c9050919050565b6000808291508390505b6001851115620006bd578086048111156200069557620006946200062f565b5b6001851615620006a55780820291505b8081029050620006b5856200065e565b945062000675565b94509492505050565b600082620006d85760019050620007ab565b81620006e85760009050620007ab565b81600181146200070157600281146200070c5762000742565b6001915050620007ab565b60ff8411156200072157620007206200062f565b5b8360020a9150848211156200073b576200073a6200062f565b5b50620007ab565b5060208310610133831016604e8410600b84101617156200077c5782820a9050838111156200077657620007756200062f565b5b620007ab565b6200078b84848460016200066b565b92509050818404811115620007a557620007a46200062f565b5b81810290505b9392505050565b6000620007bf82620003f9565b9150620007cc83620003f9565b9250620007fb7fffffffffffffffffffffffffffffffffffffffffffffffffffffffffffffffff8484620006c6565b905092915050565b7f4e487b7100000000000000000000000000000000000000000000000000000000600052602260045260246000fd5b600060028204905060018216806200084b57607f821691505b6020821081141562000862576200086162000803565b5b50919050565b61553980620008786000396000f3fe608060405234801561001057600080fd5b50600436106102695760003560e01c806370a0823111610151578063b429afeb116100c3578063ec9a6e8711610087578063ec9a6e87146107a7578063ee532f31146107c3578063f282527a146107df578063f3d490db146107fb578063f6a74ed71461082b578063fad8b32a1461084757610269565b8063b429afeb146106f1578063b4e8a6c414610721578063b6363cf21461073f578063bb3acde91461076f578063e77c646d1461078b57610269565b806395d89b411161011557806395d89b41146106085780639675193c1461062657806398ddcec7146106425780639945e70e1461065e578063a9059cbb14610690578063b10d6b41146106c057610269565b806370a0823114610540578063740ab8f4146105705780638c0dee9c146105a057806392eefe9b146105d0578063959b8c3f146105ec57610269565b80632bc6acc3116101ea578063556f0dc7116101ae578063556f0dc71461048057806362eb00681461049e57806367c84919146104ba57806369598efe146104d65780636d77cad6146104f45780636fe8d3a61461052457610269565b80632bc6acc3146103dc5780632f1cae85146103f857806330e82803146104165780633d0f6866146104465780634c783bf51461046257610269565b8063168ecec511610231578063168ecec51461032557806318160ddd146103415780631badb25c1461035f57806323b872dd146103905780632535f762146103c057610269565b8063010648ca1461026e57806306fdde031461028a578063095ea7b3146102a8578063103ef9e1146102d8578063122eb575146102f4575b600080fd5b61028860048036038101906102839190613d8a565b610863565b005b61029261094b565b60405161029f9190613e97565b60405180910390f35b6102c260048036038101906102bd9190613f4d565b6109d9565b6040516102cf9190613fa8565b60405180910390f35b6102f260048036038101906102ed9190613fc3565b610b10565b005b61030e60048036038101906103099190614133565b610c15565b60405161031c929190614200565b60405180910390f35b61033f600480360381019061033a9190613fc3565b610f23565b005b610349611028565b6040516103569190614238565b60405180910390f35b61037960048036038101906103749190614253565b61102e565b604051610387929190614200565b60405180910390f35b6103aa60048036038101906103a591906142c2565b6111f9565b6040516103b79190613fa8565b60405180910390f35b6103da60048036038101906103d59190614253565b611353565b005b6103f660048036038101906103f1919061436b565b611364565b005b610400611413565b60405161040d9190613fa8565b60405180910390f35b610430600480360381019061042b9190613fc3565b61142a565b60405161043d9190614238565b60405180910390f35b610460600480360381019061045b91906144d5565b611485565b005b61046a61149f565b6040516104779190613fa8565b60405180910390f35b6104886114b6565b6040516104959190614238565b60405180910390f35b6104b860048036038101906104b3919061451e565b6114bc565b005b6104d460048036038101906104cf919061458d565b6114dd565b005b6104de611713565b6040516104eb91906146ce565b60405180910390f35b61050e600480360381019061050991906146f0565b61176b565b60405161051b9190613fa8565b60405180910390f35b61053e6004803603810190610539919061476f565b611811565b005b61055a6004803603810190610555919061479c565b6118be565b6040516105679190614238565b60405180910390f35b61058a6004803603810190610585919061479c565b611907565b60405161059791906146ce565b60405180910390f35b6105ba60048036038101906105b591906147c9565b611a3e565b6040516105c7919061488e565b60405180910390f35b6105ea60048036038101906105e5919061479c565b611cf1565b005b6106066004803603810190610601919061479c565b611f91565b005b610610612083565b60405161061d9190613e97565b60405180910390f35b610640600480360381019061063b9190614253565b612111565b005b61065c6004803603810190610657919061458d565b6121e0565b005b610678600480360381019061067391906148a9565b612452565b60405161068793929190614940565b60405180910390f35b6106aa60048036038101906106a59190613f4d565b6125da565b6040516106b79190613fa8565b60405180910390f35b6106da60048036038101906106d59190614977565b6125f2565b6040516106e89291906149a4565b60405180910390f35b61070b6004803603810190610706919061479c565b6126d1565b6040516107189190613fa8565b60405180910390f35b610729612727565b6040516107369190614a92565b60405180910390f35b61075960048036038101906107549190614ab4565b6127b5565b6040516107669190613fa8565b60405180910390f35b61078960048036038101906107849190614af4565b612849565b005b6107a560048036038101906107a09190614b68565b612a5f565b005b6107c160048036038101906107bc9190614c1a565b612a6e565b005b6107dd60048036038101906107d89190614133565b612a84565b005b6107f960048036038101906107f49190614c67565b612bd7565b005b6108156004803603810190610810919061458d565b612c5b565b604051610822919061488e565b60405180910390f35b6108456004803603810190610840919061479c565b612c83565b005b610861600480360381019061085c919061479c565b612eea565b005b604051806060016040528085815260200182815260200184848080601f016020809104026020016040519081016040528093929190818152602001838380828437600081840152601f19601f82011690508083019250505050505050815250600b600086815260200190815260200160002060008201518160000155602082015181600101556040820151816002019080519060200190610905929190613b81565b50905050837f89730c201d2df6a4cef4e892559e63e022078b0ee939d11b6ced61fb098b282484848460405161093d93929190614d50565b60405180910390a250505050565b6000805461095890614db1565b80601f016020809104026020016040519081016040528092919081815260200182805461098490614db1565b80156109d15780601f106109a6576101008083540402835291602001916109d1565b820191906000526020600020905b8154815290600101906020018083116109b457829003601f168201915b505050505081565b60008073ffffffffffffffffffffffffffffffffffffffff168373ffffffffffffffffffffffffffffffffffffffff161415610a4a576040517f08c379a0000000000000000000000000000000000000000000000000000000008152600401610a4190614e2f565b60405180910390fd5b81600960003373ffffffffffffffffffffffffffffffffffffffff1673ffffffffffffffffffffffffffffffffffffffff16815260200190815260200160002060008573ffffffffffffffffffffffffffffffffffffffff1673ffffffffffffffffffffffffffffffffffffffff168152602001908152602001600020819055507f8c5be1e5ebec7d5bd14f71427d1e84f3dd0314c0f7b2291e5b200ac8c7c3b925338484604051610afe93929190614e5e565b60405180910390a16001905092915050565b6001601060003373ffffffffffffffffffffffffffffffffffffffff1673ffffffffffffffffffffffffffffffffffffffff16815260200190815260200160002060008373ffffffffffffffffffffffffffffffffffffffff1673ffffffffffffffffffffffffffffffffffffffff168152602001908152602001600020600084815260200190815260200160002060006101000a81548160ff0219169083151502179055503373ffffffffffffffffffffffffffffffffffffffff168173ffffffffffffffffffffffffffffffffffffffff16837f3646a897c70797ecc134b0adc32f471b07bf1d6f451133b0384badab531e3fd660405160405180910390a45050565b60008083600a60008873ffffffffffffffffffffffffffffffffffffffff1673ffffffffffffffffffffffffffffffffffffffff168152602001908152602001600020541015610caa577f52000000000000000000000000000000000000000000000000000000000000007f696e73756666696369656e742062616c616e636500000000000000000000000091509150610f1a565b83600960008873ffffffffffffffffffffffffffffffffffffffff1673ffffffffffffffffffffffffffffffffffffffff16815260200190815260200160002060003373ffffffffffffffffffffffffffffffffffffffff1673ffffffffffffffffffffffffffffffffffffffff168152602001908152602001600020541015610d79577f53000000000000000000000000000000000000000000000000000000000000007f696e73756666696369656e7420616c6c6f77616e63650000000000000000000091509150610f1a565b600073ffffffffffffffffffffffffffffffffffffffff168573ffffffffffffffffffffffffffffffffffffffff161415610df9577f57000000000000000000000000000000000000000000000000000000000000007f696e76616c69642072656365697665720000000000000000000000000000000091509150610f1a565b600e60008773ffffffffffffffffffffffffffffffffffffffff1673ffffffffffffffffffffffffffffffffffffffff16815260200190815260200160002060003373ffffffffffffffffffffffffffffffffffffffff1673ffffffffffffffffffffffffffffffffffffffff16815260200190815260200160002060009054906101000a900460ff1615610ed3577f58000000000000000000000000000000000000000000000000000000000000007f696e76616c6964206f70657261746f720000000000000000000000000000000091509150610f1a565b7f51000000000000000000000000000000000000000000000000000000000000007f7472616e73666572207375636365737300000000000000000000000000000000915091505b94509492505050565b6000601060003373ffffffffffffffffffffffffffffffffffffffff1673ffffffffffffffffffffffffffffffffffffffff16815260200190815260200160002060008373ffffffffffffffffffffffffffffffffffffffff1673ffffffffffffffffffffffffffffffffffffffff168152602001908152602001600020600084815260200190815260200160002060006101000a81548160ff0219169083151502179055503373ffffffffffffffffffffffffffffffffffffffff168173ffffffffffffffffffffffffffffffffffffffff16837f3b287c4f1bab4df949b33bceacef984f544dc5d5479930d00e4ee8c9d8dd96f260405160405180910390a45050565b60035481565b60008060011515600460149054906101000a900460ff1615151415611098577f55000000000000000000000000000000000000000000000000000000000000007f66756e6473206c6f636b656420286c6f636b757020706572696f642900000000915091506111f1565b600073ffffffffffffffffffffffffffffffffffffffff168573ffffffffffffffffffffffffffffffffffffffff161415611118577f57000000000000000000000000000000000000000000000000000000000000007f696e76616c696420726563656976657200000000000000000000000000000000915091506111f1565b83600a60003373ffffffffffffffffffffffffffffffffffffffff1673ffffffffffffffffffffffffffffffffffffffff1681526020019081526020016000205410156111aa577f52000000000000000000000000000000000000000000000000000000000000007f696e73756666696369656e742062616c616e6365000000000000000000000000915091506111f1565b7f51000000000000000000000000000000000000000000000000000000000000007f7472616e73666572207375636365737300000000000000000000000000000000915091505b935093915050565b600081600960008673ffffffffffffffffffffffffffffffffffffffff1673ffffffffffffffffffffffffffffffffffffffff16815260200190815260200160002060003373ffffffffffffffffffffffffffffffffffffffff1673ffffffffffffffffffffffffffffffffffffffff1681526020019081526020016000205410156112ba576040517f08c379a00000000000000000000000000000000000000000000000000000000081526004016112b190614ee1565b60405180910390fd5b6112c5848484612fdc565b506000600960008673ffffffffffffffffffffffffffffffffffffffff1673ffffffffffffffffffffffffffffffffffffffff16815260200190815260200160002060003373ffffffffffffffffffffffffffffffffffffffff1673ffffffffffffffffffffffffffffffffffffffff16815260200190815260200160002081905550600190509392505050565b61135e338484612fdc565b50505050565b6113b3868686868080601f016020809104026020016040519081016040528093929190818152602001838380828437600081840152601f19601f82011690508083019250505050505050613231565b8573ffffffffffffffffffffffffffffffffffffffff167f876b7cb47aa150b3a5516188b19ed308752ad4d0ae9a702543353b78163f758933878787878760405161140396959493929190614f3f565b60405180910390a2505050505050565b6000600460159054906101000a900460ff16905090565b6000600c60008373ffffffffffffffffffffffffffffffffffffffff1673ffffffffffffffffffffffffffffffffffffffff168152602001908152602001600020600084815260200190815260200160002054905092915050565b806005908051906020019061149b929190613c07565b5050565b6000600460169054906101000a900460ff16905090565b60025481565b6114d88333848460405180602001604052806000815250613345565b505050565b600460009054906101000a900473ffffffffffffffffffffffffffffffffffffffff1673ffffffffffffffffffffffffffffffffffffffff163373ffffffffffffffffffffffffffffffffffffffff161461156d576040517f08c379a000000000000000000000000000000000000000000000000000000000815260040161156490614fe2565b60405180910390fd5b600460159054906101000a900460ff166115bc576040517f08c379a00000000000000000000000000000000000000000000000000000000081526004016115b39061504e565b60405180910390fd5b6000600254836115cc919061509d565b905080600c60008673ffffffffffffffffffffffffffffffffffffffff1673ffffffffffffffffffffffffffffffffffffffff1681526020019081526020016000206000878152602001908152602001600020600082825461162e91906150f7565b9250508190555080600a60008673ffffffffffffffffffffffffffffffffffffffff1673ffffffffffffffffffffffffffffffffffffffff168152602001908152602001600020600082825461168491906150f7565b92505081905550806003600082825461169d91906150f7565b925050819055508373ffffffffffffffffffffffffffffffffffffffff163373ffffffffffffffffffffffffffffffffffffffff16867ff0ded82afbb1bb3ff3fc48cb2a26584aa84e4af0bf309c804ecdb94d0f6a98bb84866040516117049291906151b7565b60405180910390a45050505050565b6060600580548060200260200160405190810160405280929190818152602001828054801561176157602002820191906000526020600020905b81548152602001906001019080831161174d575b5050505050905090565b6000601060008373ffffffffffffffffffffffffffffffffffffffff1673ffffffffffffffffffffffffffffffffffffffff16815260200190815260200160002060008473ffffffffffffffffffffffffffffffffffffffff1673ffffffffffffffffffffffffffffffffffffffff168152602001908152602001600020600085815260200190815260200160002060009054906101000a900460ff1690509392505050565b600460009054906101000a900473ffffffffffffffffffffffffffffffffffffffff1673ffffffffffffffffffffffffffffffffffffffff163373ffffffffffffffffffffffffffffffffffffffff16146118a1576040517f08c379a000000000000000000000000000000000000000000000000000000000815260040161189890614fe2565b60405180910390fd5b80600460166101000a81548160ff02191690831515021790555050565b6000600a60008373ffffffffffffffffffffffffffffffffffffffff1673ffffffffffffffffffffffffffffffffffffffff168152602001908152602001600020549050919050565b6060600060058054905067ffffffffffffffff81111561192a57611929614008565b5b6040519080825280602002602001820160405280156119585781602001602082028036833780820191505090505b50905060005b600580549050811015611a34576000600c60008673ffffffffffffffffffffffffffffffffffffffff1673ffffffffffffffffffffffffffffffffffffffff1681526020019081526020016000206000600584815481106119c2576119c16151fa565b5b90600052602060002001548152602001908152602001600020541115611a2157600581815481106119f6576119f56151fa565b5b9060005260206000200154828281518110611a1457611a136151fa565b5b6020026020010181815250505b8080611a2c90615229565b91505061195e565b5080915050919050565b600060011515600460169054906101000a900460ff161515148015611aac5750601160003373ffffffffffffffffffffffffffffffffffffffff1673ffffffffffffffffffffffffffffffffffffffff16815260200190815260200160002060009054906101000a900460ff165b15611b4e57611add87878787604051806020016040528060008152506040518060200160405280600081525061374c565b508473ffffffffffffffffffffffffffffffffffffffff168673ffffffffffffffffffffffffffffffffffffffff167f6bf62b4b9c7b768275122bf70d429efc398a056d669b1efdf6c3976346246d7d33878787604051611b419493929190615272565b60405180910390a3611ce7565b601060008773ffffffffffffffffffffffffffffffffffffffff1673ffffffffffffffffffffffffffffffffffffffff16815260200190815260200160002060003373ffffffffffffffffffffffffffffffffffffffff1673ffffffffffffffffffffffffffffffffffffffff168152602001908152602001600020600088815260200190815260200160002060009054906101000a900460ff1680611c7a5750600e60008773ffffffffffffffffffffffffffffffffffffffff1673ffffffffffffffffffffffffffffffffffffffff16815260200190815260200160002060003373ffffffffffffffffffffffffffffffffffffffff1673ffffffffffffffffffffffffffffffffffffffff16815260200190815260200160002060009054906101000a900460ff165b611cb9576040517f08c379a0000000000000000000000000000000000000000000000000000000008152600401611cb090614fe2565b60405180910390fd5b611ce587878787604051806020016040528060008152506040518060200160405280600081525061374c565b505b9695505050505050565b600460009054906101000a900473ffffffffffffffffffffffffffffffffffffffff1673ffffffffffffffffffffffffffffffffffffffff163373ffffffffffffffffffffffffffffffffffffffff1614611d81576040517f08c379a0000000000000000000000000000000000000000000000000000000008152600401611d7890614fe2565b60405180910390fd5b600073ffffffffffffffffffffffffffffffffffffffff168173ffffffffffffffffffffffffffffffffffffffff161415611df1576040517f08c379a0000000000000000000000000000000000000000000000000000000008152600401611de890614e2f565b60405180910390fd5b601160008273ffffffffffffffffffffffffffffffffffffffff1673ffffffffffffffffffffffffffffffffffffffff16815260200190815260200160002060009054906101000a900460ff1615611e7e576040517f08c379a0000000000000000000000000000000000000000000000000000000008152600401611e7590615311565b60405180910390fd5b6001601160008373ffffffffffffffffffffffffffffffffffffffff1673ffffffffffffffffffffffffffffffffffffffff16815260200190815260200160002060006101000a81548160ff0219169083151502179055506007819080600181540180825580915050600190039060005260206000200160009091909190916101000a81548173ffffffffffffffffffffffffffffffffffffffff021916908373ffffffffffffffffffffffffffffffffffffffff1602179055506001600780549050611f4b9190615331565b601260008373ffffffffffffffffffffffffffffffffffffffff1673ffffffffffffffffffffffffffffffffffffffff1681526020019081526020016000208190555050565b6001600e60003373ffffffffffffffffffffffffffffffffffffffff1673ffffffffffffffffffffffffffffffffffffffff16815260200190815260200160002060008373ffffffffffffffffffffffffffffffffffffffff1673ffffffffffffffffffffffffffffffffffffffff16815260200190815260200160002060006101000a81548160ff0219169083151502179055503373ffffffffffffffffffffffffffffffffffffffff168173ffffffffffffffffffffffffffffffffffffffff167ff4caeb2d6ca8932a215a353d0703c326ec2d81fc68170f320eb2ab49e9df61f960405160405180910390a350565b6001805461209090614db1565b80601f01602080910402602001604051908101604052809291908181526020018280546120bc90614db1565b80156121095780601f106120de57610100808354040283529160200191612109565b820191906000526020600020905b8154815290600101906020018083116120ec57829003601f168201915b505050505081565b81600960008573ffffffffffffffffffffffffffffffffffffffff1673ffffffffffffffffffffffffffffffffffffffff16815260200190815260200160002060003373ffffffffffffffffffffffffffffffffffffffff1673ffffffffffffffffffffffffffffffffffffffff1681526020019081526020016000205410156121d0576040517f08c379a00000000000000000000000000000000000000000000000000000000081526004016121c790614ee1565b60405180910390fd5b6121db838383613231565b505050565b60011515600460169054906101000a900460ff16151514801561224c5750601160003373ffffffffffffffffffffffffffffffffffffffff1673ffffffffffffffffffffffffffffffffffffffff16815260200190815260200160002060009054906101000a900460ff165b156122c45761226d8484846040518060200160405280600081525085613345565b8273ffffffffffffffffffffffffffffffffffffffff167f876b7cb47aa150b3a5516188b19ed308752ad4d0ae9a702543353b78163f75893384846040516122b793929190615365565b60405180910390a261244c565b600e60008473ffffffffffffffffffffffffffffffffffffffff1673ffffffffffffffffffffffffffffffffffffffff16815260200190815260200160002060003373ffffffffffffffffffffffffffffffffffffffff1673ffffffffffffffffffffffffffffffffffffffff16815260200190815260200160002060009054906101000a900460ff16806123f05750601060008473ffffffffffffffffffffffffffffffffffffffff1673ffffffffffffffffffffffffffffffffffffffff16815260200190815260200160002060003373ffffffffffffffffffffffffffffffffffffffff1673ffffffffffffffffffffffffffffffffffffffff168152602001908152602001600020600085815260200190815260200160002060009054906101000a900460ff165b61242f576040517f08c379a000000000000000000000000000000000000000000000000000000000815260040161242690614e2f565b60405180910390fd5b61244b8484846040518060200160405280600081525085613345565b5b50505050565b60008060008073ffffffffffffffffffffffffffffffffffffffff168773ffffffffffffffffffffffffffffffffffffffff1614156124db57857f5500000000000000000000000000000000000000000000000000000000000000907f696e76616c696420726563656976657200000000000000000000000000000000909250925092506125cf565b600c60008973ffffffffffffffffffffffffffffffffffffffff1673ffffffffffffffffffffffffffffffffffffffff16815260200190815260200160002060008781526020019081526020016000205485111561258357857f5500000000000000000000000000000000000000000000000000000000000000907f696e73756666696369656e742062616c616e6365000000000000000000000000909250925092506125cf565b857f5100000000000000000000000000000000000000000000000000000000000000907f7472616e73666572207375636365737300000000000000000000000000000000909250925092505b955095509592505050565b60006125e7338484612fdc565b506001905092915050565b6060600080600b6000858152602001908152602001600020604051806060016040529081600082015481526020016001820154815260200160028201805461263990614db1565b80601f016020809104026020016040519081016040528092919081815260200182805461266590614db1565b80156126b25780601f10612687576101008083540402835291602001916126b2565b820191906000526020600020905b81548152906001019060200180831161269557829003601f168201915b5050505050815250509050806040015181602001519250925050915091565b6000601160008373ffffffffffffffffffffffffffffffffffffffff1673ffffffffffffffffffffffffffffffffffffffff16815260200190815260200160002060009054906101000a900460ff169050919050565b606060078054806020026020016040519081016040528092919081815260200182805480156127ab57602002820191906000526020600020905b8160009054906101000a900473ffffffffffffffffffffffffffffffffffffffff1673ffffffffffffffffffffffffffffffffffffffff1681526020019060010190808311612761575b5050505050905090565b6000600e60008373ffffffffffffffffffffffffffffffffffffffff1673ffffffffffffffffffffffffffffffffffffffff16815260200190815260200160002060008473ffffffffffffffffffffffffffffffffffffffff1673ffffffffffffffffffffffffffffffffffffffff16815260200190815260200160002060009054906101000a900460ff16905092915050565b600460009054906101000a900473ffffffffffffffffffffffffffffffffffffffff1673ffffffffffffffffffffffffffffffffffffffff163373ffffffffffffffffffffffffffffffffffffffff16146128d9576040517f08c379a00000000000000000000000000000000000000000000000000000000081526004016128d090614fe2565b60405180910390fd5b600460159054906101000a900460ff16612928576040517f08c379a000000000000000000000000000000000000000000000000000000000815260040161291f9061504e565b60405180910390fd5b600073ffffffffffffffffffffffffffffffffffffffff168473ffffffffffffffffffffffffffffffffffffffff161415612998576040517f08c379a000000000000000000000000000000000000000000000000000000000815260040161298f90615402565b60405180910390fd5b6000600254846129a8919061509d565b905080600a60008773ffffffffffffffffffffffffffffffffffffffff1673ffffffffffffffffffffffffffffffffffffffff16815260200190815260200160002060008282546129f991906150f7565b925050819055508060036000828254612a1291906150f7565b925050819055507f5a1f7f24a8d262d4fd95d7324e83dcdd93b4b9911cc5f45cac5a0382242953a4858260035442604051612a509493929190615422565b60405180910390a15050505050565b612a6a338383613231565b5050565b818160069190612a7f929190613c54565b505050565b81600960008673ffffffffffffffffffffffffffffffffffffffff1673ffffffffffffffffffffffffffffffffffffffff16815260200190815260200160002060003373ffffffffffffffffffffffffffffffffffffffff1673ffffffffffffffffffffffffffffffffffffffff168152602001908152602001600020541015612b43576040517f08c379a0000000000000000000000000000000000000000000000000000000008152600401612b3a90614ee1565b60405180910390fd5b612b4e848484612fdc565b506000600960008673ffffffffffffffffffffffffffffffffffffffff1673ffffffffffffffffffffffffffffffffffffffff16815260200190815260200160002060003373ffffffffffffffffffffffffffffffffffffffff1673ffffffffffffffffffffffffffffffffffffffff1681526020019081526020016000208190555050505050565b612be2878787612fdc565b508573ffffffffffffffffffffffffffffffffffffffff168773ffffffffffffffffffffffffffffffffffffffff167f6bf62b4b9c7b768275122bf70d429efc398a056d669b1efdf6c3976346246d7d338888888888604051612c4a96959493929190614f3f565b60405180910390a350505050505050565b6000612c7a85338686866040518060200160405280600081525061374c565b50949350505050565b600460009054906101000a900473ffffffffffffffffffffffffffffffffffffffff1673ffffffffffffffffffffffffffffffffffffffff163373ffffffffffffffffffffffffffffffffffffffff1614612d13576040517f08c379a0000000000000000000000000000000000000000000000000000000008152600401612d0a90614fe2565b60405180910390fd5b600073ffffffffffffffffffffffffffffffffffffffff168173ffffffffffffffffffffffffffffffffffffffff161415612d83576040517f08c379a0000000000000000000000000000000000000000000000000000000008152600401612d7a90614e2f565b60405180910390fd5b601160008273ffffffffffffffffffffffffffffffffffffffff1673ffffffffffffffffffffffffffffffffffffffff16815260200190815260200160002060009054906101000a900460ff16612e0f576040517f08c379a0000000000000000000000000000000000000000000000000000000008152600401612e0690614e2f565b60405180910390fd5b6000601160008373ffffffffffffffffffffffffffffffffffffffff1673ffffffffffffffffffffffffffffffffffffffff16815260200190815260200160002060006101000a81548160ff0219169083151502179055506007601260008373ffffffffffffffffffffffffffffffffffffffff1673ffffffffffffffffffffffffffffffffffffffff1681526020019081526020016000205481548110612eba57612eb96151fa565b5b9060005260206000200160006101000a81549073ffffffffffffffffffffffffffffffffffffffff021916905550565b6000600e60003373ffffffffffffffffffffffffffffffffffffffff1673ffffffffffffffffffffffffffffffffffffffff16815260200190815260200160002060008373ffffffffffffffffffffffffffffffffffffffff1673ffffffffffffffffffffffffffffffffffffffff16815260200190815260200160002060006101000a81548160ff0219169083151502179055503373ffffffffffffffffffffffffffffffffffffffff168173ffffffffffffffffffffffffffffffffffffffff167f50546e66e5f44d728365dc3908c63bc5cfeeab470722c1677e3073a6ac294aa160405160405180910390a350565b60008073ffffffffffffffffffffffffffffffffffffffff168373ffffffffffffffffffffffffffffffffffffffff16141561304d576040517f08c379a000000000000000000000000000000000000000000000000000000000815260040161304490615402565b60405180910390fd5b81600a60008673ffffffffffffffffffffffffffffffffffffffff1673ffffffffffffffffffffffffffffffffffffffff1681526020019081526020016000205410156130cf576040517f08c379a00000000000000000000000000000000000000000000000000000000081526004016130c6906154b3565b60405180910390fd5b81600a60008673ffffffffffffffffffffffffffffffffffffffff1673ffffffffffffffffffffffffffffffffffffffff1681526020019081526020016000205461311a9190615331565b600a60008673ffffffffffffffffffffffffffffffffffffffff1673ffffffffffffffffffffffffffffffffffffffff1681526020019081526020016000208190555081600a60008573ffffffffffffffffffffffffffffffffffffffff1673ffffffffffffffffffffffffffffffffffffffff168152602001908152602001600020546131a891906150f7565b600a60008573ffffffffffffffffffffffffffffffffffffffff1673ffffffffffffffffffffffffffffffffffffffff168152602001908152602001600020819055507fddf252ad1be2c89b69c2b068fc378daa952ba7f163c4a11628f55a4df523b3ef84848460405161321e93929190614e5e565b60405180910390a1600190509392505050565b81600a60008573ffffffffffffffffffffffffffffffffffffffff1673ffffffffffffffffffffffffffffffffffffffff1681526020019081526020016000205410156132b3576040517f08c379a00000000000000000000000000000000000000000000000000000000081526004016132aa906154b3565b60405180910390fd5b6132bf83600084612fdc565b5081600360008282546132d29190615331565b925050819055508273ffffffffffffffffffffffffffffffffffffffff163373ffffffffffffffffffffffffffffffffffffffff167fb7d0d6b60740753e9f16692a2f479472a1385aec2420fa43225b02f2ffa1afe784846040516133389291906154d3565b60405180910390a3505050565b600073ffffffffffffffffffffffffffffffffffffffff163373ffffffffffffffffffffffffffffffffffffffff1614156133b5576040517f08c379a00000000000000000000000000000000000000000000000000000000081526004016133ac90614fe2565b60405180910390fd5b82600c60008673ffffffffffffffffffffffffffffffffffffffff1673ffffffffffffffffffffffffffffffffffffffff1681526020019081526020016000206000878152602001908152602001600020541015613448576040517f08c379a000000000000000000000000000000000000000000000000000000000815260040161343f906154b3565b60405180910390fd5b82600c60008673ffffffffffffffffffffffffffffffffffffffff1673ffffffffffffffffffffffffffffffffffffffff1681526020019081526020016000206000878152602001908152602001600020546134a49190615331565b600c60008673ffffffffffffffffffffffffffffffffffffffff1673ffffffffffffffffffffffffffffffffffffffff16815260200190815260200160002060008781526020019081526020016000208190555082600a60008673ffffffffffffffffffffffffffffffffffffffff1673ffffffffffffffffffffffffffffffffffffffff168152602001908152602001600020546135439190615331565b600a60008673ffffffffffffffffffffffffffffffffffffffff1673ffffffffffffffffffffffffffffffffffffffff1681526020019081526020016000208190555082600c60008073ffffffffffffffffffffffffffffffffffffffff1673ffffffffffffffffffffffffffffffffffffffff1681526020019081526020016000206000878152602001908152602001600020546135e291906150f7565b600c60008073ffffffffffffffffffffffffffffffffffffffff1673ffffffffffffffffffffffffffffffffffffffff16815260200190815260200160002060008781526020019081526020016000208190555082600a60008073ffffffffffffffffffffffffffffffffffffffff1673ffffffffffffffffffffffffffffffffffffffff1681526020019081526020016000205461368191906150f7565b600a60008073ffffffffffffffffffffffffffffffffffffffff1673ffffffffffffffffffffffffffffffffffffffff1681526020019081526020016000208190555082600360008282546136d69190615331565b925050819055508373ffffffffffffffffffffffffffffffffffffffff163373ffffffffffffffffffffffffffffffffffffffff16867fce306c3dbc4a497124b5a4f2be8388b41084c1d74663da27ecee1186c00239bf868560405161373d9291906154d3565b60405180910390a45050505050565b600083600c60008873ffffffffffffffffffffffffffffffffffffffff1673ffffffffffffffffffffffffffffffffffffffff16815260200190815260200160002060008981526020019081526020016000205410156137e1576040517f08c379a00000000000000000000000000000000000000000000000000000000081526004016137d8906154b3565b60405180910390fd5b600073ffffffffffffffffffffffffffffffffffffffff168573ffffffffffffffffffffffffffffffffffffffff161415613851576040517f08c379a000000000000000000000000000000000000000000000000000000000815260040161384890615402565b60405180910390fd5b83600c60008873ffffffffffffffffffffffffffffffffffffffff1673ffffffffffffffffffffffffffffffffffffffff1681526020019081526020016000206000898152602001908152602001600020546138ad9190615331565b600c60008873ffffffffffffffffffffffffffffffffffffffff1673ffffffffffffffffffffffffffffffffffffffff16815260200190815260200160002060008981526020019081526020016000208190555083600a60008873ffffffffffffffffffffffffffffffffffffffff1673ffffffffffffffffffffffffffffffffffffffff1681526020019081526020016000205461394c9190615331565b600a60008873ffffffffffffffffffffffffffffffffffffffff1673ffffffffffffffffffffffffffffffffffffffff1681526020019081526020016000208190555083600c60008773ffffffffffffffffffffffffffffffffffffffff1673ffffffffffffffffffffffffffffffffffffffff1681526020019081526020016000206000898152602001908152602001600020546139eb91906150f7565b600c60008773ffffffffffffffffffffffffffffffffffffffff1673ffffffffffffffffffffffffffffffffffffffff16815260200190815260200160002060008981526020019081526020016000208190555083600a60008773ffffffffffffffffffffffffffffffffffffffff1673ffffffffffffffffffffffffffffffffffffffff16815260200190815260200160002054613a8a91906150f7565b600a60008773ffffffffffffffffffffffffffffffffffffffff1673ffffffffffffffffffffffffffffffffffffffff168152602001908152602001600020819055508473ffffffffffffffffffffffffffffffffffffffff163373ffffffffffffffffffffffffffffffffffffffff16887fff4e9a26af4eb73b8bacfaa4abd4fea03d9448e7b912dc5ff4019048875aa2d433888888604051613b319493929190615272565b60405180910390a47fddf252ad1be2c89b69c2b068fc378daa952ba7f163c4a11628f55a4df523b3ef868686604051613b6c93929190614e5e565b60405180910390a18690509695505050505050565b828054613b8d90614db1565b90600052602060002090601f016020900481019282613baf5760008555613bf6565b82601f10613bc857805160ff1916838001178555613bf6565b82800160010185558215613bf6579182015b82811115613bf5578251825591602001919060010190613bda565b5b509050613c039190613ca1565b5090565b828054828255906000526020600020908101928215613c43579160200282015b82811115613c42578251825591602001919060010190613c27565b5b509050613c509190613cbe565b5090565b828054828255906000526020600020908101928215613c90579160200282015b82811115613c8f578235825591602001919060010190613c74565b5b509050613c9d9190613cbe565b5090565b5b80821115613cba576000816000905550600101613ca2565b5090565b5b80821115613cd7576000816000905550600101613cbf565b5090565b6000604051905090565b600080fd5b600080fd5b6000819050919050565b613d0281613cef565b8114613d0d57600080fd5b50565b600081359050613d1f81613cf9565b92915050565b600080fd5b600080fd5b600080fd5b60008083601f840112613d4a57613d49613d25565b5b8235905067ffffffffffffffff811115613d6757613d66613d2a565b5b602083019150836001820283011115613d8357613d82613d2f565b5b9250929050565b60008060008060608587031215613da457613da3613ce5565b5b6000613db287828801613d10565b945050602085013567ffffffffffffffff811115613dd357613dd2613cea565b5b613ddf87828801613d34565b93509350506040613df287828801613d10565b91505092959194509250565b600081519050919050565b600082825260208201905092915050565b60005b83811015613e38578082015181840152602081019050613e1d565b83811115613e47576000848401525b50505050565b6000601f19601f8301169050919050565b6000613e6982613dfe565b613e738185613e09565b9350613e83818560208601613e1a565b613e8c81613e4d565b840191505092915050565b60006020820190508181036000830152613eb18184613e5e565b905092915050565b600073ffffffffffffffffffffffffffffffffffffffff82169050919050565b6000613ee482613eb9565b9050919050565b613ef481613ed9565b8114613eff57600080fd5b50565b600081359050613f1181613eeb565b92915050565b6000819050919050565b613f2a81613f17565b8114613f3557600080fd5b50565b600081359050613f4781613f21565b92915050565b60008060408385031215613f6457613f63613ce5565b5b6000613f7285828601613f02565b9250506020613f8385828601613f38565b9150509250929050565b60008115159050919050565b613fa281613f8d565b82525050565b6000602082019050613fbd6000830184613f99565b92915050565b60008060408385031215613fda57613fd9613ce5565b5b6000613fe885828601613d10565b9250506020613ff985828601613f02565b9150509250929050565b600080fd5b7f4e487b7100000000000000000000000000000000000000000000000000000000600052604160045260246000fd5b61404082613e4d565b810181811067ffffffffffffffff8211171561405f5761405e614008565b5b80604052505050565b6000614072613cdb565b905061407e8282614037565b919050565b600067ffffffffffffffff82111561409e5761409d614008565b5b6140a782613e4d565b9050602081019050919050565b82818337600083830152505050565b60006140d66140d184614083565b614068565b9050828152602081018484840111156140f2576140f1614003565b5b6140fd8482856140b4565b509392505050565b600082601f83011261411a57614119613d25565b5b813561412a8482602086016140c3565b91505092915050565b6000806000806080858703121561414d5761414c613ce5565b5b600061415b87828801613f02565b945050602061416c87828801613f02565b935050604061417d87828801613f38565b925050606085013567ffffffffffffffff81111561419e5761419d613cea565b5b6141aa87828801614105565b91505092959194509250565b60007fff0000000000000000000000000000000000000000000000000000000000000082169050919050565b6141eb816141b6565b82525050565b6141fa81613cef565b82525050565b600060408201905061421560008301856141e2565b61422260208301846141f1565b9392505050565b61423281613f17565b82525050565b600060208201905061424d6000830184614229565b92915050565b60008060006060848603121561426c5761426b613ce5565b5b600061427a86828701613f02565b935050602061428b86828701613f38565b925050604084013567ffffffffffffffff8111156142ac576142ab613cea565b5b6142b886828701614105565b9150509250925092565b6000806000606084860312156142db576142da613ce5565b5b60006142e986828701613f02565b93505060206142fa86828701613f02565b925050604061430b86828701613f38565b9150509250925092565b60008083601f84011261432b5761432a613d25565b5b8235905067ffffffffffffffff81111561434857614347613d2a565b5b60208301915083600182028301111561436457614363613d2f565b5b9250929050565b6000806000806000806080878903121561438857614387613ce5565b5b600061439689828a01613f02565b96505060206143a789828a01613f38565b955050604087013567ffffffffffffffff8111156143c8576143c7613cea565b5b6143d489828a01614315565b9450945050606087013567ffffffffffffffff8111156143f7576143f6613cea565b5b61440389828a01614315565b92509250509295509295509295565b600067ffffffffffffffff82111561442d5761442c614008565b5b602082029050602081019050919050565b600061445161444c84614412565b614068565b9050808382526020820190506020840283018581111561447457614473613d2f565b5b835b8181101561449d57806144898882613d10565b845260208401935050602081019050614476565b5050509392505050565b600082601f8301126144bc576144bb613d25565b5b81356144cc84826020860161443e565b91505092915050565b6000602082840312156144eb576144ea613ce5565b5b600082013567ffffffffffffffff81111561450957614508613cea565b5b614515848285016144a7565b91505092915050565b60008060006060848603121561453757614536613ce5565b5b600061454586828701613d10565b935050602061455686828701613f38565b925050604084013567ffffffffffffffff81111561457757614576613cea565b5b61458386828701614105565b9150509250925092565b600080600080608085870312156145a7576145a6613ce5565b5b60006145b587828801613d10565b94505060206145c687828801613f02565b93505060406145d787828801613f38565b925050606085013567ffffffffffffffff8111156145f8576145f7613cea565b5b61460487828801614105565b91505092959194509250565b600081519050919050565b600082825260208201905092915050565b6000819050602082019050919050565b61464581613cef565b82525050565b6000614657838361463c565b60208301905092915050565b6000602082019050919050565b600061467b82614610565b614685818561461b565b93506146908361462c565b8060005b838110156146c15781516146a8888261464b565b97506146b383614663565b925050600181019050614694565b5085935050505092915050565b600060208201905081810360008301526146e88184614670565b905092915050565b60008060006060848603121561470957614708613ce5565b5b600061471786828701613d10565b935050602061472886828701613f02565b925050604061473986828701613f02565b9150509250925092565b61474c81613f8d565b811461475757600080fd5b50565b60008135905061476981614743565b92915050565b60006020828403121561478557614784613ce5565b5b60006147938482850161475a565b91505092915050565b6000602082840312156147b2576147b1613ce5565b5b60006147c084828501613f02565b91505092915050565b60008060008060008060c087890312156147e6576147e5613ce5565b5b60006147f489828a01613d10565b965050602061480589828a01613f02565b955050604061481689828a01613f02565b945050606061482789828a01613f38565b935050608087013567ffffffffffffffff81111561484857614847613cea565b5b61485489828a01614105565b92505060a087013567ffffffffffffffff81111561487557614874613cea565b5b61488189828a01614105565b9150509295509295509295565b60006020820190506148a360008301846141f1565b92915050565b600080600080600060a086880312156148c5576148c4613ce5565b5b60006148d388828901613f02565b95505060206148e488828901613f02565b94505060406148f588828901613d10565b935050606061490688828901613f38565b925050608086013567ffffffffffffffff81111561492757614926613cea565b5b61493388828901614105565b9150509295509295909350565b600060608201905061495560008301866141e2565b61496260208301856141f1565b61496f60408301846141f1565b949350505050565b60006020828403121561498d5761498c613ce5565b5b600061499b84828501613d10565b91505092915050565b600060408201905081810360008301526149be8185613e5e565b90506149cd60208301846141f1565b9392505050565b600081519050919050565b600082825260208201905092915050565b6000819050602082019050919050565b614a0981613ed9565b82525050565b6000614a1b8383614a00565b60208301905092915050565b6000602082019050919050565b6000614a3f826149d4565b614a4981856149df565b9350614a54836149f0565b8060005b83811015614a85578151614a6c8882614a0f565b9750614a7783614a27565b925050600181019050614a58565b5085935050505092915050565b60006020820190508181036000830152614aac8184614a34565b905092915050565b60008060408385031215614acb57614aca613ce5565b5b6000614ad985828601613f02565b9250506020614aea85828601613f02565b9150509250929050565b60008060008060608587031215614b0e57614b0d613ce5565b5b6000614b1c87828801613f02565b9450506020614b2d87828801613f38565b935050604085013567ffffffffffffffff811115614b4e57614b4d613cea565b5b614b5a87828801614315565b925092505092959194509250565b60008060408385031215614b7f57614b7e613ce5565b5b6000614b8d85828601613f38565b925050602083013567ffffffffffffffff811115614bae57614bad613cea565b5b614bba85828601614105565b9150509250929050565b60008083601f840112614bda57614bd9613d25565b5b8235905067ffffffffffffffff811115614bf757614bf6613d2a565b5b602083019150836020820283011115614c1357614c12613d2f565b5b9250929050565b60008060208385031215614c3157614c30613ce5565b5b600083013567ffffffffffffffff811115614c4f57614c4e613cea565b5b614c5b85828601614bc4565b92509250509250929050565b600080600080600080600060a0888a031215614c8657614c85613ce5565b5b6000614c948a828b01613f02565b9750506020614ca58a828b01613f02565b9650506040614cb68a828b01613f38565b955050606088013567ffffffffffffffff811115614cd757614cd6613cea565b5b614ce38a828b01614315565b9450945050608088013567ffffffffffffffff811115614d0657614d05613cea565b5b614d128a828b01614315565b925092505092959891949750929550565b6000614d2f8385613e09565b9350614d3c8385846140b4565b614d4583613e4d565b840190509392505050565b60006040820190508181036000830152614d6b818587614d23565b9050614d7a60208301846141f1565b949350505050565b7f4e487b7100000000000000000000000000000000000000000000000000000000600052602260045260246000fd5b60006002820490506001821680614dc957607f821691505b60208210811415614ddd57614ddc614d82565b5b50919050565b7f3078353800000000000000000000000000000000000000000000000000000000600082015250565b6000614e19600483613e09565b9150614e2482614de3565b602082019050919050565b60006020820190508181036000830152614e4881614e0c565b9050919050565b614e5881613ed9565b82525050565b6000606082019050614e736000830186614e4f565b614e806020830185614e4f565b614e8d6040830184614229565b949350505050565b7f3078353300000000000000000000000000000000000000000000000000000000600082015250565b6000614ecb600483613e09565b9150614ed682614e95565b602082019050919050565b60006020820190508181036000830152614efa81614ebe565b9050919050565b600082825260208201905092915050565b6000614f1e8385614f01565b9350614f2b8385846140b4565b614f3483613e4d565b840190509392505050565b6000608082019050614f546000830189614e4f565b614f616020830188614229565b8181036040830152614f74818688614f12565b90508181036060830152614f89818486614f12565b9050979650505050505050565b7f3078353600000000000000000000000000000000000000000000000000000000600082015250565b6000614fcc600483613e09565b9150614fd782614f96565b602082019050919050565b60006020820190508181036000830152614ffb81614fbf565b9050919050565b7f3078353500000000000000000000000000000000000000000000000000000000600082015250565b6000615038600483613e09565b915061504382615002565b602082019050919050565b600060208201905081810360008301526150678161502b565b9050919050565b7f4e487b7100000000000000000000000000000000000000000000000000000000600052601160045260246000fd5b60006150a882613f17565b91506150b383613f17565b9250817fffffffffffffffffffffffffffffffffffffffffffffffffffffffffffffffff04831182151516156150ec576150eb61506e565b5b828202905092915050565b600061510282613f17565b915061510d83613f17565b9250827fffffffffffffffffffffffffffffffffffffffffffffffffffffffffffffffff038211156151425761514161506e565b5b828201905092915050565b600081519050919050565b60006151638261514d565b61516d8185614f01565b935061517d818560208601613e1a565b61518681613e4d565b840191505092915050565b50565b60006151a1600083614f01565b91506151ac82615191565b600082019050919050565b60006060820190506151cc6000830185614229565b81810360208301526151de8184615158565b905081810360408301526151f181615194565b90509392505050565b7f4e487b7100000000000000000000000000000000000000000000000000000000600052603260045260246000fd5b600061523482613f17565b91507fffffffffffffffffffffffffffffffffffffffffffffffffffffffffffffffff8214156152675761526661506e565b5b600182019050919050565b60006080820190506152876000830187614e4f565b6152946020830186614229565b81810360408301526152a68185615158565b905081810360608301526152ba8184615158565b905095945050505050565b7f4143430000000000000000000000000000000000000000000000000000000000600082015250565b60006152fb600383613e09565b9150615306826152c5565b602082019050919050565b6000602082019050818103600083015261532a816152ee565b9050919050565b600061533c82613f17565b915061534783613f17565b92508282101561535a5761535961506e565b5b828203905092915050565b600060808201905061537a6000830186614e4f565b6153876020830185614229565b818103604083015261539881615194565b905081810360608301526153ac8184615158565b9050949350505050565b7f3078353700000000000000000000000000000000000000000000000000000000600082015250565b60006153ec600483613e09565b91506153f7826153b6565b602082019050919050565b6000602082019050818103600083015261541b816153df565b9050919050565b60006080820190506154376000830187614e4f565b6154446020830186614229565b6154516040830185614229565b61545e6060830184614229565b95945050505050565b7f3078353200000000000000000000000000000000000000000000000000000000600082015250565b600061549d600483613e09565b91506154a882615467565b602082019050919050565b600060208201905081810360008301526154cc81615490565b9050919050565b60006040820190506154e86000830185614229565b81810360208301526154fa8184615158565b9050939250505056fea2646970667358221220484bf0a00c0245204df8d0e5e8be4c098d08b355aec91a4068d90cef0947b00264736f6c634300080a0033",
  "immutableReferences": {},
  "source": "// solidity version\npragma solidity 0.8.10;\n\nimport \"../utils/CertificateLibrary.sol\";\n\n//  SPDX-License-Identifier: UNLICENSED\n\n\ncontract ERC1400 {\n\n\n    /************************************************ Variable Declarations and Initaalizations ************************************/\n\n\n\n     // *************************************** Strings ********************************************************* //\n\n    string public name;   // token name\n    string public symbol; // token symbol\n\n\n\n    // *************************************** Integers ********************************************************* //\n\n    uint256 public granularity;                     // token granularity\n    uint256 public totalSupply;                     // token total supply\n   \n\n\n    // *************************************** Addresses ********************************************************* //\n\n    address private owner;  // set the address of the owner to be private\n\n\n\n     // *************************************** Booleans ********************************************************* //\n\n    bool private _lockUpTokens = false; // token lockup indicator\n    bool private _isIssuable = true;    //  indicates when a token can be issued\n    bool private _isControllable = true;   // private variable that indicates the controllability of the tokens\n    \n\n    // ************************ Array ******************************//\n\n    bytes32[] internal _totalPartitions;\n    bytes32[] internal _defaultPartitions;\n    address[] internal _controllers;\n    \n\n\n     // *************************************** Structs ********************************************************* //\n\n    struct Doc {\n\n        bytes32 _name;\n        bytes32 _documentHash;\n        string _uri;\n        \n    } // struct to handle the documents\n\n\n\n    \n\n     // *************************************** Mappings ********************************************************* //\n\n    mapping (address => bool) private whitelist;                                     //  whitelist map\n    mapping (address => mapping(address => uint256)) private allowance;              // set the address of the allowed external operator\n    mapping (address => uint256) internal _balanceOf;                                // map to store the token balances of token holders\n    mapping (bytes32 => Doc) internal _documents;                                    // map to store the documents\n    mapping (address => mapping(bytes32 => uint256)) internal _balanceOfByPartition; // map to store the partitioned token balance of a token holder \n    mapping (address => bytes32[]) internal _partitionsOf;                           // map that stores the partitions of a token holder\n    mapping (address => mapping(address => bool)) internal _isOperator;              // map to approve or revoke operators for a token holder\n    mapping (bytes32 => uint256) internal _indexOfPartitions;\n\n    // holder's address -> operator  address -> partition -> true/false\n    mapping (address => mapping(address => mapping (bytes32 => bool))) internal _isOperatorForPartition;                  // map to approve or revoke operators by partition\n    mapping (address => bool) private _isController;                                 // map to store the addresses of approved controllers\n    mapping (address => uint256) private _indexOfController;                         // map to store the index position of controllers\n    mapping (bytes => bool) private _usedSignatures;\n\n    constructor (string memory _name, string memory _symbol, uint256 _granularity, uint256 _totalSupply, bytes32[] memory defaultPartitions) {\n\n        name = _name;\n        symbol = _symbol;\n        granularity = 10 ** _granularity; // for token decimals \n        totalSupply = _totalSupply;\n        owner = msg.sender;\n        _defaultPartitions = defaultPartitions;\n\n    }\n\n    modifier restricted {\n        require(msg.sender == owner, \"0x56\");\n        _;\n    }\n\n    /**\n        @dev    `_useCert` function verifies the signature sent.\n        If the signature is valid, it registers it onchain to avoid replay attack\n\n        @param _data is the encoded data containing the signature and the parameters to be used to generate prefixed hashed.\n        The prefixed hash will be used to verify the signature\n\n        @param _amount is the quantity of token to be sent in the transaction\n        \n     */\n\n\n    function _useCert(bytes memory _data, uint256 _amount) internal {\n\n        (bytes memory _signature, bytes32 _salt, uint256 _nonce, Certificate.Holder memory _from, Certificate.Holder memory _to) = Certificate.decodeData(_data);\n        require(!_usedSignatures[_signature], \"used sig\");\n        address _signer = Certificate.returnSigner(_signature, _salt, _nonce, _from, _to, _amount, address(this), name);\n        require(_signer == owner || _isController[_signer], \"invalid signer\");\n        _usedSignatures[_signature] = true;\n\n    }\n\n\n    // *************************************** Internal functions ********************************************************* //\n\n    /// @dev    internal funtion to transfer tokens from an address to another address\n    /// @notice `0x57` revert message if receiver is address 0\n    /// @notice `0x52` insufficient balance\n    /// @notice balance must be more or equal to the value to be transferred\n    /// @dev    this version of solidity handles the underflow and overflow error\n    /// @notice the emission of Transfer event\n    /// @param  _from is the address the token is sent from\n    /// @param  _to is the address the token is sent to\n    /// @param  _amount is the value of tokens to be sent\n\n    \n    function _transfer(address _from, address _to, uint256 _amount) internal returns (bool success) {\n\n        require(_to != address(0),  \"0x57\");        \n        require(_balanceOf[_from] >= _amount, \"0x52\");      \n\n        _balanceOf[_from] = _balanceOf[_from] - _amount;                  \n        _balanceOf[_to] = _balanceOf[_to] + _amount;                      \n        emit Transfer (_from, _to, _amount);                            \n        return true;\n     }\n\n\n     /// @dev   internal funtion to transfer tokens by partitions from an address to another address\n     /// @notice `0x57` revert message if receiver is address 0\n     /// @notice `0x52` insufficient balance\n     /// @dev   the total supply is the balance accross all partitions\n     /// @notice the global balance of the sender and receiver is adjusted respectively\n     /// @notice the emission of TransferByPartition and Transfer events\n\n    function _transferByPartiton(bytes32 _partition, address _from, address _to, uint256 _value, bytes memory _data, bytes memory _operatorData) internal returns(bytes32) {\n       \n    \n       require( _balanceOfByPartition[_from][_partition] >= _value, \"0x52\"); \n       require(_to != address(0),  \"0x57\");   \n\n       _balanceOfByPartition[_from][_partition] = _balanceOfByPartition[_from][_partition] - _value;\n       _balanceOf[_from] = _balanceOf[_from] - _value; // the value should reflect in the global token balance of the sender\n       \n       _balanceOfByPartition[_to][_partition] = _balanceOfByPartition[_to][_partition] + _value;\n       _balanceOf[_to] = _balanceOf[_to] + _value; // the value should reflect in the global token balance of the receiver\n\n       emit TransferByPartition(_partition, msg.sender, msg.sender, _to, _value, _data, _operatorData);\n       emit Transfer(_from, _to, _value);\n\n       return _partition;\n\n    }\n\n    // function to transfer by default Partitions\n\n    function _transferByDefaultPartitions(address _from, address _to, uint256 _value) internal {\n\n\n        require(_balanceOf[_from] >= _value, \"0x52\");        \n        for (uint256 index = 0; index < _defaultPartitions.length; index++) {\n            _transferByPartiton(_defaultPartitions[index], _from, _to, _value, \"\", \"\");\n        }\n\n    }\n\n    // internal redeem by partition function\n\n\n    function _redeemByPartition(bytes32 _partition, address _tokenHolder, uint256 _value, bytes memory _data, bytes memory _operatorData) internal {\n\n       require(msg.sender != address(0), \"0x56\");\n       require(_balanceOfByPartition[_tokenHolder][_partition] >= _value, \"0x52\");  // insufficient balance\n       _balanceOfByPartition[_tokenHolder][_partition] = _balanceOfByPartition[_tokenHolder][_partition] - _value;\n       _balanceOf[_tokenHolder] = _balanceOf[_tokenHolder] - _value; // the value should reflect in the global token balance of the sender\n       \n       _balanceOfByPartition[address(0)][_partition] = _balanceOfByPartition[address(0)][_partition] + _value;\n       _balanceOf[address(0)] = _balanceOf[address(0)] + _value; // the value should reflect in the global token balance of the receiver\n       totalSupply -= _value;\n       emit RedeemedByPartition(_partition, msg.sender, _tokenHolder, _value, _operatorData);\n\n    }\n\n    // internal redeem function\n\n    function _redeem(address _tokenHolder, uint256 _value, bytes memory _data) internal {\n\n       require(_balanceOf[_tokenHolder] >= _value, \"0x52\"); // insufficient balance\n       _transfer(_tokenHolder, address(0), _value);\n       totalSupply -= _value;\n       emit Redeemed(msg.sender, _tokenHolder, _value, _data);\n\n    }\n\n    \n\n    // **************************       ERC1400 FEATURES  ******************************************************//\n\n\n    //  Default Partitions\n\n\n    function setDefaultPartitions(bytes32[] calldata newDefaultPartitions) external  {\n\n        _defaultPartitions = newDefaultPartitions;\n\n    }\n     \n    \n    /**\n        *   @dev    Document management\n        *   @notice setDocument function\n        *   @notice getDocument\n    \n    */\n\n\n    /// @dev    function to set document onchain using the document hash from an IPFS\n    /// @param  _name is the name of the document is bytes32\n    /// @param  _uri is the uri of the document's location in the IPFS\n    /// @param  _documentHash is the hash of the document saved returned from the IPFS     \n\n    function setDocument (bytes32 _name, string calldata _uri, bytes32 _documentHash) external  {\n        \n        _documents[_name] = Doc(_name, _documentHash, _uri);     // save the document\n        emit Document(_name, _uri, _documentHash);              // emit event when document is set on chain\n\n    }\n\n    /// @dev    function to fetch the document details\n    /// @param  _name is the name of the of document to be fetched\n    /// @return uri is saved uri to be returned\n    /// @return docHash is the hash of the document to be returned\n    \n    function getDocument (bytes32 _name) external view returns (string memory uri, bytes32 docHash) {\n\n        Doc memory _document = _documents[_name];\n\n        return (_document._uri, _document._documentHash);  // return the document uri and document hash\n\n    }\n\n\n\n    // *********************    TOKEN INFORMATION\n\n\n    // function that returns balance\n    \n    function balanceOf(address _tokenHolder) external view returns (uint256) {\n        return _balanceOf[_tokenHolder];\n    }\n\n    function balanceOfByPartition(bytes32 _partition, address _tokenHolder) external view returns (uint256) {\n       return _balanceOfByPartition[_tokenHolder][_partition];\n   }\n\n   // function to return the partitions of a token holder\n\n    function partitionsOf(address _tokenHolder) external view returns (bytes32[] memory) {\n\n        bytes32[] memory _partitions = new bytes32[](_totalPartitions.length);\n        for (uint256 index = 0; index < _totalPartitions.length; index++) {\n            if (_balanceOfByPartition[_tokenHolder][_totalPartitions[index]] > 0) {\n                _partitions[index] = _totalPartitions[index];\n            }\n        }\n\n        return _partitions;\n   }\n\n\n\n    // *********************    TRANSFERS\n\n    // approve tokens to external operators\n    \n    function approve(address _externalAddress, uint256 _value) external returns (bool success) {\n\n        require(_externalAddress != address(0), \"0x58\");                  //    0x58   invalid operator\n        allowance[msg.sender][_externalAddress] = _value;              // use safemath function here to avoid under and overflow\n        emit Approval(msg.sender, _externalAddress, _value);            // emit the approved event\n        return true;\n\n    }\n\n\n    // function to transfer tokens. the internal transfer function will be called here\n    \n    function transfer(address _to, uint256 _value) public returns (bool success) {\n\n        _transfer(msg.sender, _to, _value);\n        return true;\n\n    }\n\n    // function transferFrom. The function for external addresses such as escrows to move tokens on behalf of the token holder\n    \n    function transferFrom(address _from, address _to, uint256 _value) external returns (bool success) {\n\n        // _from is the current token holder\n        // _to is the destinantion address\n        //  msg.sender is the external address calling this function\n        // the token holder should have at least the amount of tokens to be transferred ----> this check has been implemented in the internal _transfer function\n\n        require(allowance[_from][msg.sender] >= _value, \"0x53\");           // the allowed value approved by the token holder must not be less than the amount. Insufficient allowance\n        _transfer(_from, _to, _value);                             // transfer the tokens\n\n        // reset the allowance value\n\n        allowance[_from][msg.sender] =  0;   \n        return true;           \n\n    }  \n\n    // tranfer with data\n\n    function transferWithData(address _to, uint256 _value, bytes memory _data) external {\n        \n        //require(_isValidCertificate(_data, _value));\n        _transfer(msg.sender, _to, _value);\n    }\n    \n\n    function transferFromWithData(address _from, address _to, uint256 _value, bytes memory _data) external {\n         require(allowance[_from][msg.sender] >= _value, \"0x53\");           // the allowed value approved by the token holder must not be less than the amount\n        _transfer(_from, _to, _value);                              // transfer the tokens\n\n        //  reset the allowance value\n\n        allowance[_from][msg.sender] =  0;   \n        \n    }\n\n\n    // *********************    PARTITION TOKEN TRANSFERS\n\n\n    function transferByPartition(bytes32 _partition, address _to, uint256 _value, bytes memory _data) external returns (bytes32) {\n\n       /* if (_data.length != 1) {\n\n            require(_isValidCertificate(_data, _value));\n\n        }*/\n       _transferByPartiton(_partition, msg.sender, _to, _value, _data , \"\");\n \n   }    \n\n   // operator transfer by partition\n   \n   function operatorTransferByPartition(bytes32 _partition, address _from, address _to, uint256 _value, bytes memory _data, bytes memory _operatorData) external returns (bytes32) {\n\n       //require(_isValidCertificate(_operatorData, _value), \"cant verify data\");\n       if(_isControllable == true && _isController[msg.sender]) {\n\n           _transferByPartiton(_partition, _from, _to, _value, \"\", \"\");\n           emit ControllerTransfer(msg.sender, _from, _to, _value, _data, _operatorData);       // forceful transfers\n\n       } else {\n            require(_isOperatorForPartition[_from][msg.sender][_partition] || _isOperator[_from][msg.sender], \"0x56\"); // 0x56 invalid sender\n            _transferByPartiton(_partition, _from, _to, _value, \"\", \"\");\n       }\n      \n       \n   }\n\n\n\n   // *********************    CONTROLLER OPERATION\n\n   function isControllable() external view returns (bool) {\n       return _isControllable;\n   }\n\n   function isController(address _controller) external view returns(bool) {\n       return _isController[_controller];\n   }\n\n   function setControllability(bool _status) external restricted {\n       _isControllable = _status;\n   }\n\n   function setController(address _controller) external restricted {\n\n       require(_controller != address(0), \"0x58\");      // invalid transfer agent\n       require(!_isController[_controller], \"ACC\");       // address is currently a controller\n       _isController[_controller] = true;\n       _controllers.push(_controller);\n       _indexOfController[_controller] = _controllers.length - 1;\n\n   }\n\n   function getControllers() external view returns (address[] memory) {\n       return _controllers;\n   }\n\n   function removeController(address _controller) external restricted {\n\n        require(_controller != address(0), \"0x58\");     // invalid transfer agent\n        require(_isController[_controller], \"0x58\");      // not recognized as a controller\n        _isController[_controller] = false;\n        delete _controllers[_indexOfController[_controller]];     // remove the controller from the array of controllers using their saved index value\n       \n   }\n\n   function controllerTransfer(address _from, address _to, uint256 _value, bytes calldata _data, bytes calldata _operatorData) external {\n        _transfer(_from, _to, _value);\n        emit ControllerTransfer(msg.sender, _from, _to, _value, _data, _operatorData);\n   }\n\n   function controllerRedeem(address _tokenHolder, uint256 _value, bytes calldata _data, bytes calldata _operatorData) external {\n        _redeem(_tokenHolder,  _value, _data);\n        emit ControllerRedemption(msg.sender, _tokenHolder, _value, _data, _operatorData);\n   }\n\n\n   // *********************    OPERATOR MANAGEMENT\n\n\n    function authorizeOperator (address _operator) public {\n        _isOperator[msg.sender][_operator] = true;\n        emit AuthorizedOperator(_operator, msg.sender);\n    }\n\n    function revokeOperator (address _operator) public {\n        _isOperator[msg.sender][_operator] = false;\n        emit RevokedOperator(_operator, msg.sender);\n    }\n\n    function authorizeOperatorByPartition (bytes32 _partition, address _operator) public  {\n        _isOperatorForPartition[msg.sender][_operator][_partition] = true;\n        emit AuthorizedOperatorByPartition(_partition, _operator, msg.sender);\n    }\n\n    function revokeOperatorByPartition (bytes32 _partition, address _operator) public {\n        _isOperatorForPartition[msg.sender][_operator][_partition] = false;\n        emit RevokedOperatorByPartition(_partition, _operator, msg.sender);\n    }\n\n\n\n    // *********************    OPERATOR INFORMATION\n\n\n\n     function isOperator (address _operator, address _tokenHolder) external view returns (bool) {\n        return _isOperator[_tokenHolder][_operator];\n    }\n\n    \n    function isOperatorForPartition(bytes32 _partition, address _operator, address _tokenHolder) external view returns (bool) {\n        return  _isOperatorForPartition[_tokenHolder][_operator][_partition];\n    }\n\n\n\n    // *********************    TOKEN ISSUANCE\n\n    function isIssuable() external view returns (bool) {\n        return _isIssuable;\n    }\n\n\n    // function to mint and issue new tokens. This function is restricted to other addresses except the owner of the contract\n    \n    function issue(address _tokenHolder, uint256 _value, bytes calldata _data) external restricted {\n        \n        require(_isIssuable, \"0x55\");     // can't issue tokens for now\n        require(_tokenHolder != address(0), \"0x57\");        // invalid receiver\n        uint256 amount =  _value * granularity;                         // the destinaton address should not be an empty address\n        _balanceOf[_tokenHolder] += amount;                              \n        totalSupply += amount;                                          // add the new minted token to the total supply ---> use safemath library to avoid under and overflow\n        emit Issued(_tokenHolder, amount, totalSupply, block.timestamp);        // emit the issued event --> it emits the destination address, amount minted, updated total supply and the time issued\n        \n\n    }\n\n\n     // function to issue new tokens by partition\n\n   function issueByPartition(bytes32 _partition, address _tokenHolder, uint256 _value, bytes memory _data) public restricted {\n\n        require(_isIssuable, \"0x55\"); // can't issue tokens for now\n        uint256 amount =  _value * granularity; \n        _balanceOfByPartition[_tokenHolder][_partition] += amount;   // increment the partition's token balance of this token holder\n        _balanceOf[_tokenHolder] += amount; // increment the total balance of this token holder \n        totalSupply += amount; // increase the total supply\n        emit IssuedByPartition(_partition, msg.sender, _tokenHolder, amount, _data, \"\");\n    \n\n   }\n\n\n   // *********************    TOKEN REDEMPTION\n\n\n   function redeem(uint256 _value, bytes memory _data) external {\n\n       _redeem(msg.sender, _value, _data);\n\n   }\n\n   function redeemFrom(address _tokenHolder, uint256 _value, bytes memory _data) external {\n\n        //require(_isValidCertificate(_data, _value));\n        require(allowance[_tokenHolder][msg.sender] >= _value, \"0x53\");  // insufficient allowance\n        _redeem(_tokenHolder, _value, _data);\n\n   }\n\n\n   // function to redeem by partition\n\n   function redeemByPartition(bytes32 _partition, uint256 _value, bytes memory _data) external {\n\n        //require(_isValidCertificate(_data, _value));  //  verify signer\n       _redeemByPartition(_partition, msg.sender, _value, _data, \"\");\n\n   }\n\n   \n\n   function operatorRedeemByPartition(bytes32 _partition, address _tokenHolder, uint256 _value, bytes memory _operatorData) external {\n\n       //require(_isValidCertificate(_operatorData, _value));           //  verify signer\n       if(_isControllable == true && _isController[msg.sender]) {\n            _redeemByPartition(_partition, _tokenHolder, _value, \"\", _operatorData);\n            emit ControllerRedemption(msg.sender, _tokenHolder, _value, \"\", _operatorData);\n       } else {\n            require(_isOperator[_tokenHolder][msg.sender] || _isOperatorForPartition[_tokenHolder][msg.sender][_partition], \"0x58\");     // invalid operator\n            _redeemByPartition(_partition, _tokenHolder, _value, \"\", _operatorData);\n       }\n\n   }\n\n\n   // *********************    TRANSFER VALIDITY\n\n    // used bytes1 instead of byte. bytes1 is now an alias for byte    \n\n    function canTransfer(address _to, uint256 _value, bytes memory _data) external view returns (bytes1 code, bytes32 reason){\n\n        if( _lockUpTokens == true) {\n\n            return (hex\"55\", \"funds locked (lockup period)\");\n        }\n\n        if(_to == address(0)) {\n            return (hex\"57\", \"invalid receiver\");\n        } \n\n        if(_balanceOf[msg.sender] < _value) {\n            return (hex\"52\", \"insufficient balance\");\n        }\n\n        /*if( _isValidCertificate(_data, _value) != true) {\n            return (hex\"59\", \"invalid signer\");\n        }*/\n\n        return (hex\"51\", \"transfer success\");\n\n    }\n\n    function canTransferFrom(address _from, address _to, uint256 _value, bytes memory _data) external view returns (bytes1 code, bytes32 reason) {\n\n        if(_balanceOf[_from] < _value) {\n            return (hex\"52\", \"insufficient balance\");\n        }\n\n        if(allowance[_from][msg.sender] < _value) {\n            return (hex\"53\", \"insufficient allowance\");\n        }\n\n        if(_to == address(0)) {\n            return (hex\"57\", \"invalid receiver\");\n        } \n\n        if(_isOperator[_from][msg.sender]) {\n            return (hex\"58\", \"invalid operator\");\n        } \n\n        /*if( _isValidCertificate(_data, _value) != true) {\n            return (hex\"59\", \"invalid signer\");\n        }*/\n\n        return (hex\"51\", \"transfer success\");\n\n    }\n\n    // can transfer by partition\n\n   function canTransferByPartition(address _from, address _to, bytes32 _partition, uint256 _value, bytes memory _data) external view returns(bytes1, bytes32, bytes32) {\n\n       if (_to == address(0)) {\n           return (hex\"55\", \"invalid receiver\", _partition);\n       }\n\n       if (_value > _balanceOfByPartition[_from][_partition]) {\n           return (hex\"55\", \"insufficient balance\", _partition);\n       }\n\n       /*if( _isValidCertificate(_data, _value) != true) {\n            return (hex\"59\", \"invalid signer\", _partition);\n        }*/\n\n        return (hex\"51\", \"transfer success\", _partition);\n\n\n   }\n\n\n   /*********************************************************************************/\n\n   //function to return partitioned token balance\n\n    function totalPartitions() external view returns (bytes32[] memory) {\n       return _totalPartitions;\n    }\n\n    function setTotalPartitions(bytes32[] memory _newTotalPartitions) external {\n        _totalPartitions = _newTotalPartitions;\n    }\n\n\n   \n\n     // *************************************** Events ********************************************************* //\n\n    event WhiteList (address _investor, uint256 _timeAdded);                                                 // event to be emitted whenever an address is whitelisted\n    event Issued (address _to, uint256 _amountIssued, uint256 _totalSupply, uint256 _timeIssued);            // event to be emitted whenever new tokens are minted\n    event Transfer (address _from, address _to, uint256 _amount);                                            // event to be emitted whenever token is been transferred\n    event Approval (address _tokenHolder, address _externalAddress, uint256 _amount);                        // event to be emitted whenever an external address is approved such as escrows\n    event Document (bytes32 indexed _name, string _uri, bytes32 _documentHash);                       // event to be emitted whenever a document is put on-chain\n    event TransferByPartition (\n\n        bytes32 indexed _fromPartition,\n        address _operator,\n        address indexed _from,\n        address indexed _to,\n        uint256 _value,\n        bytes _data,\n        bytes _operatorData\n\n\n    );                                                                           // event to be emitted whenever tokens are transfered from an address partition to another addres of same partition\n\n    event AuthorizedOperator (address indexed _operator, address indexed _tokenHolder);     // event to be emitted whenever an operator is authorized\n    event RevokedOperator (address indexed _operator, address indexed _tokenHolder);     // event to be emitted whenever an operator is revoked\n    event AuthorizedOperatorByPartition (bytes32 indexed _partition, address indexed _operator, address indexed _tokenHolder);     // event to be emitted whenever an operator is authorized for a partition\n    event RevokedOperatorByPartition (bytes32 indexed _partition, address indexed _operator, address indexed _tokenHolder);     // event to be emitted whenever an operator is revoked for a partition\n    event IssuedByPartition (bytes32 indexed _partition, address indexed _operator, address indexed _to, uint256 _amount, bytes _data, bytes _operatorData);    //  event to be emitted whenever a new token is issued to an holder's partition\n    event RedeemedByPartition (bytes32 indexed _partition, address indexed _operator, address indexed _from, uint256 _amount, bytes _operatorData);     // event to be emitted when tokens are burnt from any partitions\n    event Redeemed (address indexed _operator, address indexed _from, uint256 _value, bytes _data);          //  event to be emitted when a token is being redeemed\n    event ControllerTransfer (address _controller, address indexed _from, address indexed _to, uint256 _value, bytes _data, bytes _operatorData); // event to be emitted whenever a controller forces a token transfer\n    event ControllerRedemption (address _controller, address indexed _tokenHolder, uint256 _value, bytes _data, bytes _operatorData);        // event to be emitted whenever a controller forces token redemption from a token holder's wallet\n\n\n}\n\n\n/**\n    @refactoring \n\n    1.  refactor redeem by partition\n    2.  use the signature in the tranfer internal functions\n */",
  "sourcePath": "/home/komolehin/Documents/blockchain/TANGLE/security-token/contracts/Token/ERC1400.sol",
  "compiler": {
    "name": "solc",
    "version": "0.8.10+commit.fc410830.Emscripten.clang"
  },
  "schemaVersion": "3.4.6",
  "updatedAt": "2022-05-14T09:41:28.902Z",
  "devdoc": {
    "kind": "dev",
    "methods": {
      "getDocument(bytes32)": {
        "details": "function to fetch the document details",
        "params": {
          "_name": "is the name of the of document to be fetched"
        },
        "returns": {
          "docHash": "is the hash of the document to be returned",
          "uri": "is saved uri to be returned"
        }
      },
      "setDocument(bytes32,string,bytes32)": {
        "details": "function to set document onchain using the document hash from an IPFS",
        "params": {
          "_documentHash": "is the hash of the document saved returned from the IPFS     ",
          "_name": "is the name of the document is bytes32",
          "_uri": "is the uri of the document's location in the IPFS"
        }
      }
    },
    "version": 1
  },
  "userdoc": {
    "kind": "user",
    "methods": {},
    "version": 1
  }
}