{
  "contractName": "ERC1400",
  "abi": [
    {
      "inputs": [
        {
          "internalType": "string",
          "name": "_name",
          "type": "string"
        },
        {
          "internalType": "string",
          "name": "_symbol",
          "type": "string"
        },
        {
          "internalType": "uint256",
          "name": "_granularity",
          "type": "uint256"
        }
      ],
      "stateMutability": "nonpayable",
      "type": "constructor"
    },
    {
      "anonymous": false,
      "inputs": [
        {
          "indexed": true,
          "internalType": "address",
          "name": "_owner",
          "type": "address"
        },
        {
          "indexed": true,
          "internalType": "address",
          "name": "_spender",
          "type": "address"
        },
        {
          "indexed": false,
          "internalType": "uint256",
          "name": "_value",
          "type": "uint256"
        }
      ],
      "name": "Approval",
      "type": "event"
    },
    {
      "anonymous": false,
      "inputs": [
        {
          "indexed": true,
          "internalType": "address",
          "name": "_operator",
          "type": "address"
        },
        {
          "indexed": true,
          "internalType": "address",
          "name": "_tokenHolder",
          "type": "address"
        }
      ],
      "name": "AuthorizedOperator",
      "type": "event"
    },
    {
      "anonymous": false,
      "inputs": [
        {
          "indexed": true,
          "internalType": "bytes32",
          "name": "_partition",
          "type": "bytes32"
        },
        {
          "indexed": true,
          "internalType": "address",
          "name": "_operator",
          "type": "address"
        },
        {
          "indexed": true,
          "internalType": "address",
          "name": "_tokenHolder",
          "type": "address"
        }
      ],
      "name": "AuthorizedOperatorByPartition",
      "type": "event"
    },
    {
      "anonymous": false,
      "inputs": [
        {
          "indexed": false,
          "internalType": "address",
          "name": "_controller",
          "type": "address"
        },
        {
          "indexed": true,
          "internalType": "address",
          "name": "_tokenHolder",
          "type": "address"
        },
        {
          "indexed": false,
          "internalType": "uint256",
          "name": "_value",
          "type": "uint256"
        },
        {
          "indexed": false,
          "internalType": "bytes",
          "name": "_data",
          "type": "bytes"
        },
        {
          "indexed": false,
          "internalType": "bytes",
          "name": "_operatorData",
          "type": "bytes"
        }
      ],
      "name": "ControllerRedemption",
      "type": "event"
    },
    {
      "anonymous": false,
      "inputs": [
        {
          "indexed": false,
          "internalType": "address",
          "name": "_controller",
          "type": "address"
        },
        {
          "indexed": true,
          "internalType": "address",
          "name": "_from",
          "type": "address"
        },
        {
          "indexed": true,
          "internalType": "address",
          "name": "_to",
          "type": "address"
        },
        {
          "indexed": false,
          "internalType": "uint256",
          "name": "_value",
          "type": "uint256"
        },
        {
          "indexed": false,
          "internalType": "bytes",
          "name": "_data",
          "type": "bytes"
        },
        {
          "indexed": false,
          "internalType": "bytes",
          "name": "_operatorData",
          "type": "bytes"
        }
      ],
      "name": "ControllerTransfer",
      "type": "event"
    },
    {
      "anonymous": false,
      "inputs": [
        {
          "indexed": true,
          "internalType": "bytes32",
          "name": "_name",
          "type": "bytes32"
        },
        {
          "indexed": false,
          "internalType": "string",
          "name": "_uri",
          "type": "string"
        },
        {
          "indexed": false,
          "internalType": "bytes32",
          "name": "_documentHash",
          "type": "bytes32"
        }
      ],
      "name": "Document",
      "type": "event"
    },
    {
      "anonymous": false,
      "inputs": [
        {
          "indexed": true,
          "internalType": "address",
          "name": "_operator",
          "type": "address"
        },
        {
          "indexed": true,
          "internalType": "address",
          "name": "_to",
          "type": "address"
        },
        {
          "indexed": false,
          "internalType": "uint256",
          "name": "_value",
          "type": "uint256"
        },
        {
          "indexed": false,
          "internalType": "bytes",
          "name": "_data",
          "type": "bytes"
        }
      ],
      "name": "Issued",
      "type": "event"
    },
    {
      "anonymous": false,
      "inputs": [
        {
          "indexed": true,
          "internalType": "bytes32",
          "name": "_partition",
          "type": "bytes32"
        },
        {
          "indexed": true,
          "internalType": "address",
          "name": "_operator",
          "type": "address"
        },
        {
          "indexed": true,
          "internalType": "address",
          "name": "_to",
          "type": "address"
        },
        {
          "indexed": false,
          "internalType": "uint256",
          "name": "_value",
          "type": "uint256"
        },
        {
          "indexed": false,
          "internalType": "bytes",
          "name": "_data",
          "type": "bytes"
        },
        {
          "indexed": false,
          "internalType": "bytes",
          "name": "_operatorData",
          "type": "bytes"
        }
      ],
      "name": "IssuedByPartition",
      "type": "event"
    },
    {
      "anonymous": false,
      "inputs": [
        {
          "indexed": true,
          "internalType": "address",
          "name": "_operator",
          "type": "address"
        },
        {
          "indexed": true,
          "internalType": "address",
          "name": "_from",
          "type": "address"
        },
        {
          "indexed": false,
          "internalType": "uint256",
          "name": "_value",
          "type": "uint256"
        },
        {
          "indexed": false,
          "internalType": "bytes",
          "name": "_data",
          "type": "bytes"
        }
      ],
      "name": "Redeemed",
      "type": "event"
    },
    {
      "anonymous": false,
      "inputs": [
        {
          "indexed": true,
          "internalType": "bytes32",
          "name": "_partition",
          "type": "bytes32"
        },
        {
          "indexed": true,
          "internalType": "address",
          "name": "_operator",
          "type": "address"
        },
        {
          "indexed": true,
          "internalType": "address",
          "name": "_from",
          "type": "address"
        },
        {
          "indexed": false,
          "internalType": "uint256",
          "name": "_value",
          "type": "uint256"
        },
        {
          "indexed": false,
          "internalType": "bytes",
          "name": "_operatorData",
          "type": "bytes"
        }
      ],
      "name": "RedeemedByPartition",
      "type": "event"
    },
    {
      "anonymous": false,
      "inputs": [
        {
          "indexed": true,
          "internalType": "address",
          "name": "_operator",
          "type": "address"
        },
        {
          "indexed": true,
          "internalType": "address",
          "name": "_tokenHolder",
          "type": "address"
        }
      ],
      "name": "RevokedOperator",
      "type": "event"
    },
    {
      "anonymous": false,
      "inputs": [
        {
          "indexed": true,
          "internalType": "bytes32",
          "name": "_partition",
          "type": "bytes32"
        },
        {
          "indexed": true,
          "internalType": "address",
          "name": "_operator",
          "type": "address"
        },
        {
          "indexed": true,
          "internalType": "address",
          "name": "_tokenHolder",
          "type": "address"
        }
      ],
      "name": "RevokedOperatorByPartition",
      "type": "event"
    },
    {
      "anonymous": false,
      "inputs": [
        {
          "indexed": true,
          "internalType": "address",
          "name": "_from",
          "type": "address"
        },
        {
          "indexed": true,
          "internalType": "address",
          "name": "_to",
          "type": "address"
        },
        {
          "indexed": false,
          "internalType": "uint256",
          "name": "_value",
          "type": "uint256"
        }
      ],
      "name": "Transfer",
      "type": "event"
    },
    {
      "anonymous": false,
      "inputs": [
        {
          "indexed": true,
          "internalType": "bytes32",
          "name": "_fromPartition",
          "type": "bytes32"
        },
        {
          "indexed": false,
          "internalType": "address",
          "name": "_operator",
          "type": "address"
        },
        {
          "indexed": true,
          "internalType": "address",
          "name": "_from",
          "type": "address"
        },
        {
          "indexed": true,
          "internalType": "address",
          "name": "_to",
          "type": "address"
        },
        {
          "indexed": false,
          "internalType": "uint256",
          "name": "_value",
          "type": "uint256"
        },
        {
          "indexed": false,
          "internalType": "bytes",
          "name": "_data",
          "type": "bytes"
        },
        {
          "indexed": false,
          "internalType": "bytes",
          "name": "_operatorData",
          "type": "bytes"
        }
      ],
      "name": "TransferByPartition",
      "type": "event"
    },
    {
      "inputs": [
        {
          "internalType": "bytes32",
          "name": "_name",
          "type": "bytes32"
        },
        {
          "internalType": "string",
          "name": "_uri",
          "type": "string"
        },
        {
          "internalType": "bytes32",
          "name": "_documentHash",
          "type": "bytes32"
        }
      ],
      "name": "setDocument",
      "outputs": [],
      "stateMutability": "nonpayable",
      "type": "function"
    },
    {
      "inputs": [
        {
          "internalType": "bytes32",
          "name": "_name",
          "type": "bytes32"
        }
      ],
      "name": "getDocument",
      "outputs": [
        {
          "internalType": "string",
          "name": "uri",
          "type": "string"
        },
        {
          "internalType": "bytes32",
          "name": "docHash",
          "type": "bytes32"
        }
      ],
      "stateMutability": "view",
      "type": "function"
    },
    {
      "inputs": [
        {
          "internalType": "address",
          "name": "_tokenHolder",
          "type": "address"
        }
      ],
      "name": "balanceOf",
      "outputs": [
        {
          "internalType": "uint256",
          "name": "",
          "type": "uint256"
        }
      ],
      "stateMutability": "view",
      "type": "function"
    },
    {
      "inputs": [
        {
          "internalType": "bytes32",
          "name": "_partition",
          "type": "bytes32"
        },
        {
          "internalType": "address",
          "name": "_tokenHolder",
          "type": "address"
        }
      ],
      "name": "balanceOfByPartition",
      "outputs": [
        {
          "internalType": "uint256",
          "name": "",
          "type": "uint256"
        }
      ],
      "stateMutability": "view",
      "type": "function"
    },
    {
      "inputs": [
        {
          "internalType": "address",
          "name": "_tokenHolder",
          "type": "address"
        }
      ],
      "name": "partitionsOf",
      "outputs": [
        {
          "internalType": "bytes32[]",
          "name": "",
          "type": "bytes32[]"
        }
      ],
      "stateMutability": "view",
      "type": "function"
    },
    {
      "inputs": [
        {
          "internalType": "address",
          "name": "_externalAddress",
          "type": "address"
        },
        {
          "internalType": "uint256",
          "name": "_value",
          "type": "uint256"
        }
      ],
      "name": "approve",
      "outputs": [
        {
          "internalType": "bool",
          "name": "success",
          "type": "bool"
        }
      ],
      "stateMutability": "nonpayable",
      "type": "function"
    },
    {
      "inputs": [
        {
          "internalType": "address",
          "name": "_to",
          "type": "address"
        },
        {
          "internalType": "uint256",
          "name": "_value",
          "type": "uint256"
        }
      ],
      "name": "transfer",
      "outputs": [
        {
          "internalType": "bool",
          "name": "success",
          "type": "bool"
        }
      ],
      "stateMutability": "nonpayable",
      "type": "function"
    },
    {
      "inputs": [
        {
          "internalType": "address",
          "name": "_from",
          "type": "address"
        },
        {
          "internalType": "address",
          "name": "_to",
          "type": "address"
        },
        {
          "internalType": "uint256",
          "name": "_value",
          "type": "uint256"
        }
      ],
      "name": "transferFrom",
      "outputs": [
        {
          "internalType": "bool",
          "name": "success",
          "type": "bool"
        }
      ],
      "stateMutability": "nonpayable",
      "type": "function"
    },
    {
      "inputs": [
        {
          "internalType": "address",
          "name": "_to",
          "type": "address"
        },
        {
          "internalType": "uint256",
          "name": "_value",
          "type": "uint256"
        },
        {
          "internalType": "bytes",
          "name": "_data",
          "type": "bytes"
        }
      ],
      "name": "transferWithData",
      "outputs": [],
      "stateMutability": "nonpayable",
      "type": "function"
    },
    {
      "inputs": [
        {
          "internalType": "address",
          "name": "_from",
          "type": "address"
        },
        {
          "internalType": "address",
          "name": "_to",
          "type": "address"
        },
        {
          "internalType": "uint256",
          "name": "_value",
          "type": "uint256"
        },
        {
          "internalType": "bytes",
          "name": "_data",
          "type": "bytes"
        }
      ],
      "name": "transferFromWithData",
      "outputs": [],
      "stateMutability": "nonpayable",
      "type": "function"
    },
    {
      "inputs": [
        {
          "internalType": "bytes32",
          "name": "_partition",
          "type": "bytes32"
        },
        {
          "internalType": "address",
          "name": "_to",
          "type": "address"
        },
        {
          "internalType": "uint256",
          "name": "_value",
          "type": "uint256"
        },
        {
          "internalType": "bytes",
          "name": "_data",
          "type": "bytes"
        }
      ],
      "name": "transferByPartition",
      "outputs": [
        {
          "internalType": "bytes32",
          "name": "",
          "type": "bytes32"
        }
      ],
      "stateMutability": "nonpayable",
      "type": "function"
    },
    {
      "inputs": [
        {
          "internalType": "bytes32",
          "name": "_partition",
          "type": "bytes32"
        },
        {
          "internalType": "address",
          "name": "_from",
          "type": "address"
        },
        {
          "internalType": "address",
          "name": "_to",
          "type": "address"
        },
        {
          "internalType": "uint256",
          "name": "_value",
          "type": "uint256"
        },
        {
          "internalType": "bytes",
          "name": "_data",
          "type": "bytes"
        },
        {
          "internalType": "bytes",
          "name": "_operatorData",
          "type": "bytes"
        }
      ],
      "name": "operatorTransferByPartition",
      "outputs": [
        {
          "internalType": "bytes32",
          "name": "",
          "type": "bytes32"
        }
      ],
      "stateMutability": "nonpayable",
      "type": "function"
    },
    {
      "inputs": [],
      "name": "isControllable",
      "outputs": [
        {
          "internalType": "bool",
          "name": "",
          "type": "bool"
        }
      ],
      "stateMutability": "view",
      "type": "function"
    },
    {
      "inputs": [
        {
          "internalType": "address",
          "name": "_controller",
          "type": "address"
        }
      ],
      "name": "isController",
      "outputs": [
        {
          "internalType": "bool",
          "name": "",
          "type": "bool"
        }
      ],
      "stateMutability": "view",
      "type": "function"
    },
    {
      "inputs": [
        {
          "internalType": "bool",
          "name": "_status",
          "type": "bool"
        }
      ],
      "name": "setControllability",
      "outputs": [],
      "stateMutability": "nonpayable",
      "type": "function"
    },
    {
      "inputs": [
        {
          "internalType": "address",
          "name": "_controller",
          "type": "address"
        }
      ],
      "name": "setController",
      "outputs": [],
      "stateMutability": "nonpayable",
      "type": "function"
    },
    {
      "inputs": [],
      "name": "getControllers",
      "outputs": [
        {
          "internalType": "address[]",
          "name": "",
          "type": "address[]"
        }
      ],
      "stateMutability": "view",
      "type": "function"
    },
    {
      "inputs": [
        {
          "internalType": "address",
          "name": "_controller",
          "type": "address"
        }
      ],
      "name": "removeController",
      "outputs": [],
      "stateMutability": "nonpayable",
      "type": "function"
    },
    {
      "inputs": [
        {
          "internalType": "address",
          "name": "_from",
          "type": "address"
        },
        {
          "internalType": "address",
          "name": "_to",
          "type": "address"
        },
        {
          "internalType": "uint256",
          "name": "_value",
          "type": "uint256"
        },
        {
          "internalType": "bytes",
          "name": "_data",
          "type": "bytes"
        },
        {
          "internalType": "bytes",
          "name": "_operatorData",
          "type": "bytes"
        }
      ],
      "name": "controllerTransfer",
      "outputs": [],
      "stateMutability": "nonpayable",
      "type": "function"
    },
    {
      "inputs": [
        {
          "internalType": "address",
          "name": "_tokenHolder",
          "type": "address"
        },
        {
          "internalType": "uint256",
          "name": "_value",
          "type": "uint256"
        },
        {
          "internalType": "bytes",
          "name": "_data",
          "type": "bytes"
        },
        {
          "internalType": "bytes",
          "name": "_operatorData",
          "type": "bytes"
        }
      ],
      "name": "controllerRedeem",
      "outputs": [],
      "stateMutability": "nonpayable",
      "type": "function"
    },
    {
      "inputs": [
        {
          "internalType": "address",
          "name": "_operator",
          "type": "address"
        }
      ],
      "name": "authorizeOperator",
      "outputs": [],
      "stateMutability": "nonpayable",
      "type": "function"
    },
    {
      "inputs": [
        {
          "internalType": "address",
          "name": "_operator",
          "type": "address"
        }
      ],
      "name": "revokeOperator",
      "outputs": [],
      "stateMutability": "nonpayable",
      "type": "function"
    },
    {
      "inputs": [
        {
          "internalType": "bytes32",
          "name": "_partition",
          "type": "bytes32"
        },
        {
          "internalType": "address",
          "name": "_operator",
          "type": "address"
        }
      ],
      "name": "authorizeOperatorByPartition",
      "outputs": [],
      "stateMutability": "nonpayable",
      "type": "function"
    },
    {
      "inputs": [
        {
          "internalType": "bytes32",
          "name": "_partition",
          "type": "bytes32"
        },
        {
          "internalType": "address",
          "name": "_operator",
          "type": "address"
        }
      ],
      "name": "revokeOperatorByPartition",
      "outputs": [],
      "stateMutability": "nonpayable",
      "type": "function"
    },
    {
      "inputs": [
        {
          "internalType": "address",
          "name": "_operator",
          "type": "address"
        },
        {
          "internalType": "address",
          "name": "_tokenHolder",
          "type": "address"
        }
      ],
      "name": "isOperator",
      "outputs": [
        {
          "internalType": "bool",
          "name": "",
          "type": "bool"
        }
      ],
      "stateMutability": "view",
      "type": "function"
    },
    {
      "inputs": [
        {
          "internalType": "bytes32",
          "name": "_partition",
          "type": "bytes32"
        },
        {
          "internalType": "address",
          "name": "_operator",
          "type": "address"
        },
        {
          "internalType": "address",
          "name": "_tokenHolder",
          "type": "address"
        }
      ],
      "name": "isOperatorForPartition",
      "outputs": [
        {
          "internalType": "bool",
          "name": "",
          "type": "bool"
        }
      ],
      "stateMutability": "view",
      "type": "function"
    },
    {
      "inputs": [],
      "name": "isIssuable",
      "outputs": [
        {
          "internalType": "bool",
          "name": "",
          "type": "bool"
        }
      ],
      "stateMutability": "view",
      "type": "function"
    },
    {
      "inputs": [
        {
          "internalType": "address",
          "name": "_tokenHolder",
          "type": "address"
        },
        {
          "internalType": "uint256",
          "name": "_value",
          "type": "uint256"
        },
        {
          "internalType": "bytes",
          "name": "_data",
          "type": "bytes"
        }
      ],
      "name": "issue",
      "outputs": [],
      "stateMutability": "nonpayable",
      "type": "function"
    },
    {
      "inputs": [
        {
          "internalType": "bytes32",
          "name": "_partition",
          "type": "bytes32"
        },
        {
          "internalType": "address",
          "name": "_tokenHolder",
          "type": "address"
        },
        {
          "internalType": "uint256",
          "name": "_value",
          "type": "uint256"
        },
        {
          "internalType": "bytes",
          "name": "_data",
          "type": "bytes"
        }
      ],
      "name": "issueByPartition",
      "outputs": [],
      "stateMutability": "nonpayable",
      "type": "function"
    },
    {
      "inputs": [
        {
          "internalType": "uint256",
          "name": "_value",
          "type": "uint256"
        },
        {
          "internalType": "bytes",
          "name": "_data",
          "type": "bytes"
        }
      ],
      "name": "redeem",
      "outputs": [],
      "stateMutability": "nonpayable",
      "type": "function"
    },
    {
      "inputs": [
        {
          "internalType": "address",
          "name": "_tokenHolder",
          "type": "address"
        },
        {
          "internalType": "uint256",
          "name": "_value",
          "type": "uint256"
        },
        {
          "internalType": "bytes",
          "name": "_data",
          "type": "bytes"
        }
      ],
      "name": "redeemFrom",
      "outputs": [],
      "stateMutability": "nonpayable",
      "type": "function"
    },
    {
      "inputs": [
        {
          "internalType": "bytes32",
          "name": "_partition",
          "type": "bytes32"
        },
        {
          "internalType": "uint256",
          "name": "_value",
          "type": "uint256"
        },
        {
          "internalType": "bytes",
          "name": "_data",
          "type": "bytes"
        }
      ],
      "name": "redeemByPartition",
      "outputs": [],
      "stateMutability": "nonpayable",
      "type": "function"
    },
    {
      "inputs": [
        {
          "internalType": "bytes32",
          "name": "_partition",
          "type": "bytes32"
        },
        {
          "internalType": "address",
          "name": "_tokenHolder",
          "type": "address"
        },
        {
          "internalType": "uint256",
          "name": "_value",
          "type": "uint256"
        },
        {
          "internalType": "bytes",
          "name": "_operatorData",
          "type": "bytes"
        }
      ],
      "name": "operatorRedeemByPartition",
      "outputs": [],
      "stateMutability": "nonpayable",
      "type": "function"
    },
    {
      "inputs": [
        {
          "internalType": "address",
          "name": "_to",
          "type": "address"
        },
        {
          "internalType": "uint256",
          "name": "_value",
          "type": "uint256"
        },
        {
          "internalType": "bytes",
          "name": "_data",
          "type": "bytes"
        }
      ],
      "name": "canTransfer",
      "outputs": [
        {
          "internalType": "bytes1",
          "name": "code",
          "type": "bytes1"
        },
        {
          "internalType": "bytes32",
          "name": "reason",
          "type": "bytes32"
        }
      ],
      "stateMutability": "view",
      "type": "function"
    },
    {
      "inputs": [
        {
          "internalType": "address",
          "name": "_from",
          "type": "address"
        },
        {
          "internalType": "address",
          "name": "_to",
          "type": "address"
        },
        {
          "internalType": "uint256",
          "name": "_value",
          "type": "uint256"
        },
        {
          "internalType": "bytes",
          "name": "_data",
          "type": "bytes"
        }
      ],
      "name": "canTransferFrom",
      "outputs": [
        {
          "internalType": "bytes1",
          "name": "code",
          "type": "bytes1"
        },
        {
          "internalType": "bytes32",
          "name": "reason",
          "type": "bytes32"
        }
      ],
      "stateMutability": "view",
      "type": "function"
    },
    {
      "inputs": [
        {
          "internalType": "address",
          "name": "_from",
          "type": "address"
        },
        {
          "internalType": "address",
          "name": "_to",
          "type": "address"
        },
        {
          "internalType": "bytes32",
          "name": "_partition",
          "type": "bytes32"
        },
        {
          "internalType": "uint256",
          "name": "_value",
          "type": "uint256"
        },
        {
          "internalType": "bytes",
          "name": "_data",
          "type": "bytes"
        }
      ],
      "name": "canTransferByPartition",
      "outputs": [
        {
          "internalType": "bytes1",
          "name": "",
          "type": "bytes1"
        },
        {
          "internalType": "bytes32",
          "name": "",
          "type": "bytes32"
        },
        {
          "internalType": "bytes32",
          "name": "",
          "type": "bytes32"
        }
      ],
      "stateMutability": "view",
      "type": "function"
    },
    {
      "inputs": [],
      "name": "totalPartitions",
      "outputs": [
        {
          "internalType": "bytes32[]",
          "name": "",
          "type": "bytes32[]"
        }
      ],
      "stateMutability": "view",
      "type": "function"
    },
    {
      "inputs": [
        {
          "internalType": "bytes32[]",
          "name": "_newTotalPartitions",
          "type": "bytes32[]"
        }
      ],
      "name": "setTotalPartitions",
      "outputs": [],
      "stateMutability": "nonpayable",
      "type": "function"
    },
    {
      "inputs": [
        {
          "internalType": "bool",
          "name": "_lockUp",
          "type": "bool"
        }
      ],
      "name": "setLockUp",
      "outputs": [],
      "stateMutability": "nonpayable",
      "type": "function"
    },
    {
      "inputs": [
        {
          "internalType": "bool",
          "name": "_issuable",
          "type": "bool"
        }
      ],
      "name": "setIssuable",
      "outputs": [],
      "stateMutability": "nonpayable",
      "type": "function"
    },
    {
      "inputs": [],
      "name": "name",
      "outputs": [
        {
          "internalType": "string",
          "name": "",
          "type": "string"
        }
      ],
      "stateMutability": "view",
      "type": "function"
    },
    {
      "inputs": [],
      "name": "symbol",
      "outputs": [
        {
          "internalType": "string",
          "name": "",
          "type": "string"
        }
      ],
      "stateMutability": "view",
      "type": "function"
    },
    {
      "inputs": [],
      "name": "totalSupply",
      "outputs": [
        {
          "internalType": "uint256",
          "name": "",
          "type": "uint256"
        }
      ],
      "stateMutability": "view",
      "type": "function"
    },
    {
      "inputs": [],
      "name": "granularity",
      "outputs": [
        {
          "internalType": "uint256",
          "name": "",
          "type": "uint256"
        }
      ],
      "stateMutability": "view",
      "type": "function"
    }
  ],
  "bytecode": "0x60806040527f636c6173736c65737300000000000000000000000000000000000000000000006007553480156200003557600080fd5b50604051620067433803806200674383398181016040528101906200005b9190620005eb565b82600090805190602001906200007392919062000363565b5081600190805190602001906200008c92919062000363565b5080600a6200009c919062000808565b600281905550620000b333620000bc60201b60201c565b50505062000a60565b601060003373ffffffffffffffffffffffffffffffffffffffff1673ffffffffffffffffffffffffffffffffffffffff16815260200190815260200160002060009054906101000a900460ff166200014b576040517f08c379a00000000000000000000000000000000000000000000000000000000081526004016200014290620008ba565b60405180910390fd5b600073ffffffffffffffffffffffffffffffffffffffff168173ffffffffffffffffffffffffffffffffffffffff161415620001be576040517f08c379a0000000000000000000000000000000000000000000000000000000008152600401620001b5906200092c565b60405180910390fd5b601060008273ffffffffffffffffffffffffffffffffffffffff1673ffffffffffffffffffffffffffffffffffffffff16815260200190815260200160002060009054906101000a900460ff16156200024e576040517f08c379a000000000000000000000000000000000000000000000000000000000815260040162000245906200099e565b60405180910390fd5b6001601060008373ffffffffffffffffffffffffffffffffffffffff1673ffffffffffffffffffffffffffffffffffffffff16815260200190815260200160002060006101000a81548160ff0219169083151502179055506006819080600181540180825580915050600190039060005260206000200160009091909190916101000a81548173ffffffffffffffffffffffffffffffffffffffff021916908373ffffffffffffffffffffffffffffffffffffffff16021790555060016006805490506200031d9190620009c0565b601160008373ffffffffffffffffffffffffffffffffffffffff1673ffffffffffffffffffffffffffffffffffffffff1681526020019081526020016000208190555050565b828054620003719062000a2a565b90600052602060002090601f016020900481019282620003955760008555620003e1565b82601f10620003b057805160ff1916838001178555620003e1565b82800160010185558215620003e1579182015b82811115620003e0578251825591602001919060010190620003c3565b5b509050620003f09190620003f4565b5090565b5b808211156200040f576000816000905550600101620003f5565b5090565b6000604051905090565b600080fd5b600080fd5b600080fd5b600080fd5b6000601f19601f8301169050919050565b7f4e487b7100000000000000000000000000000000000000000000000000000000600052604160045260246000fd5b6200047c8262000431565b810181811067ffffffffffffffff821117156200049e576200049d62000442565b5b80604052505050565b6000620004b362000413565b9050620004c1828262000471565b919050565b600067ffffffffffffffff821115620004e457620004e362000442565b5b620004ef8262000431565b9050602081019050919050565b60005b838110156200051c578082015181840152602081019050620004ff565b838111156200052c576000848401525b50505050565b6000620005496200054384620004c6565b620004a7565b9050828152602081018484840111156200056857620005676200042c565b5b62000575848285620004fc565b509392505050565b600082601f83011262000595576200059462000427565b5b8151620005a784826020860162000532565b91505092915050565b6000819050919050565b620005c581620005b0565b8114620005d157600080fd5b50565b600081519050620005e581620005ba565b92915050565b6000806000606084860312156200060757620006066200041d565b5b600084015167ffffffffffffffff81111562000628576200062762000422565b5b62000636868287016200057d565b935050602084015167ffffffffffffffff8111156200065a576200065962000422565b5b62000668868287016200057d565b92505060406200067b86828701620005d4565b9150509250925092565b7f4e487b7100000000000000000000000000000000000000000000000000000000600052601160045260246000fd5b60008160011c9050919050565b6000808291508390505b60018511156200071357808604811115620006eb57620006ea62000685565b5b6001851615620006fb5780820291505b80810290506200070b85620006b4565b9450620006cb565b94509492505050565b6000826200072e576001905062000801565b816200073e576000905062000801565b8160018114620007575760028114620007625762000798565b600191505062000801565b60ff84111562000777576200077662000685565b5b8360020a91508482111562000791576200079062000685565b5b5062000801565b5060208310610133831016604e8410600b8410161715620007d25782820a905083811115620007cc57620007cb62000685565b5b62000801565b620007e18484846001620006c1565b92509050818404811115620007fb57620007fa62000685565b5b81810290505b9392505050565b60006200081582620005b0565b91506200082283620005b0565b9250620008517fffffffffffffffffffffffffffffffffffffffffffffffffffffffffffffffff84846200071c565b905092915050565b600082825260208201905092915050565b7f3078353600000000000000000000000000000000000000000000000000000000600082015250565b6000620008a260048362000859565b9150620008af826200086a565b602082019050919050565b60006020820190508181036000830152620008d58162000893565b9050919050565b7f3078353800000000000000000000000000000000000000000000000000000000600082015250565b60006200091460048362000859565b91506200092182620008dc565b602082019050919050565b60006020820190508181036000830152620009478162000905565b9050919050565b7f4143430000000000000000000000000000000000000000000000000000000000600082015250565b60006200098660038362000859565b915062000993826200094e565b602082019050919050565b60006020820190508181036000830152620009b98162000977565b9050919050565b6000620009cd82620005b0565b9150620009da83620005b0565b925082821015620009f057620009ef62000685565b5b828203905092915050565b7f4e487b7100000000000000000000000000000000000000000000000000000000600052602260045260246000fd5b6000600282049050600182168062000a4357607f821691505b6020821081141562000a5a5762000a59620009fb565b5b50919050565b615cd38062000a706000396000f3fe608060405234801561001057600080fd5b50600436106102745760003560e01c8063740ab8f411610151578063b10d6b41116100c3578063e77c646d11610087578063e77c646d146107ce578063ee532f31146107ea578063f282527a14610806578063f3d490db14610822578063f6a74ed714610852578063fad8b32a1461086e57610274565b8063b10d6b4114610703578063b429afeb14610734578063b4e8a6c414610764578063b6363cf214610782578063bb3acde9146107b257610274565b80639675193c116101155780639675193c1461063157806398ddcec71461064d5780639945e70e146106695780639ab309ca1461069b578063a9059cbb146106b7578063aeec4b45146106e757610274565b8063740ab8f41461057b5780638c0dee9c146105ab57806392eefe9b146105db578063959b8c3f146105f757806395d89b411461061357610274565b80632f1cae85116101ea57806362eb0068116101ae57806362eb0068146104a957806367c84919146104c557806369598efe146104e15780636d77cad6146104ff5780636fe8d3a61461052f57806370a082311461054b57610274565b80632f1cae851461040357806330e82803146104215780633d0f6866146104515780634c783bf51461046d578063556f0dc71461048b57610274565b8063168ecec51161023c578063168ecec51461033057806318160ddd1461034c5780631badb25c1461036a57806323b872dd1461039b5780632535f762146103cb5780632bc6acc3146103e757610274565b8063010648ca1461027957806306fdde0314610295578063095ea7b3146102b3578063103ef9e1146102e3578063122eb575146102ff575b600080fd5b610293600480360381019061028e919061409e565b61088a565b005b61029d61092b565b6040516102aa9190614195565b60405180910390f35b6102cd60048036038101906102c8919061424b565b6109bd565b6040516102da91906142a6565b60405180910390f35b6102fd60048036038101906102f891906142c1565b610b1e565b005b610319600480360381019061031491906143a2565b610c23565b60405161032792919061446f565b60405180910390f35b61034a600480360381019061034591906142c1565b610f31565b005b610354611036565b60405161036191906144a7565b60405180910390f35b610384600480360381019061037f91906144c2565b611040565b60405161039292919061446f565b60405180910390f35b6103b560048036038101906103b09190614531565b61120b565b6040516103c291906142a6565b60405180910390f35b6103e560048036038101906103e091906144c2565b61138a565b005b61040160048036038101906103fc9190614584565b6113b1565b005b61040b6114a6565b60405161041891906142a6565b60405180910390f35b61043b600480360381019061043691906142c1565b6114bd565b60405161044891906144a7565b60405180910390f35b61046b600480360381019061046691906146eb565b611518565b005b610475611532565b60405161048291906142a6565b60405180910390f35b610493611549565b6040516104a091906144a7565b60405180910390f35b6104c360048036038101906104be9190614734565b611553565b005b6104df60048036038101906104da91906147a3565b6115dc565b005b6104e961167a565b6040516104f691906148e4565b60405180910390f35b61051960048036038101906105149190614906565b6116d2565b60405161052691906142a6565b60405180910390f35b61054960048036038101906105449190614985565b611778565b005b610565600480360381019061056091906149b2565b611821565b60405161057291906144a7565b60405180910390f35b610595600480360381019061059091906149b2565b61186a565b6040516105a291906148e4565b60405180910390f35b6105c560048036038101906105c091906149df565b6119a1565b6040516105d29190614aa4565b60405180910390f35b6105f560048036038101906105f091906149b2565b611c5b565b005b610611600480360381019061060c91906149b2565b611ef7565b005b61061b611fe9565b6040516106289190614195565b60405180910390f35b61064b600480360381019061064691906144c2565b61207b565b005b610667600480360381019061066291906147a3565b6121c4565b005b610683600480360381019061067e9190614abf565b61249e565b60405161069293929190614b56565b60405180910390f35b6106b560048036038101906106b09190614985565b612626565b005b6106d160048036038101906106cc919061424b565b6126cf565b6040516106de91906142a6565b60405180910390f35b61070160048036038101906106fc9190614985565b61270c565b005b61071d60048036038101906107189190614b8d565b6127b5565b60405161072b929190614bba565b60405180910390f35b61074e600480360381019061074991906149b2565b612894565b60405161075b91906142a6565b60405180910390f35b61076c6128ea565b6040516107799190614ca8565b60405180910390f35b61079c60048036038101906107979190614cca565b612978565b6040516107a991906142a6565b60405180910390f35b6107cc60048036038101906107c791906144c2565b612a0c565b005b6107e860048036038101906107e39190614d0a565b612aab565b005b61080460048036038101906107ff91906143a2565b612b34565b005b610820600480360381019061081b9190614d66565b612c9d565b005b61083c600480360381019061083791906147a3565b612dfd565b6040516108499190614aa4565b60405180910390f35b61086c600480360381019061086791906149b2565b612e2a565b005b610888600480360381019061088391906149b2565b613056565b005b604051806060016040528084815260200182815260200183815250600b6000858152602001908152602001600020600082015181600001556020820151816001015560408201518160020190805190602001906108e8929190613e01565b50905050827f89730c201d2df6a4cef4e892559e63e022078b0ee939d11b6ced61fb098b2824838360405161091e929190614bba565b60405180910390a2505050565b60606000805461093a90614e48565b80601f016020809104026020016040519081016040528092919081815260200182805461096690614e48565b80156109b35780601f10610988576101008083540402835291602001916109b3565b820191906000526020600020905b81548152906001019060200180831161099657829003601f168201915b5050505050905090565b60008073ffffffffffffffffffffffffffffffffffffffff168373ffffffffffffffffffffffffffffffffffffffff161415610a2e576040517f08c379a0000000000000000000000000000000000000000000000000000000008152600401610a2590614ec6565b60405180910390fd5b81600960003373ffffffffffffffffffffffffffffffffffffffff1673ffffffffffffffffffffffffffffffffffffffff16815260200190815260200160002060008573ffffffffffffffffffffffffffffffffffffffff1673ffffffffffffffffffffffffffffffffffffffff168152602001908152602001600020819055508273ffffffffffffffffffffffffffffffffffffffff163373ffffffffffffffffffffffffffffffffffffffff167f8c5be1e5ebec7d5bd14f71427d1e84f3dd0314c0f7b2291e5b200ac8c7c3b92584604051610b0c91906144a7565b60405180910390a36001905092915050565b6001600f60003373ffffffffffffffffffffffffffffffffffffffff1673ffffffffffffffffffffffffffffffffffffffff16815260200190815260200160002060008373ffffffffffffffffffffffffffffffffffffffff1673ffffffffffffffffffffffffffffffffffffffff168152602001908152602001600020600084815260200190815260200160002060006101000a81548160ff0219169083151502179055503373ffffffffffffffffffffffffffffffffffffffff168173ffffffffffffffffffffffffffffffffffffffff16837f3646a897c70797ecc134b0adc32f471b07bf1d6f451133b0384badab531e3fd660405160405180910390a45050565b60008083600a60008873ffffffffffffffffffffffffffffffffffffffff1673ffffffffffffffffffffffffffffffffffffffff168152602001908152602001600020541015610cb8577f52000000000000000000000000000000000000000000000000000000000000007f696e73756666696369656e742062616c616e636500000000000000000000000091509150610f28565b83600960008873ffffffffffffffffffffffffffffffffffffffff1673ffffffffffffffffffffffffffffffffffffffff16815260200190815260200160002060003373ffffffffffffffffffffffffffffffffffffffff1673ffffffffffffffffffffffffffffffffffffffff168152602001908152602001600020541015610d87577f53000000000000000000000000000000000000000000000000000000000000007f696e73756666696369656e7420616c6c6f77616e63650000000000000000000091509150610f28565b600073ffffffffffffffffffffffffffffffffffffffff168573ffffffffffffffffffffffffffffffffffffffff161415610e07577f57000000000000000000000000000000000000000000000000000000000000007f696e76616c69642072656365697665720000000000000000000000000000000091509150610f28565b600e60008773ffffffffffffffffffffffffffffffffffffffff1673ffffffffffffffffffffffffffffffffffffffff16815260200190815260200160002060003373ffffffffffffffffffffffffffffffffffffffff1673ffffffffffffffffffffffffffffffffffffffff16815260200190815260200160002060009054906101000a900460ff1615610ee1577f58000000000000000000000000000000000000000000000000000000000000007f696e76616c6964206f70657261746f720000000000000000000000000000000091509150610f28565b7f51000000000000000000000000000000000000000000000000000000000000007f7472616e73666572207375636365737300000000000000000000000000000000915091505b94509492505050565b6000600f60003373ffffffffffffffffffffffffffffffffffffffff1673ffffffffffffffffffffffffffffffffffffffff16815260200190815260200160002060008373ffffffffffffffffffffffffffffffffffffffff1673ffffffffffffffffffffffffffffffffffffffff168152602001908152602001600020600084815260200190815260200160002060006101000a81548160ff0219169083151502179055503373ffffffffffffffffffffffffffffffffffffffff168173ffffffffffffffffffffffffffffffffffffffff16837f3b287c4f1bab4df949b33bceacef984f544dc5d5479930d00e4ee8c9d8dd96f260405160405180910390a45050565b6000600354905090565b60008060011515600460149054906101000a900460ff16151514156110aa577f55000000000000000000000000000000000000000000000000000000000000007f66756e6473206c6f636b656420286c6f636b757020706572696f64290000000091509150611203565b600073ffffffffffffffffffffffffffffffffffffffff168573ffffffffffffffffffffffffffffffffffffffff16141561112a577f57000000000000000000000000000000000000000000000000000000000000007f696e76616c69642072656365697665720000000000000000000000000000000091509150611203565b83600a60003373ffffffffffffffffffffffffffffffffffffffff1673ffffffffffffffffffffffffffffffffffffffff1681526020019081526020016000205410156111bc577f52000000000000000000000000000000000000000000000000000000000000007f696e73756666696369656e742062616c616e636500000000000000000000000091509150611203565b7f51000000000000000000000000000000000000000000000000000000000000007f7472616e73666572207375636365737300000000000000000000000000000000915091505b935093915050565b600081600960008673ffffffffffffffffffffffffffffffffffffffff1673ffffffffffffffffffffffffffffffffffffffff16815260200190815260200160002060003373ffffffffffffffffffffffffffffffffffffffff1673ffffffffffffffffffffffffffffffffffffffff1681526020019081526020016000205410156112cc576040517f08c379a00000000000000000000000000000000000000000000000000000000081526004016112c390614f32565b60405180910390fd5b6112fc60075485858560405180602001604052806000815250604051806020016040528060008152506000613148565b506000600960008673ffffffffffffffffffffffffffffffffffffffff1673ffffffffffffffffffffffffffffffffffffffff16815260200190815260200160002060003373ffffffffffffffffffffffffffffffffffffffff1673ffffffffffffffffffffffffffffffffffffffff16815260200190815260200160002081905550600190509392505050565b6113ab60075433858585604051806020016040528060008152506001613148565b50505050565b601060003373ffffffffffffffffffffffffffffffffffffffff1673ffffffffffffffffffffffffffffffffffffffff16815260200190815260200160002060009054906101000a900460ff1661143d576040517f08c379a000000000000000000000000000000000000000000000000000000000815260040161143490614f9e565b60405180910390fd5b61144c60075485858585613678565b8373ffffffffffffffffffffffffffffffffffffffff167f876b7cb47aa150b3a5516188b19ed308752ad4d0ae9a702543353b78163f7589338585856040516114989493929190615022565b60405180910390a250505050565b6000600460159054906101000a900460ff16905090565b6000600c60008373ffffffffffffffffffffffffffffffffffffffff1673ffffffffffffffffffffffffffffffffffffffff168152602001908152602001600020600084815260200190815260200160002054905092915050565b806005908051906020019061152e929190613e87565b5050565b6000600460169054906101000a900460ff16905090565b6000600254905090565b61156f8333848460405180602001604052806000815250613678565b3373ffffffffffffffffffffffffffffffffffffffff163373ffffffffffffffffffffffffffffffffffffffff16847fce306c3dbc4a497124b5a4f2be8388b41084c1d74663da27ecee1186c00239bf85856040516115cf929190615075565b60405180910390a4505050565b601060003373ffffffffffffffffffffffffffffffffffffffff1673ffffffffffffffffffffffffffffffffffffffff16815260200190815260200160002060009054906101000a900460ff16611668576040517f08c379a000000000000000000000000000000000000000000000000000000000815260040161165f90614f9e565b60405180910390fd5b611674848484846138e3565b50505050565b606060058054806020026020016040519081016040528092919081815260200182805480156116c857602002820191906000526020600020905b8154815260200190600101908083116116b4575b5050505050905090565b6000600f60008373ffffffffffffffffffffffffffffffffffffffff1673ffffffffffffffffffffffffffffffffffffffff16815260200190815260200160002060008473ffffffffffffffffffffffffffffffffffffffff1673ffffffffffffffffffffffffffffffffffffffff168152602001908152602001600020600085815260200190815260200160002060009054906101000a900460ff1690509392505050565b601060003373ffffffffffffffffffffffffffffffffffffffff1673ffffffffffffffffffffffffffffffffffffffff16815260200190815260200160002060009054906101000a900460ff16611804576040517f08c379a00000000000000000000000000000000000000000000000000000000081526004016117fb90614f9e565b60405180910390fd5b80600460166101000a81548160ff02191690831515021790555050565b6000600a60008373ffffffffffffffffffffffffffffffffffffffff1673ffffffffffffffffffffffffffffffffffffffff168152602001908152602001600020549050919050565b6060600060058054905067ffffffffffffffff81111561188d5761188c613f73565b5b6040519080825280602002602001820160405280156118bb5781602001602082028036833780820191505090505b50905060005b600580549050811015611997576000600c60008673ffffffffffffffffffffffffffffffffffffffff1673ffffffffffffffffffffffffffffffffffffffff168152602001908152602001600020600060058481548110611925576119246150a5565b5b906000526020600020015481526020019081526020016000205411156119845760058181548110611959576119586150a5565b5b9060005260206000200154828281518110611977576119766150a5565b5b6020026020010181815250505b808061198f90615103565b9150506118c1565b5080915050919050565b600060011515600460169054906101000a900460ff161515148015611a0f5750601060003373ffffffffffffffffffffffffffffffffffffffff1673ffffffffffffffffffffffffffffffffffffffff16815260200190815260200160002060009054906101000a900460ff165b15611ab357611a428787878760405180602001604052806000815250604051806020016040528060008152506001613148565b508473ffffffffffffffffffffffffffffffffffffffff168673ffffffffffffffffffffffffffffffffffffffff167f6bf62b4b9c7b768275122bf70d429efc398a056d669b1efdf6c3976346246d7d33878787604051611aa69493929190615022565b60405180910390a3611c4e565b600f60008773ffffffffffffffffffffffffffffffffffffffff1673ffffffffffffffffffffffffffffffffffffffff16815260200190815260200160002060003373ffffffffffffffffffffffffffffffffffffffff1673ffffffffffffffffffffffffffffffffffffffff168152602001908152602001600020600088815260200190815260200160002060009054906101000a900460ff1680611bdf5750600e60008773ffffffffffffffffffffffffffffffffffffffff1673ffffffffffffffffffffffffffffffffffffffff16815260200190815260200160002060003373ffffffffffffffffffffffffffffffffffffffff1673ffffffffffffffffffffffffffffffffffffffff16815260200190815260200160002060009054906101000a900460ff165b611c1e576040517f08c379a0000000000000000000000000000000000000000000000000000000008152600401611c1590614f9e565b60405180910390fd5b611c4c8787878760405180602001604052806000815250604051806020016040528060008152506001613148565b505b8690509695505050505050565b601060003373ffffffffffffffffffffffffffffffffffffffff1673ffffffffffffffffffffffffffffffffffffffff16815260200190815260200160002060009054906101000a900460ff16611ce7576040517f08c379a0000000000000000000000000000000000000000000000000000000008152600401611cde90614f9e565b60405180910390fd5b600073ffffffffffffffffffffffffffffffffffffffff168173ffffffffffffffffffffffffffffffffffffffff161415611d57576040517f08c379a0000000000000000000000000000000000000000000000000000000008152600401611d4e90614ec6565b60405180910390fd5b601060008273ffffffffffffffffffffffffffffffffffffffff1673ffffffffffffffffffffffffffffffffffffffff16815260200190815260200160002060009054906101000a900460ff1615611de4576040517f08c379a0000000000000000000000000000000000000000000000000000000008152600401611ddb90615198565b60405180910390fd5b6001601060008373ffffffffffffffffffffffffffffffffffffffff1673ffffffffffffffffffffffffffffffffffffffff16815260200190815260200160002060006101000a81548160ff0219169083151502179055506006819080600181540180825580915050600190039060005260206000200160009091909190916101000a81548173ffffffffffffffffffffffffffffffffffffffff021916908373ffffffffffffffffffffffffffffffffffffffff1602179055506001600680549050611eb191906151b8565b601160008373ffffffffffffffffffffffffffffffffffffffff1673ffffffffffffffffffffffffffffffffffffffff1681526020019081526020016000208190555050565b6001600e60003373ffffffffffffffffffffffffffffffffffffffff1673ffffffffffffffffffffffffffffffffffffffff16815260200190815260200160002060008373ffffffffffffffffffffffffffffffffffffffff1673ffffffffffffffffffffffffffffffffffffffff16815260200190815260200160002060006101000a81548160ff0219169083151502179055503373ffffffffffffffffffffffffffffffffffffffff168173ffffffffffffffffffffffffffffffffffffffff167ff4caeb2d6ca8932a215a353d0703c326ec2d81fc68170f320eb2ab49e9df61f960405160405180910390a350565b606060018054611ff890614e48565b80601f016020809104026020016040519081016040528092919081815260200182805461202490614e48565b80156120715780601f1061204657610100808354040283529160200191612071565b820191906000526020600020905b81548152906001019060200180831161205457829003601f168201915b5050505050905090565b81600960008573ffffffffffffffffffffffffffffffffffffffff1673ffffffffffffffffffffffffffffffffffffffff16815260200190815260200160002060003373ffffffffffffffffffffffffffffffffffffffff1673ffffffffffffffffffffffffffffffffffffffff16815260200190815260200160002054101561213a576040517f08c379a000000000000000000000000000000000000000000000000000000000815260040161213190614f32565b60405180910390fd5b61215860075484848460405180602001604052806000815250613678565b8273ffffffffffffffffffffffffffffffffffffffff163373ffffffffffffffffffffffffffffffffffffffff167fb7d0d6b60740753e9f16692a2f479472a1385aec2420fa43225b02f2ffa1afe784846040516121b7929190615075565b60405180910390a3505050565b60011515600460169054906101000a900460ff1615151480156122305750601060003373ffffffffffffffffffffffffffffffffffffffff1673ffffffffffffffffffffffffffffffffffffffff16815260200190815260200160002060009054906101000a900460ff165b156122a8576122518484846040518060200160405280600081525085613678565b8273ffffffffffffffffffffffffffffffffffffffff167f876b7cb47aa150b3a5516188b19ed308752ad4d0ae9a702543353b78163f758933848460405161229b93929190615212565b60405180910390a2612430565b600e60008473ffffffffffffffffffffffffffffffffffffffff1673ffffffffffffffffffffffffffffffffffffffff16815260200190815260200160002060003373ffffffffffffffffffffffffffffffffffffffff1673ffffffffffffffffffffffffffffffffffffffff16815260200190815260200160002060009054906101000a900460ff16806123d45750600f60008473ffffffffffffffffffffffffffffffffffffffff1673ffffffffffffffffffffffffffffffffffffffff16815260200190815260200160002060003373ffffffffffffffffffffffffffffffffffffffff1673ffffffffffffffffffffffffffffffffffffffff168152602001908152602001600020600085815260200190815260200160002060009054906101000a900460ff165b612413576040517f08c379a000000000000000000000000000000000000000000000000000000000815260040161240a90614ec6565b60405180910390fd5b61242f8484846040518060200160405280600081525085613678565b5b8273ffffffffffffffffffffffffffffffffffffffff163373ffffffffffffffffffffffffffffffffffffffff16857fce306c3dbc4a497124b5a4f2be8388b41084c1d74663da27ecee1186c00239bf8585604051612490929190615075565b60405180910390a450505050565b60008060008073ffffffffffffffffffffffffffffffffffffffff168773ffffffffffffffffffffffffffffffffffffffff16141561252757857f5500000000000000000000000000000000000000000000000000000000000000907f696e76616c6964207265636569766572000000000000000000000000000000009092509250925061261b565b600c60008973ffffffffffffffffffffffffffffffffffffffff1673ffffffffffffffffffffffffffffffffffffffff1681526020019081526020016000206000878152602001908152602001600020548511156125cf57857f5500000000000000000000000000000000000000000000000000000000000000907f696e73756666696369656e742062616c616e63650000000000000000000000009092509250925061261b565b857f5100000000000000000000000000000000000000000000000000000000000000907f7472616e73666572207375636365737300000000000000000000000000000000909250925092505b955095509592505050565b601060003373ffffffffffffffffffffffffffffffffffffffff1673ffffffffffffffffffffffffffffffffffffffff16815260200190815260200160002060009054906101000a900460ff166126b2576040517f08c379a00000000000000000000000000000000000000000000000000000000081526004016126a990614f9e565b60405180910390fd5b80600460156101000a81548160ff02191690831515021790555050565b600061270160075433858560405180602001604052806000815250604051806020016040528060008152506000613148565b506001905092915050565b601060003373ffffffffffffffffffffffffffffffffffffffff1673ffffffffffffffffffffffffffffffffffffffff16815260200190815260200160002060009054906101000a900460ff16612798576040517f08c379a000000000000000000000000000000000000000000000000000000000815260040161278f90614f9e565b60405180910390fd5b80600460146101000a81548160ff02191690831515021790555050565b6060600080600b600085815260200190815260200160002060405180606001604052908160008201548152602001600182015481526020016002820180546127fc90614e48565b80601f016020809104026020016040519081016040528092919081815260200182805461282890614e48565b80156128755780601f1061284a57610100808354040283529160200191612875565b820191906000526020600020905b81548152906001019060200180831161285857829003601f168201915b5050505050815250509050806040015181602001519250925050915091565b6000601060008373ffffffffffffffffffffffffffffffffffffffff1673ffffffffffffffffffffffffffffffffffffffff16815260200190815260200160002060009054906101000a900460ff169050919050565b6060600680548060200260200160405190810160405280929190818152602001828054801561296e57602002820191906000526020600020905b8160009054906101000a900473ffffffffffffffffffffffffffffffffffffffff1673ffffffffffffffffffffffffffffffffffffffff1681526020019060010190808311612924575b5050505050905090565b6000600e60008373ffffffffffffffffffffffffffffffffffffffff1673ffffffffffffffffffffffffffffffffffffffff16815260200190815260200160002060008473ffffffffffffffffffffffffffffffffffffffff1673ffffffffffffffffffffffffffffffffffffffff16815260200190815260200160002060009054906101000a900460ff16905092915050565b601060003373ffffffffffffffffffffffffffffffffffffffff1673ffffffffffffffffffffffffffffffffffffffff16815260200190815260200160002060009054906101000a900460ff16612a98576040517f08c379a0000000000000000000000000000000000000000000000000000000008152600401612a8f90614f9e565b60405180910390fd5b612aa66007548484846138e3565b505050565b612ac960075433848460405180602001604052806000815250613678565b3373ffffffffffffffffffffffffffffffffffffffff163373ffffffffffffffffffffffffffffffffffffffff167fb7d0d6b60740753e9f16692a2f479472a1385aec2420fa43225b02f2ffa1afe78484604051612b28929190615075565b60405180910390a35050565b81600960008673ffffffffffffffffffffffffffffffffffffffff1673ffffffffffffffffffffffffffffffffffffffff16815260200190815260200160002060003373ffffffffffffffffffffffffffffffffffffffff1673ffffffffffffffffffffffffffffffffffffffff168152602001908152602001600020541015612bf3576040517f08c379a0000000000000000000000000000000000000000000000000000000008152600401612bea90614f32565b60405180910390fd5b612c1460075485858585604051806020016040528060008152506001613148565b506000600960008673ffffffffffffffffffffffffffffffffffffffff1673ffffffffffffffffffffffffffffffffffffffff16815260200190815260200160002060003373ffffffffffffffffffffffffffffffffffffffff1673ffffffffffffffffffffffffffffffffffffffff1681526020019081526020016000208190555050505050565b601060003373ffffffffffffffffffffffffffffffffffffffff1673ffffffffffffffffffffffffffffffffffffffff16815260200190815260200160002060009054906101000a900460ff16612d29576040517f08c379a0000000000000000000000000000000000000000000000000000000008152600401612d2090614f9e565b60405180910390fd5b600460169054906101000a900460ff16612d78576040517f08c379a0000000000000000000000000000000000000000000000000000000008152600401612d6f906152af565b60405180910390fd5b612d8a60075486868686866001613148565b508373ffffffffffffffffffffffffffffffffffffffff168573ffffffffffffffffffffffffffffffffffffffff167f6bf62b4b9c7b768275122bf70d429efc398a056d669b1efdf6c3976346246d7d33868686604051612dee9493929190615022565b60405180910390a35050505050565b6000612e1e8533868686604051806020016040528060008152506001613148565b50849050949350505050565b601060003373ffffffffffffffffffffffffffffffffffffffff1673ffffffffffffffffffffffffffffffffffffffff16815260200190815260200160002060009054906101000a900460ff16612eb6576040517f08c379a0000000000000000000000000000000000000000000000000000000008152600401612ead90614f9e565b60405180910390fd5b600073ffffffffffffffffffffffffffffffffffffffff168173ffffffffffffffffffffffffffffffffffffffff1614158015612f3c5750601060008273ffffffffffffffffffffffffffffffffffffffff1673ffffffffffffffffffffffffffffffffffffffff16815260200190815260200160002060009054906101000a900460ff165b612f7b576040517f08c379a0000000000000000000000000000000000000000000000000000000008152600401612f7290614ec6565b60405180910390fd5b6000601060008373ffffffffffffffffffffffffffffffffffffffff1673ffffffffffffffffffffffffffffffffffffffff16815260200190815260200160002060006101000a81548160ff0219169083151502179055506006601160008373ffffffffffffffffffffffffffffffffffffffff1673ffffffffffffffffffffffffffffffffffffffff1681526020019081526020016000205481548110613026576130256150a5565b5b9060005260206000200160006101000a81549073ffffffffffffffffffffffffffffffffffffffff021916905550565b6000600e60003373ffffffffffffffffffffffffffffffffffffffff1673ffffffffffffffffffffffffffffffffffffffff16815260200190815260200160002060008373ffffffffffffffffffffffffffffffffffffffff1673ffffffffffffffffffffffffffffffffffffffff16815260200190815260200160002060006101000a81548160ff0219169083151502179055503373ffffffffffffffffffffffffffffffffffffffff168173ffffffffffffffffffffffffffffffffffffffff167f50546e66e5f44d728365dc3908c63bc5cfeeab470722c1677e3073a6ac294aa160405160405180910390a350565b6000600460149054906101000a900460ff161561319a576040517f08c379a00000000000000000000000000000000000000000000000000000000081526004016131919061531b565b60405180910390fd5b84600c60008973ffffffffffffffffffffffffffffffffffffffff1673ffffffffffffffffffffffffffffffffffffffff16815260200190815260200160002060008a815260200190815260200160002054101561322d576040517f08c379a000000000000000000000000000000000000000000000000000000000815260040161322490615387565b60405180910390fd5b600073ffffffffffffffffffffffffffffffffffffffff168673ffffffffffffffffffffffffffffffffffffffff16141561329d576040517f08c379a0000000000000000000000000000000000000000000000000000000008152600401613294906153f3565b60405180910390fd5b600115158215151480156132b2575060018451115b156132c6576132c18486613bae565b61331d565b600115158215151480156132dc57506001845111155b1561331c576040517f08c379a00000000000000000000000000000000000000000000000000000000081526004016133139061545f565b60405180910390fd5b5b84600c60008973ffffffffffffffffffffffffffffffffffffffff1673ffffffffffffffffffffffffffffffffffffffff16815260200190815260200160002060008a81526020019081526020016000205461337991906151b8565b600c60008973ffffffffffffffffffffffffffffffffffffffff1673ffffffffffffffffffffffffffffffffffffffff16815260200190815260200160002060008a81526020019081526020016000208190555084600a60008973ffffffffffffffffffffffffffffffffffffffff1673ffffffffffffffffffffffffffffffffffffffff1681526020019081526020016000205461341891906151b8565b600a60008973ffffffffffffffffffffffffffffffffffffffff1673ffffffffffffffffffffffffffffffffffffffff1681526020019081526020016000208190555084600c60008873ffffffffffffffffffffffffffffffffffffffff1673ffffffffffffffffffffffffffffffffffffffff16815260200190815260200160002060008a8152602001908152602001600020546134b7919061547f565b600c60008873ffffffffffffffffffffffffffffffffffffffff1673ffffffffffffffffffffffffffffffffffffffff16815260200190815260200160002060008a81526020019081526020016000208190555084600a60008873ffffffffffffffffffffffffffffffffffffffff1673ffffffffffffffffffffffffffffffffffffffff16815260200190815260200160002054613556919061547f565b600a60008873ffffffffffffffffffffffffffffffffffffffff1673ffffffffffffffffffffffffffffffffffffffff168152602001908152602001600020819055508573ffffffffffffffffffffffffffffffffffffffff168773ffffffffffffffffffffffffffffffffffffffff167fddf252ad1be2c89b69c2b068fc378daa952ba7f163c4a11628f55a4df523b3ef876040516135f691906144a7565b60405180910390a38573ffffffffffffffffffffffffffffffffffffffff168773ffffffffffffffffffffffffffffffffffffffff16897fff4e9a26af4eb73b8bacfaa4abd4fea03d9448e7b912dc5ff4019048875aa2d4338989896040516136629493929190615022565b60405180910390a4879050979650505050505050565b600073ffffffffffffffffffffffffffffffffffffffff168473ffffffffffffffffffffffffffffffffffffffff1614156136e8576040517f08c379a00000000000000000000000000000000000000000000000000000000081526004016136df906153f3565b60405180910390fd5b82600c60008673ffffffffffffffffffffffffffffffffffffffff1673ffffffffffffffffffffffffffffffffffffffff168152602001908152602001600020600087815260200190815260200160002054101561377b576040517f08c379a000000000000000000000000000000000000000000000000000000000815260040161377290615387565b60405180910390fd5b6137858284613bae565b82600c60008673ffffffffffffffffffffffffffffffffffffffff1673ffffffffffffffffffffffffffffffffffffffff1681526020019081526020016000206000878152602001908152602001600020546137e191906151b8565b600c60008673ffffffffffffffffffffffffffffffffffffffff1673ffffffffffffffffffffffffffffffffffffffff16815260200190815260200160002060008781526020019081526020016000208190555082600a60008673ffffffffffffffffffffffffffffffffffffffff1673ffffffffffffffffffffffffffffffffffffffff1681526020019081526020016000205461388091906151b8565b600a60008673ffffffffffffffffffffffffffffffffffffffff1673ffffffffffffffffffffffffffffffffffffffff1681526020019081526020016000208190555082600360008282546138d591906151b8565b925050819055505050505050565b600460159054906101000a900460ff16613932576040517f08c379a000000000000000000000000000000000000000000000000000000000815260040161392990615521565b60405180910390fd5b600073ffffffffffffffffffffffffffffffffffffffff168373ffffffffffffffffffffffffffffffffffffffff1614156139a2576040517f08c379a0000000000000000000000000000000000000000000000000000000008152600401613999906153f3565b60405180910390fd5b60018151116139e6576040517f08c379a00000000000000000000000000000000000000000000000000000000081526004016139dd9061545f565b60405180910390fd5b6139f08183613bae565b600060025483613a009190615541565b905080600c60008673ffffffffffffffffffffffffffffffffffffffff1673ffffffffffffffffffffffffffffffffffffffff16815260200190815260200160002060008781526020019081526020016000206000828254613a62919061547f565b9250508190555080600a60008673ffffffffffffffffffffffffffffffffffffffff1673ffffffffffffffffffffffffffffffffffffffff1681526020019081526020016000206000828254613ab8919061547f565b925050819055508060036000828254613ad1919061547f565b925050819055508373ffffffffffffffffffffffffffffffffffffffff163373ffffffffffffffffffffffffffffffffffffffff167f0e9905d62635f049c2f4e11678ebf9dc3d1f8c4a653e290759b772e47ba00d008385604051613b37929190615075565b60405180910390a38373ffffffffffffffffffffffffffffffffffffffff163373ffffffffffffffffffffffffffffffffffffffff16867ff0ded82afbb1bb3ff3fc48cb2a26584aa84e4af0bf309c804ecdb94d0f6a98bb8486604051613b9f92919061559b565b60405180910390a45050505050565b600080600080600073__Certificate___________________________63447a06f5886040518263ffffffff1660e01b8152600401613bed9190615628565b600060405180830381865af4158015613c0a573d6000803e3d6000fd5b505050506040513d6000823e3d601f19601f82011682018060405250810190613c33919061583f565b94509450945094509450601285604051613c4d919061594a565b908152602001604051809103902060009054906101000a900460ff1615613ca9576040517f08c379a0000000000000000000000000000000000000000000000000000000008152600401613ca0906159ad565b60405180910390fd5b600073__Certificate___________________________63e4268d9287878787878d3060006040518963ffffffff1660e01b8152600401613cf1989796959493929190615b6a565b602060405180830381865af4158015613d0e573d6000803e3d6000fd5b505050506040513d601f19601f82011682018060405250810190613d329190615c04565b9050601060008273ffffffffffffffffffffffffffffffffffffffff1673ffffffffffffffffffffffffffffffffffffffff16815260200190815260200160002060009054906101000a900460ff16613dc0576040517f08c379a0000000000000000000000000000000000000000000000000000000008152600401613db790615c7d565b60405180910390fd5b6001601287604051613dd2919061594a565b908152602001604051809103902060006101000a81548160ff0219169083151502179055505050505050505050565b828054613e0d90614e48565b90600052602060002090601f016020900481019282613e2f5760008555613e76565b82601f10613e4857805160ff1916838001178555613e76565b82800160010185558215613e76579182015b82811115613e75578251825591602001919060010190613e5a565b5b509050613e839190613ed4565b5090565b828054828255906000526020600020908101928215613ec3579160200282015b82811115613ec2578251825591602001919060010190613ea7565b5b509050613ed09190613ef1565b5090565b5b80821115613eed576000816000905550600101613ed5565b5090565b5b80821115613f0a576000816000905550600101613ef2565b5090565b6000604051905090565b600080fd5b600080fd5b6000819050919050565b613f3581613f22565b8114613f4057600080fd5b50565b600081359050613f5281613f2c565b92915050565b600080fd5b600080fd5b6000601f19601f8301169050919050565b7f4e487b7100000000000000000000000000000000000000000000000000000000600052604160045260246000fd5b613fab82613f62565b810181811067ffffffffffffffff82111715613fca57613fc9613f73565b5b80604052505050565b6000613fdd613f0e565b9050613fe98282613fa2565b919050565b600067ffffffffffffffff82111561400957614008613f73565b5b61401282613f62565b9050602081019050919050565b82818337600083830152505050565b600061404161403c84613fee565b613fd3565b90508281526020810184848401111561405d5761405c613f5d565b5b61406884828561401f565b509392505050565b600082601f83011261408557614084613f58565b5b813561409584826020860161402e565b91505092915050565b6000806000606084860312156140b7576140b6613f18565b5b60006140c586828701613f43565b935050602084013567ffffffffffffffff8111156140e6576140e5613f1d565b5b6140f286828701614070565b925050604061410386828701613f43565b9150509250925092565b600081519050919050565b600082825260208201905092915050565b60005b8381101561414757808201518184015260208101905061412c565b83811115614156576000848401525b50505050565b60006141678261410d565b6141718185614118565b9350614181818560208601614129565b61418a81613f62565b840191505092915050565b600060208201905081810360008301526141af818461415c565b905092915050565b600073ffffffffffffffffffffffffffffffffffffffff82169050919050565b60006141e2826141b7565b9050919050565b6141f2816141d7565b81146141fd57600080fd5b50565b60008135905061420f816141e9565b92915050565b6000819050919050565b61422881614215565b811461423357600080fd5b50565b6000813590506142458161421f565b92915050565b6000806040838503121561426257614261613f18565b5b600061427085828601614200565b925050602061428185828601614236565b9150509250929050565b60008115159050919050565b6142a08161428b565b82525050565b60006020820190506142bb6000830184614297565b92915050565b600080604083850312156142d8576142d7613f18565b5b60006142e685828601613f43565b92505060206142f785828601614200565b9150509250929050565b600067ffffffffffffffff82111561431c5761431b613f73565b5b61432582613f62565b9050602081019050919050565b600061434561434084614301565b613fd3565b90508281526020810184848401111561436157614360613f5d565b5b61436c84828561401f565b509392505050565b600082601f83011261438957614388613f58565b5b8135614399848260208601614332565b91505092915050565b600080600080608085870312156143bc576143bb613f18565b5b60006143ca87828801614200565b94505060206143db87828801614200565b93505060406143ec87828801614236565b925050606085013567ffffffffffffffff81111561440d5761440c613f1d565b5b61441987828801614374565b91505092959194509250565b60007fff0000000000000000000000000000000000000000000000000000000000000082169050919050565b61445a81614425565b82525050565b61446981613f22565b82525050565b60006040820190506144846000830185614451565b6144916020830184614460565b9392505050565b6144a181614215565b82525050565b60006020820190506144bc6000830184614498565b92915050565b6000806000606084860312156144db576144da613f18565b5b60006144e986828701614200565b93505060206144fa86828701614236565b925050604084013567ffffffffffffffff81111561451b5761451a613f1d565b5b61452786828701614374565b9150509250925092565b60008060006060848603121561454a57614549613f18565b5b600061455886828701614200565b935050602061456986828701614200565b925050604061457a86828701614236565b9150509250925092565b6000806000806080858703121561459e5761459d613f18565b5b60006145ac87828801614200565b94505060206145bd87828801614236565b935050604085013567ffffffffffffffff8111156145de576145dd613f1d565b5b6145ea87828801614374565b925050606085013567ffffffffffffffff81111561460b5761460a613f1d565b5b61461787828801614374565b91505092959194509250565b600067ffffffffffffffff82111561463e5761463d613f73565b5b602082029050602081019050919050565b600080fd5b600061466761466284614623565b613fd3565b9050808382526020820190506020840283018581111561468a5761468961464f565b5b835b818110156146b3578061469f8882613f43565b84526020840193505060208101905061468c565b5050509392505050565b600082601f8301126146d2576146d1613f58565b5b81356146e2848260208601614654565b91505092915050565b60006020828403121561470157614700613f18565b5b600082013567ffffffffffffffff81111561471f5761471e613f1d565b5b61472b848285016146bd565b91505092915050565b60008060006060848603121561474d5761474c613f18565b5b600061475b86828701613f43565b935050602061476c86828701614236565b925050604084013567ffffffffffffffff81111561478d5761478c613f1d565b5b61479986828701614374565b9150509250925092565b600080600080608085870312156147bd576147bc613f18565b5b60006147cb87828801613f43565b94505060206147dc87828801614200565b93505060406147ed87828801614236565b925050606085013567ffffffffffffffff81111561480e5761480d613f1d565b5b61481a87828801614374565b91505092959194509250565b600081519050919050565b600082825260208201905092915050565b6000819050602082019050919050565b61485b81613f22565b82525050565b600061486d8383614852565b60208301905092915050565b6000602082019050919050565b600061489182614826565b61489b8185614831565b93506148a683614842565b8060005b838110156148d75781516148be8882614861565b97506148c983614879565b9250506001810190506148aa565b5085935050505092915050565b600060208201905081810360008301526148fe8184614886565b905092915050565b60008060006060848603121561491f5761491e613f18565b5b600061492d86828701613f43565b935050602061493e86828701614200565b925050604061494f86828701614200565b9150509250925092565b6149628161428b565b811461496d57600080fd5b50565b60008135905061497f81614959565b92915050565b60006020828403121561499b5761499a613f18565b5b60006149a984828501614970565b91505092915050565b6000602082840312156149c8576149c7613f18565b5b60006149d684828501614200565b91505092915050565b60008060008060008060c087890312156149fc576149fb613f18565b5b6000614a0a89828a01613f43565b9650506020614a1b89828a01614200565b9550506040614a2c89828a01614200565b9450506060614a3d89828a01614236565b935050608087013567ffffffffffffffff811115614a5e57614a5d613f1d565b5b614a6a89828a01614374565b92505060a087013567ffffffffffffffff811115614a8b57614a8a613f1d565b5b614a9789828a01614374565b9150509295509295509295565b6000602082019050614ab96000830184614460565b92915050565b600080600080600060a08688031215614adb57614ada613f18565b5b6000614ae988828901614200565b9550506020614afa88828901614200565b9450506040614b0b88828901613f43565b9350506060614b1c88828901614236565b925050608086013567ffffffffffffffff811115614b3d57614b3c613f1d565b5b614b4988828901614374565b9150509295509295909350565b6000606082019050614b6b6000830186614451565b614b786020830185614460565b614b856040830184614460565b949350505050565b600060208284031215614ba357614ba2613f18565b5b6000614bb184828501613f43565b91505092915050565b60006040820190508181036000830152614bd4818561415c565b9050614be36020830184614460565b9392505050565b600081519050919050565b600082825260208201905092915050565b6000819050602082019050919050565b614c1f816141d7565b82525050565b6000614c318383614c16565b60208301905092915050565b6000602082019050919050565b6000614c5582614bea565b614c5f8185614bf5565b9350614c6a83614c06565b8060005b83811015614c9b578151614c828882614c25565b9750614c8d83614c3d565b925050600181019050614c6e565b5085935050505092915050565b60006020820190508181036000830152614cc28184614c4a565b905092915050565b60008060408385031215614ce157614ce0613f18565b5b6000614cef85828601614200565b9250506020614d0085828601614200565b9150509250929050565b60008060408385031215614d2157614d20613f18565b5b6000614d2f85828601614236565b925050602083013567ffffffffffffffff811115614d5057614d4f613f1d565b5b614d5c85828601614374565b9150509250929050565b600080600080600060a08688031215614d8257614d81613f18565b5b6000614d9088828901614200565b9550506020614da188828901614200565b9450506040614db288828901614236565b935050606086013567ffffffffffffffff811115614dd357614dd2613f1d565b5b614ddf88828901614374565b925050608086013567ffffffffffffffff811115614e0057614dff613f1d565b5b614e0c88828901614374565b9150509295509295909350565b7f4e487b7100000000000000000000000000000000000000000000000000000000600052602260045260246000fd5b60006002820490506001821680614e6057607f821691505b60208210811415614e7457614e73614e19565b5b50919050565b7f3078353800000000000000000000000000000000000000000000000000000000600082015250565b6000614eb0600483614118565b9150614ebb82614e7a565b602082019050919050565b60006020820190508181036000830152614edf81614ea3565b9050919050565b7f3078353300000000000000000000000000000000000000000000000000000000600082015250565b6000614f1c600483614118565b9150614f2782614ee6565b602082019050919050565b60006020820190508181036000830152614f4b81614f0f565b9050919050565b7f3078353600000000000000000000000000000000000000000000000000000000600082015250565b6000614f88600483614118565b9150614f9382614f52565b602082019050919050565b60006020820190508181036000830152614fb781614f7b565b9050919050565b614fc7816141d7565b82525050565b600081519050919050565b600082825260208201905092915050565b6000614ff482614fcd565b614ffe8185614fd8565b935061500e818560208601614129565b61501781613f62565b840191505092915050565b60006080820190506150376000830187614fbe565b6150446020830186614498565b81810360408301526150568185614fe9565b9050818103606083015261506a8184614fe9565b905095945050505050565b600060408201905061508a6000830185614498565b818103602083015261509c8184614fe9565b90509392505050565b7f4e487b7100000000000000000000000000000000000000000000000000000000600052603260045260246000fd5b7f4e487b7100000000000000000000000000000000000000000000000000000000600052601160045260246000fd5b600061510e82614215565b91507fffffffffffffffffffffffffffffffffffffffffffffffffffffffffffffffff821415615141576151406150d4565b5b600182019050919050565b7f4143430000000000000000000000000000000000000000000000000000000000600082015250565b6000615182600383614118565b915061518d8261514c565b602082019050919050565b600060208201905081810360008301526151b181615175565b9050919050565b60006151c382614215565b91506151ce83614215565b9250828210156151e1576151e06150d4565b5b828203905092915050565b50565b60006151fc600083614fd8565b9150615207826151ec565b600082019050919050565b60006080820190506152276000830186614fbe565b6152346020830185614498565b8181036040830152615245816151ef565b905081810360608301526152598184614fe9565b9050949350505050565b7f4e43000000000000000000000000000000000000000000000000000000000000600082015250565b6000615299600283614118565b91506152a482615263565b602082019050919050565b600060208201905081810360008301526152c88161528c565b9050919050565b7f4c55500000000000000000000000000000000000000000000000000000000000600082015250565b6000615305600383614118565b9150615310826152cf565b602082019050919050565b60006020820190508181036000830152615334816152f8565b9050919050565b7f3078353200000000000000000000000000000000000000000000000000000000600082015250565b6000615371600483614118565b915061537c8261533b565b602082019050919050565b600060208201905081810360008301526153a081615364565b9050919050565b7f3078353700000000000000000000000000000000000000000000000000000000600082015250565b60006153dd600483614118565b91506153e8826153a7565b602082019050919050565b6000602082019050818103600083015261540c816153d0565b9050919050565b7f4443424500000000000000000000000000000000000000000000000000000000600082015250565b6000615449600483614118565b915061545482615413565b602082019050919050565b600060208201905081810360008301526154788161543c565b9050919050565b600061548a82614215565b915061549583614215565b9250827fffffffffffffffffffffffffffffffffffffffffffffffffffffffffffffffff038211156154ca576154c96150d4565b5b828201905092915050565b7f3078353500000000000000000000000000000000000000000000000000000000600082015250565b600061550b600483614118565b9150615516826154d5565b602082019050919050565b6000602082019050818103600083015261553a816154fe565b9050919050565b600061554c82614215565b915061555783614215565b9250817fffffffffffffffffffffffffffffffffffffffffffffffffffffffffffffffff04831182151516156155905761558f6150d4565b5b828202905092915050565b60006060820190506155b06000830185614498565b81810360208301526155c28184614fe9565b905081810360408301526155d5816151ef565b90509392505050565b600082825260208201905092915050565b60006155fa82614fcd565b61560481856155de565b9350615614818560208601614129565b61561d81613f62565b840191505092915050565b6000602082019050818103600083015261564281846155ef565b905092915050565b600061565d61565884614301565b613fd3565b90508281526020810184848401111561567957615678613f5d565b5b615684848285614129565b509392505050565b600082601f8301126156a1576156a0613f58565b5b81516156b184826020860161564a565b91505092915050565b6000815190506156c981613f2c565b92915050565b6000815190506156de8161421f565b92915050565b600080fd5b600080fd5b60006157016156fc84613fee565b613fd3565b90508281526020810184848401111561571d5761571c613f5d565b5b615728848285614129565b509392505050565b600082601f83011261574557615744613f58565b5b81516157558482602086016156ee565b91505092915050565b60008151905061576d816141e9565b92915050565b600060808284031215615789576157886156e4565b5b6157936080613fd3565b9050600082015167ffffffffffffffff8111156157b3576157b26156e9565b5b6157bf84828501615730565b600083015250602082015167ffffffffffffffff8111156157e3576157e26156e9565b5b6157ef84828501615730565b602083015250604082015167ffffffffffffffff811115615813576158126156e9565b5b61581f84828501615730565b60408301525060606158338482850161575e565b60608301525092915050565b600080600080600060a0868803121561585b5761585a613f18565b5b600086015167ffffffffffffffff81111561587957615878613f1d565b5b6158858882890161568c565b9550506020615896888289016156ba565b94505060406158a7888289016156cf565b935050606086015167ffffffffffffffff8111156158c8576158c7613f1d565b5b6158d488828901615773565b925050608086015167ffffffffffffffff8111156158f5576158f4613f1d565b5b61590188828901615773565b9150509295509295909350565b600081905092915050565b600061592482614fcd565b61592e818561590e565b935061593e818560208601614129565b80840191505092915050565b60006159568284615919565b915081905092915050565b7f5553000000000000000000000000000000000000000000000000000000000000600082015250565b6000615997600283614118565b91506159a282615961565b602082019050919050565b600060208201905081810360008301526159c68161598a565b9050919050565b6159d681613f22565b82525050565b6159e581614215565b82525050565b600082825260208201905092915050565b6000615a078261410d565b615a1181856159eb565b9350615a21818560208601614129565b615a2a81613f62565b840191505092915050565b615a3e816141d7565b82525050565b60006080830160008301518482036000860152615a6182826159fc565b91505060208301518482036020860152615a7b82826159fc565b91505060408301518482036040860152615a9582826159fc565b9150506060830151615aaa6060860182615a35565b508091505092915050565b615abe816141d7565b82525050565b600082825260208201905092915050565b60008190508160005260206000209050919050565b60008154615af781614e48565b615b018186615ac4565b94506001821660008114615b1c5760018114615b2e57615b61565b60ff1983168652602086019350615b61565b615b3785615ad5565b60005b83811015615b5957815481890152600182019150602081019050615b3a565b808801955050505b50505092915050565b6000610100820190508181036000830152615b85818b6155ef565b9050615b94602083018a6159cd565b615ba160408301896159dc565b8181036060830152615bb38188615a44565b90508181036080830152615bc78187615a44565b9050615bd660a08301866159dc565b615be360c0830185615ab5565b81810360e0830152615bf58184615aea565b90509998505050505050505050565b600060208284031215615c1a57615c19613f18565b5b6000615c288482850161575e565b91505092915050565b7f4953000000000000000000000000000000000000000000000000000000000000600082015250565b6000615c67600283614118565b9150615c7282615c31565b602082019050919050565b60006020820190508181036000830152615c9681615c5a565b905091905056fea2646970667358221220620269710d02bbb847ea40740af269a0ca7cd0afff1d3937c9707150499f22ec64736f6c634300080a0033",
  "immutableReferences": {},
  "source": "// solidity version\npragma solidity 0.8.10;\n\nimport \"../utils/CertificateLibrary.sol\";\n\n//  SPDX-License-Identifier: UNLICENSED\n\n\ncontract ERC1400 {\n\n\n    /************************************************ Variable Declarations and Initaalizations ************************************/\n\n\n\n     // *************************************** Strings ********************************************************* //\n\n    string private _tokenName;   // token name\n    string private _tokenSymbol; // token symbol\n\n\n\n    // *************************************** Integers ********************************************************* //\n\n    uint256 private _tokenGranularity;                     // token granularity\n    uint256 private _totalSupply;                     // token total supply\n   \n\n\n    // *************************************** Addresses ********************************************************* //\n\n    address private owner;  // set the address of the owner to be private\n\n\n\n     // *************************************** Booleans ********************************************************* //\n\n    bool private _lockUpTokens;     // token lockup indicator\n    bool private _isIssuable;        //  indicates when a token can be issued\n    bool private _isControllable;    // private variable that indicates the controllability of the tokens\n    \n\n    // ************************ Array ******************************//\n\n    bytes32[] internal _totalPartitions;\n    address[] internal _controllers;\n    bytes32 _classless = \"classless\";\n    \n\n\n     // *************************************** Structs ********************************************************* //\n\n    struct Doc {\n\n        bytes32 _name;\n        bytes32 _documentHash;\n        string _uri;\n        \n    } // struct to handle the documents\n\n\n\n    \n\n     // *************************************** Mappings ********************************************************* //\n\n    mapping (address => bool) private whitelist;                                     //  whitelist map\n    mapping (address => mapping(address => uint256)) private allowance;              // set the address of the allowed external operator\n    mapping (address => uint256) private _balanceOf;                                // map to store the token balances of token holders\n    mapping (bytes32 => Doc) private _documents;                                    // map to store the documents\n    mapping (address => mapping(bytes32 => uint256)) private _balanceOfByPartition; // map to store the partitioned token balance of a token holder \n    mapping (address => bytes32[]) private _partitionsOf;                           // map that stores the partitions of a token holder\n    mapping (address => mapping(address => bool)) private _isOperator;              // map to approve or revoke operators for a token holder\n    \n\n    // holder's address -> operator  address -> partition -> true/false\n    mapping (address => mapping(address => mapping (bytes32 => bool))) private _isOperatorForPartition;                  // map to approve or revoke operators by partition\n    mapping (address => bool) private _isController;                                 // map to store the addresses of approved controllers\n    mapping (address => uint256) private _indexOfController;                         // map to store the index position of controllers\n    mapping (bytes => bool) private _usedSignatures;\n    mapping (address => uint256) private _balanceOfByDefault;                        // default balance with no partitions\n\n    constructor (string memory _name, string memory _symbol, uint256 _granularity) {\n\n        _tokenName = _name;\n        _tokenSymbol = _symbol;\n        _tokenGranularity = 10 ** _granularity; // for token decimals \n        //owner = msg.sender;\n        //_defaultPartitions = defaultPartitions;\n        setController(msg.sender);\n    \n\n    }\n\n    modifier restricted {\n\n        require(_isController[msg.sender], \"0x56\");\n        _;\n    }\n\n    /**\n        @dev    `_useCert` function verifies the signature sent.\n        If the signature is valid, it registers it onchain to avoid replay attack\n\n        @param _data is the encoded data containing the signature and the parameters to be used to generate prefixed hashed.\n        The prefixed hash will be used to verify the signature\n\n        @param _amount is the quantity of token to be sent in the transaction\n        \n     */\n\n\n    function _useCert(bytes memory _data, uint256 _amount) internal {\n\n        (bytes memory _signature, bytes32 _salt, uint256 _nonce, Certificate.Holder memory _from, Certificate.Holder memory _to) = Certificate.decodeData(_data);\n        require(!_usedSignatures[_signature], \"US\");    // used signature\n        address _signer = Certificate.returnSigner(_signature, _salt, _nonce, _from, _to, _amount, address(this), _tokenName);\n        require(_isController[_signer], \"IS\");      // invalid signer\n        _usedSignatures[_signature] = true;\n\n    }\n\n\n    // *************************************** Internal functions ********************************************************* //\n\n    \n     /// @dev   internal funtion to transfer tokens by partitions from an address to another address\n     /// @notice `0x57` revert message if receiver is address 0\n     /// @notice `0x52` insufficient balance\n     /// @dev   the total supply is the balance accross all partitions\n     /// @notice the global balance of the sender and receiver is adjusted respectively\n     /// @notice the emission of TransferByPartition and Transfer events\n\n    function _transferByPartition(bytes32 _partition, address _from, address _to, uint256 _value, bytes memory _data, bytes memory _operatorData, bool _dataRequired) internal returns(bytes32) {\n       \n\n        require(!_lockUpTokens, \"LUP\");\n        require( _balanceOfByPartition[_from][_partition] >= _value, \"0x52\"); \n        require(_to != address(0),  \"0x57\");\n\n        if (_dataRequired == true && _data.length > 1) {\n\n            _useCert(_data, _value); \n\n        } else if (_dataRequired == true && _data.length <= 1) {\n\n            revert(\"DCBE\");\n\n        }\n      \n\n       _balanceOfByPartition[_from][_partition] = _balanceOfByPartition[_from][_partition] - _value;\n       _balanceOf[_from] = _balanceOf[_from] - _value; // the value should reflect in the global token balance of the sender\n       \n       _balanceOfByPartition[_to][_partition] = _balanceOfByPartition[_to][_partition] + _value;\n       _balanceOf[_to] = _balanceOf[_to] + _value; // the value should reflect in the global token balance of the receiver\n\n        emit Transfer(_from, _to, _value);\n        emit TransferByPartition(_partition, msg.sender, _from, _to, _value, _data, _operatorData);\n       \n\n        return _partition;\n\n    }\n\n   \n\n \n\n    // **************************       ERC1400 FEATURES  ******************************************************//\n\n\n\n    \n    /**\n        *   @dev    Document management\n        *   @notice setDocument function\n        *   @notice getDocument\n    \n    */\n\n\n    /// @dev    function to set document onchain using the document hash from an IPFS\n    /// @param  _name is the name of the document is bytes32\n    /// @param  _uri is the uri of the document's location in the IPFS\n    /// @param  _documentHash is the hash of the document saved returned from the IPFS     \n\n    function setDocument (bytes32 _name, string memory _uri, bytes32 _documentHash) external  {\n        \n        _documents[_name] = Doc(_name, _documentHash, _uri);     // save the document\n        emit Document(_name, _uri, _documentHash);              // emit event when document is set on chain\n\n    }\n\n\n    /// @dev    function to fetch the document details\n    /// @param  _name is the name of the of document to be fetched\n    /// @return uri is saved uri to be returned\n    /// @return docHash is the hash of the document to be returned\n    \n    function getDocument (bytes32 _name) external view returns (string memory uri, bytes32 docHash) {\n\n        Doc memory _document = _documents[_name];\n\n        return (_document._uri, _document._documentHash);  // return the document uri and document hash\n\n    }\n\n\n\n    // *********************    TOKEN INFORMATION\n\n\n    /// @dev    function to fetch the balance of the holder across all partitions\n    /// @param _tokenHolder is the holder's address to be queried\n    \n    function balanceOf(address _tokenHolder) external view returns (uint256) {\n\n        return _balanceOf[_tokenHolder];\n\n    }\n\n\n    /**\n        @dev    function to return the partition balance of an holder\n        The function returns the amount owned by the holder in the specified partition / class\n\n        @param  _partition is the partition to query the balance from\n        @param  _tokenHolder is the address of the holder to whose balance if to be checked and returned \n        @return the balance from the queried partition / class   \n     */\n\n    function balanceOfByPartition(bytes32 _partition, address _tokenHolder) external view returns (uint256) {\n       return _balanceOfByPartition[_tokenHolder][_partition];\n   }\n\n   \n\n   ///  @dev    Function to return the partitions that an holder is having\n   ///  @param _tokenHolder is the address of the holder to be queried\n   ///  @return an array of the partitions of an holder\n\n    function partitionsOf(address _tokenHolder) external view returns (bytes32[] memory) {\n\n        bytes32[] memory _partitions = new bytes32[](_totalPartitions.length);\n        for (uint256 index = 0; index < _totalPartitions.length; index++) {\n            if (_balanceOfByPartition[_tokenHolder][_totalPartitions[index]] > 0) {\n                _partitions[index] = _totalPartitions[index];\n            }\n        }\n\n        return _partitions;\n   }\n\n\n\n    // *********************    TRANSFERS\n\n    /// @dev    approve spenders to send tokens on the holder's behalf; such as escrows\n    /// @dev    the function should be called before calling the transferFrom function\n    \n    function approve(address _externalAddress, uint256 _value) external returns (bool success) {\n\n        require(_externalAddress != address(0), \"0x58\");                  //    0x58   invalid operator\n        allowance[msg.sender][_externalAddress] = _value;              // use safemath function here to avoid under and overflow\n        emit Approval(msg.sender, _externalAddress, _value);            // emit the approved event\n        return true;\n\n    }\n\n\n    /// @dev function to transfer tokens from the classless partition. The internal transferByPartition function will be called here\n    \n    function transfer(address _to, uint256 _value) external returns (bool success) {\n\n       _transferByPartition(_classless, msg.sender, _to, _value, \"\", \"\", false);\n        return true;\n\n    }\n\n    /// @dev    The function for external addresses such as escrows to move the classless tokens on behalf of the token holder\n    \n    function transferFrom(address _from, address _to, uint256 _value) external returns (bool success) {\n\n\n        require(allowance[_from][msg.sender] >= _value, \"0x53\");                        /// @dev the allowed value approved by the token holder must not be less than the amount. Insufficient allowance\n        _transferByPartition(_classless, _from, _to, _value, \"\", \"\", false);                    /// @dev transfer the tokens from the classless partition\n        allowance[_from][msg.sender] =  0;                                             ///  @dev reset the allowance value\n        return true;           \n\n    }  \n\n\n    /**\n        @dev transfer the classless token with data\n        The function uses the _transferByPartition internal function\n\n        @notice _data.length > 0, ensures that data with length 0 or 1 is not accepted and interpreted as empty data\n     */ \n\n\n    function transferWithData(address _to, uint256 _value, bytes memory _data) external {\n        \n        //require(_data.length > 1, \"DCBE\");               \n        _transferByPartition(_classless, msg.sender, _to, _value, _data, \"\", true);\n        \n    }\n    \n     /**\n        @dev external spender such as escrows transfer the classless token with data\n        The function uses the _transferByPartition internal function\n\n        @notice the allowance value was resetted to 0\n        @notice _data.length > 0, ensures that data with length 0 or 1 is not accepted and interpreted as empty data\n     */ \n\n    function transferFromWithData(address _from, address _to, uint256 _value, bytes memory _data) external {\n         \n        require(allowance[_from][msg.sender] >= _value, \"0x53\");           // the allowed value approved by the token holder must not be less than the amount\n        _transferByPartition(_classless, _from, _to, _value, _data, \"\", true);\n        allowance[_from][msg.sender] =  0;   \n        \n    }\n\n\n    // *********************    PARTITION TOKEN TRANSFERS\n\n\n    function transferByPartition(bytes32 _partition, address _to, uint256 _value, bytes memory _data) external returns (bytes32) {\n\n       _transferByPartition(_partition, msg.sender, _to, _value, _data , \"\", true);\n        return _partition;\n\n   }    \n\n   // operator transfer by partition\n   \n   function operatorTransferByPartition(bytes32 _partition, address _from, address _to, uint256 _value, bytes memory _data, bytes memory _operatorData) external returns (bytes32) {\n\n      \n       if(_isControllable == true && _isController[msg.sender]) {\n\n           _transferByPartition(_partition, _from, _to, _value, \"\", \"\", true);\n           emit ControllerTransfer(msg.sender, _from, _to, _value, _data, _operatorData);       // forceful transfers\n\n       } else {\n            require(_isOperatorForPartition[_from][msg.sender][_partition] || _isOperator[_from][msg.sender], \"0x56\"); // 0x56 invalid sender\n            _transferByPartition(_partition, _from, _to, _value, \"\", \"\", true);\n       }\n\n       return _partition;\n      \n       \n   }\n\n\n\n   // *********************    CONTROLLER OPERATION\n\n   function isControllable() external view returns (bool) {\n       return _isControllable;\n   }\n\n   function isController(address _controller) external view returns(bool) {\n       return _isController[_controller];\n   }\n\n   function setControllability(bool _status) external restricted {\n       _isControllable = _status;\n       \n   }\n\n   function setController(address _controller) public restricted {\n\n       require(_controller != address(0), \"0x58\");      // invalid transfer agent\n       require(!_isController[_controller], \"ACC\");       // address is currently a controller\n       _isController[_controller] = true;\n       _controllers.push(_controller);\n       _indexOfController[_controller] = _controllers.length - 1;\n\n   }\n\n   function getControllers() external view returns (address[] memory) {\n       return _controllers;\n   }\n\n   function removeController(address _controller) external restricted {\n\n        require(_controller != address(0) && _isController[_controller], \"0x58\");     // invalid transfer agent\n        _isController[_controller] = false;\n        delete _controllers[_indexOfController[_controller]];     // remove the controller from the array of controllers using their saved index value\n       \n   }\n\n   function controllerTransfer(address _from, address _to, uint256 _value, bytes memory _data, bytes memory _operatorData) external restricted {\n        require(_isControllable, \"NC\");\n        _transferByPartition(_classless, _from, _to, _value, _data, _operatorData, true);\n        emit ControllerTransfer(msg.sender, _from, _to, _value, _data, _operatorData);\n   }\n\n   function controllerRedeem(address _tokenHolder, uint256 _value, bytes memory _data, bytes memory _operatorData) external restricted {\n       _redeemByPartition(_classless, _tokenHolder, _value, _data, _operatorData);\n        emit ControllerRedemption(msg.sender, _tokenHolder, _value, _data, _operatorData);\n   }\n\n\n   // *********************    OPERATOR MANAGEMENT\n\n\n    function authorizeOperator (address _operator) public {\n        _isOperator[msg.sender][_operator] = true;\n        emit AuthorizedOperator(_operator, msg.sender);\n    }\n\n    function revokeOperator (address _operator) public {\n        _isOperator[msg.sender][_operator] = false;\n        emit RevokedOperator(_operator, msg.sender);\n    }\n\n    function authorizeOperatorByPartition (bytes32 _partition, address _operator) public  {\n        _isOperatorForPartition[msg.sender][_operator][_partition] = true;\n        emit AuthorizedOperatorByPartition(_partition, _operator, msg.sender);\n    }\n\n    function revokeOperatorByPartition (bytes32 _partition, address _operator) public {\n        _isOperatorForPartition[msg.sender][_operator][_partition] = false;\n        emit RevokedOperatorByPartition(_partition, _operator, msg.sender);\n    }\n\n\n\n    // *********************    OPERATOR INFORMATION\n\n\n\n     function isOperator (address _operator, address _tokenHolder) external view returns (bool) {\n        return _isOperator[_tokenHolder][_operator];\n    }\n\n    \n    function isOperatorForPartition(bytes32 _partition, address _operator, address _tokenHolder) external view returns (bool) {\n        return  _isOperatorForPartition[_tokenHolder][_operator][_partition];\n    }\n\n\n\n    // *********************    TOKEN ISSUANCE\n\n    /**\n        @dev    function to know the issuance status of a token; if it is issuable or not\n     */\n\n    function isIssuable() external view returns (bool) {\n\n        return _isIssuable;\n\n    }\n\n    /** \n        @dev    internal function to execute issuance to investors\n    \n    */\n\n    function _issue(bytes32 _partition, address _tokenHolder, uint256 _value, bytes memory _data) internal {\n\n        require(_isIssuable, \"0x55\");                                       // can't issue tokens for now\n        require(_tokenHolder != address(0), \"0x57\");                        // invalid receiver\n        require(_data.length > 1, \"DCBE\");                   //  data must not be empty\n        _useCert(_data, _value);                                            // verify the certificate\n        uint256 amount =  _value * _tokenGranularity;                             // the destinaton address should not be an empty address\n        _balanceOfByPartition[_tokenHolder][_partition] += amount;          // update the classless token reserve balance of the holder\n        _balanceOf[_tokenHolder] += amount;                                 // update the general balance reserve of the holder                \n        _totalSupply += amount;                                              // add the new minted token to the total supply ---> use safemath library to avoid under and overflow\n        emit Issued(msg.sender, _tokenHolder, amount, _data);               // emit the issued event\n        emit IssuedByPartition(_partition, msg.sender, _tokenHolder, amount, _data, \"\");\n\n    }\n\n\n    /**\n        @dev    function to mint and issue new tokens. This function is restricted to other addresses except the controllers of the contract\n\n        The tokens are issued to the classless partition. This will serve as default reserve for securities with no class\n     */ \n    \n    function issue(address _tokenHolder, uint256 _value, bytes memory _data) external restricted {\n        \n        _issue(_classless, _tokenHolder, _value, _data);\n        \n\n    }\n\n\n    /**\n        @dev    function to mint and issue new tokens to the specified partition of an holder. \n        \n        This function is restricted to other addresses except the owner of the contract\n\n     */ \n\n    function issueByPartition(bytes32 _partition, address _tokenHolder, uint256 _value, bytes memory _data) external restricted {\n\n        _issue(_partition, _tokenHolder, _value, _data);\n    \n\n    }\n\n\n   // *********************    TOKEN REDEMPTION\n\n\n   // internal redeem by partition function\n\n\n    function _redeemByPartition(bytes32 _partition, address _tokenHolder, uint256 _value, bytes memory _data, bytes memory _operatorData) internal {\n\n       require(_tokenHolder != address(0), \"0x57\");\n       require(_balanceOfByPartition[_tokenHolder][_partition] >= _value, \"0x52\");              // insufficient balance\n       _useCert(_data, _value);\n       _balanceOfByPartition[_tokenHolder][_partition] = _balanceOfByPartition[_tokenHolder][_partition] - _value;\n       _balanceOf[_tokenHolder] = _balanceOf[_tokenHolder] - _value; // the value should reflect in the global token balance of the sender\n       _totalSupply -= _value;\n       \n    }\n\n   \n\n   function redeem(uint256 _value, bytes memory _data) external {\n\n        _redeemByPartition(_classless, msg.sender, _value, _data, \"\");\n        emit Redeemed(msg.sender, msg.sender, _value, _data);\n\n   }\n\n   function redeemFrom(address _tokenHolder, uint256 _value, bytes memory _data) external {\n\n        require(allowance[_tokenHolder][msg.sender] >= _value, \"0x53\");  // insufficient allowance\n        _redeemByPartition(_classless, _tokenHolder, _value, _data, \"\");\n         emit Redeemed(msg.sender, _tokenHolder, _value, _data);\n\n   }\n\n\n   // function to redeem by partition\n\n   function redeemByPartition(bytes32 _partition, uint256 _value, bytes memory _data) external {\n\n       _redeemByPartition(_partition, msg.sender, _value, _data, \"\");\n       emit RedeemedByPartition(_partition, msg.sender, msg.sender, _value, _data);\n\n   }\n\n   \n\n   function operatorRedeemByPartition(bytes32 _partition, address _tokenHolder, uint256 _value, bytes memory _operatorData) external {\n\n       //require(_isValidCertificate(_operatorData, _value));           //  verify signer\n       if(_isControllable == true && _isController[msg.sender]) {\n            _redeemByPartition(_partition, _tokenHolder, _value, \"\", _operatorData);\n            emit ControllerRedemption(msg.sender, _tokenHolder, _value, \"\", _operatorData);\n       } else {\n            require(_isOperator[_tokenHolder][msg.sender] || _isOperatorForPartition[_tokenHolder][msg.sender][_partition], \"0x58\");     // invalid operator\n            _redeemByPartition(_partition, _tokenHolder, _value, \"\", _operatorData);\n       }\n\n       emit RedeemedByPartition(_partition, msg.sender, _tokenHolder, _value, _operatorData);\n\n   }\n\n\n   // *********************    TRANSFER VALIDITY\n\n    // used bytes1 instead of byte. bytes1 is now an alias for byte    \n\n    function canTransfer(address _to, uint256 _value, bytes memory _data) external view returns (bytes1 code, bytes32 reason){\n\n        if( _lockUpTokens == true) {\n\n            return (hex\"55\", \"funds locked (lockup period)\");\n        }\n\n        if(_to == address(0)) {\n            return (hex\"57\", \"invalid receiver\");\n        } \n\n        if(_balanceOf[msg.sender] < _value) {\n            return (hex\"52\", \"insufficient balance\");\n        }\n\n        /*if( _isValidCertificate(_data, _value) != true) {\n            return (hex\"59\", \"invalid signer\");\n        }*/\n\n        return (hex\"51\", \"transfer success\");\n\n    }\n\n    function canTransferFrom(address _from, address _to, uint256 _value, bytes memory _data) external view returns (bytes1 code, bytes32 reason) {\n\n        if(_balanceOf[_from] < _value) {\n            return (hex\"52\", \"insufficient balance\");\n        }\n\n        if(allowance[_from][msg.sender] < _value) {\n            return (hex\"53\", \"insufficient allowance\");\n        }\n\n        if(_to == address(0)) {\n            return (hex\"57\", \"invalid receiver\");\n        } \n\n        if(_isOperator[_from][msg.sender]) {\n            return (hex\"58\", \"invalid operator\");\n        } \n\n        /*if( _isValidCertificate(_data, _value) != true) {\n            return (hex\"59\", \"invalid signer\");\n        }*/\n\n        return (hex\"51\", \"transfer success\");\n\n    }\n\n    // can transfer by partition\n\n   function canTransferByPartition(address _from, address _to, bytes32 _partition, uint256 _value, bytes memory _data) external view returns(bytes1, bytes32, bytes32) {\n\n       if (_to == address(0)) {\n           return (hex\"55\", \"invalid receiver\", _partition);\n       }\n\n       if (_value > _balanceOfByPartition[_from][_partition]) {\n           return (hex\"55\", \"insufficient balance\", _partition);\n       }\n\n       /*if( _isValidCertificate(_data, _value) != true) {\n            return (hex\"59\", \"invalid signer\", _partition);\n        }*/\n\n        return (hex\"51\", \"transfer success\", _partition);\n\n\n   }\n\n\n   /*********************************************************************************/\n\n   //function to return partitioned token balance\n\n    function totalPartitions() external view returns (bytes32[] memory) {\n       return _totalPartitions;\n    }\n\n    function setTotalPartitions(bytes32[] memory _newTotalPartitions) external {\n        _totalPartitions = _newTotalPartitions;\n    }\n\n\n    /**\n        @dev    Functions to set the lockup and issuable status of the token.\n\n        \n        If setLockUp is true, all transfers will be disabled until the lockup is set to false\n        If setIssuable is false, tokens can't be issued until set to true \n     */\n\n\n\n    function setLockUp(bool _lockUp) external restricted {\n\n        _lockUpTokens = _lockUp;\n        \n\n    }\n\n    function setIssuable(bool _issuable) external restricted {\n\n        _isIssuable = _issuable;\n        \n\n    }\n\n    /**\n        @dev functions to return the token details \n\n        1.  name\n        2.  symbol\n        3.  total supply\n\n     */\n\n     function name() external view returns (string memory) {\n\n         return _tokenName;\n\n     }\n\n     function symbol() external view returns (string memory) {\n\n         return _tokenSymbol;\n\n     }\n\n\n     function totalSupply() external view returns (uint256) {\n\n         return _totalSupply;\n\n     }\n\n     function granularity() external view returns (uint256) {\n\n         return _tokenGranularity;\n\n     }\n    \n\n\n   \n\n     // *************************************** Events ********************************************************* //\n\n    \n    event Issued (address indexed _operator, address indexed _to, uint256 _value, bytes _data);            // event to be emitted whenever new tokens are minted\n    event Transfer (address indexed _from, address indexed _to, uint256 _value);                                            // event to be emitted whenever token is been transferred\n    event Approval (address indexed _owner, address indexed _spender, uint256 _value);                        // event to be emitted whenever an external address is approved such as escrows\n    event Document (bytes32 indexed _name, string _uri, bytes32 _documentHash);                       // event to be emitted whenever a document is put on-chain\n    event TransferByPartition (\n\n        bytes32 indexed _fromPartition,\n        address _operator,\n        address indexed _from,\n        address indexed _to,\n        uint256 _value,\n        bytes _data,\n        bytes _operatorData\n\n\n    );                                                                           // event to be emitted whenever tokens are transfered from an address partition to another addres of same partition\n\n    event AuthorizedOperator (address indexed _operator, address indexed _tokenHolder);     // event to be emitted whenever an operator is authorized\n    event RevokedOperator (address indexed _operator, address indexed _tokenHolder);     // event to be emitted whenever an operator is revoked\n    event AuthorizedOperatorByPartition (bytes32 indexed _partition, address indexed _operator, address indexed _tokenHolder);     // event to be emitted whenever an operator is authorized for a partition\n    event RevokedOperatorByPartition (bytes32 indexed _partition, address indexed _operator, address indexed _tokenHolder);     // event to be emitted whenever an operator is revoked for a partition\n    event IssuedByPartition (bytes32 indexed _partition, address indexed _operator, address indexed _to, uint256 _value, bytes _data, bytes _operatorData);    //  event to be emitted whenever a new token is issued to an holder's partition\n    event RedeemedByPartition (bytes32 indexed _partition, address indexed _operator, address indexed _from, uint256 _value, bytes _operatorData);     // event to be emitted when tokens are burnt from any partitions\n    event Redeemed (address indexed _operator, address indexed _from, uint256 _value, bytes _data);          //  event to be emitted when a token is being redeemed\n    event ControllerTransfer (address _controller, address indexed _from, address indexed _to, uint256 _value, bytes _data, bytes _operatorData); // event to be emitted whenever a controller forces a token transfer\n    event ControllerRedemption (address _controller, address indexed _tokenHolder, uint256 _value, bytes _data, bytes _operatorData);        // event to be emitted whenever a controller forces token redemption from a token holder's wallet\n    \n\n}\n\n\n",
  "sourcePath": "/home/komolehin/Documents/blockchain/TANGLE/security-token/contracts/Token/ERC1400.sol",
  "compiler": {
    "name": "solc",
    "version": "0.8.10+commit.fc410830.Emscripten.clang"
  },
  "schemaVersion": "3.4.6",
  "updatedAt": "2022-05-27T18:37:33.996Z",
  "devdoc": {
    "kind": "dev",
    "methods": {
      "approve(address,uint256)": {
        "details": "approve spenders to send tokens on the holder's behalf; such as escrowsthe function should be called before calling the transferFrom function"
      },
      "balanceOf(address)": {
        "details": "function to fetch the balance of the holder across all partitions",
        "params": {
          "_tokenHolder": "is the holder's address to be queried"
        }
      },
      "balanceOfByPartition(bytes32,address)": {
        "details": "function to return the partition balance of an holder The function returns the amount owned by the holder in the specified partition / class",
        "params": {
          "_partition": "is the partition to query the balance from",
          "_tokenHolder": "is the address of the holder to whose balance if to be checked and returned "
        },
        "returns": {
          "_0": "the balance from the queried partition / class   "
        }
      },
      "getDocument(bytes32)": {
        "details": "function to fetch the document details",
        "params": {
          "_name": "is the name of the of document to be fetched"
        },
        "returns": {
          "docHash": "is the hash of the document to be returned",
          "uri": "is saved uri to be returned"
        }
      },
      "isIssuable()": {
        "details": "function to know the issuance status of a token; if it is issuable or not"
      },
      "issue(address,uint256,bytes)": {
        "details": "function to mint and issue new tokens. This function is restricted to other addresses except the controllers of the contract The tokens are issued to the classless partition. This will serve as default reserve for securities with no class"
      },
      "issueByPartition(bytes32,address,uint256,bytes)": {
        "details": "function to mint and issue new tokens to the specified partition of an holder.  This function is restricted to other addresses except the owner of the contract"
      },
      "name()": {
        "details": "functions to return the token details  1.  name 2.  symbol 3.  total supply"
      },
      "partitionsOf(address)": {
        "details": "Function to return the partitions that an holder is having",
        "params": {
          "_tokenHolder": "is the address of the holder to be queried"
        },
        "returns": {
          "_0": "an array of the partitions of an holder"
        }
      },
      "setDocument(bytes32,string,bytes32)": {
        "details": "function to set document onchain using the document hash from an IPFS",
        "params": {
          "_documentHash": "is the hash of the document saved returned from the IPFS     ",
          "_name": "is the name of the document is bytes32",
          "_uri": "is the uri of the document's location in the IPFS"
        }
      },
      "setLockUp(bool)": {
        "details": "Functions to set the lockup and issuable status of the token. If setLockUp is true, all transfers will be disabled until the lockup is set to false If setIssuable is false, tokens can't be issued until set to true "
      },
      "transfer(address,uint256)": {
        "details": "function to transfer tokens from the classless partition. The internal transferByPartition function will be called here"
      },
      "transferFrom(address,address,uint256)": {
        "details": "The function for external addresses such as escrows to move the classless tokens on behalf of the token holder"
      },
      "transferFromWithData(address,address,uint256,bytes)": {
        "details": "external spender such as escrows transfer the classless token with data The function uses the _transferByPartition internal function"
      },
      "transferWithData(address,uint256,bytes)": {
        "details": "transfer the classless token with data The function uses the _transferByPartition internal function"
      }
    },
    "version": 1
  },
  "userdoc": {
    "kind": "user",
    "methods": {
      "transferFromWithData(address,address,uint256,bytes)": {
        "notice": "the allowance value was resetted to 0_data.length > 0, ensures that data with length 0 or 1 is not accepted and interpreted as empty data"
      },
      "transferWithData(address,uint256,bytes)": {
        "notice": "_data.length > 0, ensures that data with length 0 or 1 is not accepted and interpreted as empty data"
      }
    },
    "version": 1
  }
}