{
  "contractName": "ERC1400",
  "abi": [
    {
      "inputs": [
        {
          "internalType": "string",
          "name": "_name",
          "type": "string"
        },
        {
          "internalType": "string",
          "name": "_symbol",
          "type": "string"
        },
        {
          "internalType": "uint256",
          "name": "_decimals",
          "type": "uint256"
        },
        {
          "internalType": "uint256",
          "name": "_totalSupply",
          "type": "uint256"
        },
        {
          "internalType": "bytes32[]",
          "name": "defaultPartitions",
          "type": "bytes32[]"
        }
      ],
      "stateMutability": "nonpayable",
      "type": "constructor"
    },
    {
      "anonymous": false,
      "inputs": [
        {
          "indexed": false,
          "internalType": "address",
          "name": "_tokenHolder",
          "type": "address"
        },
        {
          "indexed": false,
          "internalType": "address",
          "name": "_externalAddress",
          "type": "address"
        },
        {
          "indexed": false,
          "internalType": "uint256",
          "name": "_amount",
          "type": "uint256"
        }
      ],
      "name": "Approval",
      "type": "event"
    },
    {
      "anonymous": false,
      "inputs": [
        {
          "indexed": true,
          "internalType": "address",
          "name": "_operator",
          "type": "address"
        },
        {
          "indexed": true,
          "internalType": "address",
          "name": "_tokenHolder",
          "type": "address"
        }
      ],
      "name": "AuthorizedOperator",
      "type": "event"
    },
    {
      "anonymous": false,
      "inputs": [
        {
          "indexed": true,
          "internalType": "bytes32",
          "name": "_partition",
          "type": "bytes32"
        },
        {
          "indexed": true,
          "internalType": "address",
          "name": "_operator",
          "type": "address"
        },
        {
          "indexed": true,
          "internalType": "address",
          "name": "_tokenHolder",
          "type": "address"
        }
      ],
      "name": "AuthorizedOperatorByPartition",
      "type": "event"
    },
    {
      "anonymous": false,
      "inputs": [
        {
          "indexed": false,
          "internalType": "address",
          "name": "_controller",
          "type": "address"
        },
        {
          "indexed": true,
          "internalType": "address",
          "name": "_tokenHolder",
          "type": "address"
        },
        {
          "indexed": false,
          "internalType": "uint256",
          "name": "_value",
          "type": "uint256"
        },
        {
          "indexed": false,
          "internalType": "bytes",
          "name": "_data",
          "type": "bytes"
        },
        {
          "indexed": false,
          "internalType": "bytes",
          "name": "_operatorData",
          "type": "bytes"
        }
      ],
      "name": "ControllerRedemption",
      "type": "event"
    },
    {
      "anonymous": false,
      "inputs": [
        {
          "indexed": false,
          "internalType": "address",
          "name": "_controller",
          "type": "address"
        },
        {
          "indexed": true,
          "internalType": "address",
          "name": "_from",
          "type": "address"
        },
        {
          "indexed": true,
          "internalType": "address",
          "name": "_to",
          "type": "address"
        },
        {
          "indexed": false,
          "internalType": "uint256",
          "name": "_value",
          "type": "uint256"
        },
        {
          "indexed": false,
          "internalType": "bytes",
          "name": "_data",
          "type": "bytes"
        },
        {
          "indexed": false,
          "internalType": "bytes",
          "name": "_operatorData",
          "type": "bytes"
        }
      ],
      "name": "ControllerTransfer",
      "type": "event"
    },
    {
      "anonymous": false,
      "inputs": [
        {
          "indexed": true,
          "internalType": "bytes32",
          "name": "_name",
          "type": "bytes32"
        },
        {
          "indexed": false,
          "internalType": "string",
          "name": "_uri",
          "type": "string"
        },
        {
          "indexed": false,
          "internalType": "bytes32",
          "name": "_documentHash",
          "type": "bytes32"
        }
      ],
      "name": "Document",
      "type": "event"
    },
    {
      "anonymous": false,
      "inputs": [
        {
          "indexed": false,
          "internalType": "address",
          "name": "_to",
          "type": "address"
        },
        {
          "indexed": false,
          "internalType": "uint256",
          "name": "_amountIssued",
          "type": "uint256"
        },
        {
          "indexed": false,
          "internalType": "uint256",
          "name": "_totalSupply",
          "type": "uint256"
        },
        {
          "indexed": false,
          "internalType": "uint256",
          "name": "_timeIssued",
          "type": "uint256"
        }
      ],
      "name": "Issued",
      "type": "event"
    },
    {
      "anonymous": false,
      "inputs": [
        {
          "indexed": true,
          "internalType": "bytes32",
          "name": "_partition",
          "type": "bytes32"
        },
        {
          "indexed": true,
          "internalType": "address",
          "name": "_operator",
          "type": "address"
        },
        {
          "indexed": true,
          "internalType": "address",
          "name": "_to",
          "type": "address"
        },
        {
          "indexed": false,
          "internalType": "uint256",
          "name": "_amount",
          "type": "uint256"
        },
        {
          "indexed": false,
          "internalType": "bytes",
          "name": "_data",
          "type": "bytes"
        },
        {
          "indexed": false,
          "internalType": "bytes",
          "name": "_operatorData",
          "type": "bytes"
        }
      ],
      "name": "IssuedByPartition",
      "type": "event"
    },
    {
      "anonymous": false,
      "inputs": [
        {
          "indexed": true,
          "internalType": "address",
          "name": "_operator",
          "type": "address"
        },
        {
          "indexed": true,
          "internalType": "address",
          "name": "_from",
          "type": "address"
        },
        {
          "indexed": false,
          "internalType": "uint256",
          "name": "_value",
          "type": "uint256"
        },
        {
          "indexed": false,
          "internalType": "bytes",
          "name": "_data",
          "type": "bytes"
        }
      ],
      "name": "Redeemed",
      "type": "event"
    },
    {
      "anonymous": false,
      "inputs": [
        {
          "indexed": true,
          "internalType": "bytes32",
          "name": "_partition",
          "type": "bytes32"
        },
        {
          "indexed": true,
          "internalType": "address",
          "name": "_operator",
          "type": "address"
        },
        {
          "indexed": true,
          "internalType": "address",
          "name": "_from",
          "type": "address"
        },
        {
          "indexed": false,
          "internalType": "uint256",
          "name": "_amount",
          "type": "uint256"
        },
        {
          "indexed": false,
          "internalType": "bytes",
          "name": "_operatorData",
          "type": "bytes"
        }
      ],
      "name": "RedeemedByPartition",
      "type": "event"
    },
    {
      "anonymous": false,
      "inputs": [
        {
          "indexed": true,
          "internalType": "address",
          "name": "_operator",
          "type": "address"
        },
        {
          "indexed": true,
          "internalType": "address",
          "name": "_tokenHolder",
          "type": "address"
        }
      ],
      "name": "RevokedOperator",
      "type": "event"
    },
    {
      "anonymous": false,
      "inputs": [
        {
          "indexed": true,
          "internalType": "bytes32",
          "name": "_partition",
          "type": "bytes32"
        },
        {
          "indexed": true,
          "internalType": "address",
          "name": "_operator",
          "type": "address"
        },
        {
          "indexed": true,
          "internalType": "address",
          "name": "_tokenHolder",
          "type": "address"
        }
      ],
      "name": "RevokedOperatorByPartition",
      "type": "event"
    },
    {
      "anonymous": false,
      "inputs": [
        {
          "indexed": false,
          "internalType": "address",
          "name": "_from",
          "type": "address"
        },
        {
          "indexed": false,
          "internalType": "address",
          "name": "_to",
          "type": "address"
        },
        {
          "indexed": false,
          "internalType": "uint256",
          "name": "_amount",
          "type": "uint256"
        }
      ],
      "name": "Transfer",
      "type": "event"
    },
    {
      "anonymous": false,
      "inputs": [
        {
          "indexed": true,
          "internalType": "bytes32",
          "name": "_fromPartition",
          "type": "bytes32"
        },
        {
          "indexed": false,
          "internalType": "address",
          "name": "_operator",
          "type": "address"
        },
        {
          "indexed": true,
          "internalType": "address",
          "name": "_from",
          "type": "address"
        },
        {
          "indexed": true,
          "internalType": "address",
          "name": "_to",
          "type": "address"
        },
        {
          "indexed": false,
          "internalType": "uint256",
          "name": "_value",
          "type": "uint256"
        },
        {
          "indexed": false,
          "internalType": "bytes",
          "name": "_data",
          "type": "bytes"
        },
        {
          "indexed": false,
          "internalType": "bytes",
          "name": "_operatorData",
          "type": "bytes"
        }
      ],
      "name": "TransferByPartition",
      "type": "event"
    },
    {
      "anonymous": false,
      "inputs": [
        {
          "indexed": false,
          "internalType": "address",
          "name": "_investor",
          "type": "address"
        },
        {
          "indexed": false,
          "internalType": "uint256",
          "name": "_timeAdded",
          "type": "uint256"
        }
      ],
      "name": "WhiteList",
      "type": "event"
    },
    {
      "inputs": [],
      "name": "decimals",
      "outputs": [
        {
          "internalType": "uint256",
          "name": "",
          "type": "uint256"
        }
      ],
      "stateMutability": "view",
      "type": "function",
      "constant": true
    },
    {
      "inputs": [],
      "name": "granularity",
      "outputs": [
        {
          "internalType": "uint256",
          "name": "",
          "type": "uint256"
        }
      ],
      "stateMutability": "view",
      "type": "function",
      "constant": true
    },
    {
      "inputs": [],
      "name": "name",
      "outputs": [
        {
          "internalType": "string",
          "name": "",
          "type": "string"
        }
      ],
      "stateMutability": "view",
      "type": "function",
      "constant": true
    },
    {
      "inputs": [],
      "name": "symbol",
      "outputs": [
        {
          "internalType": "string",
          "name": "",
          "type": "string"
        }
      ],
      "stateMutability": "view",
      "type": "function",
      "constant": true
    },
    {
      "inputs": [],
      "name": "totalSupply",
      "outputs": [
        {
          "internalType": "uint256",
          "name": "",
          "type": "uint256"
        }
      ],
      "stateMutability": "view",
      "type": "function",
      "constant": true
    },
    {
      "inputs": [
        {
          "internalType": "bytes32[]",
          "name": "newDefaultPartitions",
          "type": "bytes32[]"
        }
      ],
      "name": "setDefaultPartitions",
      "outputs": [],
      "stateMutability": "nonpayable",
      "type": "function"
    },
    {
      "inputs": [
        {
          "internalType": "bytes32",
          "name": "_name",
          "type": "bytes32"
        },
        {
          "internalType": "string",
          "name": "_uri",
          "type": "string"
        },
        {
          "internalType": "bytes32",
          "name": "_documentHash",
          "type": "bytes32"
        }
      ],
      "name": "setDocument",
      "outputs": [],
      "stateMutability": "nonpayable",
      "type": "function"
    },
    {
      "inputs": [
        {
          "internalType": "bytes32",
          "name": "_name",
          "type": "bytes32"
        }
      ],
      "name": "getDocument",
      "outputs": [
        {
          "internalType": "string",
          "name": "uri",
          "type": "string"
        },
        {
          "internalType": "bytes32",
          "name": "docHash",
          "type": "bytes32"
        }
      ],
      "stateMutability": "view",
      "type": "function",
      "constant": true
    },
    {
      "inputs": [
        {
          "internalType": "address",
          "name": "_tokenHolder",
          "type": "address"
        }
      ],
      "name": "balanceOf",
      "outputs": [
        {
          "internalType": "uint256",
          "name": "",
          "type": "uint256"
        }
      ],
      "stateMutability": "view",
      "type": "function",
      "constant": true
    },
    {
      "inputs": [
        {
          "internalType": "bytes32",
          "name": "_partition",
          "type": "bytes32"
        },
        {
          "internalType": "address",
          "name": "_tokenHolder",
          "type": "address"
        }
      ],
      "name": "balanceOfByPartition",
      "outputs": [
        {
          "internalType": "uint256",
          "name": "",
          "type": "uint256"
        }
      ],
      "stateMutability": "view",
      "type": "function",
      "constant": true
    },
    {
      "inputs": [
        {
          "internalType": "address",
          "name": "_tokenHolder",
          "type": "address"
        }
      ],
      "name": "partitionsOf",
      "outputs": [
        {
          "internalType": "bytes32[]",
          "name": "",
          "type": "bytes32[]"
        }
      ],
      "stateMutability": "view",
      "type": "function",
      "constant": true
    },
    {
      "inputs": [
        {
          "internalType": "address",
          "name": "_externalAddress",
          "type": "address"
        },
        {
          "internalType": "uint256",
          "name": "_value",
          "type": "uint256"
        }
      ],
      "name": "approve",
      "outputs": [
        {
          "internalType": "bool",
          "name": "success",
          "type": "bool"
        }
      ],
      "stateMutability": "nonpayable",
      "type": "function"
    },
    {
      "inputs": [
        {
          "internalType": "address",
          "name": "_to",
          "type": "address"
        },
        {
          "internalType": "uint256",
          "name": "_value",
          "type": "uint256"
        }
      ],
      "name": "transfer",
      "outputs": [
        {
          "internalType": "bool",
          "name": "success",
          "type": "bool"
        }
      ],
      "stateMutability": "nonpayable",
      "type": "function"
    },
    {
      "inputs": [
        {
          "internalType": "address",
          "name": "_from",
          "type": "address"
        },
        {
          "internalType": "address",
          "name": "_to",
          "type": "address"
        },
        {
          "internalType": "uint256",
          "name": "_value",
          "type": "uint256"
        }
      ],
      "name": "transferFrom",
      "outputs": [
        {
          "internalType": "bool",
          "name": "success",
          "type": "bool"
        }
      ],
      "stateMutability": "nonpayable",
      "type": "function"
    },
    {
      "inputs": [
        {
          "internalType": "address",
          "name": "_to",
          "type": "address"
        },
        {
          "internalType": "uint256",
          "name": "_value",
          "type": "uint256"
        },
        {
          "internalType": "bytes",
          "name": "_data",
          "type": "bytes"
        }
      ],
      "name": "transferWithData",
      "outputs": [],
      "stateMutability": "nonpayable",
      "type": "function"
    },
    {
      "inputs": [
        {
          "internalType": "address",
          "name": "_from",
          "type": "address"
        },
        {
          "internalType": "address",
          "name": "_to",
          "type": "address"
        },
        {
          "internalType": "uint256",
          "name": "_value",
          "type": "uint256"
        },
        {
          "internalType": "bytes",
          "name": "_data",
          "type": "bytes"
        }
      ],
      "name": "transferFromWithData",
      "outputs": [],
      "stateMutability": "nonpayable",
      "type": "function"
    },
    {
      "inputs": [
        {
          "internalType": "bytes32",
          "name": "_partition",
          "type": "bytes32"
        },
        {
          "internalType": "address",
          "name": "_to",
          "type": "address"
        },
        {
          "internalType": "uint256",
          "name": "_value",
          "type": "uint256"
        },
        {
          "internalType": "bytes",
          "name": "_data",
          "type": "bytes"
        }
      ],
      "name": "transferByPartition",
      "outputs": [
        {
          "internalType": "bytes32",
          "name": "",
          "type": "bytes32"
        }
      ],
      "stateMutability": "nonpayable",
      "type": "function"
    },
    {
      "inputs": [
        {
          "internalType": "bytes32",
          "name": "_partition",
          "type": "bytes32"
        },
        {
          "internalType": "address",
          "name": "_from",
          "type": "address"
        },
        {
          "internalType": "address",
          "name": "_to",
          "type": "address"
        },
        {
          "internalType": "uint256",
          "name": "_value",
          "type": "uint256"
        },
        {
          "internalType": "bytes",
          "name": "_data",
          "type": "bytes"
        },
        {
          "internalType": "bytes",
          "name": "_operatorData",
          "type": "bytes"
        }
      ],
      "name": "operatorTransferByPartition",
      "outputs": [
        {
          "internalType": "bytes32",
          "name": "",
          "type": "bytes32"
        }
      ],
      "stateMutability": "nonpayable",
      "type": "function"
    },
    {
      "inputs": [],
      "name": "isControllable",
      "outputs": [
        {
          "internalType": "bool",
          "name": "",
          "type": "bool"
        }
      ],
      "stateMutability": "view",
      "type": "function",
      "constant": true
    },
    {
      "inputs": [
        {
          "internalType": "address",
          "name": "_controller",
          "type": "address"
        }
      ],
      "name": "isController",
      "outputs": [
        {
          "internalType": "bool",
          "name": "",
          "type": "bool"
        }
      ],
      "stateMutability": "view",
      "type": "function",
      "constant": true
    },
    {
      "inputs": [
        {
          "internalType": "bool",
          "name": "_status",
          "type": "bool"
        }
      ],
      "name": "setControllability",
      "outputs": [],
      "stateMutability": "nonpayable",
      "type": "function"
    },
    {
      "inputs": [
        {
          "internalType": "address",
          "name": "_controller",
          "type": "address"
        }
      ],
      "name": "setController",
      "outputs": [],
      "stateMutability": "nonpayable",
      "type": "function"
    },
    {
      "inputs": [],
      "name": "getControllers",
      "outputs": [
        {
          "internalType": "address[]",
          "name": "",
          "type": "address[]"
        }
      ],
      "stateMutability": "view",
      "type": "function",
      "constant": true
    },
    {
      "inputs": [
        {
          "internalType": "address",
          "name": "_controller",
          "type": "address"
        }
      ],
      "name": "removeController",
      "outputs": [],
      "stateMutability": "nonpayable",
      "type": "function"
    },
    {
      "inputs": [
        {
          "internalType": "address",
          "name": "_from",
          "type": "address"
        },
        {
          "internalType": "address",
          "name": "_to",
          "type": "address"
        },
        {
          "internalType": "uint256",
          "name": "_value",
          "type": "uint256"
        },
        {
          "internalType": "bytes",
          "name": "_data",
          "type": "bytes"
        },
        {
          "internalType": "bytes",
          "name": "_operatorData",
          "type": "bytes"
        }
      ],
      "name": "controllerTransfer",
      "outputs": [],
      "stateMutability": "nonpayable",
      "type": "function"
    },
    {
      "inputs": [
        {
          "internalType": "address",
          "name": "_tokenHolder",
          "type": "address"
        },
        {
          "internalType": "uint256",
          "name": "_value",
          "type": "uint256"
        },
        {
          "internalType": "bytes",
          "name": "_data",
          "type": "bytes"
        },
        {
          "internalType": "bytes",
          "name": "_operatorData",
          "type": "bytes"
        }
      ],
      "name": "controllerRedeem",
      "outputs": [],
      "stateMutability": "nonpayable",
      "type": "function"
    },
    {
      "inputs": [
        {
          "internalType": "address",
          "name": "_operator",
          "type": "address"
        }
      ],
      "name": "authorizeOperator",
      "outputs": [],
      "stateMutability": "nonpayable",
      "type": "function"
    },
    {
      "inputs": [
        {
          "internalType": "address",
          "name": "_operator",
          "type": "address"
        }
      ],
      "name": "revokeOperator",
      "outputs": [],
      "stateMutability": "nonpayable",
      "type": "function"
    },
    {
      "inputs": [
        {
          "internalType": "bytes32",
          "name": "_partition",
          "type": "bytes32"
        },
        {
          "internalType": "address",
          "name": "_operator",
          "type": "address"
        }
      ],
      "name": "authorizeOperatorByPartition",
      "outputs": [],
      "stateMutability": "nonpayable",
      "type": "function"
    },
    {
      "inputs": [
        {
          "internalType": "bytes32",
          "name": "_partition",
          "type": "bytes32"
        },
        {
          "internalType": "address",
          "name": "_operator",
          "type": "address"
        }
      ],
      "name": "revokeOperatorByPartition",
      "outputs": [],
      "stateMutability": "nonpayable",
      "type": "function"
    },
    {
      "inputs": [
        {
          "internalType": "address",
          "name": "_operator",
          "type": "address"
        },
        {
          "internalType": "address",
          "name": "_tokenHolder",
          "type": "address"
        }
      ],
      "name": "isOperator",
      "outputs": [
        {
          "internalType": "bool",
          "name": "",
          "type": "bool"
        }
      ],
      "stateMutability": "view",
      "type": "function",
      "constant": true
    },
    {
      "inputs": [
        {
          "internalType": "bytes32",
          "name": "_partition",
          "type": "bytes32"
        },
        {
          "internalType": "address",
          "name": "_operator",
          "type": "address"
        },
        {
          "internalType": "address",
          "name": "_tokenHolder",
          "type": "address"
        }
      ],
      "name": "isOperatorForPartition",
      "outputs": [
        {
          "internalType": "bool",
          "name": "",
          "type": "bool"
        }
      ],
      "stateMutability": "view",
      "type": "function",
      "constant": true
    },
    {
      "inputs": [],
      "name": "isIssuable",
      "outputs": [
        {
          "internalType": "bool",
          "name": "",
          "type": "bool"
        }
      ],
      "stateMutability": "view",
      "type": "function",
      "constant": true
    },
    {
      "inputs": [
        {
          "internalType": "address",
          "name": "_tokenHolder",
          "type": "address"
        },
        {
          "internalType": "uint256",
          "name": "_value",
          "type": "uint256"
        },
        {
          "internalType": "bytes",
          "name": "_data",
          "type": "bytes"
        }
      ],
      "name": "issue",
      "outputs": [],
      "stateMutability": "nonpayable",
      "type": "function"
    },
    {
      "inputs": [
        {
          "internalType": "bytes32",
          "name": "_partition",
          "type": "bytes32"
        },
        {
          "internalType": "address",
          "name": "_tokenHolder",
          "type": "address"
        },
        {
          "internalType": "uint256",
          "name": "_value",
          "type": "uint256"
        },
        {
          "internalType": "bytes",
          "name": "_data",
          "type": "bytes"
        }
      ],
      "name": "issueByPartition",
      "outputs": [],
      "stateMutability": "nonpayable",
      "type": "function"
    },
    {
      "inputs": [
        {
          "internalType": "uint256",
          "name": "_value",
          "type": "uint256"
        },
        {
          "internalType": "bytes",
          "name": "_data",
          "type": "bytes"
        }
      ],
      "name": "redeem",
      "outputs": [],
      "stateMutability": "nonpayable",
      "type": "function"
    },
    {
      "inputs": [
        {
          "internalType": "address",
          "name": "_tokenHolder",
          "type": "address"
        },
        {
          "internalType": "uint256",
          "name": "_value",
          "type": "uint256"
        },
        {
          "internalType": "bytes",
          "name": "_data",
          "type": "bytes"
        }
      ],
      "name": "redeemFrom",
      "outputs": [],
      "stateMutability": "nonpayable",
      "type": "function"
    },
    {
      "inputs": [
        {
          "internalType": "bytes32",
          "name": "_partition",
          "type": "bytes32"
        },
        {
          "internalType": "uint256",
          "name": "_value",
          "type": "uint256"
        },
        {
          "internalType": "bytes",
          "name": "_data",
          "type": "bytes"
        }
      ],
      "name": "redeemByPartition",
      "outputs": [],
      "stateMutability": "nonpayable",
      "type": "function"
    },
    {
      "inputs": [
        {
          "internalType": "bytes32",
          "name": "_partition",
          "type": "bytes32"
        },
        {
          "internalType": "address",
          "name": "_tokenHolder",
          "type": "address"
        },
        {
          "internalType": "uint256",
          "name": "_value",
          "type": "uint256"
        },
        {
          "internalType": "bytes",
          "name": "_operatorData",
          "type": "bytes"
        }
      ],
      "name": "operatorRedeemByPartition",
      "outputs": [],
      "stateMutability": "nonpayable",
      "type": "function"
    },
    {
      "inputs": [
        {
          "internalType": "address",
          "name": "_to",
          "type": "address"
        },
        {
          "internalType": "uint256",
          "name": "_value",
          "type": "uint256"
        },
        {
          "internalType": "bytes",
          "name": "_data",
          "type": "bytes"
        }
      ],
      "name": "canTransfer",
      "outputs": [
        {
          "internalType": "bytes1",
          "name": "code",
          "type": "bytes1"
        },
        {
          "internalType": "bytes32",
          "name": "reason",
          "type": "bytes32"
        }
      ],
      "stateMutability": "view",
      "type": "function",
      "constant": true
    },
    {
      "inputs": [
        {
          "internalType": "address",
          "name": "_from",
          "type": "address"
        },
        {
          "internalType": "address",
          "name": "_to",
          "type": "address"
        },
        {
          "internalType": "uint256",
          "name": "_value",
          "type": "uint256"
        },
        {
          "internalType": "bytes",
          "name": "_data",
          "type": "bytes"
        }
      ],
      "name": "canTransferFrom",
      "outputs": [
        {
          "internalType": "bytes1",
          "name": "code",
          "type": "bytes1"
        },
        {
          "internalType": "bytes32",
          "name": "reason",
          "type": "bytes32"
        }
      ],
      "stateMutability": "view",
      "type": "function",
      "constant": true
    },
    {
      "inputs": [
        {
          "internalType": "address",
          "name": "_from",
          "type": "address"
        },
        {
          "internalType": "address",
          "name": "_to",
          "type": "address"
        },
        {
          "internalType": "bytes32",
          "name": "_partition",
          "type": "bytes32"
        },
        {
          "internalType": "uint256",
          "name": "_value",
          "type": "uint256"
        },
        {
          "internalType": "bytes",
          "name": "_data",
          "type": "bytes"
        }
      ],
      "name": "canTransferByPartition",
      "outputs": [
        {
          "internalType": "bytes1",
          "name": "",
          "type": "bytes1"
        },
        {
          "internalType": "bytes32",
          "name": "",
          "type": "bytes32"
        },
        {
          "internalType": "bytes32",
          "name": "",
          "type": "bytes32"
        }
      ],
      "stateMutability": "view",
      "type": "function",
      "constant": true
    },
    {
      "inputs": [],
      "name": "totalPartitions",
      "outputs": [
        {
          "internalType": "bytes32[]",
          "name": "",
          "type": "bytes32[]"
        }
      ],
      "stateMutability": "view",
      "type": "function",
      "constant": true
    },
    {
      "inputs": [
        {
          "internalType": "bytes32[]",
          "name": "_newTotalPartitions",
          "type": "bytes32[]"
        }
      ],
      "name": "setTotalPartitions",
      "outputs": [],
      "stateMutability": "nonpayable",
      "type": "function"
    }
  ],
  "bytecode": "0x60806040526000600560146101000a81548160ff0219169083151502179055506001600560156101000a81548160ff0219169083151502179055506001600560166101000a81548160ff0219169083151502179055503480156200006257600080fd5b506040516200655d3803806200655d833981810160405281019062000088919062000553565b8460009080519060200190620000a092919062000144565b508360019080519060200190620000b992919062000144565b5082600481905550600454600a620000d29190620007bb565b6002819055508160038190555033600560006101000a81548173ffffffffffffffffffffffffffffffffffffffff021916908373ffffffffffffffffffffffffffffffffffffffff160217905550806007908051906020019062000138929190620001d5565b50505050505062000871565b82805462000152906200083b565b90600052602060002090601f016020900481019282620001765760008555620001c2565b82601f106200019157805160ff1916838001178555620001c2565b82800160010185558215620001c2579182015b82811115620001c1578251825591602001919060010190620001a4565b5b509050620001d1919062000227565b5090565b82805482825590600052602060002090810192821562000214579160200282015b8281111562000213578251825591602001919060010190620001f6565b5b50905062000223919062000246565b5090565b5b808211156200024257600081600090555060010162000228565b5090565b5b808211156200026157600081600090555060010162000247565b5090565b6000604051905090565b600080fd5b600080fd5b600080fd5b600080fd5b6000601f19601f8301169050919050565b7f4e487b7100000000000000000000000000000000000000000000000000000000600052604160045260246000fd5b620002ce8262000283565b810181811067ffffffffffffffff82111715620002f057620002ef62000294565b5b80604052505050565b60006200030562000265565b9050620003138282620002c3565b919050565b600067ffffffffffffffff82111562000336576200033562000294565b5b620003418262000283565b9050602081019050919050565b60005b838110156200036e57808201518184015260208101905062000351565b838111156200037e576000848401525b50505050565b60006200039b620003958462000318565b620002f9565b905082815260208101848484011115620003ba57620003b96200027e565b5b620003c78482856200034e565b509392505050565b600082601f830112620003e757620003e662000279565b5b8151620003f984826020860162000384565b91505092915050565b6000819050919050565b620004178162000402565b81146200042357600080fd5b50565b60008151905062000437816200040c565b92915050565b600067ffffffffffffffff8211156200045b576200045a62000294565b5b602082029050602081019050919050565b600080fd5b6000819050919050565b620004868162000471565b81146200049257600080fd5b50565b600081519050620004a6816200047b565b92915050565b6000620004c3620004bd846200043d565b620002f9565b90508083825260208201905060208402830185811115620004e957620004e86200046c565b5b835b8181101562000516578062000501888262000495565b845260208401935050602081019050620004eb565b5050509392505050565b600082601f83011262000538576200053762000279565b5b81516200054a848260208601620004ac565b91505092915050565b600080600080600060a086880312156200057257620005716200026f565b5b600086015167ffffffffffffffff81111562000593576200059262000274565b5b620005a188828901620003cf565b955050602086015167ffffffffffffffff811115620005c557620005c462000274565b5b620005d388828901620003cf565b9450506040620005e68882890162000426565b9350506060620005f98882890162000426565b925050608086015167ffffffffffffffff8111156200061d576200061c62000274565b5b6200062b8882890162000520565b9150509295509295909350565b7f4e487b7100000000000000000000000000000000000000000000000000000000600052601160045260246000fd5b60008160011c9050919050565b6000808291508390505b6001851115620006c6578086048111156200069e576200069d62000638565b5b6001851615620006ae5780820291505b8081029050620006be8562000667565b94506200067e565b94509492505050565b600082620006e15760019050620007b4565b81620006f15760009050620007b4565b81600181146200070a576002811462000715576200074b565b6001915050620007b4565b60ff8411156200072a576200072962000638565b5b8360020a91508482111562000744576200074362000638565b5b50620007b4565b5060208310610133831016604e8410600b8410161715620007855782820a9050838111156200077f576200077e62000638565b5b620007b4565b62000794848484600162000674565b92509050818404811115620007ae57620007ad62000638565b5b81810290505b9392505050565b6000620007c88262000402565b9150620007d58362000402565b9250620008047fffffffffffffffffffffffffffffffffffffffffffffffffffffffffffffffff8484620006cf565b905092915050565b7f4e487b7100000000000000000000000000000000000000000000000000000000600052602260045260246000fd5b600060028204905060018216806200085457607f821691505b602082108114156200086b576200086a6200080c565b5b50919050565b615cdc80620008816000396000f3fe608060405234801561001057600080fd5b50600436106102745760003560e01c806370a0823111610151578063b429afeb116100c3578063ec9a6e8711610087578063ec9a6e87146107d0578063ee532f31146107ec578063f282527a14610808578063f3d490db14610824578063f6a74ed714610854578063fad8b32a1461087057610274565b8063b429afeb1461071a578063b4e8a6c41461074a578063b6363cf214610768578063bb3acde914610798578063e77c646d146107b457610274565b806395d89b411161011557806395d89b41146106315780639675193c1461064f57806398ddcec71461066b5780639945e70e14610687578063a9059cbb146106b9578063b10d6b41146106e957610274565b806370a0823114610569578063740ab8f4146105995780638c0dee9c146105c957806392eefe9b146105f9578063959b8c3f1461061557610274565b80632f1cae85116101ea578063556f0dc7116101ae578063556f0dc7146104a957806362eb0068146104c757806367c84919146104e357806369598efe146104ff5780636d77cad61461051d5780636fe8d3a61461054d57610274565b80632f1cae851461040357806330e8280314610421578063313ce567146104515780633d0f68661461046f5780634c783bf51461048b57610274565b8063168ecec51161023c578063168ecec51461033057806318160ddd1461034c5780631badb25c1461036a57806323b872dd1461039b5780632535f762146103cb5780632bc6acc3146103e757610274565b8063010648ca1461027957806306fdde0314610295578063095ea7b3146102b3578063103ef9e1146102e3578063122eb575146102ff575b600080fd5b610293600480360381019061028e91906141df565b61088c565b005b61029d610974565b6040516102aa91906142ec565b60405180910390f35b6102cd60048036038101906102c891906143a2565b610a02565b6040516102da91906143fd565b60405180910390f35b6102fd60048036038101906102f89190614418565b610b39565b005b61031960048036038101906103149190614588565b610c3e565b604051610327929190614655565b60405180910390f35b61034a60048036038101906103459190614418565b610fab565b005b6103546110b0565b604051610361919061468d565b60405180910390f35b610384600480360381019061037f91906146a8565b6110b6565b604051610392929190614655565b60405180910390f35b6103b560048036038101906103b09190614717565b6112e0565b6040516103c291906143fd565b60405180910390f35b6103e560048036038101906103e091906146a8565b61143a565b005b61040160048036038101906103fc91906147c0565b61145d565b005b61040b61150c565b60405161041891906143fd565b60405180910390f35b61043b60048036038101906104369190614418565b611523565b604051610448919061468d565b60405180910390f35b61045961157e565b604051610466919061468d565b60405180910390f35b6104896004803603810190610484919061492a565b611584565b005b61049361159e565b6040516104a091906143fd565b60405180910390f35b6104b16115b5565b6040516104be919061468d565b60405180910390f35b6104e160048036038101906104dc9190614973565b6115bb565b005b6104fd60048036038101906104f891906149e2565b6115ee565b005b610507611824565b6040516105149190614b23565b60405180910390f35b61053760048036038101906105329190614b45565b61187c565b60405161054491906143fd565b60405180910390f35b61056760048036038101906105629190614bc4565b611922565b005b610583600480360381019061057e9190614bf1565b6119cf565b604051610590919061468d565b60405180910390f35b6105b360048036038101906105ae9190614bf1565b611a18565b6040516105c09190614b23565b60405180910390f35b6105e360048036038101906105de9190614c1e565b611b4f565b6040516105f09190614ce3565b60405180910390f35b610613600480360381019061060e9190614bf1565b611e4a565b005b61062f600480360381019061062a9190614bf1565b6120ea565b005b6106396121dc565b60405161064691906142ec565b60405180910390f35b610669600480360381019061066491906146a8565b61226a565b005b610685600480360381019061068091906149e2565b61234b565b005b6106a1600480360381019061069c9190614cfe565b6125cf565b6040516106b093929190614d95565b60405180910390f35b6106d360048036038101906106ce91906143a2565b6127bb565b6040516106e091906143fd565b60405180910390f35b61070360048036038101906106fe9190614dcc565b6127d3565b604051610711929190614df9565b60405180910390f35b610734600480360381019061072f9190614bf1565b6128b2565b60405161074191906143fd565b60405180910390f35b610752612908565b60405161075f9190614ee7565b60405180910390f35b610782600480360381019061077d9190614f09565b612996565b60405161078f91906143fd565b60405180910390f35b6107b260048036038101906107ad9190614f49565b612a2a565b005b6107ce60048036038101906107c99190614fbd565b612c40565b005b6107ea60048036038101906107e5919061506f565b612c61565b005b61080660048036038101906108019190614588565b612c77565b005b610822600480360381019061081d91906150bc565b612dca565b005b61083e600480360381019061083991906149e2565b612e4e565b60405161084b9190614ce3565b60405180910390f35b61086e60048036038101906108699190614bf1565b612e92565b005b61088a60048036038101906108859190614bf1565b6130f9565b005b604051806060016040528085815260200182815260200184848080601f016020809104026020016040519081016040528093929190818152602001838380828437600081840152601f19601f82011690508083019250505050505050815250600c60008681526020019081526020016000206000820151816000015560208201518160010155604082015181600201908051906020019061092e929190613fd6565b50905050837f89730c201d2df6a4cef4e892559e63e022078b0ee939d11b6ced61fb098b2824848484604051610966939291906151a5565b60405180910390a250505050565b6000805461098190615206565b80601f01602080910402602001604051908101604052809291908181526020018280546109ad90615206565b80156109fa5780601f106109cf576101008083540402835291602001916109fa565b820191906000526020600020905b8154815290600101906020018083116109dd57829003601f168201915b505050505081565b60008073ffffffffffffffffffffffffffffffffffffffff168373ffffffffffffffffffffffffffffffffffffffff161415610a73576040517f08c379a0000000000000000000000000000000000000000000000000000000008152600401610a6a90615284565b60405180910390fd5b81600a60003373ffffffffffffffffffffffffffffffffffffffff1673ffffffffffffffffffffffffffffffffffffffff16815260200190815260200160002060008573ffffffffffffffffffffffffffffffffffffffff1673ffffffffffffffffffffffffffffffffffffffff168152602001908152602001600020819055507f8c5be1e5ebec7d5bd14f71427d1e84f3dd0314c0f7b2291e5b200ac8c7c3b925338484604051610b27939291906152b3565b60405180910390a16001905092915050565b6001601160003373ffffffffffffffffffffffffffffffffffffffff1673ffffffffffffffffffffffffffffffffffffffff16815260200190815260200160002060008373ffffffffffffffffffffffffffffffffffffffff1673ffffffffffffffffffffffffffffffffffffffff168152602001908152602001600020600084815260200190815260200160002060006101000a81548160ff0219169083151502179055503373ffffffffffffffffffffffffffffffffffffffff168173ffffffffffffffffffffffffffffffffffffffff16837f3646a897c70797ecc134b0adc32f471b07bf1d6f451133b0384badab531e3fd660405160405180910390a45050565b60008083600b60008873ffffffffffffffffffffffffffffffffffffffff1673ffffffffffffffffffffffffffffffffffffffff168152602001908152602001600020541015610cd3577f52000000000000000000000000000000000000000000000000000000000000007f696e73756666696369656e742062616c616e636500000000000000000000000091509150610fa2565b83600a60008873ffffffffffffffffffffffffffffffffffffffff1673ffffffffffffffffffffffffffffffffffffffff16815260200190815260200160002060003373ffffffffffffffffffffffffffffffffffffffff1673ffffffffffffffffffffffffffffffffffffffff168152602001908152602001600020541015610da2577f53000000000000000000000000000000000000000000000000000000000000007f696e73756666696369656e7420616c6c6f77616e63650000000000000000000091509150610fa2565b600073ffffffffffffffffffffffffffffffffffffffff168573ffffffffffffffffffffffffffffffffffffffff161415610e22577f57000000000000000000000000000000000000000000000000000000000000007f696e76616c69642072656365697665720000000000000000000000000000000091509150610fa2565b600f60008773ffffffffffffffffffffffffffffffffffffffff1673ffffffffffffffffffffffffffffffffffffffff16815260200190815260200160002060003373ffffffffffffffffffffffffffffffffffffffff1673ffffffffffffffffffffffffffffffffffffffff16815260200190815260200160002060009054906101000a900460ff1615610efc577f58000000000000000000000000000000000000000000000000000000000000007f696e76616c6964206f70657261746f720000000000000000000000000000000091509150610fa2565b60011515610f09846131eb565b151514610f5b577f59000000000000000000000000000000000000000000000000000000000000007f696e76616c6964207369676e657200000000000000000000000000000000000091509150610fa2565b7f51000000000000000000000000000000000000000000000000000000000000007f7472616e73666572207375636365737300000000000000000000000000000000915091505b94509492505050565b6000601160003373ffffffffffffffffffffffffffffffffffffffff1673ffffffffffffffffffffffffffffffffffffffff16815260200190815260200160002060008373ffffffffffffffffffffffffffffffffffffffff1673ffffffffffffffffffffffffffffffffffffffff168152602001908152602001600020600084815260200190815260200160002060006101000a81548160ff0219169083151502179055503373ffffffffffffffffffffffffffffffffffffffff168173ffffffffffffffffffffffffffffffffffffffff16837f3b287c4f1bab4df949b33bceacef984f544dc5d5479930d00e4ee8c9d8dd96f260405160405180910390a45050565b60035481565b60008060011515600560149054906101000a900460ff1615151415611120577f55000000000000000000000000000000000000000000000000000000000000007f66756e6473206c6f636b656420286c6f636b757020706572696f642900000000915091506112d8565b600073ffffffffffffffffffffffffffffffffffffffff168573ffffffffffffffffffffffffffffffffffffffff1614156111a0577f57000000000000000000000000000000000000000000000000000000000000007f696e76616c696420726563656976657200000000000000000000000000000000915091506112d8565b83600b60003373ffffffffffffffffffffffffffffffffffffffff1673ffffffffffffffffffffffffffffffffffffffff168152602001908152602001600020541015611232577f52000000000000000000000000000000000000000000000000000000000000007f696e73756666696369656e742062616c616e6365000000000000000000000000915091506112d8565b6001151561123f846131eb565b151514611291577f59000000000000000000000000000000000000000000000000000000000000007f696e76616c6964207369676e6572000000000000000000000000000000000000915091506112d8565b7f51000000000000000000000000000000000000000000000000000000000000007f7472616e73666572207375636365737300000000000000000000000000000000915091505b935093915050565b600081600a60008673ffffffffffffffffffffffffffffffffffffffff1673ffffffffffffffffffffffffffffffffffffffff16815260200190815260200160002060003373ffffffffffffffffffffffffffffffffffffffff1673ffffffffffffffffffffffffffffffffffffffff1681526020019081526020016000205410156113a1576040517f08c379a000000000000000000000000000000000000000000000000000000000815260040161139890615336565b60405180910390fd5b6113ac848484613431565b506000600a60008673ffffffffffffffffffffffffffffffffffffffff1673ffffffffffffffffffffffffffffffffffffffff16815260200190815260200160002060003373ffffffffffffffffffffffffffffffffffffffff1673ffffffffffffffffffffffffffffffffffffffff16815260200190815260200160002081905550600190509392505050565b611443816131eb565b61144c57600080fd5b611457338484613431565b50505050565b6114ac868686868080601f016020809104026020016040519081016040528093929190818152602001838380828437600081840152601f19601f82011690508083019250505050505050613686565b8573ffffffffffffffffffffffffffffffffffffffff167f876b7cb47aa150b3a5516188b19ed308752ad4d0ae9a702543353b78163f75893387878787876040516114fc96959493929190615394565b60405180910390a2505050505050565b6000600560159054906101000a900460ff16905090565b6000600d60008373ffffffffffffffffffffffffffffffffffffffff1673ffffffffffffffffffffffffffffffffffffffff168152602001908152602001600020600084815260200190815260200160002054905092915050565b60045481565b806006908051906020019061159a92919061405c565b5050565b6000600560169054906101000a900460ff16905090565b60025481565b6115c4816131eb565b6115cd57600080fd5b6115e9833384846040518060200160405280600081525061379a565b505050565b600560009054906101000a900473ffffffffffffffffffffffffffffffffffffffff1673ffffffffffffffffffffffffffffffffffffffff163373ffffffffffffffffffffffffffffffffffffffff161461167e576040517f08c379a000000000000000000000000000000000000000000000000000000000815260040161167590615437565b60405180910390fd5b600560159054906101000a900460ff166116cd576040517f08c379a00000000000000000000000000000000000000000000000000000000081526004016116c4906154a3565b60405180910390fd5b6000600254836116dd91906154f2565b905080600d60008673ffffffffffffffffffffffffffffffffffffffff1673ffffffffffffffffffffffffffffffffffffffff1681526020019081526020016000206000878152602001908152602001600020600082825461173f919061554c565b9250508190555080600b60008673ffffffffffffffffffffffffffffffffffffffff1673ffffffffffffffffffffffffffffffffffffffff1681526020019081526020016000206000828254611795919061554c565b9250508190555080600360008282546117ae919061554c565b925050819055508373ffffffffffffffffffffffffffffffffffffffff163373ffffffffffffffffffffffffffffffffffffffff16867ff0ded82afbb1bb3ff3fc48cb2a26584aa84e4af0bf309c804ecdb94d0f6a98bb848660405161181592919061560c565b60405180910390a45050505050565b6060600680548060200260200160405190810160405280929190818152602001828054801561187257602002820191906000526020600020905b81548152602001906001019080831161185e575b5050505050905090565b6000601160008373ffffffffffffffffffffffffffffffffffffffff1673ffffffffffffffffffffffffffffffffffffffff16815260200190815260200160002060008473ffffffffffffffffffffffffffffffffffffffff1673ffffffffffffffffffffffffffffffffffffffff168152602001908152602001600020600085815260200190815260200160002060009054906101000a900460ff1690509392505050565b600560009054906101000a900473ffffffffffffffffffffffffffffffffffffffff1673ffffffffffffffffffffffffffffffffffffffff163373ffffffffffffffffffffffffffffffffffffffff16146119b2576040517f08c379a00000000000000000000000000000000000000000000000000000000081526004016119a990615437565b60405180910390fd5b80600560166101000a81548160ff02191690831515021790555050565b6000600b60008373ffffffffffffffffffffffffffffffffffffffff1673ffffffffffffffffffffffffffffffffffffffff168152602001908152602001600020549050919050565b6060600060068054905067ffffffffffffffff811115611a3b57611a3a61445d565b5b604051908082528060200260200182016040528015611a695781602001602082028036833780820191505090505b50905060005b600680549050811015611b45576000600d60008673ffffffffffffffffffffffffffffffffffffffff1673ffffffffffffffffffffffffffffffffffffffff168152602001908152602001600020600060068481548110611ad357611ad261564f565b5b90600052602060002001548152602001908152602001600020541115611b325760068181548110611b0757611b0661564f565b5b9060005260206000200154828281518110611b2557611b2461564f565b5b6020026020010181815250505b8080611b3d9061567e565b915050611a6f565b5080915050919050565b6000611b5a826131eb565b611b99576040517f08c379a0000000000000000000000000000000000000000000000000000000008152600401611b9090615713565b60405180910390fd5b60011515600560169054906101000a900460ff161515148015611c055750601260003373ffffffffffffffffffffffffffffffffffffffff1673ffffffffffffffffffffffffffffffffffffffff16815260200190815260200160002060009054906101000a900460ff165b15611ca757611c36878787876040518060200160405280600081525060405180602001604052806000815250613ba1565b508473ffffffffffffffffffffffffffffffffffffffff168673ffffffffffffffffffffffffffffffffffffffff167f6bf62b4b9c7b768275122bf70d429efc398a056d669b1efdf6c3976346246d7d33878787604051611c9a9493929190615733565b60405180910390a3611e40565b601160008773ffffffffffffffffffffffffffffffffffffffff1673ffffffffffffffffffffffffffffffffffffffff16815260200190815260200160002060003373ffffffffffffffffffffffffffffffffffffffff1673ffffffffffffffffffffffffffffffffffffffff168152602001908152602001600020600088815260200190815260200160002060009054906101000a900460ff1680611dd35750600f60008773ffffffffffffffffffffffffffffffffffffffff1673ffffffffffffffffffffffffffffffffffffffff16815260200190815260200160002060003373ffffffffffffffffffffffffffffffffffffffff1673ffffffffffffffffffffffffffffffffffffffff16815260200190815260200160002060009054906101000a900460ff165b611e12576040517f08c379a0000000000000000000000000000000000000000000000000000000008152600401611e0990615437565b60405180910390fd5b611e3e878787876040518060200160405280600081525060405180602001604052806000815250613ba1565b505b9695505050505050565b600560009054906101000a900473ffffffffffffffffffffffffffffffffffffffff1673ffffffffffffffffffffffffffffffffffffffff163373ffffffffffffffffffffffffffffffffffffffff1614611eda576040517f08c379a0000000000000000000000000000000000000000000000000000000008152600401611ed190615437565b60405180910390fd5b600073ffffffffffffffffffffffffffffffffffffffff168173ffffffffffffffffffffffffffffffffffffffff161415611f4a576040517f08c379a0000000000000000000000000000000000000000000000000000000008152600401611f4190615284565b60405180910390fd5b601260008273ffffffffffffffffffffffffffffffffffffffff1673ffffffffffffffffffffffffffffffffffffffff16815260200190815260200160002060009054906101000a900460ff1615611fd7576040517f08c379a0000000000000000000000000000000000000000000000000000000008152600401611fce906157d2565b60405180910390fd5b6001601260008373ffffffffffffffffffffffffffffffffffffffff1673ffffffffffffffffffffffffffffffffffffffff16815260200190815260200160002060006101000a81548160ff0219169083151502179055506008819080600181540180825580915050600190039060005260206000200160009091909190916101000a81548173ffffffffffffffffffffffffffffffffffffffff021916908373ffffffffffffffffffffffffffffffffffffffff16021790555060016008805490506120a491906157f2565b601360008373ffffffffffffffffffffffffffffffffffffffff1673ffffffffffffffffffffffffffffffffffffffff1681526020019081526020016000208190555050565b6001600f60003373ffffffffffffffffffffffffffffffffffffffff1673ffffffffffffffffffffffffffffffffffffffff16815260200190815260200160002060008373ffffffffffffffffffffffffffffffffffffffff1673ffffffffffffffffffffffffffffffffffffffff16815260200190815260200160002060006101000a81548160ff0219169083151502179055503373ffffffffffffffffffffffffffffffffffffffff168173ffffffffffffffffffffffffffffffffffffffff167ff4caeb2d6ca8932a215a353d0703c326ec2d81fc68170f320eb2ab49e9df61f960405160405180910390a350565b600180546121e990615206565b80601f016020809104026020016040519081016040528092919081815260200182805461221590615206565b80156122625780601f1061223757610100808354040283529160200191612262565b820191906000526020600020905b81548152906001019060200180831161224557829003601f168201915b505050505081565b612273816131eb565b61227c57600080fd5b81600a60008573ffffffffffffffffffffffffffffffffffffffff1673ffffffffffffffffffffffffffffffffffffffff16815260200190815260200160002060003373ffffffffffffffffffffffffffffffffffffffff1673ffffffffffffffffffffffffffffffffffffffff16815260200190815260200160002054101561233b576040517f08c379a000000000000000000000000000000000000000000000000000000000815260040161233290615336565b60405180910390fd5b612346838383613686565b505050565b612354816131eb565b61235d57600080fd5b60011515600560169054906101000a900460ff1615151480156123c95750601260003373ffffffffffffffffffffffffffffffffffffffff1673ffffffffffffffffffffffffffffffffffffffff16815260200190815260200160002060009054906101000a900460ff165b15612441576123ea848484604051806020016040528060008152508561379a565b8273ffffffffffffffffffffffffffffffffffffffff167f876b7cb47aa150b3a5516188b19ed308752ad4d0ae9a702543353b78163f758933848460405161243493929190615826565b60405180910390a26125c9565b600f60008473ffffffffffffffffffffffffffffffffffffffff1673ffffffffffffffffffffffffffffffffffffffff16815260200190815260200160002060003373ffffffffffffffffffffffffffffffffffffffff1673ffffffffffffffffffffffffffffffffffffffff16815260200190815260200160002060009054906101000a900460ff168061256d5750601160008473ffffffffffffffffffffffffffffffffffffffff1673ffffffffffffffffffffffffffffffffffffffff16815260200190815260200160002060003373ffffffffffffffffffffffffffffffffffffffff1673ffffffffffffffffffffffffffffffffffffffff168152602001908152602001600020600085815260200190815260200160002060009054906101000a900460ff165b6125ac576040517f08c379a00000000000000000000000000000000000000000000000000000000081526004016125a390615284565b60405180910390fd5b6125c8848484604051806020016040528060008152508561379a565b5b50505050565b60008060008073ffffffffffffffffffffffffffffffffffffffff168773ffffffffffffffffffffffffffffffffffffffff16141561265857857f5500000000000000000000000000000000000000000000000000000000000000907f696e76616c696420726563656976657200000000000000000000000000000000909250925092506127b0565b600d60008973ffffffffffffffffffffffffffffffffffffffff1673ffffffffffffffffffffffffffffffffffffffff16815260200190815260200160002060008781526020019081526020016000205485111561270057857f5500000000000000000000000000000000000000000000000000000000000000907f696e73756666696369656e742062616c616e6365000000000000000000000000909250925092506127b0565b6001151561270d856131eb565b15151461276457857f5900000000000000000000000000000000000000000000000000000000000000907f696e76616c6964207369676e6572000000000000000000000000000000000000909250925092506127b0565b857f5100000000000000000000000000000000000000000000000000000000000000907f7472616e73666572207375636365737300000000000000000000000000000000909250925092505b955095509592505050565b60006127c8338484613431565b506001905092915050565b6060600080600c6000858152602001908152602001600020604051806060016040529081600082015481526020016001820154815260200160028201805461281a90615206565b80601f016020809104026020016040519081016040528092919081815260200182805461284690615206565b80156128935780601f1061286857610100808354040283529160200191612893565b820191906000526020600020905b81548152906001019060200180831161287657829003601f168201915b5050505050815250509050806040015181602001519250925050915091565b6000601260008373ffffffffffffffffffffffffffffffffffffffff1673ffffffffffffffffffffffffffffffffffffffff16815260200190815260200160002060009054906101000a900460ff169050919050565b6060600880548060200260200160405190810160405280929190818152602001828054801561298c57602002820191906000526020600020905b8160009054906101000a900473ffffffffffffffffffffffffffffffffffffffff1673ffffffffffffffffffffffffffffffffffffffff1681526020019060010190808311612942575b5050505050905090565b6000600f60008373ffffffffffffffffffffffffffffffffffffffff1673ffffffffffffffffffffffffffffffffffffffff16815260200190815260200160002060008473ffffffffffffffffffffffffffffffffffffffff1673ffffffffffffffffffffffffffffffffffffffff16815260200190815260200160002060009054906101000a900460ff16905092915050565b600560009054906101000a900473ffffffffffffffffffffffffffffffffffffffff1673ffffffffffffffffffffffffffffffffffffffff163373ffffffffffffffffffffffffffffffffffffffff1614612aba576040517f08c379a0000000000000000000000000000000000000000000000000000000008152600401612ab190615437565b60405180910390fd5b600560159054906101000a900460ff16612b09576040517f08c379a0000000000000000000000000000000000000000000000000000000008152600401612b00906154a3565b60405180910390fd5b600073ffffffffffffffffffffffffffffffffffffffff168473ffffffffffffffffffffffffffffffffffffffff161415612b79576040517f08c379a0000000000000000000000000000000000000000000000000000000008152600401612b70906158c3565b60405180910390fd5b600060025484612b8991906154f2565b905080600b60008773ffffffffffffffffffffffffffffffffffffffff1673ffffffffffffffffffffffffffffffffffffffff1681526020019081526020016000206000828254612bda919061554c565b925050819055508060036000828254612bf3919061554c565b925050819055507f5a1f7f24a8d262d4fd95d7324e83dcdd93b4b9911cc5f45cac5a0382242953a4858260035442604051612c3194939291906158e3565b60405180910390a15050505050565b612c49816131eb565b612c5257600080fd5b612c5d338383613686565b5050565b818160079190612c729291906140a9565b505050565b81600a60008673ffffffffffffffffffffffffffffffffffffffff1673ffffffffffffffffffffffffffffffffffffffff16815260200190815260200160002060003373ffffffffffffffffffffffffffffffffffffffff1673ffffffffffffffffffffffffffffffffffffffff168152602001908152602001600020541015612d36576040517f08c379a0000000000000000000000000000000000000000000000000000000008152600401612d2d90615336565b60405180910390fd5b612d41848484613431565b506000600a60008673ffffffffffffffffffffffffffffffffffffffff1673ffffffffffffffffffffffffffffffffffffffff16815260200190815260200160002060003373ffffffffffffffffffffffffffffffffffffffff1673ffffffffffffffffffffffffffffffffffffffff1681526020019081526020016000208190555050505050565b612dd5878787613431565b508573ffffffffffffffffffffffffffffffffffffffff168773ffffffffffffffffffffffffffffffffffffffff167f6bf62b4b9c7b768275122bf70d429efc398a056d669b1efdf6c3976346246d7d338888888888604051612e3d96959493929190615394565b60405180910390a350505050505050565b60006001825114612e6c57612e62826131eb565b612e6b57600080fd5b5b612e89853386868660405180602001604052806000815250613ba1565b50949350505050565b600560009054906101000a900473ffffffffffffffffffffffffffffffffffffffff1673ffffffffffffffffffffffffffffffffffffffff163373ffffffffffffffffffffffffffffffffffffffff1614612f22576040517f08c379a0000000000000000000000000000000000000000000000000000000008152600401612f1990615437565b60405180910390fd5b600073ffffffffffffffffffffffffffffffffffffffff168173ffffffffffffffffffffffffffffffffffffffff161415612f92576040517f08c379a0000000000000000000000000000000000000000000000000000000008152600401612f8990615284565b60405180910390fd5b601260008273ffffffffffffffffffffffffffffffffffffffff1673ffffffffffffffffffffffffffffffffffffffff16815260200190815260200160002060009054906101000a900460ff1661301e576040517f08c379a000000000000000000000000000000000000000000000000000000000815260040161301590615284565b60405180910390fd5b6000601260008373ffffffffffffffffffffffffffffffffffffffff1673ffffffffffffffffffffffffffffffffffffffff16815260200190815260200160002060006101000a81548160ff0219169083151502179055506008601360008373ffffffffffffffffffffffffffffffffffffffff1673ffffffffffffffffffffffffffffffffffffffff16815260200190815260200160002054815481106130c9576130c861564f565b5b9060005260206000200160006101000a81549073ffffffffffffffffffffffffffffffffffffffff021916905550565b6000600f60003373ffffffffffffffffffffffffffffffffffffffff1673ffffffffffffffffffffffffffffffffffffffff16815260200190815260200160002060008373ffffffffffffffffffffffffffffffffffffffff1673ffffffffffffffffffffffffffffffffffffffff16815260200190815260200160002060006101000a81548160ff0219169083151502179055503373ffffffffffffffffffffffffffffffffffffffff168173ffffffffffffffffffffffffffffffffffffffff167f50546e66e5f44d728365dc3908c63bc5cfeeab470722c1677e3073a6ac294aa160405160405180910390a350565b600080600080600073__Certificate___________________________63447a06f5876040518263ffffffff1660e01b815260040161322a9190615972565b600060405180830381865af4158015613247573d6000803e3d6000fd5b505050506040513d6000823e3d601f19601f820116820180604052508101906132709190615a2e565b93509350935093508180156132825750805b6132c1576040517f08c379a00000000000000000000000000000000000000000000000000000000081526004016132b890615afd565b60405180910390fd5b600073__Certificate___________________________63e198932686866040518363ffffffff1660e01b81526004016132fc929190615b2c565b602060405180830381865af4158015613319573d6000803e3d6000fd5b505050506040513d601f19601f8201168201806040525081019061333d9190615b71565b90508073ffffffffffffffffffffffffffffffffffffffff16600560009054906101000a900473ffffffffffffffffffffffffffffffffffffffff1673ffffffffffffffffffffffffffffffffffffffff1614806133e45750601260008273ffffffffffffffffffffffffffffffffffffffff1673ffffffffffffffffffffffffffffffffffffffff16815260200190815260200160002060009054906101000a900460ff165b613423576040517f08c379a000000000000000000000000000000000000000000000000000000000815260040161341a90615bea565b60405180910390fd5b600195505050505050919050565b60008073ffffffffffffffffffffffffffffffffffffffff168373ffffffffffffffffffffffffffffffffffffffff1614156134a2576040517f08c379a0000000000000000000000000000000000000000000000000000000008152600401613499906158c3565b60405180910390fd5b81600b60008673ffffffffffffffffffffffffffffffffffffffff1673ffffffffffffffffffffffffffffffffffffffff168152602001908152602001600020541015613524576040517f08c379a000000000000000000000000000000000000000000000000000000000815260040161351b90615c56565b60405180910390fd5b81600b60008673ffffffffffffffffffffffffffffffffffffffff1673ffffffffffffffffffffffffffffffffffffffff1681526020019081526020016000205461356f91906157f2565b600b60008673ffffffffffffffffffffffffffffffffffffffff1673ffffffffffffffffffffffffffffffffffffffff1681526020019081526020016000208190555081600b60008573ffffffffffffffffffffffffffffffffffffffff1673ffffffffffffffffffffffffffffffffffffffff168152602001908152602001600020546135fd919061554c565b600b60008573ffffffffffffffffffffffffffffffffffffffff1673ffffffffffffffffffffffffffffffffffffffff168152602001908152602001600020819055507fddf252ad1be2c89b69c2b068fc378daa952ba7f163c4a11628f55a4df523b3ef848484604051613673939291906152b3565b60405180910390a1600190509392505050565b81600b60008573ffffffffffffffffffffffffffffffffffffffff1673ffffffffffffffffffffffffffffffffffffffff168152602001908152602001600020541015613708576040517f08c379a00000000000000000000000000000000000000000000000000000000081526004016136ff90615c56565b60405180910390fd5b61371483600084613431565b50816003600082825461372791906157f2565b925050819055508273ffffffffffffffffffffffffffffffffffffffff163373ffffffffffffffffffffffffffffffffffffffff167fb7d0d6b60740753e9f16692a2f479472a1385aec2420fa43225b02f2ffa1afe7848460405161378d929190615c76565b60405180910390a3505050565b600073ffffffffffffffffffffffffffffffffffffffff163373ffffffffffffffffffffffffffffffffffffffff16141561380a576040517f08c379a000000000000000000000000000000000000000000000000000000000815260040161380190615437565b60405180910390fd5b82600d60008673ffffffffffffffffffffffffffffffffffffffff1673ffffffffffffffffffffffffffffffffffffffff168152602001908152602001600020600087815260200190815260200160002054101561389d576040517f08c379a000000000000000000000000000000000000000000000000000000000815260040161389490615c56565b60405180910390fd5b82600d60008673ffffffffffffffffffffffffffffffffffffffff1673ffffffffffffffffffffffffffffffffffffffff1681526020019081526020016000206000878152602001908152602001600020546138f991906157f2565b600d60008673ffffffffffffffffffffffffffffffffffffffff1673ffffffffffffffffffffffffffffffffffffffff16815260200190815260200160002060008781526020019081526020016000208190555082600b60008673ffffffffffffffffffffffffffffffffffffffff1673ffffffffffffffffffffffffffffffffffffffff1681526020019081526020016000205461399891906157f2565b600b60008673ffffffffffffffffffffffffffffffffffffffff1673ffffffffffffffffffffffffffffffffffffffff1681526020019081526020016000208190555082600d60008073ffffffffffffffffffffffffffffffffffffffff1673ffffffffffffffffffffffffffffffffffffffff168152602001908152602001600020600087815260200190815260200160002054613a37919061554c565b600d60008073ffffffffffffffffffffffffffffffffffffffff1673ffffffffffffffffffffffffffffffffffffffff16815260200190815260200160002060008781526020019081526020016000208190555082600b60008073ffffffffffffffffffffffffffffffffffffffff1673ffffffffffffffffffffffffffffffffffffffff16815260200190815260200160002054613ad6919061554c565b600b60008073ffffffffffffffffffffffffffffffffffffffff1673ffffffffffffffffffffffffffffffffffffffff168152602001908152602001600020819055508260036000828254613b2b91906157f2565b925050819055508373ffffffffffffffffffffffffffffffffffffffff163373ffffffffffffffffffffffffffffffffffffffff16867fce306c3dbc4a497124b5a4f2be8388b41084c1d74663da27ecee1186c00239bf8685604051613b92929190615c76565b60405180910390a45050505050565b600083600d60008873ffffffffffffffffffffffffffffffffffffffff1673ffffffffffffffffffffffffffffffffffffffff1681526020019081526020016000206000898152602001908152602001600020541015613c36576040517f08c379a0000000000000000000000000000000000000000000000000000000008152600401613c2d90615c56565b60405180910390fd5b600073ffffffffffffffffffffffffffffffffffffffff168573ffffffffffffffffffffffffffffffffffffffff161415613ca6576040517f08c379a0000000000000000000000000000000000000000000000000000000008152600401613c9d906158c3565b60405180910390fd5b83600d60008873ffffffffffffffffffffffffffffffffffffffff1673ffffffffffffffffffffffffffffffffffffffff168152602001908152602001600020600089815260200190815260200160002054613d0291906157f2565b600d60008873ffffffffffffffffffffffffffffffffffffffff1673ffffffffffffffffffffffffffffffffffffffff16815260200190815260200160002060008981526020019081526020016000208190555083600b60008873ffffffffffffffffffffffffffffffffffffffff1673ffffffffffffffffffffffffffffffffffffffff16815260200190815260200160002054613da191906157f2565b600b60008873ffffffffffffffffffffffffffffffffffffffff1673ffffffffffffffffffffffffffffffffffffffff1681526020019081526020016000208190555083600d60008773ffffffffffffffffffffffffffffffffffffffff1673ffffffffffffffffffffffffffffffffffffffff168152602001908152602001600020600089815260200190815260200160002054613e40919061554c565b600d60008773ffffffffffffffffffffffffffffffffffffffff1673ffffffffffffffffffffffffffffffffffffffff16815260200190815260200160002060008981526020019081526020016000208190555083600b60008773ffffffffffffffffffffffffffffffffffffffff1673ffffffffffffffffffffffffffffffffffffffff16815260200190815260200160002054613edf919061554c565b600b60008773ffffffffffffffffffffffffffffffffffffffff1673ffffffffffffffffffffffffffffffffffffffff168152602001908152602001600020819055508473ffffffffffffffffffffffffffffffffffffffff163373ffffffffffffffffffffffffffffffffffffffff16887fff4e9a26af4eb73b8bacfaa4abd4fea03d9448e7b912dc5ff4019048875aa2d433888888604051613f869493929190615733565b60405180910390a47fddf252ad1be2c89b69c2b068fc378daa952ba7f163c4a11628f55a4df523b3ef868686604051613fc1939291906152b3565b60405180910390a18690509695505050505050565b828054613fe290615206565b90600052602060002090601f016020900481019282614004576000855561404b565b82601f1061401d57805160ff191683800117855561404b565b8280016001018555821561404b579182015b8281111561404a57825182559160200191906001019061402f565b5b50905061405891906140f6565b5090565b828054828255906000526020600020908101928215614098579160200282015b8281111561409757825182559160200191906001019061407c565b5b5090506140a59190614113565b5090565b8280548282559060005260206000209081019282156140e5579160200282015b828111156140e45782358255916020019190600101906140c9565b5b5090506140f29190614113565b5090565b5b8082111561410f5760008160009055506001016140f7565b5090565b5b8082111561412c576000816000905550600101614114565b5090565b6000604051905090565b600080fd5b600080fd5b6000819050919050565b61415781614144565b811461416257600080fd5b50565b6000813590506141748161414e565b92915050565b600080fd5b600080fd5b600080fd5b60008083601f84011261419f5761419e61417a565b5b8235905067ffffffffffffffff8111156141bc576141bb61417f565b5b6020830191508360018202830111156141d8576141d7614184565b5b9250929050565b600080600080606085870312156141f9576141f861413a565b5b600061420787828801614165565b945050602085013567ffffffffffffffff8111156142285761422761413f565b5b61423487828801614189565b9350935050604061424787828801614165565b91505092959194509250565b600081519050919050565b600082825260208201905092915050565b60005b8381101561428d578082015181840152602081019050614272565b8381111561429c576000848401525b50505050565b6000601f19601f8301169050919050565b60006142be82614253565b6142c8818561425e565b93506142d881856020860161426f565b6142e1816142a2565b840191505092915050565b6000602082019050818103600083015261430681846142b3565b905092915050565b600073ffffffffffffffffffffffffffffffffffffffff82169050919050565b60006143398261430e565b9050919050565b6143498161432e565b811461435457600080fd5b50565b60008135905061436681614340565b92915050565b6000819050919050565b61437f8161436c565b811461438a57600080fd5b50565b60008135905061439c81614376565b92915050565b600080604083850312156143b9576143b861413a565b5b60006143c785828601614357565b92505060206143d88582860161438d565b9150509250929050565b60008115159050919050565b6143f7816143e2565b82525050565b600060208201905061441260008301846143ee565b92915050565b6000806040838503121561442f5761442e61413a565b5b600061443d85828601614165565b925050602061444e85828601614357565b9150509250929050565b600080fd5b7f4e487b7100000000000000000000000000000000000000000000000000000000600052604160045260246000fd5b614495826142a2565b810181811067ffffffffffffffff821117156144b4576144b361445d565b5b80604052505050565b60006144c7614130565b90506144d3828261448c565b919050565b600067ffffffffffffffff8211156144f3576144f261445d565b5b6144fc826142a2565b9050602081019050919050565b82818337600083830152505050565b600061452b614526846144d8565b6144bd565b90508281526020810184848401111561454757614546614458565b5b614552848285614509565b509392505050565b600082601f83011261456f5761456e61417a565b5b813561457f848260208601614518565b91505092915050565b600080600080608085870312156145a2576145a161413a565b5b60006145b087828801614357565b94505060206145c187828801614357565b93505060406145d28782880161438d565b925050606085013567ffffffffffffffff8111156145f3576145f261413f565b5b6145ff8782880161455a565b91505092959194509250565b60007fff0000000000000000000000000000000000000000000000000000000000000082169050919050565b6146408161460b565b82525050565b61464f81614144565b82525050565b600060408201905061466a6000830185614637565b6146776020830184614646565b9392505050565b6146878161436c565b82525050565b60006020820190506146a2600083018461467e565b92915050565b6000806000606084860312156146c1576146c061413a565b5b60006146cf86828701614357565b93505060206146e08682870161438d565b925050604084013567ffffffffffffffff8111156147015761470061413f565b5b61470d8682870161455a565b9150509250925092565b6000806000606084860312156147305761472f61413a565b5b600061473e86828701614357565b935050602061474f86828701614357565b92505060406147608682870161438d565b9150509250925092565b60008083601f8401126147805761477f61417a565b5b8235905067ffffffffffffffff81111561479d5761479c61417f565b5b6020830191508360018202830111156147b9576147b8614184565b5b9250929050565b600080600080600080608087890312156147dd576147dc61413a565b5b60006147eb89828a01614357565b96505060206147fc89828a0161438d565b955050604087013567ffffffffffffffff81111561481d5761481c61413f565b5b61482989828a0161476a565b9450945050606087013567ffffffffffffffff81111561484c5761484b61413f565b5b61485889828a0161476a565b92509250509295509295509295565b600067ffffffffffffffff8211156148825761488161445d565b5b602082029050602081019050919050565b60006148a66148a184614867565b6144bd565b905080838252602082019050602084028301858111156148c9576148c8614184565b5b835b818110156148f257806148de8882614165565b8452602084019350506020810190506148cb565b5050509392505050565b600082601f8301126149115761491061417a565b5b8135614921848260208601614893565b91505092915050565b6000602082840312156149405761493f61413a565b5b600082013567ffffffffffffffff81111561495e5761495d61413f565b5b61496a848285016148fc565b91505092915050565b60008060006060848603121561498c5761498b61413a565b5b600061499a86828701614165565b93505060206149ab8682870161438d565b925050604084013567ffffffffffffffff8111156149cc576149cb61413f565b5b6149d88682870161455a565b9150509250925092565b600080600080608085870312156149fc576149fb61413a565b5b6000614a0a87828801614165565b9450506020614a1b87828801614357565b9350506040614a2c8782880161438d565b925050606085013567ffffffffffffffff811115614a4d57614a4c61413f565b5b614a598782880161455a565b91505092959194509250565b600081519050919050565b600082825260208201905092915050565b6000819050602082019050919050565b614a9a81614144565b82525050565b6000614aac8383614a91565b60208301905092915050565b6000602082019050919050565b6000614ad082614a65565b614ada8185614a70565b9350614ae583614a81565b8060005b83811015614b16578151614afd8882614aa0565b9750614b0883614ab8565b925050600181019050614ae9565b5085935050505092915050565b60006020820190508181036000830152614b3d8184614ac5565b905092915050565b600080600060608486031215614b5e57614b5d61413a565b5b6000614b6c86828701614165565b9350506020614b7d86828701614357565b9250506040614b8e86828701614357565b9150509250925092565b614ba1816143e2565b8114614bac57600080fd5b50565b600081359050614bbe81614b98565b92915050565b600060208284031215614bda57614bd961413a565b5b6000614be884828501614baf565b91505092915050565b600060208284031215614c0757614c0661413a565b5b6000614c1584828501614357565b91505092915050565b60008060008060008060c08789031215614c3b57614c3a61413a565b5b6000614c4989828a01614165565b9650506020614c5a89828a01614357565b9550506040614c6b89828a01614357565b9450506060614c7c89828a0161438d565b935050608087013567ffffffffffffffff811115614c9d57614c9c61413f565b5b614ca989828a0161455a565b92505060a087013567ffffffffffffffff811115614cca57614cc961413f565b5b614cd689828a0161455a565b9150509295509295509295565b6000602082019050614cf86000830184614646565b92915050565b600080600080600060a08688031215614d1a57614d1961413a565b5b6000614d2888828901614357565b9550506020614d3988828901614357565b9450506040614d4a88828901614165565b9350506060614d5b8882890161438d565b925050608086013567ffffffffffffffff811115614d7c57614d7b61413f565b5b614d888882890161455a565b9150509295509295909350565b6000606082019050614daa6000830186614637565b614db76020830185614646565b614dc46040830184614646565b949350505050565b600060208284031215614de257614de161413a565b5b6000614df084828501614165565b91505092915050565b60006040820190508181036000830152614e1381856142b3565b9050614e226020830184614646565b9392505050565b600081519050919050565b600082825260208201905092915050565b6000819050602082019050919050565b614e5e8161432e565b82525050565b6000614e708383614e55565b60208301905092915050565b6000602082019050919050565b6000614e9482614e29565b614e9e8185614e34565b9350614ea983614e45565b8060005b83811015614eda578151614ec18882614e64565b9750614ecc83614e7c565b925050600181019050614ead565b5085935050505092915050565b60006020820190508181036000830152614f018184614e89565b905092915050565b60008060408385031215614f2057614f1f61413a565b5b6000614f2e85828601614357565b9250506020614f3f85828601614357565b9150509250929050565b60008060008060608587031215614f6357614f6261413a565b5b6000614f7187828801614357565b9450506020614f828782880161438d565b935050604085013567ffffffffffffffff811115614fa357614fa261413f565b5b614faf8782880161476a565b925092505092959194509250565b60008060408385031215614fd457614fd361413a565b5b6000614fe28582860161438d565b925050602083013567ffffffffffffffff8111156150035761500261413f565b5b61500f8582860161455a565b9150509250929050565b60008083601f84011261502f5761502e61417a565b5b8235905067ffffffffffffffff81111561504c5761504b61417f565b5b60208301915083602082028301111561506857615067614184565b5b9250929050565b600080602083850312156150865761508561413a565b5b600083013567ffffffffffffffff8111156150a4576150a361413f565b5b6150b085828601615019565b92509250509250929050565b600080600080600080600060a0888a0312156150db576150da61413a565b5b60006150e98a828b01614357565b97505060206150fa8a828b01614357565b965050604061510b8a828b0161438d565b955050606088013567ffffffffffffffff81111561512c5761512b61413f565b5b6151388a828b0161476a565b9450945050608088013567ffffffffffffffff81111561515b5761515a61413f565b5b6151678a828b0161476a565b925092505092959891949750929550565b6000615184838561425e565b9350615191838584614509565b61519a836142a2565b840190509392505050565b600060408201905081810360008301526151c0818587615178565b90506151cf6020830184614646565b949350505050565b7f4e487b7100000000000000000000000000000000000000000000000000000000600052602260045260246000fd5b6000600282049050600182168061521e57607f821691505b60208210811415615232576152316151d7565b5b50919050565b7f3078353800000000000000000000000000000000000000000000000000000000600082015250565b600061526e60048361425e565b915061527982615238565b602082019050919050565b6000602082019050818103600083015261529d81615261565b9050919050565b6152ad8161432e565b82525050565b60006060820190506152c860008301866152a4565b6152d560208301856152a4565b6152e2604083018461467e565b949350505050565b7f3078353300000000000000000000000000000000000000000000000000000000600082015250565b600061532060048361425e565b915061532b826152ea565b602082019050919050565b6000602082019050818103600083015261534f81615313565b9050919050565b600082825260208201905092915050565b60006153738385615356565b9350615380838584614509565b615389836142a2565b840190509392505050565b60006080820190506153a960008301896152a4565b6153b6602083018861467e565b81810360408301526153c9818688615367565b905081810360608301526153de818486615367565b9050979650505050505050565b7f3078353600000000000000000000000000000000000000000000000000000000600082015250565b600061542160048361425e565b915061542c826153eb565b602082019050919050565b6000602082019050818103600083015261545081615414565b9050919050565b7f3078353500000000000000000000000000000000000000000000000000000000600082015250565b600061548d60048361425e565b915061549882615457565b602082019050919050565b600060208201905081810360008301526154bc81615480565b9050919050565b7f4e487b7100000000000000000000000000000000000000000000000000000000600052601160045260246000fd5b60006154fd8261436c565b91506155088361436c565b9250817fffffffffffffffffffffffffffffffffffffffffffffffffffffffffffffffff0483118215151615615541576155406154c3565b5b828202905092915050565b60006155578261436c565b91506155628361436c565b9250827fffffffffffffffffffffffffffffffffffffffffffffffffffffffffffffffff03821115615597576155966154c3565b5b828201905092915050565b600081519050919050565b60006155b8826155a2565b6155c28185615356565b93506155d281856020860161426f565b6155db816142a2565b840191505092915050565b50565b60006155f6600083615356565b9150615601826155e6565b600082019050919050565b6000606082019050615621600083018561467e565b818103602083015261563381846155ad565b90508181036040830152615646816155e9565b90509392505050565b7f4e487b7100000000000000000000000000000000000000000000000000000000600052603260045260246000fd5b60006156898261436c565b91507fffffffffffffffffffffffffffffffffffffffffffffffffffffffffffffffff8214156156bc576156bb6154c3565b5b600182019050919050565b7f63616e7420766572696679206461746100000000000000000000000000000000600082015250565b60006156fd60108361425e565b9150615708826156c7565b602082019050919050565b6000602082019050818103600083015261572c816156f0565b9050919050565b600060808201905061574860008301876152a4565b615755602083018661467e565b818103604083015261576781856155ad565b9050818103606083015261577b81846155ad565b905095945050505050565b7f4143430000000000000000000000000000000000000000000000000000000000600082015250565b60006157bc60038361425e565b91506157c782615786565b602082019050919050565b600060208201905081810360008301526157eb816157af565b9050919050565b60006157fd8261436c565b91506158088361436c565b92508282101561581b5761581a6154c3565b5b828203905092915050565b600060808201905061583b60008301866152a4565b615848602083018561467e565b8181036040830152615859816155e9565b9050818103606083015261586d81846155ad565b9050949350505050565b7f3078353700000000000000000000000000000000000000000000000000000000600082015250565b60006158ad60048361425e565b91506158b882615877565b602082019050919050565b600060208201905081810360008301526158dc816158a0565b9050919050565b60006080820190506158f860008301876152a4565b615905602083018661467e565b615912604083018561467e565b61591f606083018461467e565b95945050505050565b600082825260208201905092915050565b6000615944826155a2565b61594e8185615928565b935061595e81856020860161426f565b615967816142a2565b840191505092915050565b6000602082019050818103600083015261598c8184615939565b905092915050565b60006159a76159a2846144d8565b6144bd565b9050828152602081018484840111156159c3576159c2614458565b5b6159ce84828561426f565b509392505050565b600082601f8301126159eb576159ea61417a565b5b81516159fb848260208601615994565b91505092915050565b600081519050615a138161414e565b92915050565b600081519050615a2881614b98565b92915050565b60008060008060808587031215615a4857615a4761413a565b5b600085015167ffffffffffffffff811115615a6657615a6561413f565b5b615a72878288016159d6565b9450506020615a8387828801615a04565b9350506040615a9487828801615a19565b9250506060615aa587828801615a19565b91505092959194509250565b7f3078356200000000000000000000000000000000000000000000000000000000600082015250565b6000615ae760048361425e565b9150615af282615ab1565b602082019050919050565b60006020820190508181036000830152615b1681615ada565b9050919050565b615b2681614144565b82525050565b60006040820190508181036000830152615b468185615939565b9050615b556020830184615b1d565b9392505050565b600081519050615b6b81614340565b92915050565b600060208284031215615b8757615b8661413a565b5b6000615b9584828501615b5c565b91505092915050565b7f3078353900000000000000000000000000000000000000000000000000000000600082015250565b6000615bd460048361425e565b9150615bdf82615b9e565b602082019050919050565b60006020820190508181036000830152615c0381615bc7565b9050919050565b7f3078353200000000000000000000000000000000000000000000000000000000600082015250565b6000615c4060048361425e565b9150615c4b82615c0a565b602082019050919050565b60006020820190508181036000830152615c6f81615c33565b9050919050565b6000604082019050615c8b600083018561467e565b8181036020830152615c9d81846155ad565b9050939250505056fea2646970667358221220593b7d25f357c210dfc8e7b846785364e1c98d08a99509366c3c4e3813dfec0d64736f6c634300080a0033",
  "immutableReferences": {},
  "source": "// solidity version\npragma solidity 0.8.10;\n\nimport \"../utils/CertificateLibrary.sol\";\n\n\ncontract ERC1400 {\n\n\n    /************************************************ Variable Declarations and Initaalizations ************************************/\n\n\n    //Certificate certificate;\n\n\n     // *************************************** Strings ********************************************************* //\n\n    string public name;   // token name\n    string public symbol; // token symbol\n\n\n\n    // *************************************** Integers ********************************************************* //\n\n    uint256 public granularity;                     // token granularity\n    uint256 public totalSupply;                     // token total supply\n    uint256 public decimals;                        //token decimals\n\n\n    // *************************************** Addresses ********************************************************* //\n\n    address private owner;  // set the address of the owner to be private\n\n\n\n     // *************************************** Booleans ********************************************************* //\n\n    bool private _lockUpTokens = false; // token lockup indicator\n    bool private _isIssuable = true;    //  indicates when a token can be issued\n    bool private _isControllable = true;   // private variable that indicates the controllability of the tokens\n    \n\n    // ************************ Array ******************************//\n\n    bytes32[] internal _totalPartitions;\n    bytes32[] internal _defaultPartitions;\n    address[] internal _controllers;\n    //bytes32[] internal _allDocuments;    // an array to store all the documents stored onchain\n\n\n     // *************************************** Structs ********************************************************* //\n\n    struct Doc {\n        bytes32 _name;\n        bytes32 _documentHash;\n        string _uri;\n        \n    } // struct to handle the documents\n\n\n\n     // *************************************** Events ********************************************************* //\n\n    event WhiteList (address _investor, uint256 _timeAdded);                                                 // event to be emitted whenever an address is whitelisted\n    event Issued (address _to, uint256 _amountIssued, uint256 _totalSupply, uint256 _timeIssued);            // event to be emitted whenever new tokens are minted\n    event Transfer (address _from, address _to, uint256 _amount);                                            // event to be emitted whenever token is been transferred\n    event Approval (address _tokenHolder, address _externalAddress, uint256 _amount);                        // event to be emitted whenever an external address is approved such as escrows\n    event Document (bytes32 indexed _name, string _uri, bytes32 _documentHash);                       // event to be emitted whenever a document is put on-chain\n    event TransferByPartition (\n\n        bytes32 indexed _fromPartition,\n        address _operator,\n        address indexed _from,\n        address indexed _to,\n        uint256 _value,\n        bytes _data,\n        bytes _operatorData\n\n\n    );                                                                           // event to be emitted whenever tokens are transfered from an address partition to another addres of same partition\n\n    event AuthorizedOperator (address indexed _operator, address indexed _tokenHolder);     // event to be emitted whenever an operator is authorized\n    event RevokedOperator (address indexed _operator, address indexed _tokenHolder);     // event to be emitted whenever an operator is revoked\n    event AuthorizedOperatorByPartition (bytes32 indexed _partition, address indexed _operator, address indexed _tokenHolder);     // event to be emitted whenever an operator is authorized for a partition\n    event RevokedOperatorByPartition (bytes32 indexed _partition, address indexed _operator, address indexed _tokenHolder);     // event to be emitted whenever an operator is revoked for a partition\n    event IssuedByPartition (bytes32 indexed _partition, address indexed _operator, address indexed _to, uint256 _amount, bytes _data, bytes _operatorData);    //  event to be emitted whenever a new token is issued to an holder's partition\n    event RedeemedByPartition (bytes32 indexed _partition, address indexed _operator, address indexed _from, uint256 _amount, bytes _operatorData);     // event to be emitted when tokens are burnt from any partitions\n    event Redeemed (address indexed _operator, address indexed _from, uint256 _value, bytes _data);          //  event to be emitted when a token is being redeemed\n    event ControllerTransfer (address _controller, address indexed _from, address indexed _to, uint256 _value, bytes _data, bytes _operatorData); // event to be emitted whenever a controller forces a token transfer\n    event ControllerRedemption (address _controller, address indexed _tokenHolder, uint256 _value, bytes _data, bytes _operatorData);        // event to be emitted whenever a controller forces token redemption from a token holder's wallet\n\n     // *************************************** Mappings ********************************************************* //\n\n    mapping (address => bool) private whitelist;                                     //  whitelist map\n    mapping (address => mapping(address => uint256)) private allowance;              // set the address of the allowed external operator\n    mapping (address => uint256) internal _balanceOf;                                // map to store the token balances of token holders\n    //mapping(bytes32 => uint256) public partitions;                                  // map to store the total supply of each partitions partitions\n    mapping (bytes32 => Doc) internal _documents;                                    // map to store the documents\n    mapping (address => mapping(bytes32 => uint256)) internal _balanceOfByPartition; // map to store the partitioned token balance of a token holder \n    mapping (address => bytes32[]) internal _partitionsOf;                           // map that stores the partitions of a token holder\n    mapping (address => mapping(address => bool)) internal _isOperator;              // map to approve or revoke operators for a token holder\n    //mapping(bytes32 => uint256) internal _indexOfDocument;                          // map to store thei index position of a document\n    mapping (bytes32 => uint256) internal _indexOfPartitions;\n\n    // holder's address -> operator  address -> partition -> true/false\n    mapping (address => mapping(address => mapping (bytes32 => bool))) internal _isOperatorForPartition;                  // map to approve or revoke operators by partition\n    mapping (address => bool) private _isController;                                 // map to store the addresses of approved controllers\n    mapping (address => uint256) private _indexOfController;                         // map to store the index position of controllers\n\n\n    constructor (string memory _name, string memory _symbol, uint256 _decimals, uint256 _totalSupply, bytes32[] memory defaultPartitions) {\n\n        name = _name;\n        symbol = _symbol;\n        decimals = _decimals;\n        granularity = 10 ** decimals; // for token decimals \n        totalSupply = _totalSupply;\n        owner = msg.sender;\n        _defaultPartitions = defaultPartitions;\n\n    }\n\n    modifier restricted {\n        require(msg.sender == owner, \"0x56\");\n        _;\n    }\n\n\n    // *************************************** Internal functions ********************************************************* //\n\n    /// @dev    internal funtion to transfer tokens from an address to another address\n    /// @notice `0x57` revert message if receiver is address 0\n    /// @notice `0x52` insufficient balance\n    /// @notice balance must be more or equal to the value to be transferred\n    /// @dev    this version of solidity handles the underflow and overflow error\n    /// @notice the emission of Transfer event\n    /// @param  _from is the address the token is sent from\n    /// @param  _to is the address the token is sent to\n    /// @param  _amount is the value of tokens to be sent\n\n    \n    function _transfer(address _from, address _to, uint256 _amount) internal returns (bool success) {\n\n        require(_to != address(0),  \"0x57\");        \n        require(_balanceOf[_from] >= _amount, \"0x52\");      \n\n        _balanceOf[_from] = _balanceOf[_from] - _amount;                  \n        _balanceOf[_to] = _balanceOf[_to] + _amount;                      \n        emit Transfer (_from, _to, _amount);                            \n        return true;\n     }\n\n\n     /// @dev   internal funtion to transfer tokens by partitions from an address to another address\n     /// @notice `0x57` revert message if receiver is address 0\n     /// @notice `0x52` insufficient balance\n     /// @dev   the total supply is the balance accross all partitions\n     /// @notice the global balance of the sender and receiver is adjusted respectively\n     /// @notice the emission of TransferByPartition and Transfer events\n\n    function _transferByPartiton(bytes32 _partition, address _from, address _to, uint256 _value, bytes memory _data, bytes memory _operatorData) internal returns(bytes32) {\n       \n    \n       require( _balanceOfByPartition[_from][_partition] >= _value, \"0x52\"); \n       require(_to != address(0),  \"0x57\");   \n\n       _balanceOfByPartition[_from][_partition] = _balanceOfByPartition[_from][_partition] - _value;\n       _balanceOf[_from] = _balanceOf[_from] - _value; // the value should reflect in the global token balance of the sender\n       \n       _balanceOfByPartition[_to][_partition] = _balanceOfByPartition[_to][_partition] + _value;\n       _balanceOf[_to] = _balanceOf[_to] + _value; // the value should reflect in the global token balance of the receiver\n\n       emit TransferByPartition(_partition, msg.sender, msg.sender, _to, _value, _data, _operatorData);\n       emit Transfer(_from, _to, _value);\n\n       return _partition;\n\n    }\n\n    // function to transfer by default Partitions\n\n    function _transferByDefaultPartitions(address _from, address _to, uint256 _value) internal {\n\n\n        require(_balanceOf[_from] >= _value, \"0x52\");        \n        for (uint256 index = 0; index < _defaultPartitions.length; index++) {\n            _transferByPartiton(_defaultPartitions[index], _from, _to, _value, \"\", \"\");\n        }\n\n    }\n\n    // internal redeem by partition function\n\n\n    function _redeemByPartition(bytes32 _partition, address _tokenHolder, uint256 _value, bytes memory _data, bytes memory _operatorData) internal {\n\n       require(msg.sender != address(0), \"0x56\");\n       require(_balanceOfByPartition[_tokenHolder][_partition] >= _value, \"0x52\");  // insufficient balance\n       _balanceOfByPartition[_tokenHolder][_partition] = _balanceOfByPartition[_tokenHolder][_partition] - _value;\n       _balanceOf[_tokenHolder] = _balanceOf[_tokenHolder] - _value; // the value should reflect in the global token balance of the sender\n       \n       _balanceOfByPartition[address(0)][_partition] = _balanceOfByPartition[address(0)][_partition] + _value;\n       _balanceOf[address(0)] = _balanceOf[address(0)] + _value; // the value should reflect in the global token balance of the receiver\n       totalSupply -= _value;\n       emit RedeemedByPartition(_partition, msg.sender, _tokenHolder, _value, _operatorData);\n\n    }\n\n    // internal redeem function\n\n    function _redeem(address _tokenHolder, uint256 _value, bytes memory _data) internal {\n\n       require(_balanceOf[_tokenHolder] >= _value, \"0x52\"); // insufficient balance\n       _transfer(_tokenHolder, address(0), _value);\n       totalSupply -= _value;\n       emit Redeemed(msg.sender, _tokenHolder, _value, _data);\n\n    }\n\n\n    function _isValidCertificate(bytes memory _data) internal view returns (bool) {\n        (bytes memory _signature, bytes32 _signatureHash, bool _fromIsWhiteListedOrIssuer, bool _toIsWhiteListed) = Certificate.decodeData(_data);\n        require(_fromIsWhiteListedOrIssuer && _toIsWhiteListed, \"0x5b\");    // require that the from and to accounts are whitelisted\n        address _signer = Certificate.verifySignature(_signature, _signatureHash);\n        require (owner == _signer || _isController[_signer], \"0x59\");   // invalid signer\n        return true;\n    }\n\n\n\n    // **************************       ERC1400 FEATURES  ******************************************************//\n\n\n    //  Default Partitions\n\n\n    function setDefaultPartitions(bytes32[] calldata newDefaultPartitions) external  {\n        _defaultPartitions = newDefaultPartitions;\n    }\n     \n    // *********************    DOCUMENT MANAGEMENT  ---------- ERC 1643\n\n    //  set document\n\n    function setDocument (bytes32 _name, string calldata _uri, bytes32 _documentHash) external  {\n        \n        _documents[_name] = Doc(_name, _documentHash, _uri);     // save the document\n        //_allDocuments.push(_name);\n        //_indexOfDocument[_name] = _allDocuments.length;\n        emit Document(_name, _uri, _documentHash);              // emit event when document is set on chain\n\n    }\n\n    // get document\n    \n    function getDocument (bytes32 _name) external view returns (string memory uri, bytes32 docHash) {\n\n        Doc memory _document = _documents[_name];\n\n        return (_document._uri, _document._documentHash);  // return the document uri and document hash\n\n    }\n\n\n\n    // *********************    TOKEN INFORMATION\n\n\n    // function that returns balance\n    \n    function balanceOf(address _tokenHolder) external view returns (uint256) {\n        return _balanceOf[_tokenHolder];\n    }\n\n    function balanceOfByPartition(bytes32 _partition, address _tokenHolder) external view returns (uint256) {\n       return _balanceOfByPartition[_tokenHolder][_partition];\n   }\n\n   // function to return the partitions of a token holder\n\n    function partitionsOf(address _tokenHolder) external view returns (bytes32[] memory) {\n\n        bytes32[] memory _partitions = new bytes32[](_totalPartitions.length);\n        for (uint256 index = 0; index < _totalPartitions.length; index++) {\n            if (_balanceOfByPartition[_tokenHolder][_totalPartitions[index]] > 0) {\n                _partitions[index] = _totalPartitions[index];\n            }\n        }\n\n        return _partitions;\n   }\n\n\n\n    // *********************    TRANSFERS\n\n    // approve tokens to external operators\n    \n    function approve(address _externalAddress, uint256 _value) external returns (bool success) {\n\n        require(_externalAddress != address(0), \"0x58\");                  //    0x58   invalid operator\n        allowance[msg.sender][_externalAddress] = _value;              // use safemath function here to avoid under and overflow\n        emit Approval(msg.sender, _externalAddress, _value);            // emit the approved event\n        return true;\n\n    }\n\n\n    // function to transfer tokens. the internal transfer function will be called here\n    \n    function transfer(address _to, uint256 _value) public returns (bool success) {\n\n        _transfer(msg.sender, _to, _value);\n        return true;\n\n    }\n\n    // function transferFrom. The function for external addresses such as escrows to move tokens on behalf of the token holder\n    \n    function transferFrom(address _from, address _to, uint256 _value) external returns (bool success) {\n\n        // _from is the current token holder\n        // _to is the destinantion address\n        //  msg.sender is the external address calling this function\n        // the token holder should have at least the amount of tokens to be transferred ----> this check has been implemented in the internal _transfer function\n\n        require(allowance[_from][msg.sender] >= _value, \"0x53\");           // the allowed value approved by the token holder must not be less than the amount. Insufficient allowance\n        _transfer(_from, _to, _value);                             // transfer the tokens\n\n        // reset the allowance value\n\n        allowance[_from][msg.sender] =  0;   \n        return true;           \n\n    }  \n\n    // tranfer with data\n\n    function transferWithData(address _to, uint256 _value, bytes memory _data) external {\n        \n        require(_isValidCertificate(_data));\n        _transfer(msg.sender, _to, _value);\n    }\n    \n\n    function transferFromWithData(address _from, address _to, uint256 _value, bytes memory _data) external {\n         require(allowance[_from][msg.sender] >= _value, \"0x53\");           // the allowed value approved by the token holder must not be less than the amount\n        _transfer(_from, _to, _value);                              // transfer the tokens\n\n        //  reset the allowance value\n\n        allowance[_from][msg.sender] =  0;   \n        \n    }\n\n\n    // *********************    PARTITION TOKEN TRANSFERS\n\n\n    function transferByPartition(bytes32 _partition, address _to, uint256 _value, bytes memory _data) external returns (bytes32) {\n\n        if (_data.length != 1) {\n\n            require(_isValidCertificate(_data));\n\n        }\n       _transferByPartiton(_partition, msg.sender, _to, _value, _data , \"\");\n \n   }    \n\n   // operator transfer by partition\n   \n   function operatorTransferByPartition(bytes32 _partition, address _from, address _to, uint256 _value, bytes memory _data, bytes memory _operatorData) external returns (bytes32) {\n\n       require(_isValidCertificate(_operatorData), \"cant verify data\");\n       if(_isControllable == true && _isController[msg.sender]) {\n\n           _transferByPartiton(_partition, _from, _to, _value, \"\", \"\");\n           emit ControllerTransfer(msg.sender, _from, _to, _value, _data, _operatorData);       // forceful transfers\n\n       } else {\n            require(_isOperatorForPartition[_from][msg.sender][_partition] || _isOperator[_from][msg.sender], \"0x56\"); // 0x56 invalid sender\n            _transferByPartiton(_partition, _from, _to, _value, \"\", \"\");\n       }\n      \n       \n   }\n\n\n\n   // *********************    CONTROLLER OPERATION\n\n   function isControllable() external view returns (bool) {\n       return _isControllable;\n   }\n\n   function isController(address _controller) external view returns(bool) {\n       return _isController[_controller];\n   }\n\n   function setControllability(bool _status) external restricted {\n       _isControllable = _status;\n   }\n\n   function setController(address _controller) external restricted {\n\n       require(_controller != address(0), \"0x58\");      // invalid transfer agent\n       require(!_isController[_controller], \"ACC\");       // address is currently a controller\n       _isController[_controller] = true;\n       _controllers.push(_controller);\n       _indexOfController[_controller] = _controllers.length - 1;\n\n   }\n\n   function getControllers() external view returns (address[] memory) {\n       return _controllers;\n   }\n\n   function removeController(address _controller) external restricted {\n\n        require(_controller != address(0), \"0x58\");     // invalid transfer agent\n        require(_isController[_controller], \"0x58\");      // not recognized as a controller\n        _isController[_controller] = false;\n        delete _controllers[_indexOfController[_controller]];     // remove the controller from the array of controllers using their saved index value\n       \n   }\n\n   function controllerTransfer(address _from, address _to, uint256 _value, bytes calldata _data, bytes calldata _operatorData) external {\n        _transfer(_from, _to, _value);\n        emit ControllerTransfer(msg.sender, _from, _to, _value, _data, _operatorData);\n   }\n\n   function controllerRedeem(address _tokenHolder, uint256 _value, bytes calldata _data, bytes calldata _operatorData) external {\n        _redeem(_tokenHolder,  _value, _data);\n        emit ControllerRedemption(msg.sender, _tokenHolder, _value, _data, _operatorData);\n   }\n\n\n   // *********************    OPERATOR MANAGEMENT\n\n\n    function authorizeOperator (address _operator) public {\n        _isOperator[msg.sender][_operator] = true;\n        emit AuthorizedOperator(_operator, msg.sender);\n    }\n\n    function revokeOperator (address _operator) public {\n        _isOperator[msg.sender][_operator] = false;\n        emit RevokedOperator(_operator, msg.sender);\n    }\n\n    function authorizeOperatorByPartition (bytes32 _partition, address _operator) public  {\n        _isOperatorForPartition[msg.sender][_operator][_partition] = true;\n        emit AuthorizedOperatorByPartition(_partition, _operator, msg.sender);\n    }\n\n    function revokeOperatorByPartition (bytes32 _partition, address _operator) public {\n        _isOperatorForPartition[msg.sender][_operator][_partition] = false;\n        emit RevokedOperatorByPartition(_partition, _operator, msg.sender);\n    }\n\n\n\n    // *********************    OPERATOR INFORMATION\n\n\n\n     function isOperator (address _operator, address _tokenHolder) external view returns (bool) {\n        return _isOperator[_tokenHolder][_operator];\n    }\n\n    \n    function isOperatorForPartition(bytes32 _partition, address _operator, address _tokenHolder) external view returns (bool) {\n        return  _isOperatorForPartition[_tokenHolder][_operator][_partition];\n    }\n\n\n\n    // *********************    TOKEN ISSUANCE\n\n    function isIssuable() external view returns (bool) {\n        return _isIssuable;\n    }\n\n\n    // function to mint and issue new tokens. This function is restricted to other addresses except the owner of the contract\n    \n    function issue(address _tokenHolder, uint256 _value, bytes calldata _data) external restricted {\n        \n        require(_isIssuable, \"0x55\");     // can't issue tokens for now\n        require(_tokenHolder != address(0), \"0x57\");        // invalid receiver\n        uint256 amount =  _value * granularity;                         // the destinaton address should not be an empty address\n        _balanceOf[_tokenHolder] += amount;                              \n        totalSupply += amount;                                          // add the new minted token to the total supply ---> use safemath library to avoid under and overflow\n        emit Issued(_tokenHolder, amount, totalSupply, block.timestamp);        // emit the issued event --> it emits the destination address, amount minted, updated total supply and the time issued\n        \n\n    }\n\n\n     // function to issue new tokens by partition\n\n   function issueByPartition(bytes32 _partition, address _tokenHolder, uint256 _value, bytes memory _data) public restricted {\n\n        require(_isIssuable, \"0x55\"); // can't issue tokens for now\n        uint256 amount =  _value * granularity; \n        _balanceOfByPartition[_tokenHolder][_partition] += amount;   // increment the partition's token balance of this token holder\n        _balanceOf[_tokenHolder] += amount; // increment the total balance of this token holder \n        totalSupply += amount; // increase the total supply\n        emit IssuedByPartition(_partition, msg.sender, _tokenHolder, amount, _data, \"\");\n    \n\n   }\n\n\n   // *********************    TOKEN REDEMPTION\n\n\n   function redeem(uint256 _value, bytes memory _data) external {\n\n       require(_isValidCertificate(_data));\n       _redeem(msg.sender, _value, _data);\n\n   }\n\n   function redeemFrom(address _tokenHolder, uint256 _value, bytes memory _data) external {\n\n        require(_isValidCertificate(_data));\n        require(allowance[_tokenHolder][msg.sender] >= _value, \"0x53\");  // insufficient allowance\n        _redeem(_tokenHolder, _value, _data);\n\n   }\n\n\n   // function to redeem by partition\n\n   function redeemByPartition(bytes32 _partition, uint256 _value, bytes memory _data) external {\n\n        require(_isValidCertificate(_data));  //  verify signer\n       _redeemByPartition(_partition, msg.sender, _value, _data, \"\");\n\n   }\n\n   \n\n   function operatorRedeemByPartition(bytes32 _partition, address _tokenHolder, uint256 _value, bytes memory _operatorData) external {\n\n       require(_isValidCertificate(_operatorData));           //  verify signer\n       if(_isControllable == true && _isController[msg.sender]) {\n            _redeemByPartition(_partition, _tokenHolder, _value, \"\", _operatorData);\n            emit ControllerRedemption(msg.sender, _tokenHolder, _value, \"\", _operatorData);\n       } else {\n            require(_isOperator[_tokenHolder][msg.sender] || _isOperatorForPartition[_tokenHolder][msg.sender][_partition], \"0x58\");     // invalid operator\n            _redeemByPartition(_partition, _tokenHolder, _value, \"\", _operatorData);\n       }\n\n   }\n\n\n   // *********************    TRANSFER VALIDITY\n\n    // used bytes1 instead of byte. bytes1 is now an alias for byte    \n\n    function canTransfer(address _to, uint256 _value, bytes memory _data) external view returns (bytes1 code, bytes32 reason){\n\n        if( _lockUpTokens == true) {\n\n            return (hex\"55\", \"funds locked (lockup period)\");\n        }\n\n        if(_to == address(0)) {\n            return (hex\"57\", \"invalid receiver\");\n        } \n\n        if(_balanceOf[msg.sender] < _value) {\n            return (hex\"52\", \"insufficient balance\");\n        }\n\n        if( _isValidCertificate(_data) != true) {\n            return (hex\"59\", \"invalid signer\");\n        }\n\n        return (hex\"51\", \"transfer success\");\n\n    }\n\n    function canTransferFrom(address _from, address _to, uint256 _value, bytes memory _data) external view returns (bytes1 code, bytes32 reason) {\n\n        if(_balanceOf[_from] < _value) {\n            return (hex\"52\", \"insufficient balance\");\n        }\n\n        if(allowance[_from][msg.sender] < _value) {\n            return (hex\"53\", \"insufficient allowance\");\n        }\n\n        if(_to == address(0)) {\n            return (hex\"57\", \"invalid receiver\");\n        } \n\n        if(_isOperator[_from][msg.sender]) {\n            return (hex\"58\", \"invalid operator\");\n        } \n\n        if( _isValidCertificate(_data) != true) {\n            return (hex\"59\", \"invalid signer\");\n        }\n\n        return (hex\"51\", \"transfer success\");\n\n    }\n\n    // can transfer by partition\n\n   function canTransferByPartition(address _from, address _to, bytes32 _partition, uint256 _value, bytes memory _data) external view returns(bytes1, bytes32, bytes32) {\n\n       if (_to == address(0)) {\n           return (hex\"55\", \"invalid receiver\", _partition);\n       }\n\n       if (_value > _balanceOfByPartition[_from][_partition]) {\n           return (hex\"55\", \"insufficient balance\", _partition);\n       }\n\n       if( _isValidCertificate(_data) != true) {\n            return (hex\"59\", \"invalid signer\", _partition);\n        }\n\n        return (hex\"51\", \"transfer success\", _partition);\n\n\n   }\n\n\n   /*********************************************************************************/\n\n   //function to return partitioned token balance\n\n    function totalPartitions() external view returns (bytes32[] memory) {\n       return _totalPartitions;\n    }\n\n    function setTotalPartitions(bytes32[] memory _newTotalPartitions) external {\n        _totalPartitions = _newTotalPartitions;\n    }\n\n\n}",
  "sourcePath": "/home/komolehin/Documents/blockchain/TANGLE/security-token/contracts/Token/ERC1400.sol",
  "compiler": {
    "name": "solc",
    "version": "0.8.10+commit.fc410830.Emscripten.clang"
  },
  "schemaVersion": "3.4.6",
  "updatedAt": "2022-04-26T10:00:40.009Z",
  "networkType": "ethereum",
  "devdoc": {
    "kind": "dev",
    "methods": {},
    "version": 1
  },
  "userdoc": {
    "kind": "user",
    "methods": {},
    "version": 1
  }
}