{
  "contractName": "ERC1400",
  "abi": [
    {
      "inputs": [
        {
          "internalType": "string",
          "name": "_name",
          "type": "string"
        },
        {
          "internalType": "string",
          "name": "_symbol",
          "type": "string"
        },
        {
          "internalType": "uint256",
          "name": "_granularity",
          "type": "uint256"
        },
        {
          "internalType": "uint256",
          "name": "_totalSupply",
          "type": "uint256"
        },
        {
          "internalType": "bytes32[]",
          "name": "defaultPartitions",
          "type": "bytes32[]"
        }
      ],
      "stateMutability": "nonpayable",
      "type": "constructor"
    },
    {
      "anonymous": false,
      "inputs": [
        {
          "indexed": false,
          "internalType": "address",
          "name": "_tokenHolder",
          "type": "address"
        },
        {
          "indexed": false,
          "internalType": "address",
          "name": "_externalAddress",
          "type": "address"
        },
        {
          "indexed": false,
          "internalType": "uint256",
          "name": "_amount",
          "type": "uint256"
        }
      ],
      "name": "Approval",
      "type": "event"
    },
    {
      "anonymous": false,
      "inputs": [
        {
          "indexed": true,
          "internalType": "address",
          "name": "_operator",
          "type": "address"
        },
        {
          "indexed": true,
          "internalType": "address",
          "name": "_tokenHolder",
          "type": "address"
        }
      ],
      "name": "AuthorizedOperator",
      "type": "event"
    },
    {
      "anonymous": false,
      "inputs": [
        {
          "indexed": true,
          "internalType": "bytes32",
          "name": "_partition",
          "type": "bytes32"
        },
        {
          "indexed": true,
          "internalType": "address",
          "name": "_operator",
          "type": "address"
        },
        {
          "indexed": true,
          "internalType": "address",
          "name": "_tokenHolder",
          "type": "address"
        }
      ],
      "name": "AuthorizedOperatorByPartition",
      "type": "event"
    },
    {
      "anonymous": false,
      "inputs": [
        {
          "indexed": false,
          "internalType": "address",
          "name": "_controller",
          "type": "address"
        },
        {
          "indexed": true,
          "internalType": "address",
          "name": "_tokenHolder",
          "type": "address"
        },
        {
          "indexed": false,
          "internalType": "uint256",
          "name": "_value",
          "type": "uint256"
        },
        {
          "indexed": false,
          "internalType": "bytes",
          "name": "_data",
          "type": "bytes"
        },
        {
          "indexed": false,
          "internalType": "bytes",
          "name": "_operatorData",
          "type": "bytes"
        }
      ],
      "name": "ControllerRedemption",
      "type": "event"
    },
    {
      "anonymous": false,
      "inputs": [
        {
          "indexed": false,
          "internalType": "address",
          "name": "_controller",
          "type": "address"
        },
        {
          "indexed": true,
          "internalType": "address",
          "name": "_from",
          "type": "address"
        },
        {
          "indexed": true,
          "internalType": "address",
          "name": "_to",
          "type": "address"
        },
        {
          "indexed": false,
          "internalType": "uint256",
          "name": "_value",
          "type": "uint256"
        },
        {
          "indexed": false,
          "internalType": "bytes",
          "name": "_data",
          "type": "bytes"
        },
        {
          "indexed": false,
          "internalType": "bytes",
          "name": "_operatorData",
          "type": "bytes"
        }
      ],
      "name": "ControllerTransfer",
      "type": "event"
    },
    {
      "anonymous": false,
      "inputs": [
        {
          "indexed": true,
          "internalType": "bytes32",
          "name": "_name",
          "type": "bytes32"
        },
        {
          "indexed": false,
          "internalType": "string",
          "name": "_uri",
          "type": "string"
        },
        {
          "indexed": false,
          "internalType": "bytes32",
          "name": "_documentHash",
          "type": "bytes32"
        }
      ],
      "name": "Document",
      "type": "event"
    },
    {
      "anonymous": false,
      "inputs": [
        {
          "indexed": false,
          "internalType": "address",
          "name": "_to",
          "type": "address"
        },
        {
          "indexed": false,
          "internalType": "uint256",
          "name": "_amountIssued",
          "type": "uint256"
        },
        {
          "indexed": false,
          "internalType": "uint256",
          "name": "_totalSupply",
          "type": "uint256"
        },
        {
          "indexed": false,
          "internalType": "uint256",
          "name": "_timeIssued",
          "type": "uint256"
        }
      ],
      "name": "Issued",
      "type": "event"
    },
    {
      "anonymous": false,
      "inputs": [
        {
          "indexed": true,
          "internalType": "bytes32",
          "name": "_partition",
          "type": "bytes32"
        },
        {
          "indexed": true,
          "internalType": "address",
          "name": "_operator",
          "type": "address"
        },
        {
          "indexed": true,
          "internalType": "address",
          "name": "_to",
          "type": "address"
        },
        {
          "indexed": false,
          "internalType": "uint256",
          "name": "_amount",
          "type": "uint256"
        },
        {
          "indexed": false,
          "internalType": "bytes",
          "name": "_data",
          "type": "bytes"
        },
        {
          "indexed": false,
          "internalType": "bytes",
          "name": "_operatorData",
          "type": "bytes"
        }
      ],
      "name": "IssuedByPartition",
      "type": "event"
    },
    {
      "anonymous": false,
      "inputs": [
        {
          "indexed": true,
          "internalType": "address",
          "name": "_operator",
          "type": "address"
        },
        {
          "indexed": true,
          "internalType": "address",
          "name": "_from",
          "type": "address"
        },
        {
          "indexed": false,
          "internalType": "uint256",
          "name": "_value",
          "type": "uint256"
        },
        {
          "indexed": false,
          "internalType": "bytes",
          "name": "_data",
          "type": "bytes"
        }
      ],
      "name": "Redeemed",
      "type": "event"
    },
    {
      "anonymous": false,
      "inputs": [
        {
          "indexed": true,
          "internalType": "bytes32",
          "name": "_partition",
          "type": "bytes32"
        },
        {
          "indexed": true,
          "internalType": "address",
          "name": "_operator",
          "type": "address"
        },
        {
          "indexed": true,
          "internalType": "address",
          "name": "_from",
          "type": "address"
        },
        {
          "indexed": false,
          "internalType": "uint256",
          "name": "_amount",
          "type": "uint256"
        },
        {
          "indexed": false,
          "internalType": "bytes",
          "name": "_operatorData",
          "type": "bytes"
        }
      ],
      "name": "RedeemedByPartition",
      "type": "event"
    },
    {
      "anonymous": false,
      "inputs": [
        {
          "indexed": true,
          "internalType": "address",
          "name": "_operator",
          "type": "address"
        },
        {
          "indexed": true,
          "internalType": "address",
          "name": "_tokenHolder",
          "type": "address"
        }
      ],
      "name": "RevokedOperator",
      "type": "event"
    },
    {
      "anonymous": false,
      "inputs": [
        {
          "indexed": true,
          "internalType": "bytes32",
          "name": "_partition",
          "type": "bytes32"
        },
        {
          "indexed": true,
          "internalType": "address",
          "name": "_operator",
          "type": "address"
        },
        {
          "indexed": true,
          "internalType": "address",
          "name": "_tokenHolder",
          "type": "address"
        }
      ],
      "name": "RevokedOperatorByPartition",
      "type": "event"
    },
    {
      "anonymous": false,
      "inputs": [
        {
          "indexed": false,
          "internalType": "address",
          "name": "_from",
          "type": "address"
        },
        {
          "indexed": false,
          "internalType": "address",
          "name": "_to",
          "type": "address"
        },
        {
          "indexed": false,
          "internalType": "uint256",
          "name": "_amount",
          "type": "uint256"
        }
      ],
      "name": "Transfer",
      "type": "event"
    },
    {
      "anonymous": false,
      "inputs": [
        {
          "indexed": true,
          "internalType": "bytes32",
          "name": "_fromPartition",
          "type": "bytes32"
        },
        {
          "indexed": false,
          "internalType": "address",
          "name": "_operator",
          "type": "address"
        },
        {
          "indexed": true,
          "internalType": "address",
          "name": "_from",
          "type": "address"
        },
        {
          "indexed": true,
          "internalType": "address",
          "name": "_to",
          "type": "address"
        },
        {
          "indexed": false,
          "internalType": "uint256",
          "name": "_value",
          "type": "uint256"
        },
        {
          "indexed": false,
          "internalType": "bytes",
          "name": "_data",
          "type": "bytes"
        },
        {
          "indexed": false,
          "internalType": "bytes",
          "name": "_operatorData",
          "type": "bytes"
        }
      ],
      "name": "TransferByPartition",
      "type": "event"
    },
    {
      "anonymous": false,
      "inputs": [
        {
          "indexed": false,
          "internalType": "address",
          "name": "_investor",
          "type": "address"
        },
        {
          "indexed": false,
          "internalType": "uint256",
          "name": "_timeAdded",
          "type": "uint256"
        }
      ],
      "name": "WhiteList",
      "type": "event"
    },
    {
      "inputs": [],
      "name": "granularity",
      "outputs": [
        {
          "internalType": "uint256",
          "name": "",
          "type": "uint256"
        }
      ],
      "stateMutability": "view",
      "type": "function"
    },
    {
      "inputs": [],
      "name": "name",
      "outputs": [
        {
          "internalType": "string",
          "name": "",
          "type": "string"
        }
      ],
      "stateMutability": "view",
      "type": "function"
    },
    {
      "inputs": [],
      "name": "symbol",
      "outputs": [
        {
          "internalType": "string",
          "name": "",
          "type": "string"
        }
      ],
      "stateMutability": "view",
      "type": "function"
    },
    {
      "inputs": [],
      "name": "totalSupply",
      "outputs": [
        {
          "internalType": "uint256",
          "name": "",
          "type": "uint256"
        }
      ],
      "stateMutability": "view",
      "type": "function"
    },
    {
      "inputs": [
        {
          "internalType": "bytes",
          "name": "_data",
          "type": "bytes"
        },
        {
          "internalType": "uint256",
          "name": "_amount",
          "type": "uint256"
        }
      ],
      "name": "_useCert",
      "outputs": [],
      "stateMutability": "nonpayable",
      "type": "function"
    },
    {
      "inputs": [
        {
          "internalType": "bytes32[]",
          "name": "newDefaultPartitions",
          "type": "bytes32[]"
        }
      ],
      "name": "setDefaultPartitions",
      "outputs": [],
      "stateMutability": "nonpayable",
      "type": "function"
    },
    {
      "inputs": [
        {
          "internalType": "bytes32",
          "name": "_name",
          "type": "bytes32"
        },
        {
          "internalType": "string",
          "name": "_uri",
          "type": "string"
        },
        {
          "internalType": "bytes32",
          "name": "_documentHash",
          "type": "bytes32"
        }
      ],
      "name": "setDocument",
      "outputs": [],
      "stateMutability": "nonpayable",
      "type": "function"
    },
    {
      "inputs": [
        {
          "internalType": "bytes32",
          "name": "_name",
          "type": "bytes32"
        }
      ],
      "name": "getDocument",
      "outputs": [
        {
          "internalType": "string",
          "name": "uri",
          "type": "string"
        },
        {
          "internalType": "bytes32",
          "name": "docHash",
          "type": "bytes32"
        }
      ],
      "stateMutability": "view",
      "type": "function"
    },
    {
      "inputs": [
        {
          "internalType": "address",
          "name": "_tokenHolder",
          "type": "address"
        }
      ],
      "name": "balanceOf",
      "outputs": [
        {
          "internalType": "uint256",
          "name": "",
          "type": "uint256"
        }
      ],
      "stateMutability": "view",
      "type": "function"
    },
    {
      "inputs": [
        {
          "internalType": "bytes32",
          "name": "_partition",
          "type": "bytes32"
        },
        {
          "internalType": "address",
          "name": "_tokenHolder",
          "type": "address"
        }
      ],
      "name": "balanceOfByPartition",
      "outputs": [
        {
          "internalType": "uint256",
          "name": "",
          "type": "uint256"
        }
      ],
      "stateMutability": "view",
      "type": "function"
    },
    {
      "inputs": [
        {
          "internalType": "address",
          "name": "_tokenHolder",
          "type": "address"
        }
      ],
      "name": "partitionsOf",
      "outputs": [
        {
          "internalType": "bytes32[]",
          "name": "",
          "type": "bytes32[]"
        }
      ],
      "stateMutability": "view",
      "type": "function"
    },
    {
      "inputs": [
        {
          "internalType": "address",
          "name": "_externalAddress",
          "type": "address"
        },
        {
          "internalType": "uint256",
          "name": "_value",
          "type": "uint256"
        }
      ],
      "name": "approve",
      "outputs": [
        {
          "internalType": "bool",
          "name": "success",
          "type": "bool"
        }
      ],
      "stateMutability": "nonpayable",
      "type": "function"
    },
    {
      "inputs": [
        {
          "internalType": "address",
          "name": "_to",
          "type": "address"
        },
        {
          "internalType": "uint256",
          "name": "_value",
          "type": "uint256"
        }
      ],
      "name": "transfer",
      "outputs": [
        {
          "internalType": "bool",
          "name": "success",
          "type": "bool"
        }
      ],
      "stateMutability": "nonpayable",
      "type": "function"
    },
    {
      "inputs": [
        {
          "internalType": "address",
          "name": "_from",
          "type": "address"
        },
        {
          "internalType": "address",
          "name": "_to",
          "type": "address"
        },
        {
          "internalType": "uint256",
          "name": "_value",
          "type": "uint256"
        }
      ],
      "name": "transferFrom",
      "outputs": [
        {
          "internalType": "bool",
          "name": "success",
          "type": "bool"
        }
      ],
      "stateMutability": "nonpayable",
      "type": "function"
    },
    {
      "inputs": [
        {
          "internalType": "address",
          "name": "_to",
          "type": "address"
        },
        {
          "internalType": "uint256",
          "name": "_value",
          "type": "uint256"
        },
        {
          "internalType": "bytes",
          "name": "_data",
          "type": "bytes"
        }
      ],
      "name": "transferWithData",
      "outputs": [],
      "stateMutability": "nonpayable",
      "type": "function"
    },
    {
      "inputs": [
        {
          "internalType": "address",
          "name": "_from",
          "type": "address"
        },
        {
          "internalType": "address",
          "name": "_to",
          "type": "address"
        },
        {
          "internalType": "uint256",
          "name": "_value",
          "type": "uint256"
        },
        {
          "internalType": "bytes",
          "name": "_data",
          "type": "bytes"
        }
      ],
      "name": "transferFromWithData",
      "outputs": [],
      "stateMutability": "nonpayable",
      "type": "function"
    },
    {
      "inputs": [
        {
          "internalType": "bytes32",
          "name": "_partition",
          "type": "bytes32"
        },
        {
          "internalType": "address",
          "name": "_to",
          "type": "address"
        },
        {
          "internalType": "uint256",
          "name": "_value",
          "type": "uint256"
        },
        {
          "internalType": "bytes",
          "name": "_data",
          "type": "bytes"
        }
      ],
      "name": "transferByPartition",
      "outputs": [
        {
          "internalType": "bytes32",
          "name": "",
          "type": "bytes32"
        }
      ],
      "stateMutability": "nonpayable",
      "type": "function"
    },
    {
      "inputs": [
        {
          "internalType": "bytes32",
          "name": "_partition",
          "type": "bytes32"
        },
        {
          "internalType": "address",
          "name": "_from",
          "type": "address"
        },
        {
          "internalType": "address",
          "name": "_to",
          "type": "address"
        },
        {
          "internalType": "uint256",
          "name": "_value",
          "type": "uint256"
        },
        {
          "internalType": "bytes",
          "name": "_data",
          "type": "bytes"
        },
        {
          "internalType": "bytes",
          "name": "_operatorData",
          "type": "bytes"
        }
      ],
      "name": "operatorTransferByPartition",
      "outputs": [
        {
          "internalType": "bytes32",
          "name": "",
          "type": "bytes32"
        }
      ],
      "stateMutability": "nonpayable",
      "type": "function"
    },
    {
      "inputs": [],
      "name": "isControllable",
      "outputs": [
        {
          "internalType": "bool",
          "name": "",
          "type": "bool"
        }
      ],
      "stateMutability": "view",
      "type": "function"
    },
    {
      "inputs": [
        {
          "internalType": "address",
          "name": "_controller",
          "type": "address"
        }
      ],
      "name": "isController",
      "outputs": [
        {
          "internalType": "bool",
          "name": "",
          "type": "bool"
        }
      ],
      "stateMutability": "view",
      "type": "function"
    },
    {
      "inputs": [
        {
          "internalType": "bool",
          "name": "_status",
          "type": "bool"
        }
      ],
      "name": "setControllability",
      "outputs": [],
      "stateMutability": "nonpayable",
      "type": "function"
    },
    {
      "inputs": [
        {
          "internalType": "address",
          "name": "_controller",
          "type": "address"
        }
      ],
      "name": "setController",
      "outputs": [],
      "stateMutability": "nonpayable",
      "type": "function"
    },
    {
      "inputs": [],
      "name": "getControllers",
      "outputs": [
        {
          "internalType": "address[]",
          "name": "",
          "type": "address[]"
        }
      ],
      "stateMutability": "view",
      "type": "function"
    },
    {
      "inputs": [
        {
          "internalType": "address",
          "name": "_controller",
          "type": "address"
        }
      ],
      "name": "removeController",
      "outputs": [],
      "stateMutability": "nonpayable",
      "type": "function"
    },
    {
      "inputs": [
        {
          "internalType": "address",
          "name": "_from",
          "type": "address"
        },
        {
          "internalType": "address",
          "name": "_to",
          "type": "address"
        },
        {
          "internalType": "uint256",
          "name": "_value",
          "type": "uint256"
        },
        {
          "internalType": "bytes",
          "name": "_data",
          "type": "bytes"
        },
        {
          "internalType": "bytes",
          "name": "_operatorData",
          "type": "bytes"
        }
      ],
      "name": "controllerTransfer",
      "outputs": [],
      "stateMutability": "nonpayable",
      "type": "function"
    },
    {
      "inputs": [
        {
          "internalType": "address",
          "name": "_tokenHolder",
          "type": "address"
        },
        {
          "internalType": "uint256",
          "name": "_value",
          "type": "uint256"
        },
        {
          "internalType": "bytes",
          "name": "_data",
          "type": "bytes"
        },
        {
          "internalType": "bytes",
          "name": "_operatorData",
          "type": "bytes"
        }
      ],
      "name": "controllerRedeem",
      "outputs": [],
      "stateMutability": "nonpayable",
      "type": "function"
    },
    {
      "inputs": [
        {
          "internalType": "address",
          "name": "_operator",
          "type": "address"
        }
      ],
      "name": "authorizeOperator",
      "outputs": [],
      "stateMutability": "nonpayable",
      "type": "function"
    },
    {
      "inputs": [
        {
          "internalType": "address",
          "name": "_operator",
          "type": "address"
        }
      ],
      "name": "revokeOperator",
      "outputs": [],
      "stateMutability": "nonpayable",
      "type": "function"
    },
    {
      "inputs": [
        {
          "internalType": "bytes32",
          "name": "_partition",
          "type": "bytes32"
        },
        {
          "internalType": "address",
          "name": "_operator",
          "type": "address"
        }
      ],
      "name": "authorizeOperatorByPartition",
      "outputs": [],
      "stateMutability": "nonpayable",
      "type": "function"
    },
    {
      "inputs": [
        {
          "internalType": "bytes32",
          "name": "_partition",
          "type": "bytes32"
        },
        {
          "internalType": "address",
          "name": "_operator",
          "type": "address"
        }
      ],
      "name": "revokeOperatorByPartition",
      "outputs": [],
      "stateMutability": "nonpayable",
      "type": "function"
    },
    {
      "inputs": [
        {
          "internalType": "address",
          "name": "_operator",
          "type": "address"
        },
        {
          "internalType": "address",
          "name": "_tokenHolder",
          "type": "address"
        }
      ],
      "name": "isOperator",
      "outputs": [
        {
          "internalType": "bool",
          "name": "",
          "type": "bool"
        }
      ],
      "stateMutability": "view",
      "type": "function"
    },
    {
      "inputs": [
        {
          "internalType": "bytes32",
          "name": "_partition",
          "type": "bytes32"
        },
        {
          "internalType": "address",
          "name": "_operator",
          "type": "address"
        },
        {
          "internalType": "address",
          "name": "_tokenHolder",
          "type": "address"
        }
      ],
      "name": "isOperatorForPartition",
      "outputs": [
        {
          "internalType": "bool",
          "name": "",
          "type": "bool"
        }
      ],
      "stateMutability": "view",
      "type": "function"
    },
    {
      "inputs": [],
      "name": "isIssuable",
      "outputs": [
        {
          "internalType": "bool",
          "name": "",
          "type": "bool"
        }
      ],
      "stateMutability": "view",
      "type": "function"
    },
    {
      "inputs": [
        {
          "internalType": "address",
          "name": "_tokenHolder",
          "type": "address"
        },
        {
          "internalType": "uint256",
          "name": "_value",
          "type": "uint256"
        },
        {
          "internalType": "bytes",
          "name": "_data",
          "type": "bytes"
        }
      ],
      "name": "issue",
      "outputs": [],
      "stateMutability": "nonpayable",
      "type": "function"
    },
    {
      "inputs": [
        {
          "internalType": "bytes32",
          "name": "_partition",
          "type": "bytes32"
        },
        {
          "internalType": "address",
          "name": "_tokenHolder",
          "type": "address"
        },
        {
          "internalType": "uint256",
          "name": "_value",
          "type": "uint256"
        },
        {
          "internalType": "bytes",
          "name": "_data",
          "type": "bytes"
        }
      ],
      "name": "issueByPartition",
      "outputs": [],
      "stateMutability": "nonpayable",
      "type": "function"
    },
    {
      "inputs": [
        {
          "internalType": "uint256",
          "name": "_value",
          "type": "uint256"
        },
        {
          "internalType": "bytes",
          "name": "_data",
          "type": "bytes"
        }
      ],
      "name": "redeem",
      "outputs": [],
      "stateMutability": "nonpayable",
      "type": "function"
    },
    {
      "inputs": [
        {
          "internalType": "address",
          "name": "_tokenHolder",
          "type": "address"
        },
        {
          "internalType": "uint256",
          "name": "_value",
          "type": "uint256"
        },
        {
          "internalType": "bytes",
          "name": "_data",
          "type": "bytes"
        }
      ],
      "name": "redeemFrom",
      "outputs": [],
      "stateMutability": "nonpayable",
      "type": "function"
    },
    {
      "inputs": [
        {
          "internalType": "bytes32",
          "name": "_partition",
          "type": "bytes32"
        },
        {
          "internalType": "uint256",
          "name": "_value",
          "type": "uint256"
        },
        {
          "internalType": "bytes",
          "name": "_data",
          "type": "bytes"
        }
      ],
      "name": "redeemByPartition",
      "outputs": [],
      "stateMutability": "nonpayable",
      "type": "function"
    },
    {
      "inputs": [
        {
          "internalType": "bytes32",
          "name": "_partition",
          "type": "bytes32"
        },
        {
          "internalType": "address",
          "name": "_tokenHolder",
          "type": "address"
        },
        {
          "internalType": "uint256",
          "name": "_value",
          "type": "uint256"
        },
        {
          "internalType": "bytes",
          "name": "_operatorData",
          "type": "bytes"
        }
      ],
      "name": "operatorRedeemByPartition",
      "outputs": [],
      "stateMutability": "nonpayable",
      "type": "function"
    },
    {
      "inputs": [
        {
          "internalType": "address",
          "name": "_to",
          "type": "address"
        },
        {
          "internalType": "uint256",
          "name": "_value",
          "type": "uint256"
        },
        {
          "internalType": "bytes",
          "name": "_data",
          "type": "bytes"
        }
      ],
      "name": "canTransfer",
      "outputs": [
        {
          "internalType": "bytes1",
          "name": "code",
          "type": "bytes1"
        },
        {
          "internalType": "bytes32",
          "name": "reason",
          "type": "bytes32"
        }
      ],
      "stateMutability": "view",
      "type": "function"
    },
    {
      "inputs": [
        {
          "internalType": "address",
          "name": "_from",
          "type": "address"
        },
        {
          "internalType": "address",
          "name": "_to",
          "type": "address"
        },
        {
          "internalType": "uint256",
          "name": "_value",
          "type": "uint256"
        },
        {
          "internalType": "bytes",
          "name": "_data",
          "type": "bytes"
        }
      ],
      "name": "canTransferFrom",
      "outputs": [
        {
          "internalType": "bytes1",
          "name": "code",
          "type": "bytes1"
        },
        {
          "internalType": "bytes32",
          "name": "reason",
          "type": "bytes32"
        }
      ],
      "stateMutability": "view",
      "type": "function"
    },
    {
      "inputs": [
        {
          "internalType": "address",
          "name": "_from",
          "type": "address"
        },
        {
          "internalType": "address",
          "name": "_to",
          "type": "address"
        },
        {
          "internalType": "bytes32",
          "name": "_partition",
          "type": "bytes32"
        },
        {
          "internalType": "uint256",
          "name": "_value",
          "type": "uint256"
        },
        {
          "internalType": "bytes",
          "name": "_data",
          "type": "bytes"
        }
      ],
      "name": "canTransferByPartition",
      "outputs": [
        {
          "internalType": "bytes1",
          "name": "",
          "type": "bytes1"
        },
        {
          "internalType": "bytes32",
          "name": "",
          "type": "bytes32"
        },
        {
          "internalType": "bytes32",
          "name": "",
          "type": "bytes32"
        }
      ],
      "stateMutability": "view",
      "type": "function"
    },
    {
      "inputs": [],
      "name": "totalPartitions",
      "outputs": [
        {
          "internalType": "bytes32[]",
          "name": "",
          "type": "bytes32[]"
        }
      ],
      "stateMutability": "view",
      "type": "function"
    },
    {
      "inputs": [
        {
          "internalType": "bytes32[]",
          "name": "_newTotalPartitions",
          "type": "bytes32[]"
        }
      ],
      "name": "setTotalPartitions",
      "outputs": [],
      "stateMutability": "nonpayable",
      "type": "function"
    }
  ],
  "bytecode": "0x60806040526000600460146101000a81548160ff0219169083151502179055506001600460156101000a81548160ff0219169083151502179055506001600460166101000a81548160ff0219169083151502179055503480156200006257600080fd5b50604051620067c2380380620067c283398181016040528101906200008891906200054a565b8460009080519060200190620000a09291906200013b565b508360019080519060200190620000b99291906200013b565b5082600a620000c99190620007b2565b6002819055508160038190555033600460006101000a81548173ffffffffffffffffffffffffffffffffffffffff021916908373ffffffffffffffffffffffffffffffffffffffff16021790555080600690805190602001906200012f929190620001cc565b50505050505062000868565b828054620001499062000832565b90600052602060002090601f0160209004810192826200016d5760008555620001b9565b82601f106200018857805160ff1916838001178555620001b9565b82800160010185558215620001b9579182015b82811115620001b85782518255916020019190600101906200019b565b5b509050620001c891906200021e565b5090565b8280548282559060005260206000209081019282156200020b579160200282015b828111156200020a578251825591602001919060010190620001ed565b5b5090506200021a91906200023d565b5090565b5b80821115620002395760008160009055506001016200021f565b5090565b5b80821115620002585760008160009055506001016200023e565b5090565b6000604051905090565b600080fd5b600080fd5b600080fd5b600080fd5b6000601f19601f8301169050919050565b7f4e487b7100000000000000000000000000000000000000000000000000000000600052604160045260246000fd5b620002c5826200027a565b810181811067ffffffffffffffff82111715620002e757620002e66200028b565b5b80604052505050565b6000620002fc6200025c565b90506200030a8282620002ba565b919050565b600067ffffffffffffffff8211156200032d576200032c6200028b565b5b62000338826200027a565b9050602081019050919050565b60005b838110156200036557808201518184015260208101905062000348565b8381111562000375576000848401525b50505050565b6000620003926200038c846200030f565b620002f0565b905082815260208101848484011115620003b157620003b062000275565b5b620003be84828562000345565b509392505050565b600082601f830112620003de57620003dd62000270565b5b8151620003f08482602086016200037b565b91505092915050565b6000819050919050565b6200040e81620003f9565b81146200041a57600080fd5b50565b6000815190506200042e8162000403565b92915050565b600067ffffffffffffffff8211156200045257620004516200028b565b5b602082029050602081019050919050565b600080fd5b6000819050919050565b6200047d8162000468565b81146200048957600080fd5b50565b6000815190506200049d8162000472565b92915050565b6000620004ba620004b48462000434565b620002f0565b90508083825260208201905060208402830185811115620004e057620004df62000463565b5b835b818110156200050d5780620004f888826200048c565b845260208401935050602081019050620004e2565b5050509392505050565b600082601f8301126200052f576200052e62000270565b5b815162000541848260208601620004a3565b91505092915050565b600080600080600060a0868803121562000569576200056862000266565b5b600086015167ffffffffffffffff8111156200058a57620005896200026b565b5b6200059888828901620003c6565b955050602086015167ffffffffffffffff811115620005bc57620005bb6200026b565b5b620005ca88828901620003c6565b9450506040620005dd888289016200041d565b9350506060620005f0888289016200041d565b925050608086015167ffffffffffffffff8111156200061457620006136200026b565b5b620006228882890162000517565b9150509295509295909350565b7f4e487b7100000000000000000000000000000000000000000000000000000000600052601160045260246000fd5b60008160011c9050919050565b6000808291508390505b6001851115620006bd578086048111156200069557620006946200062f565b5b6001851615620006a55780820291505b8081029050620006b5856200065e565b945062000675565b94509492505050565b600082620006d85760019050620007ab565b81620006e85760009050620007ab565b81600181146200070157600281146200070c5762000742565b6001915050620007ab565b60ff8411156200072157620007206200062f565b5b8360020a9150848211156200073b576200073a6200062f565b5b50620007ab565b5060208310610133831016604e8410600b84101617156200077c5782820a9050838111156200077657620007756200062f565b5b620007ab565b6200078b84848460016200066b565b92509050818404811115620007a557620007a46200062f565b5b81810290505b9392505050565b6000620007bf82620003f9565b9150620007cc83620003f9565b9250620007fb7fffffffffffffffffffffffffffffffffffffffffffffffffffffffffffffffff8484620006c6565b905092915050565b7f4e487b7100000000000000000000000000000000000000000000000000000000600052602260045260246000fd5b600060028204905060018216806200084b57607f821691505b6020821081141562000862576200086162000803565b5b50919050565b615f4a80620008786000396000f3fe608060405234801561001057600080fd5b50600436106102745760003560e01c8063740ab8f411610151578063b429afeb116100c3578063ec9a6e8711610087578063ec9a6e87146107ce578063ee532f31146107ea578063f282527a14610806578063f3d490db14610822578063f6a74ed714610852578063fad8b32a1461086e57610274565b8063b429afeb14610718578063b4e8a6c414610748578063b6363cf214610766578063bb3acde914610796578063e77c646d146107b257610274565b80639675193c116101155780639675193c1461063157806398ddcec71461064d5780639945e70e14610669578063a9059cbb1461069b578063ab202d09146106cb578063b10d6b41146106e757610274565b8063740ab8f41461057b5780638c0dee9c146105ab57806392eefe9b146105db578063959b8c3f146105f757806395d89b411461061357610274565b80632f1cae85116101ea57806362eb0068116101ae57806362eb0068146104a957806367c84919146104c557806369598efe146104e15780636d77cad6146104ff5780636fe8d3a61461052f57806370a082311461054b57610274565b80632f1cae851461040357806330e82803146104215780633d0f6866146104515780634c783bf51461046d578063556f0dc71461048b57610274565b8063168ecec51161023c578063168ecec51461033057806318160ddd1461034c5780631badb25c1461036a57806323b872dd1461039b5780632535f762146103cb5780632bc6acc3146103e757610274565b8063010648ca1461027957806306fdde0314610295578063095ea7b3146102b3578063103ef9e1146102e3578063122eb575146102ff575b600080fd5b610293600480360381019061028e919061404f565b61088a565b005b61029d610972565b6040516102aa919061415c565b60405180910390f35b6102cd60048036038101906102c89190614212565b610a00565b6040516102da919061426d565b60405180910390f35b6102fd60048036038101906102f89190614288565b610b37565b005b610319600480360381019061031491906143f8565b610c3c565b6040516103279291906144c5565b60405180910390f35b61034a60048036038101906103459190614288565b610f4a565b005b61035461104f565b60405161036191906144fd565b60405180910390f35b610384600480360381019061037f9190614518565b611055565b6040516103929291906144c5565b60405180910390f35b6103b560048036038101906103b09190614587565b611220565b6040516103c2919061426d565b60405180910390f35b6103e560048036038101906103e09190614518565b61137a565b005b61040160048036038101906103fc9190614630565b61138b565b005b61040b61143a565b604051610418919061426d565b60405180910390f35b61043b60048036038101906104369190614288565b611451565b60405161044891906144fd565b60405180910390f35b61046b6004803603810190610466919061479a565b6114ac565b005b6104756114c6565b604051610482919061426d565b60405180910390f35b6104936114dd565b6040516104a091906144fd565b60405180910390f35b6104c360048036038101906104be91906147e3565b6114e3565b005b6104df60048036038101906104da9190614852565b611504565b005b6104e961173a565b6040516104f69190614993565b60405180910390f35b610519600480360381019061051491906149b5565b611792565b604051610526919061426d565b60405180910390f35b61054960048036038101906105449190614a34565b611838565b005b61056560048036038101906105609190614a61565b6118e5565b60405161057291906144fd565b60405180910390f35b61059560048036038101906105909190614a61565b61192e565b6040516105a29190614993565b60405180910390f35b6105c560048036038101906105c09190614a8e565b611a65565b6040516105d29190614b53565b60405180910390f35b6105f560048036038101906105f09190614a61565b611d18565b005b610611600480360381019061060c9190614a61565b611fb8565b005b61061b6120aa565b604051610628919061415c565b60405180910390f35b61064b60048036038101906106469190614518565b612138565b005b61066760048036038101906106629190614852565b612207565b005b610683600480360381019061067e9190614b6e565b612479565b60405161069293929190614c05565b60405180910390f35b6106b560048036038101906106b09190614212565b612601565b6040516106c2919061426d565b60405180910390f35b6106e560048036038101906106e09190614c3c565b612619565b005b61070160048036038101906106fc9190614c98565b6128b7565b60405161070f929190614cc5565b60405180910390f35b610732600480360381019061072d9190614a61565b612996565b60405161073f919061426d565b60405180910390f35b6107506129ec565b60405161075d9190614db3565b60405180910390f35b610780600480360381019061077b9190614dd5565b612a7a565b60405161078d919061426d565b60405180910390f35b6107b060048036038101906107ab9190614e15565b612b0e565b005b6107cc60048036038101906107c79190614e89565b612d24565b005b6107e860048036038101906107e39190614f3b565b612d33565b005b61080460048036038101906107ff91906143f8565b612d49565b005b610820600480360381019061081b9190614f88565b612e9c565b005b61083c60048036038101906108379190614852565b612f20565b6040516108499190614b53565b60405180910390f35b61086c60048036038101906108679190614a61565b612f48565b005b61088860048036038101906108839190614a61565b6131af565b005b604051806060016040528085815260200182815260200184848080601f016020809104026020016040519081016040528093929190818152602001838380828437600081840152601f19601f82011690508083019250505050505050815250600b60008681526020019081526020016000206000820151816000015560208201518160010155604082015181600201908051906020019061092c929190613e46565b50905050837f89730c201d2df6a4cef4e892559e63e022078b0ee939d11b6ced61fb098b282484848460405161096493929190615071565b60405180910390a250505050565b6000805461097f906150d2565b80601f01602080910402602001604051908101604052809291908181526020018280546109ab906150d2565b80156109f85780601f106109cd576101008083540402835291602001916109f8565b820191906000526020600020905b8154815290600101906020018083116109db57829003601f168201915b505050505081565b60008073ffffffffffffffffffffffffffffffffffffffff168373ffffffffffffffffffffffffffffffffffffffff161415610a71576040517f08c379a0000000000000000000000000000000000000000000000000000000008152600401610a6890615150565b60405180910390fd5b81600960003373ffffffffffffffffffffffffffffffffffffffff1673ffffffffffffffffffffffffffffffffffffffff16815260200190815260200160002060008573ffffffffffffffffffffffffffffffffffffffff1673ffffffffffffffffffffffffffffffffffffffff168152602001908152602001600020819055507f8c5be1e5ebec7d5bd14f71427d1e84f3dd0314c0f7b2291e5b200ac8c7c3b925338484604051610b259392919061517f565b60405180910390a16001905092915050565b6001601060003373ffffffffffffffffffffffffffffffffffffffff1673ffffffffffffffffffffffffffffffffffffffff16815260200190815260200160002060008373ffffffffffffffffffffffffffffffffffffffff1673ffffffffffffffffffffffffffffffffffffffff168152602001908152602001600020600084815260200190815260200160002060006101000a81548160ff0219169083151502179055503373ffffffffffffffffffffffffffffffffffffffff168173ffffffffffffffffffffffffffffffffffffffff16837f3646a897c70797ecc134b0adc32f471b07bf1d6f451133b0384badab531e3fd660405160405180910390a45050565b60008083600a60008873ffffffffffffffffffffffffffffffffffffffff1673ffffffffffffffffffffffffffffffffffffffff168152602001908152602001600020541015610cd1577f52000000000000000000000000000000000000000000000000000000000000007f696e73756666696369656e742062616c616e636500000000000000000000000091509150610f41565b83600960008873ffffffffffffffffffffffffffffffffffffffff1673ffffffffffffffffffffffffffffffffffffffff16815260200190815260200160002060003373ffffffffffffffffffffffffffffffffffffffff1673ffffffffffffffffffffffffffffffffffffffff168152602001908152602001600020541015610da0577f53000000000000000000000000000000000000000000000000000000000000007f696e73756666696369656e7420616c6c6f77616e63650000000000000000000091509150610f41565b600073ffffffffffffffffffffffffffffffffffffffff168573ffffffffffffffffffffffffffffffffffffffff161415610e20577f57000000000000000000000000000000000000000000000000000000000000007f696e76616c69642072656365697665720000000000000000000000000000000091509150610f41565b600e60008773ffffffffffffffffffffffffffffffffffffffff1673ffffffffffffffffffffffffffffffffffffffff16815260200190815260200160002060003373ffffffffffffffffffffffffffffffffffffffff1673ffffffffffffffffffffffffffffffffffffffff16815260200190815260200160002060009054906101000a900460ff1615610efa577f58000000000000000000000000000000000000000000000000000000000000007f696e76616c6964206f70657261746f720000000000000000000000000000000091509150610f41565b7f51000000000000000000000000000000000000000000000000000000000000007f7472616e73666572207375636365737300000000000000000000000000000000915091505b94509492505050565b6000601060003373ffffffffffffffffffffffffffffffffffffffff1673ffffffffffffffffffffffffffffffffffffffff16815260200190815260200160002060008373ffffffffffffffffffffffffffffffffffffffff1673ffffffffffffffffffffffffffffffffffffffff168152602001908152602001600020600084815260200190815260200160002060006101000a81548160ff0219169083151502179055503373ffffffffffffffffffffffffffffffffffffffff168173ffffffffffffffffffffffffffffffffffffffff16837f3b287c4f1bab4df949b33bceacef984f544dc5d5479930d00e4ee8c9d8dd96f260405160405180910390a45050565b60035481565b60008060011515600460149054906101000a900460ff16151514156110bf577f55000000000000000000000000000000000000000000000000000000000000007f66756e6473206c6f636b656420286c6f636b757020706572696f64290000000091509150611218565b600073ffffffffffffffffffffffffffffffffffffffff168573ffffffffffffffffffffffffffffffffffffffff16141561113f577f57000000000000000000000000000000000000000000000000000000000000007f696e76616c69642072656365697665720000000000000000000000000000000091509150611218565b83600a60003373ffffffffffffffffffffffffffffffffffffffff1673ffffffffffffffffffffffffffffffffffffffff1681526020019081526020016000205410156111d1577f52000000000000000000000000000000000000000000000000000000000000007f696e73756666696369656e742062616c616e636500000000000000000000000091509150611218565b7f51000000000000000000000000000000000000000000000000000000000000007f7472616e73666572207375636365737300000000000000000000000000000000915091505b935093915050565b600081600960008673ffffffffffffffffffffffffffffffffffffffff1673ffffffffffffffffffffffffffffffffffffffff16815260200190815260200160002060003373ffffffffffffffffffffffffffffffffffffffff1673ffffffffffffffffffffffffffffffffffffffff1681526020019081526020016000205410156112e1576040517f08c379a00000000000000000000000000000000000000000000000000000000081526004016112d890615202565b60405180910390fd5b6112ec8484846132a1565b506000600960008673ffffffffffffffffffffffffffffffffffffffff1673ffffffffffffffffffffffffffffffffffffffff16815260200190815260200160002060003373ffffffffffffffffffffffffffffffffffffffff1673ffffffffffffffffffffffffffffffffffffffff16815260200190815260200160002081905550600190509392505050565b6113853384846132a1565b50505050565b6113da868686868080601f016020809104026020016040519081016040528093929190818152602001838380828437600081840152601f19601f820116905080830192505050505050506134f6565b8573ffffffffffffffffffffffffffffffffffffffff167f876b7cb47aa150b3a5516188b19ed308752ad4d0ae9a702543353b78163f758933878787878760405161142a96959493929190615260565b60405180910390a2505050505050565b6000600460159054906101000a900460ff16905090565b6000600c60008373ffffffffffffffffffffffffffffffffffffffff1673ffffffffffffffffffffffffffffffffffffffff168152602001908152602001600020600084815260200190815260200160002054905092915050565b80600590805190602001906114c2929190613ecc565b5050565b6000600460169054906101000a900460ff16905090565b60025481565b6114ff833384846040518060200160405280600081525061360a565b505050565b600460009054906101000a900473ffffffffffffffffffffffffffffffffffffffff1673ffffffffffffffffffffffffffffffffffffffff163373ffffffffffffffffffffffffffffffffffffffff1614611594576040517f08c379a000000000000000000000000000000000000000000000000000000000815260040161158b90615303565b60405180910390fd5b600460159054906101000a900460ff166115e3576040517f08c379a00000000000000000000000000000000000000000000000000000000081526004016115da9061536f565b60405180910390fd5b6000600254836115f391906153be565b905080600c60008673ffffffffffffffffffffffffffffffffffffffff1673ffffffffffffffffffffffffffffffffffffffff168152602001908152602001600020600087815260200190815260200160002060008282546116559190615418565b9250508190555080600a60008673ffffffffffffffffffffffffffffffffffffffff1673ffffffffffffffffffffffffffffffffffffffff16815260200190815260200160002060008282546116ab9190615418565b9250508190555080600360008282546116c49190615418565b925050819055508373ffffffffffffffffffffffffffffffffffffffff163373ffffffffffffffffffffffffffffffffffffffff16867ff0ded82afbb1bb3ff3fc48cb2a26584aa84e4af0bf309c804ecdb94d0f6a98bb848660405161172b9291906154d8565b60405180910390a45050505050565b6060600580548060200260200160405190810160405280929190818152602001828054801561178857602002820191906000526020600020905b815481526020019060010190808311611774575b5050505050905090565b6000601060008373ffffffffffffffffffffffffffffffffffffffff1673ffffffffffffffffffffffffffffffffffffffff16815260200190815260200160002060008473ffffffffffffffffffffffffffffffffffffffff1673ffffffffffffffffffffffffffffffffffffffff168152602001908152602001600020600085815260200190815260200160002060009054906101000a900460ff1690509392505050565b600460009054906101000a900473ffffffffffffffffffffffffffffffffffffffff1673ffffffffffffffffffffffffffffffffffffffff163373ffffffffffffffffffffffffffffffffffffffff16146118c8576040517f08c379a00000000000000000000000000000000000000000000000000000000081526004016118bf90615303565b60405180910390fd5b80600460166101000a81548160ff02191690831515021790555050565b6000600a60008373ffffffffffffffffffffffffffffffffffffffff1673ffffffffffffffffffffffffffffffffffffffff168152602001908152602001600020549050919050565b6060600060058054905067ffffffffffffffff811115611951576119506142cd565b5b60405190808252806020026020018201604052801561197f5781602001602082028036833780820191505090505b50905060005b600580549050811015611a5b576000600c60008673ffffffffffffffffffffffffffffffffffffffff1673ffffffffffffffffffffffffffffffffffffffff1681526020019081526020016000206000600584815481106119e9576119e861551b565b5b90600052602060002001548152602001908152602001600020541115611a485760058181548110611a1d57611a1c61551b565b5b9060005260206000200154828281518110611a3b57611a3a61551b565b5b6020026020010181815250505b8080611a539061554a565b915050611985565b5080915050919050565b600060011515600460169054906101000a900460ff161515148015611ad35750601160003373ffffffffffffffffffffffffffffffffffffffff1673ffffffffffffffffffffffffffffffffffffffff16815260200190815260200160002060009054906101000a900460ff165b15611b7557611b04878787876040518060200160405280600081525060405180602001604052806000815250613a11565b508473ffffffffffffffffffffffffffffffffffffffff168673ffffffffffffffffffffffffffffffffffffffff167f6bf62b4b9c7b768275122bf70d429efc398a056d669b1efdf6c3976346246d7d33878787604051611b689493929190615593565b60405180910390a3611d0e565b601060008773ffffffffffffffffffffffffffffffffffffffff1673ffffffffffffffffffffffffffffffffffffffff16815260200190815260200160002060003373ffffffffffffffffffffffffffffffffffffffff1673ffffffffffffffffffffffffffffffffffffffff168152602001908152602001600020600088815260200190815260200160002060009054906101000a900460ff1680611ca15750600e60008773ffffffffffffffffffffffffffffffffffffffff1673ffffffffffffffffffffffffffffffffffffffff16815260200190815260200160002060003373ffffffffffffffffffffffffffffffffffffffff1673ffffffffffffffffffffffffffffffffffffffff16815260200190815260200160002060009054906101000a900460ff165b611ce0576040517f08c379a0000000000000000000000000000000000000000000000000000000008152600401611cd790615303565b60405180910390fd5b611d0c878787876040518060200160405280600081525060405180602001604052806000815250613a11565b505b9695505050505050565b600460009054906101000a900473ffffffffffffffffffffffffffffffffffffffff1673ffffffffffffffffffffffffffffffffffffffff163373ffffffffffffffffffffffffffffffffffffffff1614611da8576040517f08c379a0000000000000000000000000000000000000000000000000000000008152600401611d9f90615303565b60405180910390fd5b600073ffffffffffffffffffffffffffffffffffffffff168173ffffffffffffffffffffffffffffffffffffffff161415611e18576040517f08c379a0000000000000000000000000000000000000000000000000000000008152600401611e0f90615150565b60405180910390fd5b601160008273ffffffffffffffffffffffffffffffffffffffff1673ffffffffffffffffffffffffffffffffffffffff16815260200190815260200160002060009054906101000a900460ff1615611ea5576040517f08c379a0000000000000000000000000000000000000000000000000000000008152600401611e9c90615632565b60405180910390fd5b6001601160008373ffffffffffffffffffffffffffffffffffffffff1673ffffffffffffffffffffffffffffffffffffffff16815260200190815260200160002060006101000a81548160ff0219169083151502179055506007819080600181540180825580915050600190039060005260206000200160009091909190916101000a81548173ffffffffffffffffffffffffffffffffffffffff021916908373ffffffffffffffffffffffffffffffffffffffff1602179055506001600780549050611f729190615652565b601260008373ffffffffffffffffffffffffffffffffffffffff1673ffffffffffffffffffffffffffffffffffffffff1681526020019081526020016000208190555050565b6001600e60003373ffffffffffffffffffffffffffffffffffffffff1673ffffffffffffffffffffffffffffffffffffffff16815260200190815260200160002060008373ffffffffffffffffffffffffffffffffffffffff1673ffffffffffffffffffffffffffffffffffffffff16815260200190815260200160002060006101000a81548160ff0219169083151502179055503373ffffffffffffffffffffffffffffffffffffffff168173ffffffffffffffffffffffffffffffffffffffff167ff4caeb2d6ca8932a215a353d0703c326ec2d81fc68170f320eb2ab49e9df61f960405160405180910390a350565b600180546120b7906150d2565b80601f01602080910402602001604051908101604052809291908181526020018280546120e3906150d2565b80156121305780601f1061210557610100808354040283529160200191612130565b820191906000526020600020905b81548152906001019060200180831161211357829003601f168201915b505050505081565b81600960008573ffffffffffffffffffffffffffffffffffffffff1673ffffffffffffffffffffffffffffffffffffffff16815260200190815260200160002060003373ffffffffffffffffffffffffffffffffffffffff1673ffffffffffffffffffffffffffffffffffffffff1681526020019081526020016000205410156121f7576040517f08c379a00000000000000000000000000000000000000000000000000000000081526004016121ee90615202565b60405180910390fd5b6122028383836134f6565b505050565b60011515600460169054906101000a900460ff1615151480156122735750601160003373ffffffffffffffffffffffffffffffffffffffff1673ffffffffffffffffffffffffffffffffffffffff16815260200190815260200160002060009054906101000a900460ff165b156122eb57612294848484604051806020016040528060008152508561360a565b8273ffffffffffffffffffffffffffffffffffffffff167f876b7cb47aa150b3a5516188b19ed308752ad4d0ae9a702543353b78163f75893384846040516122de93929190615686565b60405180910390a2612473565b600e60008473ffffffffffffffffffffffffffffffffffffffff1673ffffffffffffffffffffffffffffffffffffffff16815260200190815260200160002060003373ffffffffffffffffffffffffffffffffffffffff1673ffffffffffffffffffffffffffffffffffffffff16815260200190815260200160002060009054906101000a900460ff16806124175750601060008473ffffffffffffffffffffffffffffffffffffffff1673ffffffffffffffffffffffffffffffffffffffff16815260200190815260200160002060003373ffffffffffffffffffffffffffffffffffffffff1673ffffffffffffffffffffffffffffffffffffffff168152602001908152602001600020600085815260200190815260200160002060009054906101000a900460ff165b612456576040517f08c379a000000000000000000000000000000000000000000000000000000000815260040161244d90615150565b60405180910390fd5b612472848484604051806020016040528060008152508561360a565b5b50505050565b60008060008073ffffffffffffffffffffffffffffffffffffffff168773ffffffffffffffffffffffffffffffffffffffff16141561250257857f5500000000000000000000000000000000000000000000000000000000000000907f696e76616c696420726563656976657200000000000000000000000000000000909250925092506125f6565b600c60008973ffffffffffffffffffffffffffffffffffffffff1673ffffffffffffffffffffffffffffffffffffffff1681526020019081526020016000206000878152602001908152602001600020548511156125aa57857f5500000000000000000000000000000000000000000000000000000000000000907f696e73756666696369656e742062616c616e6365000000000000000000000000909250925092506125f6565b857f5100000000000000000000000000000000000000000000000000000000000000907f7472616e73666572207375636365737300000000000000000000000000000000909250925092505b955095509592505050565b600061260e3384846132a1565b506001905092915050565b600080600080600073__Certificate___________________________63447a06f5886040518263ffffffff1660e01b81526004016126589190615721565b600060405180830381865af4158015612675573d6000803e3d6000fd5b505050506040513d6000823e3d601f19601f8201168201806040525081019061269e9190615969565b945094509450945094506013856040516126b89190615a74565b908152602001604051809103902060009054906101000a900460ff1615612714576040517f08c379a000000000000000000000000000000000000000000000000000000000815260040161270b90615ad7565b60405180910390fd5b600073__Certificate___________________________63e4268d9287878787878d3060006040518963ffffffff1660e01b815260040161275c989796959493929190615c94565b602060405180830381865af4158015612779573d6000803e3d6000fd5b505050506040513d601f19601f8201168201806040525081019061279d9190615d2e565b9050600460009054906101000a900473ffffffffffffffffffffffffffffffffffffffff1673ffffffffffffffffffffffffffffffffffffffff168173ffffffffffffffffffffffffffffffffffffffff1614806128445750601160008273ffffffffffffffffffffffffffffffffffffffff1673ffffffffffffffffffffffffffffffffffffffff16815260200190815260200160002060009054906101000a900460ff165b612883576040517f08c379a000000000000000000000000000000000000000000000000000000000815260040161287a90615da7565b60405180910390fd5b6013866040516128939190615a74565b908152602001604051809103902060009054906101000a9050505050505050505050565b6060600080600b600085815260200190815260200160002060405180606001604052908160008201548152602001600182015481526020016002820180546128fe906150d2565b80601f016020809104026020016040519081016040528092919081815260200182805461292a906150d2565b80156129775780601f1061294c57610100808354040283529160200191612977565b820191906000526020600020905b81548152906001019060200180831161295a57829003601f168201915b5050505050815250509050806040015181602001519250925050915091565b6000601160008373ffffffffffffffffffffffffffffffffffffffff1673ffffffffffffffffffffffffffffffffffffffff16815260200190815260200160002060009054906101000a900460ff169050919050565b60606007805480602002602001604051908101604052809291908181526020018280548015612a7057602002820191906000526020600020905b8160009054906101000a900473ffffffffffffffffffffffffffffffffffffffff1673ffffffffffffffffffffffffffffffffffffffff1681526020019060010190808311612a26575b5050505050905090565b6000600e60008373ffffffffffffffffffffffffffffffffffffffff1673ffffffffffffffffffffffffffffffffffffffff16815260200190815260200160002060008473ffffffffffffffffffffffffffffffffffffffff1673ffffffffffffffffffffffffffffffffffffffff16815260200190815260200160002060009054906101000a900460ff16905092915050565b600460009054906101000a900473ffffffffffffffffffffffffffffffffffffffff1673ffffffffffffffffffffffffffffffffffffffff163373ffffffffffffffffffffffffffffffffffffffff1614612b9e576040517f08c379a0000000000000000000000000000000000000000000000000000000008152600401612b9590615303565b60405180910390fd5b600460159054906101000a900460ff16612bed576040517f08c379a0000000000000000000000000000000000000000000000000000000008152600401612be49061536f565b60405180910390fd5b600073ffffffffffffffffffffffffffffffffffffffff168473ffffffffffffffffffffffffffffffffffffffff161415612c5d576040517f08c379a0000000000000000000000000000000000000000000000000000000008152600401612c5490615e13565b60405180910390fd5b600060025484612c6d91906153be565b905080600a60008773ffffffffffffffffffffffffffffffffffffffff1673ffffffffffffffffffffffffffffffffffffffff1681526020019081526020016000206000828254612cbe9190615418565b925050819055508060036000828254612cd79190615418565b925050819055507f5a1f7f24a8d262d4fd95d7324e83dcdd93b4b9911cc5f45cac5a0382242953a4858260035442604051612d159493929190615e33565b60405180910390a15050505050565b612d2f3383836134f6565b5050565b818160069190612d44929190613f19565b505050565b81600960008673ffffffffffffffffffffffffffffffffffffffff1673ffffffffffffffffffffffffffffffffffffffff16815260200190815260200160002060003373ffffffffffffffffffffffffffffffffffffffff1673ffffffffffffffffffffffffffffffffffffffff168152602001908152602001600020541015612e08576040517f08c379a0000000000000000000000000000000000000000000000000000000008152600401612dff90615202565b60405180910390fd5b612e138484846132a1565b506000600960008673ffffffffffffffffffffffffffffffffffffffff1673ffffffffffffffffffffffffffffffffffffffff16815260200190815260200160002060003373ffffffffffffffffffffffffffffffffffffffff1673ffffffffffffffffffffffffffffffffffffffff1681526020019081526020016000208190555050505050565b612ea78787876132a1565b508573ffffffffffffffffffffffffffffffffffffffff168773ffffffffffffffffffffffffffffffffffffffff167f6bf62b4b9c7b768275122bf70d429efc398a056d669b1efdf6c3976346246d7d338888888888604051612f0f96959493929190615260565b60405180910390a350505050505050565b6000612f3f853386868660405180602001604052806000815250613a11565b50949350505050565b600460009054906101000a900473ffffffffffffffffffffffffffffffffffffffff1673ffffffffffffffffffffffffffffffffffffffff163373ffffffffffffffffffffffffffffffffffffffff1614612fd8576040517f08c379a0000000000000000000000000000000000000000000000000000000008152600401612fcf90615303565b60405180910390fd5b600073ffffffffffffffffffffffffffffffffffffffff168173ffffffffffffffffffffffffffffffffffffffff161415613048576040517f08c379a000000000000000000000000000000000000000000000000000000000815260040161303f90615150565b60405180910390fd5b601160008273ffffffffffffffffffffffffffffffffffffffff1673ffffffffffffffffffffffffffffffffffffffff16815260200190815260200160002060009054906101000a900460ff166130d4576040517f08c379a00000000000000000000000000000000000000000000000000000000081526004016130cb90615150565b60405180910390fd5b6000601160008373ffffffffffffffffffffffffffffffffffffffff1673ffffffffffffffffffffffffffffffffffffffff16815260200190815260200160002060006101000a81548160ff0219169083151502179055506007601260008373ffffffffffffffffffffffffffffffffffffffff1673ffffffffffffffffffffffffffffffffffffffff168152602001908152602001600020548154811061317f5761317e61551b565b5b9060005260206000200160006101000a81549073ffffffffffffffffffffffffffffffffffffffff021916905550565b6000600e60003373ffffffffffffffffffffffffffffffffffffffff1673ffffffffffffffffffffffffffffffffffffffff16815260200190815260200160002060008373ffffffffffffffffffffffffffffffffffffffff1673ffffffffffffffffffffffffffffffffffffffff16815260200190815260200160002060006101000a81548160ff0219169083151502179055503373ffffffffffffffffffffffffffffffffffffffff168173ffffffffffffffffffffffffffffffffffffffff167f50546e66e5f44d728365dc3908c63bc5cfeeab470722c1677e3073a6ac294aa160405160405180910390a350565b60008073ffffffffffffffffffffffffffffffffffffffff168373ffffffffffffffffffffffffffffffffffffffff161415613312576040517f08c379a000000000000000000000000000000000000000000000000000000000815260040161330990615e13565b60405180910390fd5b81600a60008673ffffffffffffffffffffffffffffffffffffffff1673ffffffffffffffffffffffffffffffffffffffff168152602001908152602001600020541015613394576040517f08c379a000000000000000000000000000000000000000000000000000000000815260040161338b90615ec4565b60405180910390fd5b81600a60008673ffffffffffffffffffffffffffffffffffffffff1673ffffffffffffffffffffffffffffffffffffffff168152602001908152602001600020546133df9190615652565b600a60008673ffffffffffffffffffffffffffffffffffffffff1673ffffffffffffffffffffffffffffffffffffffff1681526020019081526020016000208190555081600a60008573ffffffffffffffffffffffffffffffffffffffff1673ffffffffffffffffffffffffffffffffffffffff1681526020019081526020016000205461346d9190615418565b600a60008573ffffffffffffffffffffffffffffffffffffffff1673ffffffffffffffffffffffffffffffffffffffff168152602001908152602001600020819055507fddf252ad1be2c89b69c2b068fc378daa952ba7f163c4a11628f55a4df523b3ef8484846040516134e39392919061517f565b60405180910390a1600190509392505050565b81600a60008573ffffffffffffffffffffffffffffffffffffffff1673ffffffffffffffffffffffffffffffffffffffff168152602001908152602001600020541015613578576040517f08c379a000000000000000000000000000000000000000000000000000000000815260040161356f90615ec4565b60405180910390fd5b613584836000846132a1565b5081600360008282546135979190615652565b925050819055508273ffffffffffffffffffffffffffffffffffffffff163373ffffffffffffffffffffffffffffffffffffffff167fb7d0d6b60740753e9f16692a2f479472a1385aec2420fa43225b02f2ffa1afe784846040516135fd929190615ee4565b60405180910390a3505050565b600073ffffffffffffffffffffffffffffffffffffffff163373ffffffffffffffffffffffffffffffffffffffff16141561367a576040517f08c379a000000000000000000000000000000000000000000000000000000000815260040161367190615303565b60405180910390fd5b82600c60008673ffffffffffffffffffffffffffffffffffffffff1673ffffffffffffffffffffffffffffffffffffffff168152602001908152602001600020600087815260200190815260200160002054101561370d576040517f08c379a000000000000000000000000000000000000000000000000000000000815260040161370490615ec4565b60405180910390fd5b82600c60008673ffffffffffffffffffffffffffffffffffffffff1673ffffffffffffffffffffffffffffffffffffffff1681526020019081526020016000206000878152602001908152602001600020546137699190615652565b600c60008673ffffffffffffffffffffffffffffffffffffffff1673ffffffffffffffffffffffffffffffffffffffff16815260200190815260200160002060008781526020019081526020016000208190555082600a60008673ffffffffffffffffffffffffffffffffffffffff1673ffffffffffffffffffffffffffffffffffffffff168152602001908152602001600020546138089190615652565b600a60008673ffffffffffffffffffffffffffffffffffffffff1673ffffffffffffffffffffffffffffffffffffffff1681526020019081526020016000208190555082600c60008073ffffffffffffffffffffffffffffffffffffffff1673ffffffffffffffffffffffffffffffffffffffff1681526020019081526020016000206000878152602001908152602001600020546138a79190615418565b600c60008073ffffffffffffffffffffffffffffffffffffffff1673ffffffffffffffffffffffffffffffffffffffff16815260200190815260200160002060008781526020019081526020016000208190555082600a60008073ffffffffffffffffffffffffffffffffffffffff1673ffffffffffffffffffffffffffffffffffffffff168152602001908152602001600020546139469190615418565b600a60008073ffffffffffffffffffffffffffffffffffffffff1673ffffffffffffffffffffffffffffffffffffffff16815260200190815260200160002081905550826003600082825461399b9190615652565b925050819055508373ffffffffffffffffffffffffffffffffffffffff163373ffffffffffffffffffffffffffffffffffffffff16867fce306c3dbc4a497124b5a4f2be8388b41084c1d74663da27ecee1186c00239bf8685604051613a02929190615ee4565b60405180910390a45050505050565b600083600c60008873ffffffffffffffffffffffffffffffffffffffff1673ffffffffffffffffffffffffffffffffffffffff1681526020019081526020016000206000898152602001908152602001600020541015613aa6576040517f08c379a0000000000000000000000000000000000000000000000000000000008152600401613a9d90615ec4565b60405180910390fd5b600073ffffffffffffffffffffffffffffffffffffffff168573ffffffffffffffffffffffffffffffffffffffff161415613b16576040517f08c379a0000000000000000000000000000000000000000000000000000000008152600401613b0d90615e13565b60405180910390fd5b83600c60008873ffffffffffffffffffffffffffffffffffffffff1673ffffffffffffffffffffffffffffffffffffffff168152602001908152602001600020600089815260200190815260200160002054613b729190615652565b600c60008873ffffffffffffffffffffffffffffffffffffffff1673ffffffffffffffffffffffffffffffffffffffff16815260200190815260200160002060008981526020019081526020016000208190555083600a60008873ffffffffffffffffffffffffffffffffffffffff1673ffffffffffffffffffffffffffffffffffffffff16815260200190815260200160002054613c119190615652565b600a60008873ffffffffffffffffffffffffffffffffffffffff1673ffffffffffffffffffffffffffffffffffffffff1681526020019081526020016000208190555083600c60008773ffffffffffffffffffffffffffffffffffffffff1673ffffffffffffffffffffffffffffffffffffffff168152602001908152602001600020600089815260200190815260200160002054613cb09190615418565b600c60008773ffffffffffffffffffffffffffffffffffffffff1673ffffffffffffffffffffffffffffffffffffffff16815260200190815260200160002060008981526020019081526020016000208190555083600a60008773ffffffffffffffffffffffffffffffffffffffff1673ffffffffffffffffffffffffffffffffffffffff16815260200190815260200160002054613d4f9190615418565b600a60008773ffffffffffffffffffffffffffffffffffffffff1673ffffffffffffffffffffffffffffffffffffffff168152602001908152602001600020819055508473ffffffffffffffffffffffffffffffffffffffff163373ffffffffffffffffffffffffffffffffffffffff16887fff4e9a26af4eb73b8bacfaa4abd4fea03d9448e7b912dc5ff4019048875aa2d433888888604051613df69493929190615593565b60405180910390a47fddf252ad1be2c89b69c2b068fc378daa952ba7f163c4a11628f55a4df523b3ef868686604051613e319392919061517f565b60405180910390a18690509695505050505050565b828054613e52906150d2565b90600052602060002090601f016020900481019282613e745760008555613ebb565b82601f10613e8d57805160ff1916838001178555613ebb565b82800160010185558215613ebb579182015b82811115613eba578251825591602001919060010190613e9f565b5b509050613ec89190613f66565b5090565b828054828255906000526020600020908101928215613f08579160200282015b82811115613f07578251825591602001919060010190613eec565b5b509050613f159190613f83565b5090565b828054828255906000526020600020908101928215613f55579160200282015b82811115613f54578235825591602001919060010190613f39565b5b509050613f629190613f83565b5090565b5b80821115613f7f576000816000905550600101613f67565b5090565b5b80821115613f9c576000816000905550600101613f84565b5090565b6000604051905090565b600080fd5b600080fd5b6000819050919050565b613fc781613fb4565b8114613fd257600080fd5b50565b600081359050613fe481613fbe565b92915050565b600080fd5b600080fd5b600080fd5b60008083601f84011261400f5761400e613fea565b5b8235905067ffffffffffffffff81111561402c5761402b613fef565b5b60208301915083600182028301111561404857614047613ff4565b5b9250929050565b6000806000806060858703121561406957614068613faa565b5b600061407787828801613fd5565b945050602085013567ffffffffffffffff81111561409857614097613faf565b5b6140a487828801613ff9565b935093505060406140b787828801613fd5565b91505092959194509250565b600081519050919050565b600082825260208201905092915050565b60005b838110156140fd5780820151818401526020810190506140e2565b8381111561410c576000848401525b50505050565b6000601f19601f8301169050919050565b600061412e826140c3565b61413881856140ce565b93506141488185602086016140df565b61415181614112565b840191505092915050565b600060208201905081810360008301526141768184614123565b905092915050565b600073ffffffffffffffffffffffffffffffffffffffff82169050919050565b60006141a98261417e565b9050919050565b6141b98161419e565b81146141c457600080fd5b50565b6000813590506141d6816141b0565b92915050565b6000819050919050565b6141ef816141dc565b81146141fa57600080fd5b50565b60008135905061420c816141e6565b92915050565b6000806040838503121561422957614228613faa565b5b6000614237858286016141c7565b9250506020614248858286016141fd565b9150509250929050565b60008115159050919050565b61426781614252565b82525050565b6000602082019050614282600083018461425e565b92915050565b6000806040838503121561429f5761429e613faa565b5b60006142ad85828601613fd5565b92505060206142be858286016141c7565b9150509250929050565b600080fd5b7f4e487b7100000000000000000000000000000000000000000000000000000000600052604160045260246000fd5b61430582614112565b810181811067ffffffffffffffff82111715614324576143236142cd565b5b80604052505050565b6000614337613fa0565b905061434382826142fc565b919050565b600067ffffffffffffffff821115614363576143626142cd565b5b61436c82614112565b9050602081019050919050565b82818337600083830152505050565b600061439b61439684614348565b61432d565b9050828152602081018484840111156143b7576143b66142c8565b5b6143c2848285614379565b509392505050565b600082601f8301126143df576143de613fea565b5b81356143ef848260208601614388565b91505092915050565b6000806000806080858703121561441257614411613faa565b5b6000614420878288016141c7565b9450506020614431878288016141c7565b9350506040614442878288016141fd565b925050606085013567ffffffffffffffff81111561446357614462613faf565b5b61446f878288016143ca565b91505092959194509250565b60007fff0000000000000000000000000000000000000000000000000000000000000082169050919050565b6144b08161447b565b82525050565b6144bf81613fb4565b82525050565b60006040820190506144da60008301856144a7565b6144e760208301846144b6565b9392505050565b6144f7816141dc565b82525050565b600060208201905061451260008301846144ee565b92915050565b60008060006060848603121561453157614530613faa565b5b600061453f868287016141c7565b9350506020614550868287016141fd565b925050604084013567ffffffffffffffff81111561457157614570613faf565b5b61457d868287016143ca565b9150509250925092565b6000806000606084860312156145a05761459f613faa565b5b60006145ae868287016141c7565b93505060206145bf868287016141c7565b92505060406145d0868287016141fd565b9150509250925092565b60008083601f8401126145f0576145ef613fea565b5b8235905067ffffffffffffffff81111561460d5761460c613fef565b5b60208301915083600182028301111561462957614628613ff4565b5b9250929050565b6000806000806000806080878903121561464d5761464c613faa565b5b600061465b89828a016141c7565b965050602061466c89828a016141fd565b955050604087013567ffffffffffffffff81111561468d5761468c613faf565b5b61469989828a016145da565b9450945050606087013567ffffffffffffffff8111156146bc576146bb613faf565b5b6146c889828a016145da565b92509250509295509295509295565b600067ffffffffffffffff8211156146f2576146f16142cd565b5b602082029050602081019050919050565b6000614716614711846146d7565b61432d565b9050808382526020820190506020840283018581111561473957614738613ff4565b5b835b81811015614762578061474e8882613fd5565b84526020840193505060208101905061473b565b5050509392505050565b600082601f83011261478157614780613fea565b5b8135614791848260208601614703565b91505092915050565b6000602082840312156147b0576147af613faa565b5b600082013567ffffffffffffffff8111156147ce576147cd613faf565b5b6147da8482850161476c565b91505092915050565b6000806000606084860312156147fc576147fb613faa565b5b600061480a86828701613fd5565b935050602061481b868287016141fd565b925050604084013567ffffffffffffffff81111561483c5761483b613faf565b5b614848868287016143ca565b9150509250925092565b6000806000806080858703121561486c5761486b613faa565b5b600061487a87828801613fd5565b945050602061488b878288016141c7565b935050604061489c878288016141fd565b925050606085013567ffffffffffffffff8111156148bd576148bc613faf565b5b6148c9878288016143ca565b91505092959194509250565b600081519050919050565b600082825260208201905092915050565b6000819050602082019050919050565b61490a81613fb4565b82525050565b600061491c8383614901565b60208301905092915050565b6000602082019050919050565b6000614940826148d5565b61494a81856148e0565b9350614955836148f1565b8060005b8381101561498657815161496d8882614910565b975061497883614928565b925050600181019050614959565b5085935050505092915050565b600060208201905081810360008301526149ad8184614935565b905092915050565b6000806000606084860312156149ce576149cd613faa565b5b60006149dc86828701613fd5565b93505060206149ed868287016141c7565b92505060406149fe868287016141c7565b9150509250925092565b614a1181614252565b8114614a1c57600080fd5b50565b600081359050614a2e81614a08565b92915050565b600060208284031215614a4a57614a49613faa565b5b6000614a5884828501614a1f565b91505092915050565b600060208284031215614a7757614a76613faa565b5b6000614a85848285016141c7565b91505092915050565b60008060008060008060c08789031215614aab57614aaa613faa565b5b6000614ab989828a01613fd5565b9650506020614aca89828a016141c7565b9550506040614adb89828a016141c7565b9450506060614aec89828a016141fd565b935050608087013567ffffffffffffffff811115614b0d57614b0c613faf565b5b614b1989828a016143ca565b92505060a087013567ffffffffffffffff811115614b3a57614b39613faf565b5b614b4689828a016143ca565b9150509295509295509295565b6000602082019050614b6860008301846144b6565b92915050565b600080600080600060a08688031215614b8a57614b89613faa565b5b6000614b98888289016141c7565b9550506020614ba9888289016141c7565b9450506040614bba88828901613fd5565b9350506060614bcb888289016141fd565b925050608086013567ffffffffffffffff811115614bec57614beb613faf565b5b614bf8888289016143ca565b9150509295509295909350565b6000606082019050614c1a60008301866144a7565b614c2760208301856144b6565b614c3460408301846144b6565b949350505050565b60008060408385031215614c5357614c52613faa565b5b600083013567ffffffffffffffff811115614c7157614c70613faf565b5b614c7d858286016143ca565b9250506020614c8e858286016141fd565b9150509250929050565b600060208284031215614cae57614cad613faa565b5b6000614cbc84828501613fd5565b91505092915050565b60006040820190508181036000830152614cdf8185614123565b9050614cee60208301846144b6565b9392505050565b600081519050919050565b600082825260208201905092915050565b6000819050602082019050919050565b614d2a8161419e565b82525050565b6000614d3c8383614d21565b60208301905092915050565b6000602082019050919050565b6000614d6082614cf5565b614d6a8185614d00565b9350614d7583614d11565b8060005b83811015614da6578151614d8d8882614d30565b9750614d9883614d48565b925050600181019050614d79565b5085935050505092915050565b60006020820190508181036000830152614dcd8184614d55565b905092915050565b60008060408385031215614dec57614deb613faa565b5b6000614dfa858286016141c7565b9250506020614e0b858286016141c7565b9150509250929050565b60008060008060608587031215614e2f57614e2e613faa565b5b6000614e3d878288016141c7565b9450506020614e4e878288016141fd565b935050604085013567ffffffffffffffff811115614e6f57614e6e613faf565b5b614e7b878288016145da565b925092505092959194509250565b60008060408385031215614ea057614e9f613faa565b5b6000614eae858286016141fd565b925050602083013567ffffffffffffffff811115614ecf57614ece613faf565b5b614edb858286016143ca565b9150509250929050565b60008083601f840112614efb57614efa613fea565b5b8235905067ffffffffffffffff811115614f1857614f17613fef565b5b602083019150836020820283011115614f3457614f33613ff4565b5b9250929050565b60008060208385031215614f5257614f51613faa565b5b600083013567ffffffffffffffff811115614f7057614f6f613faf565b5b614f7c85828601614ee5565b92509250509250929050565b600080600080600080600060a0888a031215614fa757614fa6613faa565b5b6000614fb58a828b016141c7565b9750506020614fc68a828b016141c7565b9650506040614fd78a828b016141fd565b955050606088013567ffffffffffffffff811115614ff857614ff7613faf565b5b6150048a828b016145da565b9450945050608088013567ffffffffffffffff81111561502757615026613faf565b5b6150338a828b016145da565b925092505092959891949750929550565b600061505083856140ce565b935061505d838584614379565b61506683614112565b840190509392505050565b6000604082019050818103600083015261508c818587615044565b905061509b60208301846144b6565b949350505050565b7f4e487b7100000000000000000000000000000000000000000000000000000000600052602260045260246000fd5b600060028204905060018216806150ea57607f821691505b602082108114156150fe576150fd6150a3565b5b50919050565b7f3078353800000000000000000000000000000000000000000000000000000000600082015250565b600061513a6004836140ce565b915061514582615104565b602082019050919050565b600060208201905081810360008301526151698161512d565b9050919050565b6151798161419e565b82525050565b60006060820190506151946000830186615170565b6151a16020830185615170565b6151ae60408301846144ee565b949350505050565b7f3078353300000000000000000000000000000000000000000000000000000000600082015250565b60006151ec6004836140ce565b91506151f7826151b6565b602082019050919050565b6000602082019050818103600083015261521b816151df565b9050919050565b600082825260208201905092915050565b600061523f8385615222565b935061524c838584614379565b61525583614112565b840190509392505050565b60006080820190506152756000830189615170565b61528260208301886144ee565b8181036040830152615295818688615233565b905081810360608301526152aa818486615233565b9050979650505050505050565b7f3078353600000000000000000000000000000000000000000000000000000000600082015250565b60006152ed6004836140ce565b91506152f8826152b7565b602082019050919050565b6000602082019050818103600083015261531c816152e0565b9050919050565b7f3078353500000000000000000000000000000000000000000000000000000000600082015250565b60006153596004836140ce565b915061536482615323565b602082019050919050565b600060208201905081810360008301526153888161534c565b9050919050565b7f4e487b7100000000000000000000000000000000000000000000000000000000600052601160045260246000fd5b60006153c9826141dc565b91506153d4836141dc565b9250817fffffffffffffffffffffffffffffffffffffffffffffffffffffffffffffffff048311821515161561540d5761540c61538f565b5b828202905092915050565b6000615423826141dc565b915061542e836141dc565b9250827fffffffffffffffffffffffffffffffffffffffffffffffffffffffffffffffff038211156154635761546261538f565b5b828201905092915050565b600081519050919050565b60006154848261546e565b61548e8185615222565b935061549e8185602086016140df565b6154a781614112565b840191505092915050565b50565b60006154c2600083615222565b91506154cd826154b2565b600082019050919050565b60006060820190506154ed60008301856144ee565b81810360208301526154ff8184615479565b90508181036040830152615512816154b5565b90509392505050565b7f4e487b7100000000000000000000000000000000000000000000000000000000600052603260045260246000fd5b6000615555826141dc565b91507fffffffffffffffffffffffffffffffffffffffffffffffffffffffffffffffff8214156155885761558761538f565b5b600182019050919050565b60006080820190506155a86000830187615170565b6155b560208301866144ee565b81810360408301526155c78185615479565b905081810360608301526155db8184615479565b905095945050505050565b7f4143430000000000000000000000000000000000000000000000000000000000600082015250565b600061561c6003836140ce565b9150615627826155e6565b602082019050919050565b6000602082019050818103600083015261564b8161560f565b9050919050565b600061565d826141dc565b9150615668836141dc565b92508282101561567b5761567a61538f565b5b828203905092915050565b600060808201905061569b6000830186615170565b6156a860208301856144ee565b81810360408301526156b9816154b5565b905081810360608301526156cd8184615479565b9050949350505050565b600082825260208201905092915050565b60006156f38261546e565b6156fd81856156d7565b935061570d8185602086016140df565b61571681614112565b840191505092915050565b6000602082019050818103600083015261573b81846156e8565b905092915050565b600061575661575184614348565b61432d565b905082815260208101848484011115615772576157716142c8565b5b61577d8482856140df565b509392505050565b600082601f83011261579a57615799613fea565b5b81516157aa848260208601615743565b91505092915050565b6000815190506157c281613fbe565b92915050565b6000815190506157d7816141e6565b92915050565b600080fd5b600080fd5b600067ffffffffffffffff821115615802576158016142cd565b5b61580b82614112565b9050602081019050919050565b600061582b615826846157e7565b61432d565b905082815260208101848484011115615847576158466142c8565b5b6158528482856140df565b509392505050565b600082601f83011261586f5761586e613fea565b5b815161587f848260208601615818565b91505092915050565b600081519050615897816141b0565b92915050565b6000608082840312156158b3576158b26157dd565b5b6158bd608061432d565b9050600082015167ffffffffffffffff8111156158dd576158dc6157e2565b5b6158e98482850161585a565b600083015250602082015167ffffffffffffffff81111561590d5761590c6157e2565b5b6159198482850161585a565b602083015250604082015167ffffffffffffffff81111561593d5761593c6157e2565b5b6159498482850161585a565b604083015250606061595d84828501615888565b60608301525092915050565b600080600080600060a0868803121561598557615984613faa565b5b600086015167ffffffffffffffff8111156159a3576159a2613faf565b5b6159af88828901615785565b95505060206159c0888289016157b3565b94505060406159d1888289016157c8565b935050606086015167ffffffffffffffff8111156159f2576159f1613faf565b5b6159fe8882890161589d565b925050608086015167ffffffffffffffff811115615a1f57615a1e613faf565b5b615a2b8882890161589d565b9150509295509295909350565b600081905092915050565b6000615a4e8261546e565b615a588185615a38565b9350615a688185602086016140df565b80840191505092915050565b6000615a808284615a43565b915081905092915050565b7f7573656420736967000000000000000000000000000000000000000000000000600082015250565b6000615ac16008836140ce565b9150615acc82615a8b565b602082019050919050565b60006020820190508181036000830152615af081615ab4565b9050919050565b615b0081613fb4565b82525050565b615b0f816141dc565b82525050565b600082825260208201905092915050565b6000615b31826140c3565b615b3b8185615b15565b9350615b4b8185602086016140df565b615b5481614112565b840191505092915050565b615b688161419e565b82525050565b60006080830160008301518482036000860152615b8b8282615b26565b91505060208301518482036020860152615ba58282615b26565b91505060408301518482036040860152615bbf8282615b26565b9150506060830151615bd46060860182615b5f565b508091505092915050565b615be88161419e565b82525050565b600082825260208201905092915050565b60008190508160005260206000209050919050565b60008154615c21816150d2565b615c2b8186615bee565b94506001821660008114615c465760018114615c5857615c8b565b60ff1983168652602086019350615c8b565b615c6185615bff565b60005b83811015615c8357815481890152600182019150602081019050615c64565b808801955050505b50505092915050565b6000610100820190508181036000830152615caf818b6156e8565b9050615cbe602083018a615af7565b615ccb6040830189615b06565b8181036060830152615cdd8188615b6e565b90508181036080830152615cf18187615b6e565b9050615d0060a0830186615b06565b615d0d60c0830185615bdf565b81810360e0830152615d1f8184615c14565b90509998505050505050505050565b600060208284031215615d4457615d43613faa565b5b6000615d5284828501615888565b91505092915050565b7f696e76616c6964207369676e6572000000000000000000000000000000000000600082015250565b6000615d91600e836140ce565b9150615d9c82615d5b565b602082019050919050565b60006020820190508181036000830152615dc081615d84565b9050919050565b7f3078353700000000000000000000000000000000000000000000000000000000600082015250565b6000615dfd6004836140ce565b9150615e0882615dc7565b602082019050919050565b60006020820190508181036000830152615e2c81615df0565b9050919050565b6000608082019050615e486000830187615170565b615e5560208301866144ee565b615e6260408301856144ee565b615e6f60608301846144ee565b95945050505050565b7f3078353200000000000000000000000000000000000000000000000000000000600082015250565b6000615eae6004836140ce565b9150615eb982615e78565b602082019050919050565b60006020820190508181036000830152615edd81615ea1565b9050919050565b6000604082019050615ef960008301856144ee565b8181036020830152615f0b8184615479565b9050939250505056fea2646970667358221220d078fde6b0d60d3c2b5ff1eb1ae4cc26b47c1d372acb5c20116bf47529673ab464736f6c634300080a0033",
  "immutableReferences": {},
  "source": "// solidity version\npragma solidity 0.8.10;\n\nimport \"../utils/CertificateLibrary.sol\";\n\n\ncontract ERC1400 {\n\n\n    /************************************************ Variable Declarations and Initaalizations ************************************/\n\n\n\n     // *************************************** Strings ********************************************************* //\n\n    string public name;   // token name\n    string public symbol; // token symbol\n\n\n\n    // *************************************** Integers ********************************************************* //\n\n    uint256 public granularity;                     // token granularity\n    uint256 public totalSupply;                     // token total supply\n   \n\n\n    // *************************************** Addresses ********************************************************* //\n\n    address private owner;  // set the address of the owner to be private\n\n\n\n     // *************************************** Booleans ********************************************************* //\n\n    bool private _lockUpTokens = false; // token lockup indicator\n    bool private _isIssuable = true;    //  indicates when a token can be issued\n    bool private _isControllable = true;   // private variable that indicates the controllability of the tokens\n    \n\n    // ************************ Array ******************************//\n\n    bytes32[] internal _totalPartitions;\n    bytes32[] internal _defaultPartitions;\n    address[] internal _controllers;\n    \n\n\n     // *************************************** Structs ********************************************************* //\n\n    struct Doc {\n\n        bytes32 _name;\n        bytes32 _documentHash;\n        string _uri;\n        \n    } // struct to handle the documents\n\n\n\n    \n\n     // *************************************** Mappings ********************************************************* //\n\n    mapping (address => bool) private whitelist;                                     //  whitelist map\n    mapping (address => mapping(address => uint256)) private allowance;              // set the address of the allowed external operator\n    mapping (address => uint256) internal _balanceOf;                                // map to store the token balances of token holders\n    mapping (bytes32 => Doc) internal _documents;                                    // map to store the documents\n    mapping (address => mapping(bytes32 => uint256)) internal _balanceOfByPartition; // map to store the partitioned token balance of a token holder \n    mapping (address => bytes32[]) internal _partitionsOf;                           // map that stores the partitions of a token holder\n    mapping (address => mapping(address => bool)) internal _isOperator;              // map to approve or revoke operators for a token holder\n    mapping (bytes32 => uint256) internal _indexOfPartitions;\n\n    // holder's address -> operator  address -> partition -> true/false\n    mapping (address => mapping(address => mapping (bytes32 => bool))) internal _isOperatorForPartition;                  // map to approve or revoke operators by partition\n    mapping (address => bool) private _isController;                                 // map to store the addresses of approved controllers\n    mapping (address => uint256) private _indexOfController;                         // map to store the index position of controllers\n    mapping (bytes => bool) private _usedSignatures;\n\n    constructor (string memory _name, string memory _symbol, uint256 _granularity, uint256 _totalSupply, bytes32[] memory defaultPartitions) {\n\n        name = _name;\n        symbol = _symbol;\n        granularity = 10 ** _granularity; // for token decimals \n        totalSupply = _totalSupply;\n        owner = msg.sender;\n        _defaultPartitions = defaultPartitions;\n\n    }\n\n    modifier restricted {\n        require(msg.sender == owner, \"0x56\");\n        _;\n    }\n\n\n    function _useCert(bytes memory _data, uint256 _amount) public {\n\n        (bytes memory _signature, bytes32 _salt, uint256 _nonce, Certificate.Holder memory _from, Certificate.Holder memory _to) = Certificate.decodeData(_data);\n        require(!_usedSignatures[_signature], \"used sig\");\n        address _signer = Certificate.returnSigner(_signature, _salt, _nonce, _from, _to, _amount, address(this), name);\n        require(_signer == owner || _isController[_signer], \"invalid signer\");\n        _usedSignatures[_signature];\n\n    }\n\n\n    // *************************************** Internal functions ********************************************************* //\n\n    /// @dev    internal funtion to transfer tokens from an address to another address\n    /// @notice `0x57` revert message if receiver is address 0\n    /// @notice `0x52` insufficient balance\n    /// @notice balance must be more or equal to the value to be transferred\n    /// @dev    this version of solidity handles the underflow and overflow error\n    /// @notice the emission of Transfer event\n    /// @param  _from is the address the token is sent from\n    /// @param  _to is the address the token is sent to\n    /// @param  _amount is the value of tokens to be sent\n\n    \n    function _transfer(address _from, address _to, uint256 _amount) internal returns (bool success) {\n\n        require(_to != address(0),  \"0x57\");        \n        require(_balanceOf[_from] >= _amount, \"0x52\");      \n\n        _balanceOf[_from] = _balanceOf[_from] - _amount;                  \n        _balanceOf[_to] = _balanceOf[_to] + _amount;                      \n        emit Transfer (_from, _to, _amount);                            \n        return true;\n     }\n\n\n     /// @dev   internal funtion to transfer tokens by partitions from an address to another address\n     /// @notice `0x57` revert message if receiver is address 0\n     /// @notice `0x52` insufficient balance\n     /// @dev   the total supply is the balance accross all partitions\n     /// @notice the global balance of the sender and receiver is adjusted respectively\n     /// @notice the emission of TransferByPartition and Transfer events\n\n    function _transferByPartiton(bytes32 _partition, address _from, address _to, uint256 _value, bytes memory _data, bytes memory _operatorData) internal returns(bytes32) {\n       \n    \n       require( _balanceOfByPartition[_from][_partition] >= _value, \"0x52\"); \n       require(_to != address(0),  \"0x57\");   \n\n       _balanceOfByPartition[_from][_partition] = _balanceOfByPartition[_from][_partition] - _value;\n       _balanceOf[_from] = _balanceOf[_from] - _value; // the value should reflect in the global token balance of the sender\n       \n       _balanceOfByPartition[_to][_partition] = _balanceOfByPartition[_to][_partition] + _value;\n       _balanceOf[_to] = _balanceOf[_to] + _value; // the value should reflect in the global token balance of the receiver\n\n       emit TransferByPartition(_partition, msg.sender, msg.sender, _to, _value, _data, _operatorData);\n       emit Transfer(_from, _to, _value);\n\n       return _partition;\n\n    }\n\n    // function to transfer by default Partitions\n\n    function _transferByDefaultPartitions(address _from, address _to, uint256 _value) internal {\n\n\n        require(_balanceOf[_from] >= _value, \"0x52\");        \n        for (uint256 index = 0; index < _defaultPartitions.length; index++) {\n            _transferByPartiton(_defaultPartitions[index], _from, _to, _value, \"\", \"\");\n        }\n\n    }\n\n    // internal redeem by partition function\n\n\n    function _redeemByPartition(bytes32 _partition, address _tokenHolder, uint256 _value, bytes memory _data, bytes memory _operatorData) internal {\n\n       require(msg.sender != address(0), \"0x56\");\n       require(_balanceOfByPartition[_tokenHolder][_partition] >= _value, \"0x52\");  // insufficient balance\n       _balanceOfByPartition[_tokenHolder][_partition] = _balanceOfByPartition[_tokenHolder][_partition] - _value;\n       _balanceOf[_tokenHolder] = _balanceOf[_tokenHolder] - _value; // the value should reflect in the global token balance of the sender\n       \n       _balanceOfByPartition[address(0)][_partition] = _balanceOfByPartition[address(0)][_partition] + _value;\n       _balanceOf[address(0)] = _balanceOf[address(0)] + _value; // the value should reflect in the global token balance of the receiver\n       totalSupply -= _value;\n       emit RedeemedByPartition(_partition, msg.sender, _tokenHolder, _value, _operatorData);\n\n    }\n\n    // internal redeem function\n\n    function _redeem(address _tokenHolder, uint256 _value, bytes memory _data) internal {\n\n       require(_balanceOf[_tokenHolder] >= _value, \"0x52\"); // insufficient balance\n       _transfer(_tokenHolder, address(0), _value);\n       totalSupply -= _value;\n       emit Redeemed(msg.sender, _tokenHolder, _value, _data);\n\n    }\n\n    \n    \n\n\n    /*function _isValidCertificate(bytes memory _data, uint256 _amount) public view returns (bool) {\n\n        return true;\n\n    }*/\n\n\n   \n\n\n\n    // **************************       ERC1400 FEATURES  ******************************************************//\n\n\n    //  Default Partitions\n\n\n    function setDefaultPartitions(bytes32[] calldata newDefaultPartitions) external  {\n        _defaultPartitions = newDefaultPartitions;\n    }\n     \n    // *********************    DOCUMENT MANAGEMENT  ---------- ERC 1643\n\n    //  set document\n\n    function setDocument (bytes32 _name, string calldata _uri, bytes32 _documentHash) external  {\n        \n        _documents[_name] = Doc(_name, _documentHash, _uri);     // save the document\n        //_allDocuments.push(_name);\n        //_indexOfDocument[_name] = _allDocuments.length;\n        emit Document(_name, _uri, _documentHash);              // emit event when document is set on chain\n\n    }\n\n    // get document\n    \n    function getDocument (bytes32 _name) external view returns (string memory uri, bytes32 docHash) {\n\n        Doc memory _document = _documents[_name];\n\n        return (_document._uri, _document._documentHash);  // return the document uri and document hash\n\n    }\n\n\n\n    // *********************    TOKEN INFORMATION\n\n\n    // function that returns balance\n    \n    function balanceOf(address _tokenHolder) external view returns (uint256) {\n        return _balanceOf[_tokenHolder];\n    }\n\n    function balanceOfByPartition(bytes32 _partition, address _tokenHolder) external view returns (uint256) {\n       return _balanceOfByPartition[_tokenHolder][_partition];\n   }\n\n   // function to return the partitions of a token holder\n\n    function partitionsOf(address _tokenHolder) external view returns (bytes32[] memory) {\n\n        bytes32[] memory _partitions = new bytes32[](_totalPartitions.length);\n        for (uint256 index = 0; index < _totalPartitions.length; index++) {\n            if (_balanceOfByPartition[_tokenHolder][_totalPartitions[index]] > 0) {\n                _partitions[index] = _totalPartitions[index];\n            }\n        }\n\n        return _partitions;\n   }\n\n\n\n    // *********************    TRANSFERS\n\n    // approve tokens to external operators\n    \n    function approve(address _externalAddress, uint256 _value) external returns (bool success) {\n\n        require(_externalAddress != address(0), \"0x58\");                  //    0x58   invalid operator\n        allowance[msg.sender][_externalAddress] = _value;              // use safemath function here to avoid under and overflow\n        emit Approval(msg.sender, _externalAddress, _value);            // emit the approved event\n        return true;\n\n    }\n\n\n    // function to transfer tokens. the internal transfer function will be called here\n    \n    function transfer(address _to, uint256 _value) public returns (bool success) {\n\n        _transfer(msg.sender, _to, _value);\n        return true;\n\n    }\n\n    // function transferFrom. The function for external addresses such as escrows to move tokens on behalf of the token holder\n    \n    function transferFrom(address _from, address _to, uint256 _value) external returns (bool success) {\n\n        // _from is the current token holder\n        // _to is the destinantion address\n        //  msg.sender is the external address calling this function\n        // the token holder should have at least the amount of tokens to be transferred ----> this check has been implemented in the internal _transfer function\n\n        require(allowance[_from][msg.sender] >= _value, \"0x53\");           // the allowed value approved by the token holder must not be less than the amount. Insufficient allowance\n        _transfer(_from, _to, _value);                             // transfer the tokens\n\n        // reset the allowance value\n\n        allowance[_from][msg.sender] =  0;   \n        return true;           \n\n    }  \n\n    // tranfer with data\n\n    function transferWithData(address _to, uint256 _value, bytes memory _data) external {\n        \n        //require(_isValidCertificate(_data, _value));\n        _transfer(msg.sender, _to, _value);\n    }\n    \n\n    function transferFromWithData(address _from, address _to, uint256 _value, bytes memory _data) external {\n         require(allowance[_from][msg.sender] >= _value, \"0x53\");           // the allowed value approved by the token holder must not be less than the amount\n        _transfer(_from, _to, _value);                              // transfer the tokens\n\n        //  reset the allowance value\n\n        allowance[_from][msg.sender] =  0;   \n        \n    }\n\n\n    // *********************    PARTITION TOKEN TRANSFERS\n\n\n    function transferByPartition(bytes32 _partition, address _to, uint256 _value, bytes memory _data) external returns (bytes32) {\n\n       /* if (_data.length != 1) {\n\n            require(_isValidCertificate(_data, _value));\n\n        }*/\n       _transferByPartiton(_partition, msg.sender, _to, _value, _data , \"\");\n \n   }    \n\n   // operator transfer by partition\n   \n   function operatorTransferByPartition(bytes32 _partition, address _from, address _to, uint256 _value, bytes memory _data, bytes memory _operatorData) external returns (bytes32) {\n\n       //require(_isValidCertificate(_operatorData, _value), \"cant verify data\");\n       if(_isControllable == true && _isController[msg.sender]) {\n\n           _transferByPartiton(_partition, _from, _to, _value, \"\", \"\");\n           emit ControllerTransfer(msg.sender, _from, _to, _value, _data, _operatorData);       // forceful transfers\n\n       } else {\n            require(_isOperatorForPartition[_from][msg.sender][_partition] || _isOperator[_from][msg.sender], \"0x56\"); // 0x56 invalid sender\n            _transferByPartiton(_partition, _from, _to, _value, \"\", \"\");\n       }\n      \n       \n   }\n\n\n\n   // *********************    CONTROLLER OPERATION\n\n   function isControllable() external view returns (bool) {\n       return _isControllable;\n   }\n\n   function isController(address _controller) external view returns(bool) {\n       return _isController[_controller];\n   }\n\n   function setControllability(bool _status) external restricted {\n       _isControllable = _status;\n   }\n\n   function setController(address _controller) external restricted {\n\n       require(_controller != address(0), \"0x58\");      // invalid transfer agent\n       require(!_isController[_controller], \"ACC\");       // address is currently a controller\n       _isController[_controller] = true;\n       _controllers.push(_controller);\n       _indexOfController[_controller] = _controllers.length - 1;\n\n   }\n\n   function getControllers() external view returns (address[] memory) {\n       return _controllers;\n   }\n\n   function removeController(address _controller) external restricted {\n\n        require(_controller != address(0), \"0x58\");     // invalid transfer agent\n        require(_isController[_controller], \"0x58\");      // not recognized as a controller\n        _isController[_controller] = false;\n        delete _controllers[_indexOfController[_controller]];     // remove the controller from the array of controllers using their saved index value\n       \n   }\n\n   function controllerTransfer(address _from, address _to, uint256 _value, bytes calldata _data, bytes calldata _operatorData) external {\n        _transfer(_from, _to, _value);\n        emit ControllerTransfer(msg.sender, _from, _to, _value, _data, _operatorData);\n   }\n\n   function controllerRedeem(address _tokenHolder, uint256 _value, bytes calldata _data, bytes calldata _operatorData) external {\n        _redeem(_tokenHolder,  _value, _data);\n        emit ControllerRedemption(msg.sender, _tokenHolder, _value, _data, _operatorData);\n   }\n\n\n   // *********************    OPERATOR MANAGEMENT\n\n\n    function authorizeOperator (address _operator) public {\n        _isOperator[msg.sender][_operator] = true;\n        emit AuthorizedOperator(_operator, msg.sender);\n    }\n\n    function revokeOperator (address _operator) public {\n        _isOperator[msg.sender][_operator] = false;\n        emit RevokedOperator(_operator, msg.sender);\n    }\n\n    function authorizeOperatorByPartition (bytes32 _partition, address _operator) public  {\n        _isOperatorForPartition[msg.sender][_operator][_partition] = true;\n        emit AuthorizedOperatorByPartition(_partition, _operator, msg.sender);\n    }\n\n    function revokeOperatorByPartition (bytes32 _partition, address _operator) public {\n        _isOperatorForPartition[msg.sender][_operator][_partition] = false;\n        emit RevokedOperatorByPartition(_partition, _operator, msg.sender);\n    }\n\n\n\n    // *********************    OPERATOR INFORMATION\n\n\n\n     function isOperator (address _operator, address _tokenHolder) external view returns (bool) {\n        return _isOperator[_tokenHolder][_operator];\n    }\n\n    \n    function isOperatorForPartition(bytes32 _partition, address _operator, address _tokenHolder) external view returns (bool) {\n        return  _isOperatorForPartition[_tokenHolder][_operator][_partition];\n    }\n\n\n\n    // *********************    TOKEN ISSUANCE\n\n    function isIssuable() external view returns (bool) {\n        return _isIssuable;\n    }\n\n\n    // function to mint and issue new tokens. This function is restricted to other addresses except the owner of the contract\n    \n    function issue(address _tokenHolder, uint256 _value, bytes calldata _data) external restricted {\n        \n        require(_isIssuable, \"0x55\");     // can't issue tokens for now\n        require(_tokenHolder != address(0), \"0x57\");        // invalid receiver\n        uint256 amount =  _value * granularity;                         // the destinaton address should not be an empty address\n        _balanceOf[_tokenHolder] += amount;                              \n        totalSupply += amount;                                          // add the new minted token to the total supply ---> use safemath library to avoid under and overflow\n        emit Issued(_tokenHolder, amount, totalSupply, block.timestamp);        // emit the issued event --> it emits the destination address, amount minted, updated total supply and the time issued\n        \n\n    }\n\n\n     // function to issue new tokens by partition\n\n   function issueByPartition(bytes32 _partition, address _tokenHolder, uint256 _value, bytes memory _data) public restricted {\n\n        require(_isIssuable, \"0x55\"); // can't issue tokens for now\n        uint256 amount =  _value * granularity; \n        _balanceOfByPartition[_tokenHolder][_partition] += amount;   // increment the partition's token balance of this token holder\n        _balanceOf[_tokenHolder] += amount; // increment the total balance of this token holder \n        totalSupply += amount; // increase the total supply\n        emit IssuedByPartition(_partition, msg.sender, _tokenHolder, amount, _data, \"\");\n    \n\n   }\n\n\n   // *********************    TOKEN REDEMPTION\n\n\n   function redeem(uint256 _value, bytes memory _data) external {\n\n       //require(_isValidCertificate(_data, _value));\n       _redeem(msg.sender, _value, _data);\n\n   }\n\n   function redeemFrom(address _tokenHolder, uint256 _value, bytes memory _data) external {\n\n        //require(_isValidCertificate(_data, _value));\n        require(allowance[_tokenHolder][msg.sender] >= _value, \"0x53\");  // insufficient allowance\n        _redeem(_tokenHolder, _value, _data);\n\n   }\n\n\n   // function to redeem by partition\n\n   function redeemByPartition(bytes32 _partition, uint256 _value, bytes memory _data) external {\n\n        //require(_isValidCertificate(_data, _value));  //  verify signer\n       _redeemByPartition(_partition, msg.sender, _value, _data, \"\");\n\n   }\n\n   \n\n   function operatorRedeemByPartition(bytes32 _partition, address _tokenHolder, uint256 _value, bytes memory _operatorData) external {\n\n       //require(_isValidCertificate(_operatorData, _value));           //  verify signer\n       if(_isControllable == true && _isController[msg.sender]) {\n            _redeemByPartition(_partition, _tokenHolder, _value, \"\", _operatorData);\n            emit ControllerRedemption(msg.sender, _tokenHolder, _value, \"\", _operatorData);\n       } else {\n            require(_isOperator[_tokenHolder][msg.sender] || _isOperatorForPartition[_tokenHolder][msg.sender][_partition], \"0x58\");     // invalid operator\n            _redeemByPartition(_partition, _tokenHolder, _value, \"\", _operatorData);\n       }\n\n   }\n\n\n   // *********************    TRANSFER VALIDITY\n\n    // used bytes1 instead of byte. bytes1 is now an alias for byte    \n\n    function canTransfer(address _to, uint256 _value, bytes memory _data) external view returns (bytes1 code, bytes32 reason){\n\n        if( _lockUpTokens == true) {\n\n            return (hex\"55\", \"funds locked (lockup period)\");\n        }\n\n        if(_to == address(0)) {\n            return (hex\"57\", \"invalid receiver\");\n        } \n\n        if(_balanceOf[msg.sender] < _value) {\n            return (hex\"52\", \"insufficient balance\");\n        }\n\n        /*if( _isValidCertificate(_data, _value) != true) {\n            return (hex\"59\", \"invalid signer\");\n        }*/\n\n        return (hex\"51\", \"transfer success\");\n\n    }\n\n    function canTransferFrom(address _from, address _to, uint256 _value, bytes memory _data) external view returns (bytes1 code, bytes32 reason) {\n\n        if(_balanceOf[_from] < _value) {\n            return (hex\"52\", \"insufficient balance\");\n        }\n\n        if(allowance[_from][msg.sender] < _value) {\n            return (hex\"53\", \"insufficient allowance\");\n        }\n\n        if(_to == address(0)) {\n            return (hex\"57\", \"invalid receiver\");\n        } \n\n        if(_isOperator[_from][msg.sender]) {\n            return (hex\"58\", \"invalid operator\");\n        } \n\n        /*if( _isValidCertificate(_data, _value) != true) {\n            return (hex\"59\", \"invalid signer\");\n        }*/\n\n        return (hex\"51\", \"transfer success\");\n\n    }\n\n    // can transfer by partition\n\n   function canTransferByPartition(address _from, address _to, bytes32 _partition, uint256 _value, bytes memory _data) external view returns(bytes1, bytes32, bytes32) {\n\n       if (_to == address(0)) {\n           return (hex\"55\", \"invalid receiver\", _partition);\n       }\n\n       if (_value > _balanceOfByPartition[_from][_partition]) {\n           return (hex\"55\", \"insufficient balance\", _partition);\n       }\n\n       /*if( _isValidCertificate(_data, _value) != true) {\n            return (hex\"59\", \"invalid signer\", _partition);\n        }*/\n\n        return (hex\"51\", \"transfer success\", _partition);\n\n\n   }\n\n\n   /*********************************************************************************/\n\n   //function to return partitioned token balance\n\n    function totalPartitions() external view returns (bytes32[] memory) {\n       return _totalPartitions;\n    }\n\n    function setTotalPartitions(bytes32[] memory _newTotalPartitions) external {\n        _totalPartitions = _newTotalPartitions;\n    }\n\n\n   \n\n     // *************************************** Events ********************************************************* //\n\n    event WhiteList (address _investor, uint256 _timeAdded);                                                 // event to be emitted whenever an address is whitelisted\n    event Issued (address _to, uint256 _amountIssued, uint256 _totalSupply, uint256 _timeIssued);            // event to be emitted whenever new tokens are minted\n    event Transfer (address _from, address _to, uint256 _amount);                                            // event to be emitted whenever token is been transferred\n    event Approval (address _tokenHolder, address _externalAddress, uint256 _amount);                        // event to be emitted whenever an external address is approved such as escrows\n    event Document (bytes32 indexed _name, string _uri, bytes32 _documentHash);                       // event to be emitted whenever a document is put on-chain\n    event TransferByPartition (\n\n        bytes32 indexed _fromPartition,\n        address _operator,\n        address indexed _from,\n        address indexed _to,\n        uint256 _value,\n        bytes _data,\n        bytes _operatorData\n\n\n    );                                                                           // event to be emitted whenever tokens are transfered from an address partition to another addres of same partition\n\n    event AuthorizedOperator (address indexed _operator, address indexed _tokenHolder);     // event to be emitted whenever an operator is authorized\n    event RevokedOperator (address indexed _operator, address indexed _tokenHolder);     // event to be emitted whenever an operator is revoked\n    event AuthorizedOperatorByPartition (bytes32 indexed _partition, address indexed _operator, address indexed _tokenHolder);     // event to be emitted whenever an operator is authorized for a partition\n    event RevokedOperatorByPartition (bytes32 indexed _partition, address indexed _operator, address indexed _tokenHolder);     // event to be emitted whenever an operator is revoked for a partition\n    event IssuedByPartition (bytes32 indexed _partition, address indexed _operator, address indexed _to, uint256 _amount, bytes _data, bytes _operatorData);    //  event to be emitted whenever a new token is issued to an holder's partition\n    event RedeemedByPartition (bytes32 indexed _partition, address indexed _operator, address indexed _from, uint256 _amount, bytes _operatorData);     // event to be emitted when tokens are burnt from any partitions\n    event Redeemed (address indexed _operator, address indexed _from, uint256 _value, bytes _data);          //  event to be emitted when a token is being redeemed\n    event ControllerTransfer (address _controller, address indexed _from, address indexed _to, uint256 _value, bytes _data, bytes _operatorData); // event to be emitted whenever a controller forces a token transfer\n    event ControllerRedemption (address _controller, address indexed _tokenHolder, uint256 _value, bytes _data, bytes _operatorData);        // event to be emitted whenever a controller forces token redemption from a token holder's wallet\n\n\n}",
  "sourcePath": "/home/komolehin/Documents/blockchain/TANGLE/security-token/contracts/Token/ERC1400.sol",
  "compiler": {
    "name": "solc",
    "version": "0.8.10+commit.fc410830.Emscripten.clang"
  },
  "schemaVersion": "3.4.6",
  "updatedAt": "2022-05-13T15:40:07.972Z",
  "devdoc": {
    "kind": "dev",
    "methods": {},
    "version": 1
  },
  "userdoc": {
    "kind": "user",
    "methods": {},
    "version": 1
  }
}