{
  "contractName": "ERC1400",
  "abi": [
    {
      "inputs": [
        {
          "internalType": "string",
          "name": "_name",
          "type": "string"
        },
        {
          "internalType": "string",
          "name": "_symbol",
          "type": "string"
        },
        {
          "internalType": "uint256",
          "name": "_granularity",
          "type": "uint256"
        },
        {
          "internalType": "uint256",
          "name": "_totalSupply",
          "type": "uint256"
        },
        {
          "internalType": "bytes32[]",
          "name": "defaultPartitions",
          "type": "bytes32[]"
        }
      ],
      "stateMutability": "nonpayable",
      "type": "constructor"
    },
    {
      "anonymous": false,
      "inputs": [
        {
          "indexed": false,
          "internalType": "address",
          "name": "_tokenHolder",
          "type": "address"
        },
        {
          "indexed": false,
          "internalType": "address",
          "name": "_externalAddress",
          "type": "address"
        },
        {
          "indexed": false,
          "internalType": "uint256",
          "name": "_amount",
          "type": "uint256"
        }
      ],
      "name": "Approval",
      "type": "event"
    },
    {
      "anonymous": false,
      "inputs": [
        {
          "indexed": true,
          "internalType": "address",
          "name": "_operator",
          "type": "address"
        },
        {
          "indexed": true,
          "internalType": "address",
          "name": "_tokenHolder",
          "type": "address"
        }
      ],
      "name": "AuthorizedOperator",
      "type": "event"
    },
    {
      "anonymous": false,
      "inputs": [
        {
          "indexed": true,
          "internalType": "bytes32",
          "name": "_partition",
          "type": "bytes32"
        },
        {
          "indexed": true,
          "internalType": "address",
          "name": "_operator",
          "type": "address"
        },
        {
          "indexed": true,
          "internalType": "address",
          "name": "_tokenHolder",
          "type": "address"
        }
      ],
      "name": "AuthorizedOperatorByPartition",
      "type": "event"
    },
    {
      "anonymous": false,
      "inputs": [
        {
          "indexed": false,
          "internalType": "address",
          "name": "_controller",
          "type": "address"
        },
        {
          "indexed": true,
          "internalType": "address",
          "name": "_tokenHolder",
          "type": "address"
        },
        {
          "indexed": false,
          "internalType": "uint256",
          "name": "_value",
          "type": "uint256"
        },
        {
          "indexed": false,
          "internalType": "bytes",
          "name": "_data",
          "type": "bytes"
        },
        {
          "indexed": false,
          "internalType": "bytes",
          "name": "_operatorData",
          "type": "bytes"
        }
      ],
      "name": "ControllerRedemption",
      "type": "event"
    },
    {
      "anonymous": false,
      "inputs": [
        {
          "indexed": false,
          "internalType": "address",
          "name": "_controller",
          "type": "address"
        },
        {
          "indexed": true,
          "internalType": "address",
          "name": "_from",
          "type": "address"
        },
        {
          "indexed": true,
          "internalType": "address",
          "name": "_to",
          "type": "address"
        },
        {
          "indexed": false,
          "internalType": "uint256",
          "name": "_value",
          "type": "uint256"
        },
        {
          "indexed": false,
          "internalType": "bytes",
          "name": "_data",
          "type": "bytes"
        },
        {
          "indexed": false,
          "internalType": "bytes",
          "name": "_operatorData",
          "type": "bytes"
        }
      ],
      "name": "ControllerTransfer",
      "type": "event"
    },
    {
      "anonymous": false,
      "inputs": [
        {
          "indexed": true,
          "internalType": "bytes32",
          "name": "_name",
          "type": "bytes32"
        },
        {
          "indexed": false,
          "internalType": "string",
          "name": "_uri",
          "type": "string"
        },
        {
          "indexed": false,
          "internalType": "bytes32",
          "name": "_documentHash",
          "type": "bytes32"
        }
      ],
      "name": "Document",
      "type": "event"
    },
    {
      "anonymous": false,
      "inputs": [
        {
          "indexed": false,
          "internalType": "address",
          "name": "_to",
          "type": "address"
        },
        {
          "indexed": false,
          "internalType": "uint256",
          "name": "_amountIssued",
          "type": "uint256"
        },
        {
          "indexed": false,
          "internalType": "uint256",
          "name": "_totalSupply",
          "type": "uint256"
        },
        {
          "indexed": false,
          "internalType": "uint256",
          "name": "_timeIssued",
          "type": "uint256"
        }
      ],
      "name": "Issued",
      "type": "event"
    },
    {
      "anonymous": false,
      "inputs": [
        {
          "indexed": true,
          "internalType": "bytes32",
          "name": "_partition",
          "type": "bytes32"
        },
        {
          "indexed": true,
          "internalType": "address",
          "name": "_operator",
          "type": "address"
        },
        {
          "indexed": true,
          "internalType": "address",
          "name": "_to",
          "type": "address"
        },
        {
          "indexed": false,
          "internalType": "uint256",
          "name": "_amount",
          "type": "uint256"
        },
        {
          "indexed": false,
          "internalType": "bytes",
          "name": "_data",
          "type": "bytes"
        },
        {
          "indexed": false,
          "internalType": "bytes",
          "name": "_operatorData",
          "type": "bytes"
        }
      ],
      "name": "IssuedByPartition",
      "type": "event"
    },
    {
      "anonymous": false,
      "inputs": [
        {
          "indexed": true,
          "internalType": "address",
          "name": "_operator",
          "type": "address"
        },
        {
          "indexed": true,
          "internalType": "address",
          "name": "_from",
          "type": "address"
        },
        {
          "indexed": false,
          "internalType": "uint256",
          "name": "_value",
          "type": "uint256"
        },
        {
          "indexed": false,
          "internalType": "bytes",
          "name": "_data",
          "type": "bytes"
        }
      ],
      "name": "Redeemed",
      "type": "event"
    },
    {
      "anonymous": false,
      "inputs": [
        {
          "indexed": true,
          "internalType": "bytes32",
          "name": "_partition",
          "type": "bytes32"
        },
        {
          "indexed": true,
          "internalType": "address",
          "name": "_operator",
          "type": "address"
        },
        {
          "indexed": true,
          "internalType": "address",
          "name": "_from",
          "type": "address"
        },
        {
          "indexed": false,
          "internalType": "uint256",
          "name": "_amount",
          "type": "uint256"
        },
        {
          "indexed": false,
          "internalType": "bytes",
          "name": "_operatorData",
          "type": "bytes"
        }
      ],
      "name": "RedeemedByPartition",
      "type": "event"
    },
    {
      "anonymous": false,
      "inputs": [
        {
          "indexed": true,
          "internalType": "address",
          "name": "_operator",
          "type": "address"
        },
        {
          "indexed": true,
          "internalType": "address",
          "name": "_tokenHolder",
          "type": "address"
        }
      ],
      "name": "RevokedOperator",
      "type": "event"
    },
    {
      "anonymous": false,
      "inputs": [
        {
          "indexed": true,
          "internalType": "bytes32",
          "name": "_partition",
          "type": "bytes32"
        },
        {
          "indexed": true,
          "internalType": "address",
          "name": "_operator",
          "type": "address"
        },
        {
          "indexed": true,
          "internalType": "address",
          "name": "_tokenHolder",
          "type": "address"
        }
      ],
      "name": "RevokedOperatorByPartition",
      "type": "event"
    },
    {
      "anonymous": false,
      "inputs": [
        {
          "indexed": false,
          "internalType": "address",
          "name": "_from",
          "type": "address"
        },
        {
          "indexed": false,
          "internalType": "address",
          "name": "_to",
          "type": "address"
        },
        {
          "indexed": false,
          "internalType": "uint256",
          "name": "_amount",
          "type": "uint256"
        }
      ],
      "name": "Transfer",
      "type": "event"
    },
    {
      "anonymous": false,
      "inputs": [
        {
          "indexed": true,
          "internalType": "bytes32",
          "name": "_fromPartition",
          "type": "bytes32"
        },
        {
          "indexed": false,
          "internalType": "address",
          "name": "_operator",
          "type": "address"
        },
        {
          "indexed": true,
          "internalType": "address",
          "name": "_from",
          "type": "address"
        },
        {
          "indexed": true,
          "internalType": "address",
          "name": "_to",
          "type": "address"
        },
        {
          "indexed": false,
          "internalType": "uint256",
          "name": "_value",
          "type": "uint256"
        },
        {
          "indexed": false,
          "internalType": "bytes",
          "name": "_data",
          "type": "bytes"
        },
        {
          "indexed": false,
          "internalType": "bytes",
          "name": "_operatorData",
          "type": "bytes"
        }
      ],
      "name": "TransferByPartition",
      "type": "event"
    },
    {
      "anonymous": false,
      "inputs": [
        {
          "indexed": false,
          "internalType": "address",
          "name": "_investor",
          "type": "address"
        },
        {
          "indexed": false,
          "internalType": "uint256",
          "name": "_timeAdded",
          "type": "uint256"
        }
      ],
      "name": "WhiteList",
      "type": "event"
    },
    {
      "inputs": [],
      "name": "granularity",
      "outputs": [
        {
          "internalType": "uint256",
          "name": "",
          "type": "uint256"
        }
      ],
      "stateMutability": "view",
      "type": "function"
    },
    {
      "inputs": [],
      "name": "name",
      "outputs": [
        {
          "internalType": "string",
          "name": "",
          "type": "string"
        }
      ],
      "stateMutability": "view",
      "type": "function"
    },
    {
      "inputs": [],
      "name": "nonce",
      "outputs": [
        {
          "internalType": "uint256",
          "name": "",
          "type": "uint256"
        }
      ],
      "stateMutability": "view",
      "type": "function"
    },
    {
      "inputs": [],
      "name": "symbol",
      "outputs": [
        {
          "internalType": "string",
          "name": "",
          "type": "string"
        }
      ],
      "stateMutability": "view",
      "type": "function"
    },
    {
      "inputs": [],
      "name": "totalSupply",
      "outputs": [
        {
          "internalType": "uint256",
          "name": "",
          "type": "uint256"
        }
      ],
      "stateMutability": "view",
      "type": "function"
    },
    {
      "inputs": [
        {
          "internalType": "bytes",
          "name": "_data",
          "type": "bytes"
        },
        {
          "internalType": "uint256",
          "name": "_amount",
          "type": "uint256"
        }
      ],
      "name": "_isValidCertificate",
      "outputs": [
        {
          "internalType": "bool",
          "name": "",
          "type": "bool"
        }
      ],
      "stateMutability": "view",
      "type": "function"
    },
    {
      "inputs": [
        {
          "internalType": "bytes32[]",
          "name": "newDefaultPartitions",
          "type": "bytes32[]"
        }
      ],
      "name": "setDefaultPartitions",
      "outputs": [],
      "stateMutability": "nonpayable",
      "type": "function"
    },
    {
      "inputs": [
        {
          "internalType": "bytes32",
          "name": "_name",
          "type": "bytes32"
        },
        {
          "internalType": "string",
          "name": "_uri",
          "type": "string"
        },
        {
          "internalType": "bytes32",
          "name": "_documentHash",
          "type": "bytes32"
        }
      ],
      "name": "setDocument",
      "outputs": [],
      "stateMutability": "nonpayable",
      "type": "function"
    },
    {
      "inputs": [
        {
          "internalType": "bytes32",
          "name": "_name",
          "type": "bytes32"
        }
      ],
      "name": "getDocument",
      "outputs": [
        {
          "internalType": "string",
          "name": "uri",
          "type": "string"
        },
        {
          "internalType": "bytes32",
          "name": "docHash",
          "type": "bytes32"
        }
      ],
      "stateMutability": "view",
      "type": "function"
    },
    {
      "inputs": [
        {
          "internalType": "address",
          "name": "_tokenHolder",
          "type": "address"
        }
      ],
      "name": "balanceOf",
      "outputs": [
        {
          "internalType": "uint256",
          "name": "",
          "type": "uint256"
        }
      ],
      "stateMutability": "view",
      "type": "function"
    },
    {
      "inputs": [
        {
          "internalType": "bytes32",
          "name": "_partition",
          "type": "bytes32"
        },
        {
          "internalType": "address",
          "name": "_tokenHolder",
          "type": "address"
        }
      ],
      "name": "balanceOfByPartition",
      "outputs": [
        {
          "internalType": "uint256",
          "name": "",
          "type": "uint256"
        }
      ],
      "stateMutability": "view",
      "type": "function"
    },
    {
      "inputs": [
        {
          "internalType": "address",
          "name": "_tokenHolder",
          "type": "address"
        }
      ],
      "name": "partitionsOf",
      "outputs": [
        {
          "internalType": "bytes32[]",
          "name": "",
          "type": "bytes32[]"
        }
      ],
      "stateMutability": "view",
      "type": "function"
    },
    {
      "inputs": [
        {
          "internalType": "address",
          "name": "_externalAddress",
          "type": "address"
        },
        {
          "internalType": "uint256",
          "name": "_value",
          "type": "uint256"
        }
      ],
      "name": "approve",
      "outputs": [
        {
          "internalType": "bool",
          "name": "success",
          "type": "bool"
        }
      ],
      "stateMutability": "nonpayable",
      "type": "function"
    },
    {
      "inputs": [
        {
          "internalType": "address",
          "name": "_to",
          "type": "address"
        },
        {
          "internalType": "uint256",
          "name": "_value",
          "type": "uint256"
        }
      ],
      "name": "transfer",
      "outputs": [
        {
          "internalType": "bool",
          "name": "success",
          "type": "bool"
        }
      ],
      "stateMutability": "nonpayable",
      "type": "function"
    },
    {
      "inputs": [
        {
          "internalType": "address",
          "name": "_from",
          "type": "address"
        },
        {
          "internalType": "address",
          "name": "_to",
          "type": "address"
        },
        {
          "internalType": "uint256",
          "name": "_value",
          "type": "uint256"
        }
      ],
      "name": "transferFrom",
      "outputs": [
        {
          "internalType": "bool",
          "name": "success",
          "type": "bool"
        }
      ],
      "stateMutability": "nonpayable",
      "type": "function"
    },
    {
      "inputs": [
        {
          "internalType": "address",
          "name": "_to",
          "type": "address"
        },
        {
          "internalType": "uint256",
          "name": "_value",
          "type": "uint256"
        },
        {
          "internalType": "bytes",
          "name": "_data",
          "type": "bytes"
        }
      ],
      "name": "transferWithData",
      "outputs": [],
      "stateMutability": "nonpayable",
      "type": "function"
    },
    {
      "inputs": [
        {
          "internalType": "address",
          "name": "_from",
          "type": "address"
        },
        {
          "internalType": "address",
          "name": "_to",
          "type": "address"
        },
        {
          "internalType": "uint256",
          "name": "_value",
          "type": "uint256"
        },
        {
          "internalType": "bytes",
          "name": "_data",
          "type": "bytes"
        }
      ],
      "name": "transferFromWithData",
      "outputs": [],
      "stateMutability": "nonpayable",
      "type": "function"
    },
    {
      "inputs": [
        {
          "internalType": "bytes32",
          "name": "_partition",
          "type": "bytes32"
        },
        {
          "internalType": "address",
          "name": "_to",
          "type": "address"
        },
        {
          "internalType": "uint256",
          "name": "_value",
          "type": "uint256"
        },
        {
          "internalType": "bytes",
          "name": "_data",
          "type": "bytes"
        }
      ],
      "name": "transferByPartition",
      "outputs": [
        {
          "internalType": "bytes32",
          "name": "",
          "type": "bytes32"
        }
      ],
      "stateMutability": "nonpayable",
      "type": "function"
    },
    {
      "inputs": [
        {
          "internalType": "bytes32",
          "name": "_partition",
          "type": "bytes32"
        },
        {
          "internalType": "address",
          "name": "_from",
          "type": "address"
        },
        {
          "internalType": "address",
          "name": "_to",
          "type": "address"
        },
        {
          "internalType": "uint256",
          "name": "_value",
          "type": "uint256"
        },
        {
          "internalType": "bytes",
          "name": "_data",
          "type": "bytes"
        },
        {
          "internalType": "bytes",
          "name": "_operatorData",
          "type": "bytes"
        }
      ],
      "name": "operatorTransferByPartition",
      "outputs": [
        {
          "internalType": "bytes32",
          "name": "",
          "type": "bytes32"
        }
      ],
      "stateMutability": "nonpayable",
      "type": "function"
    },
    {
      "inputs": [],
      "name": "isControllable",
      "outputs": [
        {
          "internalType": "bool",
          "name": "",
          "type": "bool"
        }
      ],
      "stateMutability": "view",
      "type": "function"
    },
    {
      "inputs": [
        {
          "internalType": "address",
          "name": "_controller",
          "type": "address"
        }
      ],
      "name": "isController",
      "outputs": [
        {
          "internalType": "bool",
          "name": "",
          "type": "bool"
        }
      ],
      "stateMutability": "view",
      "type": "function"
    },
    {
      "inputs": [
        {
          "internalType": "bool",
          "name": "_status",
          "type": "bool"
        }
      ],
      "name": "setControllability",
      "outputs": [],
      "stateMutability": "nonpayable",
      "type": "function"
    },
    {
      "inputs": [
        {
          "internalType": "address",
          "name": "_controller",
          "type": "address"
        }
      ],
      "name": "setController",
      "outputs": [],
      "stateMutability": "nonpayable",
      "type": "function"
    },
    {
      "inputs": [],
      "name": "getControllers",
      "outputs": [
        {
          "internalType": "address[]",
          "name": "",
          "type": "address[]"
        }
      ],
      "stateMutability": "view",
      "type": "function"
    },
    {
      "inputs": [
        {
          "internalType": "address",
          "name": "_controller",
          "type": "address"
        }
      ],
      "name": "removeController",
      "outputs": [],
      "stateMutability": "nonpayable",
      "type": "function"
    },
    {
      "inputs": [
        {
          "internalType": "address",
          "name": "_from",
          "type": "address"
        },
        {
          "internalType": "address",
          "name": "_to",
          "type": "address"
        },
        {
          "internalType": "uint256",
          "name": "_value",
          "type": "uint256"
        },
        {
          "internalType": "bytes",
          "name": "_data",
          "type": "bytes"
        },
        {
          "internalType": "bytes",
          "name": "_operatorData",
          "type": "bytes"
        }
      ],
      "name": "controllerTransfer",
      "outputs": [],
      "stateMutability": "nonpayable",
      "type": "function"
    },
    {
      "inputs": [
        {
          "internalType": "address",
          "name": "_tokenHolder",
          "type": "address"
        },
        {
          "internalType": "uint256",
          "name": "_value",
          "type": "uint256"
        },
        {
          "internalType": "bytes",
          "name": "_data",
          "type": "bytes"
        },
        {
          "internalType": "bytes",
          "name": "_operatorData",
          "type": "bytes"
        }
      ],
      "name": "controllerRedeem",
      "outputs": [],
      "stateMutability": "nonpayable",
      "type": "function"
    },
    {
      "inputs": [
        {
          "internalType": "address",
          "name": "_operator",
          "type": "address"
        }
      ],
      "name": "authorizeOperator",
      "outputs": [],
      "stateMutability": "nonpayable",
      "type": "function"
    },
    {
      "inputs": [
        {
          "internalType": "address",
          "name": "_operator",
          "type": "address"
        }
      ],
      "name": "revokeOperator",
      "outputs": [],
      "stateMutability": "nonpayable",
      "type": "function"
    },
    {
      "inputs": [
        {
          "internalType": "bytes32",
          "name": "_partition",
          "type": "bytes32"
        },
        {
          "internalType": "address",
          "name": "_operator",
          "type": "address"
        }
      ],
      "name": "authorizeOperatorByPartition",
      "outputs": [],
      "stateMutability": "nonpayable",
      "type": "function"
    },
    {
      "inputs": [
        {
          "internalType": "bytes32",
          "name": "_partition",
          "type": "bytes32"
        },
        {
          "internalType": "address",
          "name": "_operator",
          "type": "address"
        }
      ],
      "name": "revokeOperatorByPartition",
      "outputs": [],
      "stateMutability": "nonpayable",
      "type": "function"
    },
    {
      "inputs": [
        {
          "internalType": "address",
          "name": "_operator",
          "type": "address"
        },
        {
          "internalType": "address",
          "name": "_tokenHolder",
          "type": "address"
        }
      ],
      "name": "isOperator",
      "outputs": [
        {
          "internalType": "bool",
          "name": "",
          "type": "bool"
        }
      ],
      "stateMutability": "view",
      "type": "function"
    },
    {
      "inputs": [
        {
          "internalType": "bytes32",
          "name": "_partition",
          "type": "bytes32"
        },
        {
          "internalType": "address",
          "name": "_operator",
          "type": "address"
        },
        {
          "internalType": "address",
          "name": "_tokenHolder",
          "type": "address"
        }
      ],
      "name": "isOperatorForPartition",
      "outputs": [
        {
          "internalType": "bool",
          "name": "",
          "type": "bool"
        }
      ],
      "stateMutability": "view",
      "type": "function"
    },
    {
      "inputs": [],
      "name": "isIssuable",
      "outputs": [
        {
          "internalType": "bool",
          "name": "",
          "type": "bool"
        }
      ],
      "stateMutability": "view",
      "type": "function"
    },
    {
      "inputs": [
        {
          "internalType": "address",
          "name": "_tokenHolder",
          "type": "address"
        },
        {
          "internalType": "uint256",
          "name": "_value",
          "type": "uint256"
        },
        {
          "internalType": "bytes",
          "name": "_data",
          "type": "bytes"
        }
      ],
      "name": "issue",
      "outputs": [],
      "stateMutability": "nonpayable",
      "type": "function"
    },
    {
      "inputs": [
        {
          "internalType": "bytes32",
          "name": "_partition",
          "type": "bytes32"
        },
        {
          "internalType": "address",
          "name": "_tokenHolder",
          "type": "address"
        },
        {
          "internalType": "uint256",
          "name": "_value",
          "type": "uint256"
        },
        {
          "internalType": "bytes",
          "name": "_data",
          "type": "bytes"
        }
      ],
      "name": "issueByPartition",
      "outputs": [],
      "stateMutability": "nonpayable",
      "type": "function"
    },
    {
      "inputs": [
        {
          "internalType": "uint256",
          "name": "_value",
          "type": "uint256"
        },
        {
          "internalType": "bytes",
          "name": "_data",
          "type": "bytes"
        }
      ],
      "name": "redeem",
      "outputs": [],
      "stateMutability": "nonpayable",
      "type": "function"
    },
    {
      "inputs": [
        {
          "internalType": "address",
          "name": "_tokenHolder",
          "type": "address"
        },
        {
          "internalType": "uint256",
          "name": "_value",
          "type": "uint256"
        },
        {
          "internalType": "bytes",
          "name": "_data",
          "type": "bytes"
        }
      ],
      "name": "redeemFrom",
      "outputs": [],
      "stateMutability": "nonpayable",
      "type": "function"
    },
    {
      "inputs": [
        {
          "internalType": "bytes32",
          "name": "_partition",
          "type": "bytes32"
        },
        {
          "internalType": "uint256",
          "name": "_value",
          "type": "uint256"
        },
        {
          "internalType": "bytes",
          "name": "_data",
          "type": "bytes"
        }
      ],
      "name": "redeemByPartition",
      "outputs": [],
      "stateMutability": "nonpayable",
      "type": "function"
    },
    {
      "inputs": [
        {
          "internalType": "bytes32",
          "name": "_partition",
          "type": "bytes32"
        },
        {
          "internalType": "address",
          "name": "_tokenHolder",
          "type": "address"
        },
        {
          "internalType": "uint256",
          "name": "_value",
          "type": "uint256"
        },
        {
          "internalType": "bytes",
          "name": "_operatorData",
          "type": "bytes"
        }
      ],
      "name": "operatorRedeemByPartition",
      "outputs": [],
      "stateMutability": "nonpayable",
      "type": "function"
    },
    {
      "inputs": [
        {
          "internalType": "address",
          "name": "_to",
          "type": "address"
        },
        {
          "internalType": "uint256",
          "name": "_value",
          "type": "uint256"
        },
        {
          "internalType": "bytes",
          "name": "_data",
          "type": "bytes"
        }
      ],
      "name": "canTransfer",
      "outputs": [
        {
          "internalType": "bytes1",
          "name": "code",
          "type": "bytes1"
        },
        {
          "internalType": "bytes32",
          "name": "reason",
          "type": "bytes32"
        }
      ],
      "stateMutability": "view",
      "type": "function"
    },
    {
      "inputs": [
        {
          "internalType": "address",
          "name": "_from",
          "type": "address"
        },
        {
          "internalType": "address",
          "name": "_to",
          "type": "address"
        },
        {
          "internalType": "uint256",
          "name": "_value",
          "type": "uint256"
        },
        {
          "internalType": "bytes",
          "name": "_data",
          "type": "bytes"
        }
      ],
      "name": "canTransferFrom",
      "outputs": [
        {
          "internalType": "bytes1",
          "name": "code",
          "type": "bytes1"
        },
        {
          "internalType": "bytes32",
          "name": "reason",
          "type": "bytes32"
        }
      ],
      "stateMutability": "view",
      "type": "function"
    },
    {
      "inputs": [
        {
          "internalType": "address",
          "name": "_from",
          "type": "address"
        },
        {
          "internalType": "address",
          "name": "_to",
          "type": "address"
        },
        {
          "internalType": "bytes32",
          "name": "_partition",
          "type": "bytes32"
        },
        {
          "internalType": "uint256",
          "name": "_value",
          "type": "uint256"
        },
        {
          "internalType": "bytes",
          "name": "_data",
          "type": "bytes"
        }
      ],
      "name": "canTransferByPartition",
      "outputs": [
        {
          "internalType": "bytes1",
          "name": "",
          "type": "bytes1"
        },
        {
          "internalType": "bytes32",
          "name": "",
          "type": "bytes32"
        },
        {
          "internalType": "bytes32",
          "name": "",
          "type": "bytes32"
        }
      ],
      "stateMutability": "view",
      "type": "function"
    },
    {
      "inputs": [],
      "name": "totalPartitions",
      "outputs": [
        {
          "internalType": "bytes32[]",
          "name": "",
          "type": "bytes32[]"
        }
      ],
      "stateMutability": "view",
      "type": "function"
    },
    {
      "inputs": [
        {
          "internalType": "bytes32[]",
          "name": "_newTotalPartitions",
          "type": "bytes32[]"
        }
      ],
      "name": "setTotalPartitions",
      "outputs": [],
      "stateMutability": "nonpayable",
      "type": "function"
    }
  ],
  "bytecode": "0x60806040526000600560146101000a81548160ff0219169083151502179055506001600560156101000a81548160ff0219169083151502179055506001600560166101000a81548160ff0219169083151502179055503480156200006257600080fd5b50604051620060d9380380620060d983398181016040528101906200008891906200054a565b8460009080519060200190620000a09291906200013b565b508360019080519060200190620000b99291906200013b565b5082600a620000c99190620007b2565b6002819055508160038190555033600560006101000a81548173ffffffffffffffffffffffffffffffffffffffff021916908373ffffffffffffffffffffffffffffffffffffffff16021790555080600790805190602001906200012f929190620001cc565b50505050505062000868565b828054620001499062000832565b90600052602060002090601f0160209004810192826200016d5760008555620001b9565b82601f106200018857805160ff1916838001178555620001b9565b82800160010185558215620001b9579182015b82811115620001b85782518255916020019190600101906200019b565b5b509050620001c891906200021e565b5090565b8280548282559060005260206000209081019282156200020b579160200282015b828111156200020a578251825591602001919060010190620001ed565b5b5090506200021a91906200023d565b5090565b5b80821115620002395760008160009055506001016200021f565b5090565b5b80821115620002585760008160009055506001016200023e565b5090565b6000604051905090565b600080fd5b600080fd5b600080fd5b600080fd5b6000601f19601f8301169050919050565b7f4e487b7100000000000000000000000000000000000000000000000000000000600052604160045260246000fd5b620002c5826200027a565b810181811067ffffffffffffffff82111715620002e757620002e66200028b565b5b80604052505050565b6000620002fc6200025c565b90506200030a8282620002ba565b919050565b600067ffffffffffffffff8211156200032d576200032c6200028b565b5b62000338826200027a565b9050602081019050919050565b60005b838110156200036557808201518184015260208101905062000348565b8381111562000375576000848401525b50505050565b6000620003926200038c846200030f565b620002f0565b905082815260208101848484011115620003b157620003b062000275565b5b620003be84828562000345565b509392505050565b600082601f830112620003de57620003dd62000270565b5b8151620003f08482602086016200037b565b91505092915050565b6000819050919050565b6200040e81620003f9565b81146200041a57600080fd5b50565b6000815190506200042e8162000403565b92915050565b600067ffffffffffffffff8211156200045257620004516200028b565b5b602082029050602081019050919050565b600080fd5b6000819050919050565b6200047d8162000468565b81146200048957600080fd5b50565b6000815190506200049d8162000472565b92915050565b6000620004ba620004b48462000434565b620002f0565b90508083825260208201905060208402830185811115620004e057620004df62000463565b5b835b818110156200050d5780620004f888826200048c565b845260208401935050602081019050620004e2565b5050509392505050565b600082601f8301126200052f576200052e62000270565b5b815162000541848260208601620004a3565b91505092915050565b600080600080600060a0868803121562000569576200056862000266565b5b600086015167ffffffffffffffff8111156200058a57620005896200026b565b5b6200059888828901620003c6565b955050602086015167ffffffffffffffff811115620005bc57620005bb6200026b565b5b620005ca88828901620003c6565b9450506040620005dd888289016200041d565b9350506060620005f0888289016200041d565b925050608086015167ffffffffffffffff8111156200061457620006136200026b565b5b620006228882890162000517565b9150509295509295909350565b7f4e487b7100000000000000000000000000000000000000000000000000000000600052601160045260246000fd5b60008160011c9050919050565b6000808291508390505b6001851115620006bd578086048111156200069557620006946200062f565b5b6001851615620006a55780820291505b8081029050620006b5856200065e565b945062000675565b94509492505050565b600082620006d85760019050620007ab565b81620006e85760009050620007ab565b81600181146200070157600281146200070c5762000742565b6001915050620007ab565b60ff8411156200072157620007206200062f565b5b8360020a9150848211156200073b576200073a6200062f565b5b50620007ab565b5060208310610133831016604e8410600b84101617156200077c5782820a9050838111156200077657620007756200062f565b5b620007ab565b6200078b84848460016200066b565b92509050818404811115620007a557620007a46200062f565b5b81810290505b9392505050565b6000620007bf82620003f9565b9150620007cc83620003f9565b9250620007fb7fffffffffffffffffffffffffffffffffffffffffffffffffffffffffffffffff8484620006c6565b905092915050565b7f4e487b7100000000000000000000000000000000000000000000000000000000600052602260045260246000fd5b600060028204905060018216806200084b57607f821691505b6020821081141562000862576200086162000803565b5b50919050565b61586180620008786000396000f3fe608060405234801561001057600080fd5b506004361061027f5760003560e01c806370a082311161015c578063b10d6b41116100ce578063ec9a6e8711610087578063ec9a6e871461080b578063ee532f3114610827578063f282527a14610843578063f3d490db1461085f578063f6a74ed71461088f578063fad8b32a146108ab5761027f565b8063b10d6b4114610724578063b429afeb14610755578063b4e8a6c414610785578063b6363cf2146107a3578063bb3acde9146107d3578063e77c646d146107ef5761027f565b806395d89b411161012057806395d89b411461064e5780639675193c1461066c57806398ddcec7146106885780639945e70e146106a4578063a9059cbb146106d6578063affed0e0146107065761027f565b806370a0823114610586578063740ab8f4146105b65780638c0dee9c146105e657806392eefe9b14610616578063959b8c3f146106325761027f565b80632f1cae85116101f5578063556f0dc7116101b9578063556f0dc7146104c657806362eb0068146104e457806367c849191461050057806369598efe1461051c5780636d77cad61461053a5780636fe8d3a61461056a5761027f565b80632f1cae851461040e57806330e828031461042c5780633598d4651461045c5780633d0f68661461048c5780634c783bf5146104a85761027f565b8063168ecec511610247578063168ecec51461033b57806318160ddd146103575780631badb25c1461037557806323b872dd146103a65780632535f762146103d65780632bc6acc3146103f25761027f565b8063010648ca1461028457806306fdde03146102a0578063095ea7b3146102be578063103ef9e1146102ee578063122eb5751461030a575b600080fd5b61029e60048036038101906102999190613fea565b6108c7565b005b6102a86109af565b6040516102b591906140f7565b60405180910390f35b6102d860048036038101906102d391906141ad565b610a3d565b6040516102e59190614208565b60405180910390f35b61030860048036038101906103039190614223565b610b74565b005b610324600480360381019061031f9190614393565b610c79565b604051610332929190614460565b60405180910390f35b61035560048036038101906103509190614223565b610fe7565b005b61035f6110ec565b60405161036c9190614498565b60405180910390f35b61038f600480360381019061038a91906144b3565b6110f2565b60405161039d929190614460565b60405180910390f35b6103c060048036038101906103bb9190614522565b61131d565b6040516103cd9190614208565b60405180910390f35b6103f060048036038101906103eb91906144b3565b611477565b005b61040c600480360381019061040791906145cb565b61149b565b005b61041661154a565b6040516104239190614208565b60405180910390f35b61044660048036038101906104419190614223565b611561565b6040516104539190614498565b60405180910390f35b61047660048036038101906104719190614672565b6115bc565b6040516104839190614208565b60405180910390f35b6104a660048036038101906104a19190614791565b6115c8565b005b6104b06115e2565b6040516104bd9190614208565b60405180910390f35b6104ce6115f9565b6040516104db9190614498565b60405180910390f35b6104fe60048036038101906104f991906147da565b6115ff565b005b61051a60048036038101906105159190614849565b611633565b005b610524611869565b604051610531919061498a565b60405180910390f35b610554600480360381019061054f91906149ac565b6118c1565b6040516105619190614208565b60405180910390f35b610584600480360381019061057f9190614a2b565b611967565b005b6105a0600480360381019061059b9190614a58565b611a14565b6040516105ad9190614498565b60405180910390f35b6105d060048036038101906105cb9190614a58565b611a5d565b6040516105dd919061498a565b60405180910390f35b61060060048036038101906105fb9190614a85565b611b94565b60405161060d9190614b4a565b60405180910390f35b610630600480360381019061062b9190614a58565b611e90565b005b61064c60048036038101906106479190614a58565b612130565b005b610656612222565b60405161066391906140f7565b60405180910390f35b610686600480360381019061068191906144b3565b6122b0565b005b6106a2600480360381019061069d9190614849565b612392565b005b6106be60048036038101906106b99190614b65565b612617565b6040516106cd93929190614bfc565b60405180910390f35b6106f060048036038101906106eb91906141ad565b612804565b6040516106fd9190614208565b60405180910390f35b61070e61281c565b60405161071b9190614498565b60405180910390f35b61073e60048036038101906107399190614c33565b612822565b60405161074c929190614c60565b60405180910390f35b61076f600480360381019061076a9190614a58565b612901565b60405161077c9190614208565b60405180910390f35b61078d612957565b60405161079a9190614d4e565b60405180910390f35b6107bd60048036038101906107b89190614d70565b6129e5565b6040516107ca9190614208565b60405180910390f35b6107ed60048036038101906107e89190614db0565b612a79565b005b61080960048036038101906108049190614e24565b612c8f565b005b61082560048036038101906108209190614ed6565b612cb1565b005b610841600480360381019061083c9190614393565b612cc7565b005b61085d60048036038101906108589190614f23565b612e1a565b005b61087960048036038101906108749190614849565b612e9e565b6040516108869190614b4a565b60405180910390f35b6108a960048036038101906108a49190614a58565b612ee3565b005b6108c560048036038101906108c09190614a58565b61314a565b005b604051806060016040528085815260200182815260200184848080601f016020809104026020016040519081016040528093929190818152602001838380828437600081840152601f19601f82011690508083019250505050505050815250600c600086815260200190815260200160002060008201518160000155602082015181600101556040820151816002019080519060200190610969929190613de1565b50905050837f89730c201d2df6a4cef4e892559e63e022078b0ee939d11b6ced61fb098b28248484846040516109a19392919061500c565b60405180910390a250505050565b600080546109bc9061506d565b80601f01602080910402602001604051908101604052809291908181526020018280546109e89061506d565b8015610a355780601f10610a0a57610100808354040283529160200191610a35565b820191906000526020600020905b815481529060010190602001808311610a1857829003601f168201915b505050505081565b60008073ffffffffffffffffffffffffffffffffffffffff168373ffffffffffffffffffffffffffffffffffffffff161415610aae576040517f08c379a0000000000000000000000000000000000000000000000000000000008152600401610aa5906150eb565b60405180910390fd5b81600a60003373ffffffffffffffffffffffffffffffffffffffff1673ffffffffffffffffffffffffffffffffffffffff16815260200190815260200160002060008573ffffffffffffffffffffffffffffffffffffffff1673ffffffffffffffffffffffffffffffffffffffff168152602001908152602001600020819055507f8c5be1e5ebec7d5bd14f71427d1e84f3dd0314c0f7b2291e5b200ac8c7c3b925338484604051610b629392919061511a565b60405180910390a16001905092915050565b6001601160003373ffffffffffffffffffffffffffffffffffffffff1673ffffffffffffffffffffffffffffffffffffffff16815260200190815260200160002060008373ffffffffffffffffffffffffffffffffffffffff1673ffffffffffffffffffffffffffffffffffffffff168152602001908152602001600020600084815260200190815260200160002060006101000a81548160ff0219169083151502179055503373ffffffffffffffffffffffffffffffffffffffff168173ffffffffffffffffffffffffffffffffffffffff16837f3646a897c70797ecc134b0adc32f471b07bf1d6f451133b0384badab531e3fd660405160405180910390a45050565b60008083600b60008873ffffffffffffffffffffffffffffffffffffffff1673ffffffffffffffffffffffffffffffffffffffff168152602001908152602001600020541015610d0e577f52000000000000000000000000000000000000000000000000000000000000007f696e73756666696369656e742062616c616e636500000000000000000000000091509150610fde565b83600a60008873ffffffffffffffffffffffffffffffffffffffff1673ffffffffffffffffffffffffffffffffffffffff16815260200190815260200160002060003373ffffffffffffffffffffffffffffffffffffffff1673ffffffffffffffffffffffffffffffffffffffff168152602001908152602001600020541015610ddd577f53000000000000000000000000000000000000000000000000000000000000007f696e73756666696369656e7420616c6c6f77616e63650000000000000000000091509150610fde565b600073ffffffffffffffffffffffffffffffffffffffff168573ffffffffffffffffffffffffffffffffffffffff161415610e5d577f57000000000000000000000000000000000000000000000000000000000000007f696e76616c69642072656365697665720000000000000000000000000000000091509150610fde565b600f60008773ffffffffffffffffffffffffffffffffffffffff1673ffffffffffffffffffffffffffffffffffffffff16815260200190815260200160002060003373ffffffffffffffffffffffffffffffffffffffff1673ffffffffffffffffffffffffffffffffffffffff16815260200190815260200160002060009054906101000a900460ff1615610f37577f58000000000000000000000000000000000000000000000000000000000000007f696e76616c6964206f70657261746f720000000000000000000000000000000091509150610fde565b60011515610f4584866115bc565b151514610f97577f59000000000000000000000000000000000000000000000000000000000000007f696e76616c6964207369676e657200000000000000000000000000000000000091509150610fde565b7f51000000000000000000000000000000000000000000000000000000000000007f7472616e73666572207375636365737300000000000000000000000000000000915091505b94509492505050565b6000601160003373ffffffffffffffffffffffffffffffffffffffff1673ffffffffffffffffffffffffffffffffffffffff16815260200190815260200160002060008373ffffffffffffffffffffffffffffffffffffffff1673ffffffffffffffffffffffffffffffffffffffff168152602001908152602001600020600084815260200190815260200160002060006101000a81548160ff0219169083151502179055503373ffffffffffffffffffffffffffffffffffffffff168173ffffffffffffffffffffffffffffffffffffffff16837f3b287c4f1bab4df949b33bceacef984f544dc5d5479930d00e4ee8c9d8dd96f260405160405180910390a45050565b60035481565b60008060011515600560149054906101000a900460ff161515141561115c577f55000000000000000000000000000000000000000000000000000000000000007f66756e6473206c6f636b656420286c6f636b757020706572696f64290000000091509150611315565b600073ffffffffffffffffffffffffffffffffffffffff168573ffffffffffffffffffffffffffffffffffffffff1614156111dc577f57000000000000000000000000000000000000000000000000000000000000007f696e76616c69642072656365697665720000000000000000000000000000000091509150611315565b83600b60003373ffffffffffffffffffffffffffffffffffffffff1673ffffffffffffffffffffffffffffffffffffffff16815260200190815260200160002054101561126e577f52000000000000000000000000000000000000000000000000000000000000007f696e73756666696369656e742062616c616e636500000000000000000000000091509150611315565b6001151561127c84866115bc565b1515146112ce577f59000000000000000000000000000000000000000000000000000000000000007f696e76616c6964207369676e657200000000000000000000000000000000000091509150611315565b7f51000000000000000000000000000000000000000000000000000000000000007f7472616e73666572207375636365737300000000000000000000000000000000915091505b935093915050565b600081600a60008673ffffffffffffffffffffffffffffffffffffffff1673ffffffffffffffffffffffffffffffffffffffff16815260200190815260200160002060003373ffffffffffffffffffffffffffffffffffffffff1673ffffffffffffffffffffffffffffffffffffffff1681526020019081526020016000205410156113de576040517f08c379a00000000000000000000000000000000000000000000000000000000081526004016113d59061519d565b60405180910390fd5b6113e984848461323c565b506000600a60008673ffffffffffffffffffffffffffffffffffffffff1673ffffffffffffffffffffffffffffffffffffffff16815260200190815260200160002060003373ffffffffffffffffffffffffffffffffffffffff1673ffffffffffffffffffffffffffffffffffffffff16815260200190815260200160002081905550600190509392505050565b61148181836115bc565b61148a57600080fd5b61149533848461323c565b50505050565b6114ea868686868080601f016020809104026020016040519081016040528093929190818152602001838380828437600081840152601f19601f82011690508083019250505050505050613491565b8573ffffffffffffffffffffffffffffffffffffffff167f876b7cb47aa150b3a5516188b19ed308752ad4d0ae9a702543353b78163f758933878787878760405161153a969594939291906151fb565b60405180910390a2505050505050565b6000600560159054906101000a900460ff16905090565b6000600d60008373ffffffffffffffffffffffffffffffffffffffff1673ffffffffffffffffffffffffffffffffffffffff168152602001908152602001600020600084815260200190815260200160002054905092915050565b60006001905092915050565b80600690805190602001906115de929190613e67565b5050565b6000600560169054906101000a900460ff16905090565b60025481565b61160981836115bc565b61161257600080fd5b61162e83338484604051806020016040528060008152506135a5565b505050565b600560009054906101000a900473ffffffffffffffffffffffffffffffffffffffff1673ffffffffffffffffffffffffffffffffffffffff163373ffffffffffffffffffffffffffffffffffffffff16146116c3576040517f08c379a00000000000000000000000000000000000000000000000000000000081526004016116ba9061529e565b60405180910390fd5b600560159054906101000a900460ff16611712576040517f08c379a00000000000000000000000000000000000000000000000000000000081526004016117099061530a565b60405180910390fd5b6000600254836117229190615359565b905080600d60008673ffffffffffffffffffffffffffffffffffffffff1673ffffffffffffffffffffffffffffffffffffffff1681526020019081526020016000206000878152602001908152602001600020600082825461178491906153b3565b9250508190555080600b60008673ffffffffffffffffffffffffffffffffffffffff1673ffffffffffffffffffffffffffffffffffffffff16815260200190815260200160002060008282546117da91906153b3565b9250508190555080600360008282546117f391906153b3565b925050819055508373ffffffffffffffffffffffffffffffffffffffff163373ffffffffffffffffffffffffffffffffffffffff16867ff0ded82afbb1bb3ff3fc48cb2a26584aa84e4af0bf309c804ecdb94d0f6a98bb848660405161185a929190615473565b60405180910390a45050505050565b606060068054806020026020016040519081016040528092919081815260200182805480156118b757602002820191906000526020600020905b8154815260200190600101908083116118a3575b5050505050905090565b6000601160008373ffffffffffffffffffffffffffffffffffffffff1673ffffffffffffffffffffffffffffffffffffffff16815260200190815260200160002060008473ffffffffffffffffffffffffffffffffffffffff1673ffffffffffffffffffffffffffffffffffffffff168152602001908152602001600020600085815260200190815260200160002060009054906101000a900460ff1690509392505050565b600560009054906101000a900473ffffffffffffffffffffffffffffffffffffffff1673ffffffffffffffffffffffffffffffffffffffff163373ffffffffffffffffffffffffffffffffffffffff16146119f7576040517f08c379a00000000000000000000000000000000000000000000000000000000081526004016119ee9061529e565b60405180910390fd5b80600560166101000a81548160ff02191690831515021790555050565b6000600b60008373ffffffffffffffffffffffffffffffffffffffff1673ffffffffffffffffffffffffffffffffffffffff168152602001908152602001600020549050919050565b6060600060068054905067ffffffffffffffff811115611a8057611a7f614268565b5b604051908082528060200260200182016040528015611aae5781602001602082028036833780820191505090505b50905060005b600680549050811015611b8a576000600d60008673ffffffffffffffffffffffffffffffffffffffff1673ffffffffffffffffffffffffffffffffffffffff168152602001908152602001600020600060068481548110611b1857611b176154b6565b5b90600052602060002001548152602001908152602001600020541115611b775760068181548110611b4c57611b4b6154b6565b5b9060005260206000200154828281518110611b6a57611b696154b6565b5b6020026020010181815250505b8080611b82906154e5565b915050611ab4565b5080915050919050565b6000611ba082856115bc565b611bdf576040517f08c379a0000000000000000000000000000000000000000000000000000000008152600401611bd69061557a565b60405180910390fd5b60011515600560169054906101000a900460ff161515148015611c4b5750601260003373ffffffffffffffffffffffffffffffffffffffff1673ffffffffffffffffffffffffffffffffffffffff16815260200190815260200160002060009054906101000a900460ff165b15611ced57611c7c8787878760405180602001604052806000815250604051806020016040528060008152506139ac565b508473ffffffffffffffffffffffffffffffffffffffff168673ffffffffffffffffffffffffffffffffffffffff167f6bf62b4b9c7b768275122bf70d429efc398a056d669b1efdf6c3976346246d7d33878787604051611ce0949392919061559a565b60405180910390a3611e86565b601160008773ffffffffffffffffffffffffffffffffffffffff1673ffffffffffffffffffffffffffffffffffffffff16815260200190815260200160002060003373ffffffffffffffffffffffffffffffffffffffff1673ffffffffffffffffffffffffffffffffffffffff168152602001908152602001600020600088815260200190815260200160002060009054906101000a900460ff1680611e195750600f60008773ffffffffffffffffffffffffffffffffffffffff1673ffffffffffffffffffffffffffffffffffffffff16815260200190815260200160002060003373ffffffffffffffffffffffffffffffffffffffff1673ffffffffffffffffffffffffffffffffffffffff16815260200190815260200160002060009054906101000a900460ff165b611e58576040517f08c379a0000000000000000000000000000000000000000000000000000000008152600401611e4f9061529e565b60405180910390fd5b611e848787878760405180602001604052806000815250604051806020016040528060008152506139ac565b505b9695505050505050565b600560009054906101000a900473ffffffffffffffffffffffffffffffffffffffff1673ffffffffffffffffffffffffffffffffffffffff163373ffffffffffffffffffffffffffffffffffffffff1614611f20576040517f08c379a0000000000000000000000000000000000000000000000000000000008152600401611f179061529e565b60405180910390fd5b600073ffffffffffffffffffffffffffffffffffffffff168173ffffffffffffffffffffffffffffffffffffffff161415611f90576040517f08c379a0000000000000000000000000000000000000000000000000000000008152600401611f87906150eb565b60405180910390fd5b601260008273ffffffffffffffffffffffffffffffffffffffff1673ffffffffffffffffffffffffffffffffffffffff16815260200190815260200160002060009054906101000a900460ff161561201d576040517f08c379a000000000000000000000000000000000000000000000000000000000815260040161201490615639565b60405180910390fd5b6001601260008373ffffffffffffffffffffffffffffffffffffffff1673ffffffffffffffffffffffffffffffffffffffff16815260200190815260200160002060006101000a81548160ff0219169083151502179055506008819080600181540180825580915050600190039060005260206000200160009091909190916101000a81548173ffffffffffffffffffffffffffffffffffffffff021916908373ffffffffffffffffffffffffffffffffffffffff16021790555060016008805490506120ea9190615659565b601360008373ffffffffffffffffffffffffffffffffffffffff1673ffffffffffffffffffffffffffffffffffffffff1681526020019081526020016000208190555050565b6001600f60003373ffffffffffffffffffffffffffffffffffffffff1673ffffffffffffffffffffffffffffffffffffffff16815260200190815260200160002060008373ffffffffffffffffffffffffffffffffffffffff1673ffffffffffffffffffffffffffffffffffffffff16815260200190815260200160002060006101000a81548160ff0219169083151502179055503373ffffffffffffffffffffffffffffffffffffffff168173ffffffffffffffffffffffffffffffffffffffff167ff4caeb2d6ca8932a215a353d0703c326ec2d81fc68170f320eb2ab49e9df61f960405160405180910390a350565b6001805461222f9061506d565b80601f016020809104026020016040519081016040528092919081815260200182805461225b9061506d565b80156122a85780601f1061227d576101008083540402835291602001916122a8565b820191906000526020600020905b81548152906001019060200180831161228b57829003601f168201915b505050505081565b6122ba81836115bc565b6122c357600080fd5b81600a60008573ffffffffffffffffffffffffffffffffffffffff1673ffffffffffffffffffffffffffffffffffffffff16815260200190815260200160002060003373ffffffffffffffffffffffffffffffffffffffff1673ffffffffffffffffffffffffffffffffffffffff168152602001908152602001600020541015612382576040517f08c379a00000000000000000000000000000000000000000000000000000000081526004016123799061519d565b60405180910390fd5b61238d838383613491565b505050565b61239c81836115bc565b6123a557600080fd5b60011515600560169054906101000a900460ff1615151480156124115750601260003373ffffffffffffffffffffffffffffffffffffffff1673ffffffffffffffffffffffffffffffffffffffff16815260200190815260200160002060009054906101000a900460ff165b156124895761243284848460405180602001604052806000815250856135a5565b8273ffffffffffffffffffffffffffffffffffffffff167f876b7cb47aa150b3a5516188b19ed308752ad4d0ae9a702543353b78163f758933848460405161247c9392919061568d565b60405180910390a2612611565b600f60008473ffffffffffffffffffffffffffffffffffffffff1673ffffffffffffffffffffffffffffffffffffffff16815260200190815260200160002060003373ffffffffffffffffffffffffffffffffffffffff1673ffffffffffffffffffffffffffffffffffffffff16815260200190815260200160002060009054906101000a900460ff16806125b55750601160008473ffffffffffffffffffffffffffffffffffffffff1673ffffffffffffffffffffffffffffffffffffffff16815260200190815260200160002060003373ffffffffffffffffffffffffffffffffffffffff1673ffffffffffffffffffffffffffffffffffffffff168152602001908152602001600020600085815260200190815260200160002060009054906101000a900460ff165b6125f4576040517f08c379a00000000000000000000000000000000000000000000000000000000081526004016125eb906150eb565b60405180910390fd5b61261084848460405180602001604052806000815250856135a5565b5b50505050565b60008060008073ffffffffffffffffffffffffffffffffffffffff168773ffffffffffffffffffffffffffffffffffffffff1614156126a057857f5500000000000000000000000000000000000000000000000000000000000000907f696e76616c696420726563656976657200000000000000000000000000000000909250925092506127f9565b600d60008973ffffffffffffffffffffffffffffffffffffffff1673ffffffffffffffffffffffffffffffffffffffff16815260200190815260200160002060008781526020019081526020016000205485111561274857857f5500000000000000000000000000000000000000000000000000000000000000907f696e73756666696369656e742062616c616e6365000000000000000000000000909250925092506127f9565b6001151561275685876115bc565b1515146127ad57857f5900000000000000000000000000000000000000000000000000000000000000907f696e76616c6964207369676e6572000000000000000000000000000000000000909250925092506127f9565b857f5100000000000000000000000000000000000000000000000000000000000000907f7472616e73666572207375636365737300000000000000000000000000000000909250925092505b955095509592505050565b600061281133848461323c565b506001905092915050565b60045481565b6060600080600c600085815260200190815260200160002060405180606001604052908160008201548152602001600182015481526020016002820180546128699061506d565b80601f01602080910402602001604051908101604052809291908181526020018280546128959061506d565b80156128e25780601f106128b7576101008083540402835291602001916128e2565b820191906000526020600020905b8154815290600101906020018083116128c557829003601f168201915b5050505050815250509050806040015181602001519250925050915091565b6000601260008373ffffffffffffffffffffffffffffffffffffffff1673ffffffffffffffffffffffffffffffffffffffff16815260200190815260200160002060009054906101000a900460ff169050919050565b606060088054806020026020016040519081016040528092919081815260200182805480156129db57602002820191906000526020600020905b8160009054906101000a900473ffffffffffffffffffffffffffffffffffffffff1673ffffffffffffffffffffffffffffffffffffffff1681526020019060010190808311612991575b5050505050905090565b6000600f60008373ffffffffffffffffffffffffffffffffffffffff1673ffffffffffffffffffffffffffffffffffffffff16815260200190815260200160002060008473ffffffffffffffffffffffffffffffffffffffff1673ffffffffffffffffffffffffffffffffffffffff16815260200190815260200160002060009054906101000a900460ff16905092915050565b600560009054906101000a900473ffffffffffffffffffffffffffffffffffffffff1673ffffffffffffffffffffffffffffffffffffffff163373ffffffffffffffffffffffffffffffffffffffff1614612b09576040517f08c379a0000000000000000000000000000000000000000000000000000000008152600401612b009061529e565b60405180910390fd5b600560159054906101000a900460ff16612b58576040517f08c379a0000000000000000000000000000000000000000000000000000000008152600401612b4f9061530a565b60405180910390fd5b600073ffffffffffffffffffffffffffffffffffffffff168473ffffffffffffffffffffffffffffffffffffffff161415612bc8576040517f08c379a0000000000000000000000000000000000000000000000000000000008152600401612bbf9061572a565b60405180910390fd5b600060025484612bd89190615359565b905080600b60008773ffffffffffffffffffffffffffffffffffffffff1673ffffffffffffffffffffffffffffffffffffffff1681526020019081526020016000206000828254612c2991906153b3565b925050819055508060036000828254612c4291906153b3565b925050819055507f5a1f7f24a8d262d4fd95d7324e83dcdd93b4b9911cc5f45cac5a0382242953a4858260035442604051612c80949392919061574a565b60405180910390a15050505050565b612c9981836115bc565b612ca257600080fd5b612cad338383613491565b5050565b818160079190612cc2929190613eb4565b505050565b81600a60008673ffffffffffffffffffffffffffffffffffffffff1673ffffffffffffffffffffffffffffffffffffffff16815260200190815260200160002060003373ffffffffffffffffffffffffffffffffffffffff1673ffffffffffffffffffffffffffffffffffffffff168152602001908152602001600020541015612d86576040517f08c379a0000000000000000000000000000000000000000000000000000000008152600401612d7d9061519d565b60405180910390fd5b612d9184848461323c565b506000600a60008673ffffffffffffffffffffffffffffffffffffffff1673ffffffffffffffffffffffffffffffffffffffff16815260200190815260200160002060003373ffffffffffffffffffffffffffffffffffffffff1673ffffffffffffffffffffffffffffffffffffffff1681526020019081526020016000208190555050505050565b612e2587878761323c565b508573ffffffffffffffffffffffffffffffffffffffff168773ffffffffffffffffffffffffffffffffffffffff167f6bf62b4b9c7b768275122bf70d429efc398a056d669b1efdf6c3976346246d7d338888888888604051612e8d969594939291906151fb565b60405180910390a350505050505050565b60006001825114612ebd57612eb382846115bc565b612ebc57600080fd5b5b612eda8533868686604051806020016040528060008152506139ac565b50949350505050565b600560009054906101000a900473ffffffffffffffffffffffffffffffffffffffff1673ffffffffffffffffffffffffffffffffffffffff163373ffffffffffffffffffffffffffffffffffffffff1614612f73576040517f08c379a0000000000000000000000000000000000000000000000000000000008152600401612f6a9061529e565b60405180910390fd5b600073ffffffffffffffffffffffffffffffffffffffff168173ffffffffffffffffffffffffffffffffffffffff161415612fe3576040517f08c379a0000000000000000000000000000000000000000000000000000000008152600401612fda906150eb565b60405180910390fd5b601260008273ffffffffffffffffffffffffffffffffffffffff1673ffffffffffffffffffffffffffffffffffffffff16815260200190815260200160002060009054906101000a900460ff1661306f576040517f08c379a0000000000000000000000000000000000000000000000000000000008152600401613066906150eb565b60405180910390fd5b6000601260008373ffffffffffffffffffffffffffffffffffffffff1673ffffffffffffffffffffffffffffffffffffffff16815260200190815260200160002060006101000a81548160ff0219169083151502179055506008601360008373ffffffffffffffffffffffffffffffffffffffff1673ffffffffffffffffffffffffffffffffffffffff168152602001908152602001600020548154811061311a576131196154b6565b5b9060005260206000200160006101000a81549073ffffffffffffffffffffffffffffffffffffffff021916905550565b6000600f60003373ffffffffffffffffffffffffffffffffffffffff1673ffffffffffffffffffffffffffffffffffffffff16815260200190815260200160002060008373ffffffffffffffffffffffffffffffffffffffff1673ffffffffffffffffffffffffffffffffffffffff16815260200190815260200160002060006101000a81548160ff0219169083151502179055503373ffffffffffffffffffffffffffffffffffffffff168173ffffffffffffffffffffffffffffffffffffffff167f50546e66e5f44d728365dc3908c63bc5cfeeab470722c1677e3073a6ac294aa160405160405180910390a350565b60008073ffffffffffffffffffffffffffffffffffffffff168373ffffffffffffffffffffffffffffffffffffffff1614156132ad576040517f08c379a00000000000000000000000000000000000000000000000000000000081526004016132a49061572a565b60405180910390fd5b81600b60008673ffffffffffffffffffffffffffffffffffffffff1673ffffffffffffffffffffffffffffffffffffffff16815260200190815260200160002054101561332f576040517f08c379a0000000000000000000000000000000000000000000000000000000008152600401613326906157db565b60405180910390fd5b81600b60008673ffffffffffffffffffffffffffffffffffffffff1673ffffffffffffffffffffffffffffffffffffffff1681526020019081526020016000205461337a9190615659565b600b60008673ffffffffffffffffffffffffffffffffffffffff1673ffffffffffffffffffffffffffffffffffffffff1681526020019081526020016000208190555081600b60008573ffffffffffffffffffffffffffffffffffffffff1673ffffffffffffffffffffffffffffffffffffffff1681526020019081526020016000205461340891906153b3565b600b60008573ffffffffffffffffffffffffffffffffffffffff1673ffffffffffffffffffffffffffffffffffffffff168152602001908152602001600020819055507fddf252ad1be2c89b69c2b068fc378daa952ba7f163c4a11628f55a4df523b3ef84848460405161347e9392919061511a565b60405180910390a1600190509392505050565b81600b60008573ffffffffffffffffffffffffffffffffffffffff1673ffffffffffffffffffffffffffffffffffffffff168152602001908152602001600020541015613513576040517f08c379a000000000000000000000000000000000000000000000000000000000815260040161350a906157db565b60405180910390fd5b61351f8360008461323c565b5081600360008282546135329190615659565b925050819055508273ffffffffffffffffffffffffffffffffffffffff163373ffffffffffffffffffffffffffffffffffffffff167fb7d0d6b60740753e9f16692a2f479472a1385aec2420fa43225b02f2ffa1afe784846040516135989291906157fb565b60405180910390a3505050565b600073ffffffffffffffffffffffffffffffffffffffff163373ffffffffffffffffffffffffffffffffffffffff161415613615576040517f08c379a000000000000000000000000000000000000000000000000000000000815260040161360c9061529e565b60405180910390fd5b82600d60008673ffffffffffffffffffffffffffffffffffffffff1673ffffffffffffffffffffffffffffffffffffffff16815260200190815260200160002060008781526020019081526020016000205410156136a8576040517f08c379a000000000000000000000000000000000000000000000000000000000815260040161369f906157db565b60405180910390fd5b82600d60008673ffffffffffffffffffffffffffffffffffffffff1673ffffffffffffffffffffffffffffffffffffffff1681526020019081526020016000206000878152602001908152602001600020546137049190615659565b600d60008673ffffffffffffffffffffffffffffffffffffffff1673ffffffffffffffffffffffffffffffffffffffff16815260200190815260200160002060008781526020019081526020016000208190555082600b60008673ffffffffffffffffffffffffffffffffffffffff1673ffffffffffffffffffffffffffffffffffffffff168152602001908152602001600020546137a39190615659565b600b60008673ffffffffffffffffffffffffffffffffffffffff1673ffffffffffffffffffffffffffffffffffffffff1681526020019081526020016000208190555082600d60008073ffffffffffffffffffffffffffffffffffffffff1673ffffffffffffffffffffffffffffffffffffffff16815260200190815260200160002060008781526020019081526020016000205461384291906153b3565b600d60008073ffffffffffffffffffffffffffffffffffffffff1673ffffffffffffffffffffffffffffffffffffffff16815260200190815260200160002060008781526020019081526020016000208190555082600b60008073ffffffffffffffffffffffffffffffffffffffff1673ffffffffffffffffffffffffffffffffffffffff168152602001908152602001600020546138e191906153b3565b600b60008073ffffffffffffffffffffffffffffffffffffffff1673ffffffffffffffffffffffffffffffffffffffff1681526020019081526020016000208190555082600360008282546139369190615659565b925050819055508373ffffffffffffffffffffffffffffffffffffffff163373ffffffffffffffffffffffffffffffffffffffff16867fce306c3dbc4a497124b5a4f2be8388b41084c1d74663da27ecee1186c00239bf868560405161399d9291906157fb565b60405180910390a45050505050565b600083600d60008873ffffffffffffffffffffffffffffffffffffffff1673ffffffffffffffffffffffffffffffffffffffff1681526020019081526020016000206000898152602001908152602001600020541015613a41576040517f08c379a0000000000000000000000000000000000000000000000000000000008152600401613a38906157db565b60405180910390fd5b600073ffffffffffffffffffffffffffffffffffffffff168573ffffffffffffffffffffffffffffffffffffffff161415613ab1576040517f08c379a0000000000000000000000000000000000000000000000000000000008152600401613aa89061572a565b60405180910390fd5b83600d60008873ffffffffffffffffffffffffffffffffffffffff1673ffffffffffffffffffffffffffffffffffffffff168152602001908152602001600020600089815260200190815260200160002054613b0d9190615659565b600d60008873ffffffffffffffffffffffffffffffffffffffff1673ffffffffffffffffffffffffffffffffffffffff16815260200190815260200160002060008981526020019081526020016000208190555083600b60008873ffffffffffffffffffffffffffffffffffffffff1673ffffffffffffffffffffffffffffffffffffffff16815260200190815260200160002054613bac9190615659565b600b60008873ffffffffffffffffffffffffffffffffffffffff1673ffffffffffffffffffffffffffffffffffffffff1681526020019081526020016000208190555083600d60008773ffffffffffffffffffffffffffffffffffffffff1673ffffffffffffffffffffffffffffffffffffffff168152602001908152602001600020600089815260200190815260200160002054613c4b91906153b3565b600d60008773ffffffffffffffffffffffffffffffffffffffff1673ffffffffffffffffffffffffffffffffffffffff16815260200190815260200160002060008981526020019081526020016000208190555083600b60008773ffffffffffffffffffffffffffffffffffffffff1673ffffffffffffffffffffffffffffffffffffffff16815260200190815260200160002054613cea91906153b3565b600b60008773ffffffffffffffffffffffffffffffffffffffff1673ffffffffffffffffffffffffffffffffffffffff168152602001908152602001600020819055508473ffffffffffffffffffffffffffffffffffffffff163373ffffffffffffffffffffffffffffffffffffffff16887fff4e9a26af4eb73b8bacfaa4abd4fea03d9448e7b912dc5ff4019048875aa2d433888888604051613d91949392919061559a565b60405180910390a47fddf252ad1be2c89b69c2b068fc378daa952ba7f163c4a11628f55a4df523b3ef868686604051613dcc9392919061511a565b60405180910390a18690509695505050505050565b828054613ded9061506d565b90600052602060002090601f016020900481019282613e0f5760008555613e56565b82601f10613e2857805160ff1916838001178555613e56565b82800160010185558215613e56579182015b82811115613e55578251825591602001919060010190613e3a565b5b509050613e639190613f01565b5090565b828054828255906000526020600020908101928215613ea3579160200282015b82811115613ea2578251825591602001919060010190613e87565b5b509050613eb09190613f1e565b5090565b828054828255906000526020600020908101928215613ef0579160200282015b82811115613eef578235825591602001919060010190613ed4565b5b509050613efd9190613f1e565b5090565b5b80821115613f1a576000816000905550600101613f02565b5090565b5b80821115613f37576000816000905550600101613f1f565b5090565b6000604051905090565b600080fd5b600080fd5b6000819050919050565b613f6281613f4f565b8114613f6d57600080fd5b50565b600081359050613f7f81613f59565b92915050565b600080fd5b600080fd5b600080fd5b60008083601f840112613faa57613fa9613f85565b5b8235905067ffffffffffffffff811115613fc757613fc6613f8a565b5b602083019150836001820283011115613fe357613fe2613f8f565b5b9250929050565b6000806000806060858703121561400457614003613f45565b5b600061401287828801613f70565b945050602085013567ffffffffffffffff81111561403357614032613f4a565b5b61403f87828801613f94565b9350935050604061405287828801613f70565b91505092959194509250565b600081519050919050565b600082825260208201905092915050565b60005b8381101561409857808201518184015260208101905061407d565b838111156140a7576000848401525b50505050565b6000601f19601f8301169050919050565b60006140c98261405e565b6140d38185614069565b93506140e381856020860161407a565b6140ec816140ad565b840191505092915050565b6000602082019050818103600083015261411181846140be565b905092915050565b600073ffffffffffffffffffffffffffffffffffffffff82169050919050565b600061414482614119565b9050919050565b61415481614139565b811461415f57600080fd5b50565b6000813590506141718161414b565b92915050565b6000819050919050565b61418a81614177565b811461419557600080fd5b50565b6000813590506141a781614181565b92915050565b600080604083850312156141c4576141c3613f45565b5b60006141d285828601614162565b92505060206141e385828601614198565b9150509250929050565b60008115159050919050565b614202816141ed565b82525050565b600060208201905061421d60008301846141f9565b92915050565b6000806040838503121561423a57614239613f45565b5b600061424885828601613f70565b925050602061425985828601614162565b9150509250929050565b600080fd5b7f4e487b7100000000000000000000000000000000000000000000000000000000600052604160045260246000fd5b6142a0826140ad565b810181811067ffffffffffffffff821117156142bf576142be614268565b5b80604052505050565b60006142d2613f3b565b90506142de8282614297565b919050565b600067ffffffffffffffff8211156142fe576142fd614268565b5b614307826140ad565b9050602081019050919050565b82818337600083830152505050565b6000614336614331846142e3565b6142c8565b90508281526020810184848401111561435257614351614263565b5b61435d848285614314565b509392505050565b600082601f83011261437a57614379613f85565b5b813561438a848260208601614323565b91505092915050565b600080600080608085870312156143ad576143ac613f45565b5b60006143bb87828801614162565b94505060206143cc87828801614162565b93505060406143dd87828801614198565b925050606085013567ffffffffffffffff8111156143fe576143fd613f4a565b5b61440a87828801614365565b91505092959194509250565b60007fff0000000000000000000000000000000000000000000000000000000000000082169050919050565b61444b81614416565b82525050565b61445a81613f4f565b82525050565b60006040820190506144756000830185614442565b6144826020830184614451565b9392505050565b61449281614177565b82525050565b60006020820190506144ad6000830184614489565b92915050565b6000806000606084860312156144cc576144cb613f45565b5b60006144da86828701614162565b93505060206144eb86828701614198565b925050604084013567ffffffffffffffff81111561450c5761450b613f4a565b5b61451886828701614365565b9150509250925092565b60008060006060848603121561453b5761453a613f45565b5b600061454986828701614162565b935050602061455a86828701614162565b925050604061456b86828701614198565b9150509250925092565b60008083601f84011261458b5761458a613f85565b5b8235905067ffffffffffffffff8111156145a8576145a7613f8a565b5b6020830191508360018202830111156145c4576145c3613f8f565b5b9250929050565b600080600080600080608087890312156145e8576145e7613f45565b5b60006145f689828a01614162565b965050602061460789828a01614198565b955050604087013567ffffffffffffffff81111561462857614627613f4a565b5b61463489828a01614575565b9450945050606087013567ffffffffffffffff81111561465757614656613f4a565b5b61466389828a01614575565b92509250509295509295509295565b6000806040838503121561468957614688613f45565b5b600083013567ffffffffffffffff8111156146a7576146a6613f4a565b5b6146b385828601614365565b92505060206146c485828601614198565b9150509250929050565b600067ffffffffffffffff8211156146e9576146e8614268565b5b602082029050602081019050919050565b600061470d614708846146ce565b6142c8565b905080838252602082019050602084028301858111156147305761472f613f8f565b5b835b8181101561475957806147458882613f70565b845260208401935050602081019050614732565b5050509392505050565b600082601f83011261477857614777613f85565b5b81356147888482602086016146fa565b91505092915050565b6000602082840312156147a7576147a6613f45565b5b600082013567ffffffffffffffff8111156147c5576147c4613f4a565b5b6147d184828501614763565b91505092915050565b6000806000606084860312156147f3576147f2613f45565b5b600061480186828701613f70565b935050602061481286828701614198565b925050604084013567ffffffffffffffff81111561483357614832613f4a565b5b61483f86828701614365565b9150509250925092565b6000806000806080858703121561486357614862613f45565b5b600061487187828801613f70565b945050602061488287828801614162565b935050604061489387828801614198565b925050606085013567ffffffffffffffff8111156148b4576148b3613f4a565b5b6148c087828801614365565b91505092959194509250565b600081519050919050565b600082825260208201905092915050565b6000819050602082019050919050565b61490181613f4f565b82525050565b600061491383836148f8565b60208301905092915050565b6000602082019050919050565b6000614937826148cc565b61494181856148d7565b935061494c836148e8565b8060005b8381101561497d5781516149648882614907565b975061496f8361491f565b925050600181019050614950565b5085935050505092915050565b600060208201905081810360008301526149a4818461492c565b905092915050565b6000806000606084860312156149c5576149c4613f45565b5b60006149d386828701613f70565b93505060206149e486828701614162565b92505060406149f586828701614162565b9150509250925092565b614a08816141ed565b8114614a1357600080fd5b50565b600081359050614a25816149ff565b92915050565b600060208284031215614a4157614a40613f45565b5b6000614a4f84828501614a16565b91505092915050565b600060208284031215614a6e57614a6d613f45565b5b6000614a7c84828501614162565b91505092915050565b60008060008060008060c08789031215614aa257614aa1613f45565b5b6000614ab089828a01613f70565b9650506020614ac189828a01614162565b9550506040614ad289828a01614162565b9450506060614ae389828a01614198565b935050608087013567ffffffffffffffff811115614b0457614b03613f4a565b5b614b1089828a01614365565b92505060a087013567ffffffffffffffff811115614b3157614b30613f4a565b5b614b3d89828a01614365565b9150509295509295509295565b6000602082019050614b5f6000830184614451565b92915050565b600080600080600060a08688031215614b8157614b80613f45565b5b6000614b8f88828901614162565b9550506020614ba088828901614162565b9450506040614bb188828901613f70565b9350506060614bc288828901614198565b925050608086013567ffffffffffffffff811115614be357614be2613f4a565b5b614bef88828901614365565b9150509295509295909350565b6000606082019050614c116000830186614442565b614c1e6020830185614451565b614c2b6040830184614451565b949350505050565b600060208284031215614c4957614c48613f45565b5b6000614c5784828501613f70565b91505092915050565b60006040820190508181036000830152614c7a81856140be565b9050614c896020830184614451565b9392505050565b600081519050919050565b600082825260208201905092915050565b6000819050602082019050919050565b614cc581614139565b82525050565b6000614cd78383614cbc565b60208301905092915050565b6000602082019050919050565b6000614cfb82614c90565b614d058185614c9b565b9350614d1083614cac565b8060005b83811015614d41578151614d288882614ccb565b9750614d3383614ce3565b925050600181019050614d14565b5085935050505092915050565b60006020820190508181036000830152614d688184614cf0565b905092915050565b60008060408385031215614d8757614d86613f45565b5b6000614d9585828601614162565b9250506020614da685828601614162565b9150509250929050565b60008060008060608587031215614dca57614dc9613f45565b5b6000614dd887828801614162565b9450506020614de987828801614198565b935050604085013567ffffffffffffffff811115614e0a57614e09613f4a565b5b614e1687828801614575565b925092505092959194509250565b60008060408385031215614e3b57614e3a613f45565b5b6000614e4985828601614198565b925050602083013567ffffffffffffffff811115614e6a57614e69613f4a565b5b614e7685828601614365565b9150509250929050565b60008083601f840112614e9657614e95613f85565b5b8235905067ffffffffffffffff811115614eb357614eb2613f8a565b5b602083019150836020820283011115614ecf57614ece613f8f565b5b9250929050565b60008060208385031215614eed57614eec613f45565b5b600083013567ffffffffffffffff811115614f0b57614f0a613f4a565b5b614f1785828601614e80565b92509250509250929050565b600080600080600080600060a0888a031215614f4257614f41613f45565b5b6000614f508a828b01614162565b9750506020614f618a828b01614162565b9650506040614f728a828b01614198565b955050606088013567ffffffffffffffff811115614f9357614f92613f4a565b5b614f9f8a828b01614575565b9450945050608088013567ffffffffffffffff811115614fc257614fc1613f4a565b5b614fce8a828b01614575565b925092505092959891949750929550565b6000614feb8385614069565b9350614ff8838584614314565b615001836140ad565b840190509392505050565b60006040820190508181036000830152615027818587614fdf565b90506150366020830184614451565b949350505050565b7f4e487b7100000000000000000000000000000000000000000000000000000000600052602260045260246000fd5b6000600282049050600182168061508557607f821691505b602082108114156150995761509861503e565b5b50919050565b7f3078353800000000000000000000000000000000000000000000000000000000600082015250565b60006150d5600483614069565b91506150e08261509f565b602082019050919050565b60006020820190508181036000830152615104816150c8565b9050919050565b61511481614139565b82525050565b600060608201905061512f600083018661510b565b61513c602083018561510b565b6151496040830184614489565b949350505050565b7f3078353300000000000000000000000000000000000000000000000000000000600082015250565b6000615187600483614069565b915061519282615151565b602082019050919050565b600060208201905081810360008301526151b68161517a565b9050919050565b600082825260208201905092915050565b60006151da83856151bd565b93506151e7838584614314565b6151f0836140ad565b840190509392505050565b6000608082019050615210600083018961510b565b61521d6020830188614489565b81810360408301526152308186886151ce565b905081810360608301526152458184866151ce565b9050979650505050505050565b7f3078353600000000000000000000000000000000000000000000000000000000600082015250565b6000615288600483614069565b915061529382615252565b602082019050919050565b600060208201905081810360008301526152b78161527b565b9050919050565b7f3078353500000000000000000000000000000000000000000000000000000000600082015250565b60006152f4600483614069565b91506152ff826152be565b602082019050919050565b60006020820190508181036000830152615323816152e7565b9050919050565b7f4e487b7100000000000000000000000000000000000000000000000000000000600052601160045260246000fd5b600061536482614177565b915061536f83614177565b9250817fffffffffffffffffffffffffffffffffffffffffffffffffffffffffffffffff04831182151516156153a8576153a761532a565b5b828202905092915050565b60006153be82614177565b91506153c983614177565b9250827fffffffffffffffffffffffffffffffffffffffffffffffffffffffffffffffff038211156153fe576153fd61532a565b5b828201905092915050565b600081519050919050565b600061541f82615409565b61542981856151bd565b935061543981856020860161407a565b615442816140ad565b840191505092915050565b50565b600061545d6000836151bd565b91506154688261544d565b600082019050919050565b60006060820190506154886000830185614489565b818103602083015261549a8184615414565b905081810360408301526154ad81615450565b90509392505050565b7f4e487b7100000000000000000000000000000000000000000000000000000000600052603260045260246000fd5b60006154f082614177565b91507fffffffffffffffffffffffffffffffffffffffffffffffffffffffffffffffff8214156155235761552261532a565b5b600182019050919050565b7f63616e7420766572696679206461746100000000000000000000000000000000600082015250565b6000615564601083614069565b915061556f8261552e565b602082019050919050565b6000602082019050818103600083015261559381615557565b9050919050565b60006080820190506155af600083018761510b565b6155bc6020830186614489565b81810360408301526155ce8185615414565b905081810360608301526155e28184615414565b905095945050505050565b7f4143430000000000000000000000000000000000000000000000000000000000600082015250565b6000615623600383614069565b915061562e826155ed565b602082019050919050565b6000602082019050818103600083015261565281615616565b9050919050565b600061566482614177565b915061566f83614177565b9250828210156156825761568161532a565b5b828203905092915050565b60006080820190506156a2600083018661510b565b6156af6020830185614489565b81810360408301526156c081615450565b905081810360608301526156d48184615414565b9050949350505050565b7f3078353700000000000000000000000000000000000000000000000000000000600082015250565b6000615714600483614069565b915061571f826156de565b602082019050919050565b6000602082019050818103600083015261574381615707565b9050919050565b600060808201905061575f600083018761510b565b61576c6020830186614489565b6157796040830185614489565b6157866060830184614489565b95945050505050565b7f3078353200000000000000000000000000000000000000000000000000000000600082015250565b60006157c5600483614069565b91506157d08261578f565b602082019050919050565b600060208201905081810360008301526157f4816157b8565b9050919050565b60006040820190506158106000830185614489565b81810360208301526158228184615414565b9050939250505056fea264697066735822122076db11ab805887f988f5aa6573a6650d9332bd99490c52b6623d6d52746e568664736f6c634300080a0033",
  "immutableReferences": {},
  "source": "// solidity version\npragma solidity 0.8.10;\n\nimport \"../utils/CertificateLibrary.sol\";\n\n\ncontract ERC1400 {\n\n\n    /************************************************ Variable Declarations and Initaalizations ************************************/\n\n\n\n     // *************************************** Strings ********************************************************* //\n\n    string public name;   // token name\n    string public symbol; // token symbol\n\n\n\n    // *************************************** Integers ********************************************************* //\n\n    uint256 public granularity;                     // token granularity\n    uint256 public totalSupply;                     // token total supply\n    uint256 public nonce;                           //token decimals\n\n\n    // *************************************** Addresses ********************************************************* //\n\n    address private owner;  // set the address of the owner to be private\n\n\n\n     // *************************************** Booleans ********************************************************* //\n\n    bool private _lockUpTokens = false; // token lockup indicator\n    bool private _isIssuable = true;    //  indicates when a token can be issued\n    bool private _isControllable = true;   // private variable that indicates the controllability of the tokens\n    \n\n    // ************************ Array ******************************//\n\n    bytes32[] internal _totalPartitions;\n    bytes32[] internal _defaultPartitions;\n    address[] internal _controllers;\n    //bytes32[] internal _allDocuments;    // an array to store all the documents stored onchain\n\n\n     // *************************************** Structs ********************************************************* //\n\n    struct Doc {\n        bytes32 _name;\n        bytes32 _documentHash;\n        string _uri;\n        \n    } // struct to handle the documents\n\n\n\n    \n\n     // *************************************** Mappings ********************************************************* //\n\n    mapping (address => bool) private whitelist;                                     //  whitelist map\n    mapping (address => mapping(address => uint256)) private allowance;              // set the address of the allowed external operator\n    mapping (address => uint256) internal _balanceOf;                                // map to store the token balances of token holders\n    mapping (bytes32 => Doc) internal _documents;                                    // map to store the documents\n    mapping (address => mapping(bytes32 => uint256)) internal _balanceOfByPartition; // map to store the partitioned token balance of a token holder \n    mapping (address => bytes32[]) internal _partitionsOf;                           // map that stores the partitions of a token holder\n    mapping (address => mapping(address => bool)) internal _isOperator;              // map to approve or revoke operators for a token holder\n    mapping (bytes32 => uint256) internal _indexOfPartitions;\n\n    // holder's address -> operator  address -> partition -> true/false\n    mapping (address => mapping(address => mapping (bytes32 => bool))) internal _isOperatorForPartition;                  // map to approve or revoke operators by partition\n    mapping (address => bool) private _isController;                                 // map to store the addresses of approved controllers\n    mapping (address => uint256) private _indexOfController;                         // map to store the index position of controllers\n    mapping (bytes32 => bool) private _usedSignatures;\n\n    constructor (string memory _name, string memory _symbol, uint256 _granularity, uint256 _totalSupply, bytes32[] memory defaultPartitions) {\n\n        name = _name;\n        symbol = _symbol;\n        granularity = 10 ** _granularity; // for token decimals \n        totalSupply = _totalSupply;\n        owner = msg.sender;\n        _defaultPartitions = defaultPartitions;\n\n    }\n\n    modifier restricted {\n        require(msg.sender == owner, \"0x56\");\n        _;\n    }\n\n\n    // *************************************** Internal functions ********************************************************* //\n\n    /// @dev    internal funtion to transfer tokens from an address to another address\n    /// @notice `0x57` revert message if receiver is address 0\n    /// @notice `0x52` insufficient balance\n    /// @notice balance must be more or equal to the value to be transferred\n    /// @dev    this version of solidity handles the underflow and overflow error\n    /// @notice the emission of Transfer event\n    /// @param  _from is the address the token is sent from\n    /// @param  _to is the address the token is sent to\n    /// @param  _amount is the value of tokens to be sent\n\n    \n    function _transfer(address _from, address _to, uint256 _amount) internal returns (bool success) {\n\n        require(_to != address(0),  \"0x57\");        \n        require(_balanceOf[_from] >= _amount, \"0x52\");      \n\n        _balanceOf[_from] = _balanceOf[_from] - _amount;                  \n        _balanceOf[_to] = _balanceOf[_to] + _amount;                      \n        emit Transfer (_from, _to, _amount);                            \n        return true;\n     }\n\n\n     /// @dev   internal funtion to transfer tokens by partitions from an address to another address\n     /// @notice `0x57` revert message if receiver is address 0\n     /// @notice `0x52` insufficient balance\n     /// @dev   the total supply is the balance accross all partitions\n     /// @notice the global balance of the sender and receiver is adjusted respectively\n     /// @notice the emission of TransferByPartition and Transfer events\n\n    function _transferByPartiton(bytes32 _partition, address _from, address _to, uint256 _value, bytes memory _data, bytes memory _operatorData) internal returns(bytes32) {\n       \n    \n       require( _balanceOfByPartition[_from][_partition] >= _value, \"0x52\"); \n       require(_to != address(0),  \"0x57\");   \n\n       _balanceOfByPartition[_from][_partition] = _balanceOfByPartition[_from][_partition] - _value;\n       _balanceOf[_from] = _balanceOf[_from] - _value; // the value should reflect in the global token balance of the sender\n       \n       _balanceOfByPartition[_to][_partition] = _balanceOfByPartition[_to][_partition] + _value;\n       _balanceOf[_to] = _balanceOf[_to] + _value; // the value should reflect in the global token balance of the receiver\n\n       emit TransferByPartition(_partition, msg.sender, msg.sender, _to, _value, _data, _operatorData);\n       emit Transfer(_from, _to, _value);\n\n       return _partition;\n\n    }\n\n    // function to transfer by default Partitions\n\n    function _transferByDefaultPartitions(address _from, address _to, uint256 _value) internal {\n\n\n        require(_balanceOf[_from] >= _value, \"0x52\");        \n        for (uint256 index = 0; index < _defaultPartitions.length; index++) {\n            _transferByPartiton(_defaultPartitions[index], _from, _to, _value, \"\", \"\");\n        }\n\n    }\n\n    // internal redeem by partition function\n\n\n    function _redeemByPartition(bytes32 _partition, address _tokenHolder, uint256 _value, bytes memory _data, bytes memory _operatorData) internal {\n\n       require(msg.sender != address(0), \"0x56\");\n       require(_balanceOfByPartition[_tokenHolder][_partition] >= _value, \"0x52\");  // insufficient balance\n       _balanceOfByPartition[_tokenHolder][_partition] = _balanceOfByPartition[_tokenHolder][_partition] - _value;\n       _balanceOf[_tokenHolder] = _balanceOf[_tokenHolder] - _value; // the value should reflect in the global token balance of the sender\n       \n       _balanceOfByPartition[address(0)][_partition] = _balanceOfByPartition[address(0)][_partition] + _value;\n       _balanceOf[address(0)] = _balanceOf[address(0)] + _value; // the value should reflect in the global token balance of the receiver\n       totalSupply -= _value;\n       emit RedeemedByPartition(_partition, msg.sender, _tokenHolder, _value, _operatorData);\n\n    }\n\n    // internal redeem function\n\n    function _redeem(address _tokenHolder, uint256 _value, bytes memory _data) internal {\n\n       require(_balanceOf[_tokenHolder] >= _value, \"0x52\"); // insufficient balance\n       _transfer(_tokenHolder, address(0), _value);\n       totalSupply -= _value;\n       emit Redeemed(msg.sender, _tokenHolder, _value, _data);\n\n    }\n\n    \n    \n\n\n    function _isValidCertificate(bytes memory _data, uint256 _amount) public view returns (bool) {\n\n        return true;\n\n    }\n\n\n   \n\n\n\n    // **************************       ERC1400 FEATURES  ******************************************************//\n\n\n    //  Default Partitions\n\n\n    function setDefaultPartitions(bytes32[] calldata newDefaultPartitions) external  {\n        _defaultPartitions = newDefaultPartitions;\n    }\n     \n    // *********************    DOCUMENT MANAGEMENT  ---------- ERC 1643\n\n    //  set document\n\n    function setDocument (bytes32 _name, string calldata _uri, bytes32 _documentHash) external  {\n        \n        _documents[_name] = Doc(_name, _documentHash, _uri);     // save the document\n        //_allDocuments.push(_name);\n        //_indexOfDocument[_name] = _allDocuments.length;\n        emit Document(_name, _uri, _documentHash);              // emit event when document is set on chain\n\n    }\n\n    // get document\n    \n    function getDocument (bytes32 _name) external view returns (string memory uri, bytes32 docHash) {\n\n        Doc memory _document = _documents[_name];\n\n        return (_document._uri, _document._documentHash);  // return the document uri and document hash\n\n    }\n\n\n\n    // *********************    TOKEN INFORMATION\n\n\n    // function that returns balance\n    \n    function balanceOf(address _tokenHolder) external view returns (uint256) {\n        return _balanceOf[_tokenHolder];\n    }\n\n    function balanceOfByPartition(bytes32 _partition, address _tokenHolder) external view returns (uint256) {\n       return _balanceOfByPartition[_tokenHolder][_partition];\n   }\n\n   // function to return the partitions of a token holder\n\n    function partitionsOf(address _tokenHolder) external view returns (bytes32[] memory) {\n\n        bytes32[] memory _partitions = new bytes32[](_totalPartitions.length);\n        for (uint256 index = 0; index < _totalPartitions.length; index++) {\n            if (_balanceOfByPartition[_tokenHolder][_totalPartitions[index]] > 0) {\n                _partitions[index] = _totalPartitions[index];\n            }\n        }\n\n        return _partitions;\n   }\n\n\n\n    // *********************    TRANSFERS\n\n    // approve tokens to external operators\n    \n    function approve(address _externalAddress, uint256 _value) external returns (bool success) {\n\n        require(_externalAddress != address(0), \"0x58\");                  //    0x58   invalid operator\n        allowance[msg.sender][_externalAddress] = _value;              // use safemath function here to avoid under and overflow\n        emit Approval(msg.sender, _externalAddress, _value);            // emit the approved event\n        return true;\n\n    }\n\n\n    // function to transfer tokens. the internal transfer function will be called here\n    \n    function transfer(address _to, uint256 _value) public returns (bool success) {\n\n        _transfer(msg.sender, _to, _value);\n        return true;\n\n    }\n\n    // function transferFrom. The function for external addresses such as escrows to move tokens on behalf of the token holder\n    \n    function transferFrom(address _from, address _to, uint256 _value) external returns (bool success) {\n\n        // _from is the current token holder\n        // _to is the destinantion address\n        //  msg.sender is the external address calling this function\n        // the token holder should have at least the amount of tokens to be transferred ----> this check has been implemented in the internal _transfer function\n\n        require(allowance[_from][msg.sender] >= _value, \"0x53\");           // the allowed value approved by the token holder must not be less than the amount. Insufficient allowance\n        _transfer(_from, _to, _value);                             // transfer the tokens\n\n        // reset the allowance value\n\n        allowance[_from][msg.sender] =  0;   \n        return true;           \n\n    }  \n\n    // tranfer with data\n\n    function transferWithData(address _to, uint256 _value, bytes memory _data) external {\n        \n        require(_isValidCertificate(_data, _value));\n        _transfer(msg.sender, _to, _value);\n    }\n    \n\n    function transferFromWithData(address _from, address _to, uint256 _value, bytes memory _data) external {\n         require(allowance[_from][msg.sender] >= _value, \"0x53\");           // the allowed value approved by the token holder must not be less than the amount\n        _transfer(_from, _to, _value);                              // transfer the tokens\n\n        //  reset the allowance value\n\n        allowance[_from][msg.sender] =  0;   \n        \n    }\n\n\n    // *********************    PARTITION TOKEN TRANSFERS\n\n\n    function transferByPartition(bytes32 _partition, address _to, uint256 _value, bytes memory _data) external returns (bytes32) {\n\n        if (_data.length != 1) {\n\n            require(_isValidCertificate(_data, _value));\n\n        }\n       _transferByPartiton(_partition, msg.sender, _to, _value, _data , \"\");\n \n   }    \n\n   // operator transfer by partition\n   \n   function operatorTransferByPartition(bytes32 _partition, address _from, address _to, uint256 _value, bytes memory _data, bytes memory _operatorData) external returns (bytes32) {\n\n       require(_isValidCertificate(_operatorData, _value), \"cant verify data\");\n       if(_isControllable == true && _isController[msg.sender]) {\n\n           _transferByPartiton(_partition, _from, _to, _value, \"\", \"\");\n           emit ControllerTransfer(msg.sender, _from, _to, _value, _data, _operatorData);       // forceful transfers\n\n       } else {\n            require(_isOperatorForPartition[_from][msg.sender][_partition] || _isOperator[_from][msg.sender], \"0x56\"); // 0x56 invalid sender\n            _transferByPartiton(_partition, _from, _to, _value, \"\", \"\");\n       }\n      \n       \n   }\n\n\n\n   // *********************    CONTROLLER OPERATION\n\n   function isControllable() external view returns (bool) {\n       return _isControllable;\n   }\n\n   function isController(address _controller) external view returns(bool) {\n       return _isController[_controller];\n   }\n\n   function setControllability(bool _status) external restricted {\n       _isControllable = _status;\n   }\n\n   function setController(address _controller) external restricted {\n\n       require(_controller != address(0), \"0x58\");      // invalid transfer agent\n       require(!_isController[_controller], \"ACC\");       // address is currently a controller\n       _isController[_controller] = true;\n       _controllers.push(_controller);\n       _indexOfController[_controller] = _controllers.length - 1;\n\n   }\n\n   function getControllers() external view returns (address[] memory) {\n       return _controllers;\n   }\n\n   function removeController(address _controller) external restricted {\n\n        require(_controller != address(0), \"0x58\");     // invalid transfer agent\n        require(_isController[_controller], \"0x58\");      // not recognized as a controller\n        _isController[_controller] = false;\n        delete _controllers[_indexOfController[_controller]];     // remove the controller from the array of controllers using their saved index value\n       \n   }\n\n   function controllerTransfer(address _from, address _to, uint256 _value, bytes calldata _data, bytes calldata _operatorData) external {\n        _transfer(_from, _to, _value);\n        emit ControllerTransfer(msg.sender, _from, _to, _value, _data, _operatorData);\n   }\n\n   function controllerRedeem(address _tokenHolder, uint256 _value, bytes calldata _data, bytes calldata _operatorData) external {\n        _redeem(_tokenHolder,  _value, _data);\n        emit ControllerRedemption(msg.sender, _tokenHolder, _value, _data, _operatorData);\n   }\n\n\n   // *********************    OPERATOR MANAGEMENT\n\n\n    function authorizeOperator (address _operator) public {\n        _isOperator[msg.sender][_operator] = true;\n        emit AuthorizedOperator(_operator, msg.sender);\n    }\n\n    function revokeOperator (address _operator) public {\n        _isOperator[msg.sender][_operator] = false;\n        emit RevokedOperator(_operator, msg.sender);\n    }\n\n    function authorizeOperatorByPartition (bytes32 _partition, address _operator) public  {\n        _isOperatorForPartition[msg.sender][_operator][_partition] = true;\n        emit AuthorizedOperatorByPartition(_partition, _operator, msg.sender);\n    }\n\n    function revokeOperatorByPartition (bytes32 _partition, address _operator) public {\n        _isOperatorForPartition[msg.sender][_operator][_partition] = false;\n        emit RevokedOperatorByPartition(_partition, _operator, msg.sender);\n    }\n\n\n\n    // *********************    OPERATOR INFORMATION\n\n\n\n     function isOperator (address _operator, address _tokenHolder) external view returns (bool) {\n        return _isOperator[_tokenHolder][_operator];\n    }\n\n    \n    function isOperatorForPartition(bytes32 _partition, address _operator, address _tokenHolder) external view returns (bool) {\n        return  _isOperatorForPartition[_tokenHolder][_operator][_partition];\n    }\n\n\n\n    // *********************    TOKEN ISSUANCE\n\n    function isIssuable() external view returns (bool) {\n        return _isIssuable;\n    }\n\n\n    // function to mint and issue new tokens. This function is restricted to other addresses except the owner of the contract\n    \n    function issue(address _tokenHolder, uint256 _value, bytes calldata _data) external restricted {\n        \n        require(_isIssuable, \"0x55\");     // can't issue tokens for now\n        require(_tokenHolder != address(0), \"0x57\");        // invalid receiver\n        uint256 amount =  _value * granularity;                         // the destinaton address should not be an empty address\n        _balanceOf[_tokenHolder] += amount;                              \n        totalSupply += amount;                                          // add the new minted token to the total supply ---> use safemath library to avoid under and overflow\n        emit Issued(_tokenHolder, amount, totalSupply, block.timestamp);        // emit the issued event --> it emits the destination address, amount minted, updated total supply and the time issued\n        \n\n    }\n\n\n     // function to issue new tokens by partition\n\n   function issueByPartition(bytes32 _partition, address _tokenHolder, uint256 _value, bytes memory _data) public restricted {\n\n        require(_isIssuable, \"0x55\"); // can't issue tokens for now\n        uint256 amount =  _value * granularity; \n        _balanceOfByPartition[_tokenHolder][_partition] += amount;   // increment the partition's token balance of this token holder\n        _balanceOf[_tokenHolder] += amount; // increment the total balance of this token holder \n        totalSupply += amount; // increase the total supply\n        emit IssuedByPartition(_partition, msg.sender, _tokenHolder, amount, _data, \"\");\n    \n\n   }\n\n\n   // *********************    TOKEN REDEMPTION\n\n\n   function redeem(uint256 _value, bytes memory _data) external {\n\n       require(_isValidCertificate(_data, _value));\n       _redeem(msg.sender, _value, _data);\n\n   }\n\n   function redeemFrom(address _tokenHolder, uint256 _value, bytes memory _data) external {\n\n        require(_isValidCertificate(_data, _value));\n        require(allowance[_tokenHolder][msg.sender] >= _value, \"0x53\");  // insufficient allowance\n        _redeem(_tokenHolder, _value, _data);\n\n   }\n\n\n   // function to redeem by partition\n\n   function redeemByPartition(bytes32 _partition, uint256 _value, bytes memory _data) external {\n\n        require(_isValidCertificate(_data, _value));  //  verify signer\n       _redeemByPartition(_partition, msg.sender, _value, _data, \"\");\n\n   }\n\n   \n\n   function operatorRedeemByPartition(bytes32 _partition, address _tokenHolder, uint256 _value, bytes memory _operatorData) external {\n\n       require(_isValidCertificate(_operatorData, _value));           //  verify signer\n       if(_isControllable == true && _isController[msg.sender]) {\n            _redeemByPartition(_partition, _tokenHolder, _value, \"\", _operatorData);\n            emit ControllerRedemption(msg.sender, _tokenHolder, _value, \"\", _operatorData);\n       } else {\n            require(_isOperator[_tokenHolder][msg.sender] || _isOperatorForPartition[_tokenHolder][msg.sender][_partition], \"0x58\");     // invalid operator\n            _redeemByPartition(_partition, _tokenHolder, _value, \"\", _operatorData);\n       }\n\n   }\n\n\n   // *********************    TRANSFER VALIDITY\n\n    // used bytes1 instead of byte. bytes1 is now an alias for byte    \n\n    function canTransfer(address _to, uint256 _value, bytes memory _data) external view returns (bytes1 code, bytes32 reason){\n\n        if( _lockUpTokens == true) {\n\n            return (hex\"55\", \"funds locked (lockup period)\");\n        }\n\n        if(_to == address(0)) {\n            return (hex\"57\", \"invalid receiver\");\n        } \n\n        if(_balanceOf[msg.sender] < _value) {\n            return (hex\"52\", \"insufficient balance\");\n        }\n\n        if( _isValidCertificate(_data, _value) != true) {\n            return (hex\"59\", \"invalid signer\");\n        }\n\n        return (hex\"51\", \"transfer success\");\n\n    }\n\n    function canTransferFrom(address _from, address _to, uint256 _value, bytes memory _data) external view returns (bytes1 code, bytes32 reason) {\n\n        if(_balanceOf[_from] < _value) {\n            return (hex\"52\", \"insufficient balance\");\n        }\n\n        if(allowance[_from][msg.sender] < _value) {\n            return (hex\"53\", \"insufficient allowance\");\n        }\n\n        if(_to == address(0)) {\n            return (hex\"57\", \"invalid receiver\");\n        } \n\n        if(_isOperator[_from][msg.sender]) {\n            return (hex\"58\", \"invalid operator\");\n        } \n\n        if( _isValidCertificate(_data, _value) != true) {\n            return (hex\"59\", \"invalid signer\");\n        }\n\n        return (hex\"51\", \"transfer success\");\n\n    }\n\n    // can transfer by partition\n\n   function canTransferByPartition(address _from, address _to, bytes32 _partition, uint256 _value, bytes memory _data) external view returns(bytes1, bytes32, bytes32) {\n\n       if (_to == address(0)) {\n           return (hex\"55\", \"invalid receiver\", _partition);\n       }\n\n       if (_value > _balanceOfByPartition[_from][_partition]) {\n           return (hex\"55\", \"insufficient balance\", _partition);\n       }\n\n       if( _isValidCertificate(_data, _value) != true) {\n            return (hex\"59\", \"invalid signer\", _partition);\n        }\n\n        return (hex\"51\", \"transfer success\", _partition);\n\n\n   }\n\n\n   /*********************************************************************************/\n\n   //function to return partitioned token balance\n\n    function totalPartitions() external view returns (bytes32[] memory) {\n       return _totalPartitions;\n    }\n\n    function setTotalPartitions(bytes32[] memory _newTotalPartitions) external {\n        _totalPartitions = _newTotalPartitions;\n    }\n\n\n     // *************************************** Events ********************************************************* //\n\n    event WhiteList (address _investor, uint256 _timeAdded);                                                 // event to be emitted whenever an address is whitelisted\n    event Issued (address _to, uint256 _amountIssued, uint256 _totalSupply, uint256 _timeIssued);            // event to be emitted whenever new tokens are minted\n    event Transfer (address _from, address _to, uint256 _amount);                                            // event to be emitted whenever token is been transferred\n    event Approval (address _tokenHolder, address _externalAddress, uint256 _amount);                        // event to be emitted whenever an external address is approved such as escrows\n    event Document (bytes32 indexed _name, string _uri, bytes32 _documentHash);                       // event to be emitted whenever a document is put on-chain\n    event TransferByPartition (\n\n        bytes32 indexed _fromPartition,\n        address _operator,\n        address indexed _from,\n        address indexed _to,\n        uint256 _value,\n        bytes _data,\n        bytes _operatorData\n\n\n    );                                                                           // event to be emitted whenever tokens are transfered from an address partition to another addres of same partition\n\n    event AuthorizedOperator (address indexed _operator, address indexed _tokenHolder);     // event to be emitted whenever an operator is authorized\n    event RevokedOperator (address indexed _operator, address indexed _tokenHolder);     // event to be emitted whenever an operator is revoked\n    event AuthorizedOperatorByPartition (bytes32 indexed _partition, address indexed _operator, address indexed _tokenHolder);     // event to be emitted whenever an operator is authorized for a partition\n    event RevokedOperatorByPartition (bytes32 indexed _partition, address indexed _operator, address indexed _tokenHolder);     // event to be emitted whenever an operator is revoked for a partition\n    event IssuedByPartition (bytes32 indexed _partition, address indexed _operator, address indexed _to, uint256 _amount, bytes _data, bytes _operatorData);    //  event to be emitted whenever a new token is issued to an holder's partition\n    event RedeemedByPartition (bytes32 indexed _partition, address indexed _operator, address indexed _from, uint256 _amount, bytes _operatorData);     // event to be emitted when tokens are burnt from any partitions\n    event Redeemed (address indexed _operator, address indexed _from, uint256 _value, bytes _data);          //  event to be emitted when a token is being redeemed\n    event ControllerTransfer (address _controller, address indexed _from, address indexed _to, uint256 _value, bytes _data, bytes _operatorData); // event to be emitted whenever a controller forces a token transfer\n    event ControllerRedemption (address _controller, address indexed _tokenHolder, uint256 _value, bytes _data, bytes _operatorData);        // event to be emitted whenever a controller forces token redemption from a token holder's wallet\n\n\n}",
  "sourcePath": "/home/komolehin/Documents/blockchain/TANGLE/security-token/contracts/Token/ERC1400.sol",
  "compiler": {
    "name": "solc",
    "version": "0.8.10+commit.fc410830.Emscripten.clang"
  },
  "schemaVersion": "3.4.6",
  "updatedAt": "2022-05-12T22:18:15.188Z",
  "devdoc": {
    "kind": "dev",
    "methods": {},
    "version": 1
  },
  "userdoc": {
    "kind": "user",
    "methods": {},
    "version": 1
  }
}