{
  "contractName": "GenerateEthSignature",
  "abi": [
    {
      "inputs": [
        {
          "components": [
            {
              "internalType": "address",
              "name": "verifyingContract",
              "type": "address"
            },
            {
              "internalType": "string",
              "name": "version",
              "type": "string"
            },
            {
              "internalType": "string",
              "name": "name",
              "type": "string"
            },
            {
              "internalType": "uint256",
              "name": "chainId",
              "type": "uint256"
            },
            {
              "internalType": "bytes32",
              "name": "salt",
              "type": "bytes32"
            }
          ],
          "internalType": "struct Certificate.DomainData",
          "name": "_domainData",
          "type": "tuple"
        },
        {
          "components": [
            {
              "internalType": "string",
              "name": "firstName",
              "type": "string"
            },
            {
              "internalType": "string",
              "name": "lastName",
              "type": "string"
            },
            {
              "internalType": "string",
              "name": "location",
              "type": "string"
            },
            {
              "internalType": "address",
              "name": "walletAddress",
              "type": "address"
            }
          ],
          "internalType": "struct Certificate.Holder",
          "name": "_from",
          "type": "tuple"
        },
        {
          "components": [
            {
              "internalType": "string",
              "name": "firstName",
              "type": "string"
            },
            {
              "internalType": "string",
              "name": "lastName",
              "type": "string"
            },
            {
              "internalType": "string",
              "name": "location",
              "type": "string"
            },
            {
              "internalType": "address",
              "name": "walletAddress",
              "type": "address"
            }
          ],
          "internalType": "struct Certificate.Holder",
          "name": "_to",
          "type": "tuple"
        },
        {
          "internalType": "uint256",
          "name": "_amount",
          "type": "uint256"
        }
      ],
      "name": "generateEthSignature",
      "outputs": [
        {
          "internalType": "bytes32",
          "name": "",
          "type": "bytes32"
        }
      ],
      "stateMutability": "pure",
      "type": "function",
      "constant": true
    }
  ],
  "bytecode": "0x608060405234801561001057600080fd5b50610811806100206000396000f3fe608060405234801561001057600080fd5b506004361061002b5760003560e01c8063638bef6014610030575b600080fd5b61004a600480360381019061004591906104a8565b610060565b6040516100579190610572565b60405180910390f35b600073__Certificate___________________________6396cb2bc9868686866040518563ffffffff1660e01b815260040161009f949392919061073f565b602060405180830381865af41580156100bc573d6000803e3d6000fd5b505050506040513d601f19601f820116820180604052508101906100e091906107ae565b9050949350505050565b6000604051905090565b600080fd5b600080fd5b600080fd5b6000601f19601f8301169050919050565b7f4e487b7100000000000000000000000000000000000000000000000000000000600052604160045260246000fd5b61014c82610103565b810181811067ffffffffffffffff8211171561016b5761016a610114565b5b80604052505050565b600061017e6100ea565b905061018a8282610143565b919050565b600080fd5b600073ffffffffffffffffffffffffffffffffffffffff82169050919050565b60006101bf82610194565b9050919050565b6101cf816101b4565b81146101da57600080fd5b50565b6000813590506101ec816101c6565b92915050565b600080fd5b600080fd5b600067ffffffffffffffff82111561021757610216610114565b5b61022082610103565b9050602081019050919050565b82818337600083830152505050565b600061024f61024a846101fc565b610174565b90508281526020810184848401111561026b5761026a6101f7565b5b61027684828561022d565b509392505050565b600082601f830112610293576102926101f2565b5b81356102a384826020860161023c565b91505092915050565b6000819050919050565b6102bf816102ac565b81146102ca57600080fd5b50565b6000813590506102dc816102b6565b92915050565b6000819050919050565b6102f5816102e2565b811461030057600080fd5b50565b600081359050610312816102ec565b92915050565b600060a0828403121561032e5761032d6100fe565b5b61033860a0610174565b90506000610348848285016101dd565b600083015250602082013567ffffffffffffffff81111561036c5761036b61018f565b5b6103788482850161027e565b602083015250604082013567ffffffffffffffff81111561039c5761039b61018f565b5b6103a88482850161027e565b60408301525060606103bc848285016102cd565b60608301525060806103d084828501610303565b60808301525092915050565b6000608082840312156103f2576103f16100fe565b5b6103fc6080610174565b9050600082013567ffffffffffffffff81111561041c5761041b61018f565b5b6104288482850161027e565b600083015250602082013567ffffffffffffffff81111561044c5761044b61018f565b5b6104588482850161027e565b602083015250604082013567ffffffffffffffff81111561047c5761047b61018f565b5b6104888482850161027e565b604083015250606061049c848285016101dd565b60608301525092915050565b600080600080608085870312156104c2576104c16100f4565b5b600085013567ffffffffffffffff8111156104e0576104df6100f9565b5b6104ec87828801610318565b945050602085013567ffffffffffffffff81111561050d5761050c6100f9565b5b610519878288016103dc565b935050604085013567ffffffffffffffff81111561053a576105396100f9565b5b610546878288016103dc565b9250506060610557878288016102cd565b91505092959194509250565b61056c816102e2565b82525050565b60006020820190506105876000830184610563565b92915050565b610596816101b4565b82525050565b600081519050919050565b600082825260208201905092915050565b60005b838110156105d65780820151818401526020810190506105bb565b838111156105e5576000848401525b50505050565b60006105f68261059c565b61060081856105a7565b93506106108185602086016105b8565b61061981610103565b840191505092915050565b61062d816102ac565b82525050565b61063c816102e2565b82525050565b600060a08301600083015161065a600086018261058d565b506020830151848203602086015261067282826105eb565b9150506040830151848203604086015261068c82826105eb565b91505060608301516106a16060860182610624565b5060808301516106b46080860182610633565b508091505092915050565b600060808301600083015184820360008601526106dc82826105eb565b915050602083015184820360208601526106f682826105eb565b9150506040830151848203604086015261071082826105eb565b9150506060830151610725606086018261058d565b508091505092915050565b610739816102ac565b82525050565b600060808201905081810360008301526107598187610642565b9050818103602083015261076d81866106bf565b9050818103604083015261078181856106bf565b90506107906060830184610730565b95945050505050565b6000815190506107a8816102ec565b92915050565b6000602082840312156107c4576107c36100f4565b5b60006107d284828501610799565b9150509291505056fea2646970667358221220b3b09a1144d1240b5be8bf97a4c27e2b8819e86879246b33200f66b9fb870e3f64736f6c634300080a0033",
  "immutableReferences": {},
  "source": "pragma solidity 0.8.10;\n\nimport \"./CertificateLibrary.sol\";\n\ncontract GenerateEthSignature {\n\n    /// @dev    This function generates a bytes32 prefixed signature that will be used to verify the signed Typed Data Signature\n\n    function generateEthSignature(Certificate.DomainData memory _domainData, Certificate.Holder memory _from, Certificate.Holder memory _to, uint256 _amount) external pure returns (bytes32) {\n        \n        return Certificate.hashTransfer(_domainData, _from, _to, _amount);\n\n    }\n\n}",
  "sourcePath": "/home/komolehin/Documents/blockchain/TANGLE/security-token/contracts/utils/GenerateEthSignature.sol",
  "compiler": {
    "name": "solc",
    "version": "0.8.10+commit.fc410830.Emscripten.clang"
  },
  "schemaVersion": "3.4.6",
  "updatedAt": "2022-04-26T10:00:40.225Z",
  "networkType": "ethereum",
  "devdoc": {
    "kind": "dev",
    "methods": {
      "generateEthSignature((address,string,string,uint256,bytes32),(string,string,string,address),(string,string,string,address),uint256)": {
        "details": "This function generates a bytes32 prefixed signature that will be used to verify the signed Typed Data Signature"
      }
    },
    "version": 1
  },
  "userdoc": {
    "kind": "user",
    "methods": {},
    "version": 1
  }
}