{
  "contractName": "GenerateEthSignature",
  "abi": [
    {
      "inputs": [
        {
          "components": [
            {
              "internalType": "address",
              "name": "verifyingContract",
              "type": "address"
            },
            {
              "internalType": "string",
              "name": "version",
              "type": "string"
            },
            {
              "internalType": "string",
              "name": "name",
              "type": "string"
            },
            {
              "internalType": "uint256",
              "name": "chainId",
              "type": "uint256"
            },
            {
              "internalType": "bytes32",
              "name": "salt",
              "type": "bytes32"
            }
          ],
          "internalType": "struct Certificate.DomainData",
          "name": "_domainData",
          "type": "tuple"
        },
        {
          "components": [
            {
              "internalType": "string",
              "name": "firstName",
              "type": "string"
            },
            {
              "internalType": "string",
              "name": "lastName",
              "type": "string"
            },
            {
              "internalType": "string",
              "name": "location",
              "type": "string"
            },
            {
              "internalType": "address",
              "name": "walletAddress",
              "type": "address"
            }
          ],
          "internalType": "struct Certificate.Holder",
          "name": "_from",
          "type": "tuple"
        },
        {
          "components": [
            {
              "internalType": "string",
              "name": "firstName",
              "type": "string"
            },
            {
              "internalType": "string",
              "name": "lastName",
              "type": "string"
            },
            {
              "internalType": "string",
              "name": "location",
              "type": "string"
            },
            {
              "internalType": "address",
              "name": "walletAddress",
              "type": "address"
            }
          ],
          "internalType": "struct Certificate.Holder",
          "name": "_to",
          "type": "tuple"
        },
        {
          "internalType": "uint256",
          "name": "_amount",
          "type": "uint256"
        }
      ],
      "name": "generateEthSignature",
      "outputs": [
        {
          "internalType": "bytes32",
          "name": "",
          "type": "bytes32"
        }
      ],
      "stateMutability": "pure",
      "type": "function"
    }
  ],
  "bytecode": "0x608060405234801561001057600080fd5b506108cb806100206000396000f3fe608060405234801561001057600080fd5b506004361061002b5760003560e01c8063638bef6014610030575b600080fd5b61004a600480360381019061004591906105dc565b610060565b60405161005791906106a6565b60405180910390f35b600061007085858585600161007a565b9050949350505050565b6000807f2408ebdf69a7183c08f5e97e4277df987a6182ce43c17c7ce7826d3451891d8890506100a98761011b565b816100b38861019c565b6100bc8861019c565b87876040516020016100d29594939291906106d0565b604051602081830303815290604052805190602001206040516020016100f992919061079b565b6040516020818303038152906040528051906020012091505095945050505050565b6000807fd87cd6ef79d4e2b95e15ce8abf732db51ec771f1ca2edccf22a46c729ac5647290508083604001518051906020012084602001518051906020012085606001518660000151876080015160405160200161017e969594939291906107e1565b60405160208183030381529060405280519060200120915050919050565b6000807fdebebf0c3f435e851b79f957a72d453bb5f1901a18d643317f7cab88775659269050808360000151805190602001208460200151805190602001208560400151805190602001208660600151604051602001610200959493929190610842565b60405160208183030381529060405280519060200120915050919050565b6000604051905090565b600080fd5b600080fd5b600080fd5b6000601f19601f8301169050919050565b7f4e487b7100000000000000000000000000000000000000000000000000000000600052604160045260246000fd5b61028082610237565b810181811067ffffffffffffffff8211171561029f5761029e610248565b5b80604052505050565b60006102b261021e565b90506102be8282610277565b919050565b600080fd5b600073ffffffffffffffffffffffffffffffffffffffff82169050919050565b60006102f3826102c8565b9050919050565b610303816102e8565b811461030e57600080fd5b50565b600081359050610320816102fa565b92915050565b600080fd5b600080fd5b600067ffffffffffffffff82111561034b5761034a610248565b5b61035482610237565b9050602081019050919050565b82818337600083830152505050565b600061038361037e84610330565b6102a8565b90508281526020810184848401111561039f5761039e61032b565b5b6103aa848285610361565b509392505050565b600082601f8301126103c7576103c6610326565b5b81356103d7848260208601610370565b91505092915050565b6000819050919050565b6103f3816103e0565b81146103fe57600080fd5b50565b600081359050610410816103ea565b92915050565b6000819050919050565b61042981610416565b811461043457600080fd5b50565b60008135905061044681610420565b92915050565b600060a0828403121561046257610461610232565b5b61046c60a06102a8565b9050600061047c84828501610311565b600083015250602082013567ffffffffffffffff8111156104a05761049f6102c3565b5b6104ac848285016103b2565b602083015250604082013567ffffffffffffffff8111156104d0576104cf6102c3565b5b6104dc848285016103b2565b60408301525060606104f084828501610401565b606083015250608061050484828501610437565b60808301525092915050565b60006080828403121561052657610525610232565b5b61053060806102a8565b9050600082013567ffffffffffffffff8111156105505761054f6102c3565b5b61055c848285016103b2565b600083015250602082013567ffffffffffffffff8111156105805761057f6102c3565b5b61058c848285016103b2565b602083015250604082013567ffffffffffffffff8111156105b0576105af6102c3565b5b6105bc848285016103b2565b60408301525060606105d084828501610311565b60608301525092915050565b600080600080608085870312156105f6576105f5610228565b5b600085013567ffffffffffffffff8111156106145761061361022d565b5b6106208782880161044c565b945050602085013567ffffffffffffffff8111156106415761064061022d565b5b61064d87828801610510565b935050604085013567ffffffffffffffff81111561066e5761066d61022d565b5b61067a87828801610510565b925050606061068b87828801610401565b91505092959194509250565b6106a081610416565b82525050565b60006020820190506106bb6000830184610697565b92915050565b6106ca816103e0565b82525050565b600060a0820190506106e56000830188610697565b6106f26020830187610697565b6106ff6040830186610697565b61070c60608301856106c1565b61071960808301846106c1565b9695505050505050565b600081905092915050565b7f1901000000000000000000000000000000000000000000000000000000000000600082015250565b6000610764600283610723565b915061076f8261072e565b600282019050919050565b6000819050919050565b61079561079082610416565b61077a565b82525050565b60006107a682610757565b91506107b28285610784565b6020820191506107c28284610784565b6020820191508190509392505050565b6107db816102e8565b82525050565b600060c0820190506107f66000830189610697565b6108036020830188610697565b6108106040830187610697565b61081d60608301866106c1565b61082a60808301856107d2565b61083760a0830184610697565b979650505050505050565b600060a0820190506108576000830188610697565b6108646020830187610697565b6108716040830186610697565b61087e6060830185610697565b61088b60808301846107d2565b969550505050505056fea26469706673582212208bdd96e1489ebd3edbc8cb01d164468d5cdd3a24803841a5f0ca71b6a5a5d2d164736f6c634300080a0033",
  "immutableReferences": {},
  "source": "pragma solidity 0.8.10;\n\nimport \"./CertificateLibrary.sol\";\n\ncontract GenerateEthSignature {\n\n    /// @dev    This function generates a bytes32 prefixed signature that will be used to verify the signed Typed Data Signature\n\n    function generateEthSignature(Certificate.DomainData memory _domainData, Certificate.Holder memory _from, Certificate.Holder memory _to, uint256 _amount) external pure returns (bytes32) {\n        \n        return Certificate.hashTransfer(_domainData, _from, _to, _amount, 1);\n\n    }\n\n}",
  "sourcePath": "/home/komolehin/Documents/blockchain/TANGLE/security-token/contracts/utils/GenerateEthSignature.sol",
  "compiler": {
    "name": "solc",
    "version": "0.8.10+commit.fc410830.Emscripten.clang"
  },
  "schemaVersion": "3.4.6",
  "updatedAt": "2022-05-12T22:30:36.859Z",
  "devdoc": {
    "kind": "dev",
    "methods": {
      "generateEthSignature((address,string,string,uint256,bytes32),(string,string,string,address),(string,string,string,address),uint256)": {
        "details": "This function generates a bytes32 prefixed signature that will be used to verify the signed Typed Data Signature"
      }
    },
    "version": 1
  },
  "userdoc": {
    "kind": "user",
    "methods": {},
    "version": 1
  }
}