{
  "contractName": "HTLC_ETH",
  "abi": [
    {
      "inputs": [],
      "stateMutability": "nonpayable",
      "type": "constructor"
    },
    {
      "anonymous": false,
      "inputs": [
        {
          "indexed": true,
          "internalType": "address",
          "name": "_issuer",
          "type": "address"
        },
        {
          "indexed": true,
          "internalType": "address",
          "name": "_investor",
          "type": "address"
        },
        {
          "indexed": true,
          "internalType": "address",
          "name": "_securityToken",
          "type": "address"
        },
        {
          "indexed": false,
          "internalType": "bytes32",
          "name": "_swapID",
          "type": "bytes32"
        },
        {
          "indexed": false,
          "internalType": "bytes32",
          "name": "_partition",
          "type": "bytes32"
        },
        {
          "indexed": false,
          "internalType": "uint256",
          "name": "_amount",
          "type": "uint256"
        },
        {
          "indexed": false,
          "internalType": "uint256",
          "name": "_price",
          "type": "uint256"
        },
        {
          "indexed": false,
          "internalType": "bytes32",
          "name": "_secretKey",
          "type": "bytes32"
        },
        {
          "indexed": false,
          "internalType": "bytes32",
          "name": "_secretHash",
          "type": "bytes32"
        }
      ],
      "name": "ClosedOrder",
      "type": "event"
    },
    {
      "anonymous": false,
      "inputs": [
        {
          "indexed": false,
          "internalType": "address",
          "name": "_issuer",
          "type": "address"
        },
        {
          "indexed": true,
          "internalType": "address",
          "name": "_investor",
          "type": "address"
        },
        {
          "indexed": true,
          "internalType": "address",
          "name": "_securityToken",
          "type": "address"
        },
        {
          "indexed": false,
          "internalType": "bytes32",
          "name": "_partition",
          "type": "bytes32"
        },
        {
          "indexed": false,
          "internalType": "uint256",
          "name": "_amount",
          "type": "uint256"
        },
        {
          "indexed": false,
          "internalType": "uint256",
          "name": "_price",
          "type": "uint256"
        }
      ],
      "name": "Funded",
      "type": "event"
    },
    {
      "anonymous": false,
      "inputs": [
        {
          "indexed": true,
          "internalType": "address",
          "name": "_issuer",
          "type": "address"
        },
        {
          "indexed": true,
          "internalType": "address",
          "name": "_investor",
          "type": "address"
        },
        {
          "indexed": true,
          "internalType": "address",
          "name": "_securityToken",
          "type": "address"
        },
        {
          "indexed": false,
          "internalType": "bytes32",
          "name": "_swapID",
          "type": "bytes32"
        },
        {
          "indexed": false,
          "internalType": "bytes32",
          "name": "_partition",
          "type": "bytes32"
        },
        {
          "indexed": false,
          "internalType": "uint256",
          "name": "_amount",
          "type": "uint256"
        },
        {
          "indexed": false,
          "internalType": "uint256",
          "name": "_price",
          "type": "uint256"
        },
        {
          "indexed": false,
          "internalType": "uint256",
          "name": "_expiration",
          "type": "uint256"
        },
        {
          "indexed": false,
          "internalType": "bytes32",
          "name": "_secretHash",
          "type": "bytes32"
        }
      ],
      "name": "OpenedOrder",
      "type": "event"
    },
    {
      "anonymous": false,
      "inputs": [
        {
          "indexed": true,
          "internalType": "address",
          "name": "_issuer",
          "type": "address"
        },
        {
          "indexed": true,
          "internalType": "address",
          "name": "_investor",
          "type": "address"
        },
        {
          "indexed": true,
          "internalType": "address",
          "name": "_securityToken",
          "type": "address"
        },
        {
          "indexed": false,
          "internalType": "bytes32",
          "name": "_swapID",
          "type": "bytes32"
        },
        {
          "indexed": false,
          "internalType": "uint256",
          "name": "_amount",
          "type": "uint256"
        },
        {
          "indexed": false,
          "internalType": "uint256",
          "name": "_expiration",
          "type": "uint256"
        }
      ],
      "name": "RefundedOrder",
      "type": "event"
    },
    {
      "stateMutability": "nonpayable",
      "type": "fallback"
    },
    {
      "inputs": [
        {
          "internalType": "bytes32",
          "name": "_swapID",
          "type": "bytes32"
        },
        {
          "internalType": "address",
          "name": "_investor",
          "type": "address"
        },
        {
          "internalType": "address",
          "name": "_securityToken",
          "type": "address"
        },
        {
          "internalType": "uint256",
          "name": "_price",
          "type": "uint256"
        },
        {
          "internalType": "uint256",
          "name": "_amount",
          "type": "uint256"
        },
        {
          "internalType": "uint256",
          "name": "_expiration",
          "type": "uint256"
        },
        {
          "internalType": "bytes32",
          "name": "_secretHash",
          "type": "bytes32"
        },
        {
          "internalType": "bytes32",
          "name": "_secretKey",
          "type": "bytes32"
        },
        {
          "internalType": "bytes32",
          "name": "_partition",
          "type": "bytes32"
        }
      ],
      "name": "openOrder",
      "outputs": [],
      "stateMutability": "nonpayable",
      "type": "function"
    },
    {
      "inputs": [
        {
          "internalType": "bytes32",
          "name": "_swapID",
          "type": "bytes32"
        },
        {
          "internalType": "address",
          "name": "_securityToken",
          "type": "address"
        }
      ],
      "name": "fundOrder",
      "outputs": [],
      "stateMutability": "payable",
      "type": "function"
    },
    {
      "inputs": [
        {
          "internalType": "bytes32",
          "name": "_swapID",
          "type": "bytes32"
        },
        {
          "internalType": "bytes32",
          "name": "_secretKey",
          "type": "bytes32"
        },
        {
          "internalType": "address",
          "name": "_securityToken",
          "type": "address"
        }
      ],
      "name": "issuerWithdrawal",
      "outputs": [],
      "stateMutability": "nonpayable",
      "type": "function"
    },
    {
      "inputs": [
        {
          "internalType": "bytes32",
          "name": "_swapID",
          "type": "bytes32"
        },
        {
          "internalType": "address",
          "name": "_securityToken",
          "type": "address"
        }
      ],
      "name": "refund",
      "outputs": [],
      "stateMutability": "nonpayable",
      "type": "function"
    },
    {
      "inputs": [
        {
          "internalType": "bytes32",
          "name": "_swapID",
          "type": "bytes32"
        },
        {
          "internalType": "address",
          "name": "_securityToken",
          "type": "address"
        }
      ],
      "name": "checkOrder",
      "outputs": [
        {
          "internalType": "address",
          "name": "_issuer",
          "type": "address"
        },
        {
          "internalType": "address",
          "name": "_investor",
          "type": "address"
        },
        {
          "internalType": "address",
          "name": "_securityTokenAddress",
          "type": "address"
        },
        {
          "internalType": "uint256",
          "name": "_price",
          "type": "uint256"
        },
        {
          "internalType": "uint256",
          "name": "_expiration",
          "type": "uint256"
        },
        {
          "internalType": "bool",
          "name": "_funded",
          "type": "bool"
        },
        {
          "internalType": "bytes32",
          "name": "_orderID",
          "type": "bytes32"
        },
        {
          "internalType": "enum OrderLibrary.SwapState",
          "name": "_orderState",
          "type": "uint8"
        },
        {
          "internalType": "bytes32",
          "name": "_secretKey",
          "type": "bytes32"
        }
      ],
      "stateMutability": "view",
      "type": "function"
    }
  ],
  "bytecode": "0x608060405234801561001057600080fd5b50336000806101000a81548173ffffffffffffffffffffffffffffffffffffffff021916908373ffffffffffffffffffffffffffffffffffffffff160217905550612c2b806100606000396000f3fe60806040526004361061004e5760003560e01c80633c4d00af1461005e57806345b4032c1461007a578063a70387ed146100a3578063cfcc04fc146100cc578063e3262bbc146100f55761004f565b5b34801561005b57600080fd5b50005b61007860048036038101906100739190612090565b61013a565b005b34801561008657600080fd5b506100a1600480360381019061009c9190612090565b6107bc565b005b3480156100af57600080fd5b506100ca60048036038101906100c591906120d0565b610eff565b005b3480156100d857600080fd5b506100f360048036038101906100ee9190612159565b611713565b005b34801561010157600080fd5b5061011c60048036038101906101179190612090565b611c5d565b604051610131999897969594939291906122e2565b60405180910390f35b6001600381111561014e5761014d61226b565b5b600260008373ffffffffffffffffffffffffffffffffffffffff1673ffffffffffffffffffffffffffffffffffffffff168152602001908152602001600020600084815260200190815260200160002060009054906101000a900460ff1660038111156101be576101bd61226b565b5b146101fe576040517f08c379a00000000000000000000000000000000000000000000000000000000081526004016101f5906123cc565b60405180910390fd5b60001515600160008373ffffffffffffffffffffffffffffffffffffffff1673ffffffffffffffffffffffffffffffffffffffff1681526020019081526020016000206000848152602001908152602001600020600b0160009054906101000a900460ff161515146102a5576040517f08c379a000000000000000000000000000000000000000000000000000000000815260040161029c90612438565b60405180910390fd5b3373ffffffffffffffffffffffffffffffffffffffff16600160008373ffffffffffffffffffffffffffffffffffffffff1673ffffffffffffffffffffffffffffffffffffffff168152602001908152602001600020600084815260200190815260200160002060010160009054906101000a900473ffffffffffffffffffffffffffffffffffffffff1673ffffffffffffffffffffffffffffffffffffffff1614610386576040517f08c379a000000000000000000000000000000000000000000000000000000000815260040161037d906124a4565b60405180910390fd5b34600160008373ffffffffffffffffffffffffffffffffffffffff1673ffffffffffffffffffffffffffffffffffffffff1681526020019081526020016000206000848152602001908152602001600020600401541461041b576040517f08c379a000000000000000000000000000000000000000000000000000000000815260040161041290612510565b60405180910390fd5b42600160008373ffffffffffffffffffffffffffffffffffffffff1673ffffffffffffffffffffffffffffffffffffffff168152602001908152602001600020600084815260200190815260200160002060060154116104b0576040517f08c379a00000000000000000000000000000000000000000000000000000000081526004016104a79061257c565b60405180910390fd5b6000600160008373ffffffffffffffffffffffffffffffffffffffff1673ffffffffffffffffffffffffffffffffffffffff1681526020019081526020016000206000848152602001908152602001600020604051806101800160405290816000820160009054906101000a900473ffffffffffffffffffffffffffffffffffffffff1673ffffffffffffffffffffffffffffffffffffffff1673ffffffffffffffffffffffffffffffffffffffff1681526020016001820160009054906101000a900473ffffffffffffffffffffffffffffffffffffffff1673ffffffffffffffffffffffffffffffffffffffff1673ffffffffffffffffffffffffffffffffffffffff1681526020016002820160009054906101000a900473ffffffffffffffffffffffffffffffffffffffff1673ffffffffffffffffffffffffffffffffffffffff1673ffffffffffffffffffffffffffffffffffffffff1681526020016003820160009054906101000a900473ffffffffffffffffffffffffffffffffffffffff1673ffffffffffffffffffffffffffffffffffffffff1673ffffffffffffffffffffffffffffffffffffffff168152602001600482015481526020016005820154815260200160068201548152602001600782015481526020016008820154815260200160098201548152602001600a8201548152602001600b820160009054906101000a900460ff161515151581525050905060018060008473ffffffffffffffffffffffffffffffffffffffff1673ffffffffffffffffffffffffffffffffffffffff1681526020019081526020016000206000858152602001908152602001600020600b0160006101000a81548160ff021916908315150217905550806060015173ffffffffffffffffffffffffffffffffffffffff16816020015173ffffffffffffffffffffffffffffffffffffffff167e8ab8cd8973083d48c5c4da83ace513c569600dbfc8fef77b299b494fcd3f8c83600001518461014001518560a0015186608001516040516107af949392919061259c565b60405180910390a3505050565b600360009054906101000a900460ff161561080c576040517f08c379a00000000000000000000000000000000000000000000000000000000081526004016108039061262d565b60405180910390fd5b6001600360006101000a81548160ff0219169083151502179055503373ffffffffffffffffffffffffffffffffffffffff16600160008373ffffffffffffffffffffffffffffffffffffffff1673ffffffffffffffffffffffffffffffffffffffff168152602001908152602001600020600084815260200190815260200160002060010160009054906101000a900473ffffffffffffffffffffffffffffffffffffffff1673ffffffffffffffffffffffffffffffffffffffff1614610908576040517f08c379a00000000000000000000000000000000000000000000000000000000081526004016108ff906124a4565b60405180910390fd5b6001600381111561091c5761091b61226b565b5b600260008373ffffffffffffffffffffffffffffffffffffffff1673ffffffffffffffffffffffffffffffffffffffff168152602001908152602001600020600084815260200190815260200160002060009054906101000a900460ff16600381111561098c5761098b61226b565b5b146109cc576040517f08c379a00000000000000000000000000000000000000000000000000000000081526004016109c3906123cc565b60405180910390fd5b60011515600160008373ffffffffffffffffffffffffffffffffffffffff1673ffffffffffffffffffffffffffffffffffffffff1681526020019081526020016000206000848152602001908152602001600020600b0160009054906101000a900460ff16151514610a73576040517f08c379a0000000000000000000000000000000000000000000000000000000008152600401610a6a90612699565b60405180910390fd5b600160008273ffffffffffffffffffffffffffffffffffffffff1673ffffffffffffffffffffffffffffffffffffffff1681526020019081526020016000206000838152602001908152602001600020600601544211610b08576040517f08c379a0000000000000000000000000000000000000000000000000000000008152600401610aff90612705565b60405180910390fd5b6000600160008373ffffffffffffffffffffffffffffffffffffffff1673ffffffffffffffffffffffffffffffffffffffff1681526020019081526020016000206000848152602001908152602001600020604051806101800160405290816000820160009054906101000a900473ffffffffffffffffffffffffffffffffffffffff1673ffffffffffffffffffffffffffffffffffffffff1673ffffffffffffffffffffffffffffffffffffffff1681526020016001820160009054906101000a900473ffffffffffffffffffffffffffffffffffffffff1673ffffffffffffffffffffffffffffffffffffffff1673ffffffffffffffffffffffffffffffffffffffff1681526020016002820160009054906101000a900473ffffffffffffffffffffffffffffffffffffffff1673ffffffffffffffffffffffffffffffffffffffff1673ffffffffffffffffffffffffffffffffffffffff1681526020016003820160009054906101000a900473ffffffffffffffffffffffffffffffffffffffff1673ffffffffffffffffffffffffffffffffffffffff1673ffffffffffffffffffffffffffffffffffffffff168152602001600482015481526020016005820154815260200160068201548152602001600782015481526020016008820154815260200160098201548152602001600a8201548152602001600b820160009054906101000a900460ff161515151581525050905060003373ffffffffffffffffffffffffffffffffffffffff168260800151604051610d4b90612756565b60006040518083038185875af1925050503d8060008114610d88576040519150601f19603f3d011682016040523d82523d6000602084013e610d8d565b606091505b5050905080610dd1576040517f08c379a0000000000000000000000000000000000000000000000000000000008152600401610dc8906127b7565b60405180910390fd5b6003600260008573ffffffffffffffffffffffffffffffffffffffff1673ffffffffffffffffffffffffffffffffffffffff168152602001908152602001600020600086815260200190815260200160002060006101000a81548160ff02191690836003811115610e4557610e4461226b565b5b0217905550816060015173ffffffffffffffffffffffffffffffffffffffff16826020015173ffffffffffffffffffffffffffffffffffffffff16836000015173ffffffffffffffffffffffffffffffffffffffff167f9943d54aaf466447896ecbcd292d64d2a7ec6f631690d5d2f343ae69f6d920e68786608001518760c00151604051610ed6939291906127d7565b60405180910390a450506000600360006101000a81548160ff0219169083151502179055505050565b600360009054906101000a900460ff1615610f4f576040517f08c379a0000000000000000000000000000000000000000000000000000000008152600401610f469061262d565b60405180910390fd5b6001600360006101000a81548160ff0219169083151502179055503373ffffffffffffffffffffffffffffffffffffffff16600160008373ffffffffffffffffffffffffffffffffffffffff1673ffffffffffffffffffffffffffffffffffffffff168152602001908152602001600020600085815260200190815260200160002060000160009054906101000a900473ffffffffffffffffffffffffffffffffffffffff1673ffffffffffffffffffffffffffffffffffffffff161461104b576040517f08c379a0000000000000000000000000000000000000000000000000000000008152600401611042906124a4565b60405180910390fd5b6001600381111561105f5761105e61226b565b5b600260008373ffffffffffffffffffffffffffffffffffffffff1673ffffffffffffffffffffffffffffffffffffffff168152602001908152602001600020600085815260200190815260200160002060009054906101000a900460ff1660038111156110cf576110ce61226b565b5b1461110f576040517f08c379a0000000000000000000000000000000000000000000000000000000008152600401611106906123cc565b60405180910390fd5b60011515600160008373ffffffffffffffffffffffffffffffffffffffff1673ffffffffffffffffffffffffffffffffffffffff1681526020019081526020016000206000858152602001908152602001600020600b0160009054906101000a900460ff161515146111b6576040517f08c379a00000000000000000000000000000000000000000000000000000000081526004016111ad90612699565b60405180910390fd5b6000600160008373ffffffffffffffffffffffffffffffffffffffff1673ffffffffffffffffffffffffffffffffffffffff1681526020019081526020016000206000858152602001908152602001600020604051806101800160405290816000820160009054906101000a900473ffffffffffffffffffffffffffffffffffffffff1673ffffffffffffffffffffffffffffffffffffffff1673ffffffffffffffffffffffffffffffffffffffff1681526020016001820160009054906101000a900473ffffffffffffffffffffffffffffffffffffffff1673ffffffffffffffffffffffffffffffffffffffff1673ffffffffffffffffffffffffffffffffffffffff1681526020016002820160009054906101000a900473ffffffffffffffffffffffffffffffffffffffff1673ffffffffffffffffffffffffffffffffffffffff1673ffffffffffffffffffffffffffffffffffffffff1681526020016003820160009054906101000a900473ffffffffffffffffffffffffffffffffffffffff1673ffffffffffffffffffffffffffffffffffffffff1673ffffffffffffffffffffffffffffffffffffffff168152602001600482015481526020016005820154815260200160068201548152602001600782015481526020016008820154815260200160098201548152602001600a8201548152602001600b820160009054906101000a900460ff16151515158152505090508060c001514210611415576040517f08c379a000000000000000000000000000000000000000000000000000000000815260040161140c9061285a565b60405180910390fd5b8060e0015160028460405160200161142d919061287a565b6040516020818303038152906040526040516114499190612904565b602060405180830381855afa158015611466573d6000803e3d6000fd5b5050506040513d601f19601f820116820180604052508101906114899190612930565b146114c9576040517f08c379a00000000000000000000000000000000000000000000000000000000081526004016114c0906129a9565b60405180910390fd5b60003373ffffffffffffffffffffffffffffffffffffffff1682608001516040516114f390612756565b60006040518083038185875af1925050503d8060008114611530576040519150601f19603f3d011682016040523d82523d6000602084013e611535565b606091505b5050905080611579576040517f08c379a0000000000000000000000000000000000000000000000000000000008152600401611570906127b7565b60405180910390fd5b83600160008573ffffffffffffffffffffffffffffffffffffffff1673ffffffffffffffffffffffffffffffffffffffff16815260200190815260200160002060008781526020019081526020016000206008018190555060028060008573ffffffffffffffffffffffffffffffffffffffff1673ffffffffffffffffffffffffffffffffffffffff168152602001908152602001600020600087815260200190815260200160002060006101000a81548160ff021916908360038111156116445761164361226b565b5b0217905550816060015173ffffffffffffffffffffffffffffffffffffffff16826020015173ffffffffffffffffffffffffffffffffffffffff16836000015173ffffffffffffffffffffffffffffffffffffffff167f8872bf094642b504a0c425eb87ad9ad790ad1a1f564c1f1c938c4dc46f24a723888661014001518760a0015188608001518961010001518a60e001516040516116e9969594939291906129c9565b60405180910390a450506000600360006101000a81548160ff021916908315150217905550505050565b600060038111156117275761172661226b565b5b600260008973ffffffffffffffffffffffffffffffffffffffff1673ffffffffffffffffffffffffffffffffffffffff16815260200190815260200160002060008b815260200190815260200160002060009054906101000a900460ff1660038111156117975761179661226b565b5b146117d7576040517f08c379a00000000000000000000000000000000000000000000000000000000081526004016117ce90612a76565b60405180910390fd5b6002826040516020016117ea919061287a565b6040516020818303038152906040526040516118069190612904565b602060405180830381855afa158015611823573d6000803e3d6000fd5b5050506040513d601f19601f820116820180604052508101906118469190612930565b8314611887576040517f08c379a000000000000000000000000000000000000000000000000000000000815260040161187e906129a9565b60405180910390fd5b4284116118c9576040517f08c379a00000000000000000000000000000000000000000000000000000000081526004016118c090612b08565b60405180910390fd5b6040518061018001604052803373ffffffffffffffffffffffffffffffffffffffff1681526020018973ffffffffffffffffffffffffffffffffffffffff168152602001600073ffffffffffffffffffffffffffffffffffffffff1681526020018873ffffffffffffffffffffffffffffffffffffffff1681526020018781526020018681526020018581526020018481526020016000801b81526020018a815260200182815260200160001515815250600160008973ffffffffffffffffffffffffffffffffffffffff1673ffffffffffffffffffffffffffffffffffffffff16815260200190815260200160002060008b815260200190815260200160002060008201518160000160006101000a81548173ffffffffffffffffffffffffffffffffffffffff021916908373ffffffffffffffffffffffffffffffffffffffff16021790555060208201518160010160006101000a81548173ffffffffffffffffffffffffffffffffffffffff021916908373ffffffffffffffffffffffffffffffffffffffff16021790555060408201518160020160006101000a81548173ffffffffffffffffffffffffffffffffffffffff021916908373ffffffffffffffffffffffffffffffffffffffff16021790555060608201518160030160006101000a81548173ffffffffffffffffffffffffffffffffffffffff021916908373ffffffffffffffffffffffffffffffffffffffff1602179055506080820151816004015560a0820151816005015560c0820151816006015560e082015181600701556101008201518160080155610120820151816009015561014082015181600a015561016082015181600b0160006101000a81548160ff0219169083151502179055509050506001600260008973ffffffffffffffffffffffffffffffffffffffff1673ffffffffffffffffffffffffffffffffffffffff16815260200190815260200160002060008b815260200190815260200160002060006101000a81548160ff02191690836003811115611bc757611bc661226b565b5b02179055508673ffffffffffffffffffffffffffffffffffffffff168873ffffffffffffffffffffffffffffffffffffffff163373ffffffffffffffffffffffffffffffffffffffff167f86ac4cbd41c462ef1daae0ea6eee915b3467a049291afc641a0512de46f4a52c8c858a8c8b8b604051611c4a96959493929190612b28565b60405180910390a4505050505050505050565b6000806000806000806000806000806003811115611c7e57611c7d61226b565b5b600260008c73ffffffffffffffffffffffffffffffffffffffff1673ffffffffffffffffffffffffffffffffffffffff16815260200190815260200160002060008d815260200190815260200160002060009054906101000a900460ff166003811115611cee57611ced61226b565b5b1415611d2f576040517f08c379a0000000000000000000000000000000000000000000000000000000008152600401611d2690612bd5565b60405180910390fd5b6000600160008c73ffffffffffffffffffffffffffffffffffffffff1673ffffffffffffffffffffffffffffffffffffffff16815260200190815260200160002060008d8152602001908152602001600020604051806101800160405290816000820160009054906101000a900473ffffffffffffffffffffffffffffffffffffffff1673ffffffffffffffffffffffffffffffffffffffff1673ffffffffffffffffffffffffffffffffffffffff1681526020016001820160009054906101000a900473ffffffffffffffffffffffffffffffffffffffff1673ffffffffffffffffffffffffffffffffffffffff1673ffffffffffffffffffffffffffffffffffffffff1681526020016002820160009054906101000a900473ffffffffffffffffffffffffffffffffffffffff1673ffffffffffffffffffffffffffffffffffffffff1673ffffffffffffffffffffffffffffffffffffffff1681526020016003820160009054906101000a900473ffffffffffffffffffffffffffffffffffffffff1673ffffffffffffffffffffffffffffffffffffffff1673ffffffffffffffffffffffffffffffffffffffff168152602001600482015481526020016005820154815260200160068201548152602001600782015481526020016008820154815260200160098201548152602001600a8201548152602001600b820160009054906101000a900460ff16151515158152505090506000600260008d73ffffffffffffffffffffffffffffffffffffffff1673ffffffffffffffffffffffffffffffffffffffff16815260200190815260200160002060008e815260200190815260200160002060009054906101000a900460ff16905081600001518260200151836060015184608001518560c00151866101600151876101200151878961010001519a509a509a509a509a509a509a509a509a5050509295985092959850929598565b600080fd5b6000819050919050565b61200f81611ffc565b811461201a57600080fd5b50565b60008135905061202c81612006565b92915050565b600073ffffffffffffffffffffffffffffffffffffffff82169050919050565b600061205d82612032565b9050919050565b61206d81612052565b811461207857600080fd5b50565b60008135905061208a81612064565b92915050565b600080604083850312156120a7576120a6611ff7565b5b60006120b58582860161201d565b92505060206120c68582860161207b565b9150509250929050565b6000806000606084860312156120e9576120e8611ff7565b5b60006120f78682870161201d565b93505060206121088682870161201d565b92505060406121198682870161207b565b9150509250925092565b6000819050919050565b61213681612123565b811461214157600080fd5b50565b6000813590506121538161212d565b92915050565b60008060008060008060008060006101208a8c03121561217c5761217b611ff7565b5b600061218a8c828d0161201d565b995050602061219b8c828d0161207b565b98505060406121ac8c828d0161207b565b97505060606121bd8c828d01612144565b96505060806121ce8c828d01612144565b95505060a06121df8c828d01612144565b94505060c06121f08c828d0161201d565b93505060e06122018c828d0161201d565b9250506101006122138c828d0161201d565b9150509295985092959850929598565b61222c81612052565b82525050565b61223b81612123565b82525050565b60008115159050919050565b61225681612241565b82525050565b61226581611ffc565b82525050565b7f4e487b7100000000000000000000000000000000000000000000000000000000600052602160045260246000fd5b600481106122ab576122aa61226b565b5b50565b60008190506122bc8261229a565b919050565b60006122cc826122ae565b9050919050565b6122dc816122c1565b82525050565b6000610120820190506122f8600083018c612223565b612305602083018b612223565b612312604083018a612223565b61231f6060830189612232565b61232c6080830188612232565b61233960a083018761224d565b61234660c083018661225c565b61235360e08301856122d3565b61236161010083018461225c565b9a9950505050505050505050565b600082825260208201905092915050565b7f6e6f74206f70656e656400000000000000000000000000000000000000000000600082015250565b60006123b6600a8361236f565b91506123c182612380565b602082019050919050565b600060208201905081810360008301526123e5816123a9565b9050919050565b7f66756e646564206f726465720000000000000000000000000000000000000000600082015250565b6000612422600c8361236f565b915061242d826123ec565b602082019050919050565b6000602082019050818103600083015261245181612415565b9050919050565b7f696e76616c69642063616c6c6572000000000000000000000000000000000000600082015250565b600061248e600e8361236f565b915061249982612458565b602082019050919050565b600060208201905081810360008301526124bd81612481565b9050919050565b7f696e76616c696420616d6f756e74000000000000000000000000000000000000600082015250565b60006124fa600e8361236f565b9150612505826124c4565b602082019050919050565b60006020820190508181036000830152612529816124ed565b9050919050565b7f63616e27742066756e642065787069726564206f726465720000000000000000600082015250565b600061256660188361236f565b915061257182612530565b602082019050919050565b6000602082019050818103600083015261259581612559565b9050919050565b60006080820190506125b16000830187612223565b6125be602083018661225c565b6125cb6040830185612232565b6125d86060830184612232565b95945050505050565b7f6e6f2072652d656e7472616e6379000000000000000000000000000000000000600082015250565b6000612617600e8361236f565b9150612622826125e1565b602082019050919050565b600060208201905081810360008301526126468161260a565b9050919050565b7f6e6f742066756e64656400000000000000000000000000000000000000000000600082015250565b6000612683600a8361236f565b915061268e8261264d565b602082019050919050565b600060208201905081810360008301526126b281612676565b9050919050565b7f6e6f742065787069726564000000000000000000000000000000000000000000600082015250565b60006126ef600b8361236f565b91506126fa826126b9565b602082019050919050565b6000602082019050818103600083015261271e816126e2565b9050919050565b600081905092915050565b50565b6000612740600083612725565b915061274b82612730565b600082019050919050565b600061276182612733565b9150819050919050565b7f4661696c656420746f2072656c65617365204574686572000000000000000000600082015250565b60006127a160178361236f565b91506127ac8261276b565b602082019050919050565b600060208201905081810360008301526127d081612794565b9050919050565b60006060820190506127ec600083018661225c565b6127f96020830185612232565b6128066040830184612232565b949350505050565b7f65787069726564206f7264657200000000000000000000000000000000000000600082015250565b6000612844600d8361236f565b915061284f8261280e565b602082019050919050565b6000602082019050818103600083015261287381612837565b9050919050565b600060208201905061288f600083018461225c565b92915050565b600081519050919050565b60005b838110156128be5780820151818401526020810190506128a3565b838111156128cd576000848401525b50505050565b60006128de82612895565b6128e88185612725565b93506128f88185602086016128a0565b80840191505092915050565b600061291082846128d3565b915081905092915050565b60008151905061292a81612006565b92915050565b60006020828403121561294657612945611ff7565b5b60006129548482850161291b565b91505092915050565b7f696e76616c696420736563726574000000000000000000000000000000000000600082015250565b6000612993600e8361236f565b915061299e8261295d565b602082019050919050565b600060208201905081810360008301526129c281612986565b9050919050565b600060c0820190506129de600083018961225c565b6129eb602083018861225c565b6129f86040830187612232565b612a056060830186612232565b612a12608083018561225c565b612a1f60a083018461225c565b979650505050505050565b7f6578697374696e67206964000000000000000000000000000000000000000000600082015250565b6000612a60600b8361236f565b9150612a6b82612a2a565b602082019050919050565b60006020820190508181036000830152612a8f81612a53565b9050919050565b7f65787069726174696f6e2074696d65206973206c657373207468616e2070726560008201527f73656e742074696d650000000000000000000000000000000000000000000000602082015250565b6000612af260298361236f565b9150612afd82612a96565b604082019050919050565b60006020820190508181036000830152612b2181612ae5565b9050919050565b600060c082019050612b3d600083018961225c565b612b4a602083018861225c565b612b576040830187612232565b612b646060830186612232565b612b716080830185612232565b612b7e60a083018461225c565b979650505050505050565b7f696e76616c6964206f7264657200000000000000000000000000000000000000600082015250565b6000612bbf600d8361236f565b9150612bca82612b89565b602082019050919050565b60006020820190508181036000830152612bee81612bb2565b905091905056fea2646970667358221220e846e2665c94243749ad99905503d2db123aa1769667ef0195ceb5e65424406264736f6c634300080a0033",
  "immutableReferences": {},
  "source": "/// @title  HTLC to release ETH from investor to issuer\n/// @dev    Contract for DVP. Investors funds this contract with their ETH and they get the security token in exchange.\n\npragma solidity 0.8.10;\n\n\n//  SPDX-License-Identifier: UNLICENSED\n\nimport \"../utils/OrderLibrary.sol\";\n\ncontract HTLC_ETH {\n\n\n   fallback () external {\n\n    }\n\n    address private _owner;\n\n    mapping(address => mapping(bytes32 => OrderLibrary.OrderSwap)) private _orderSwap;      //  map the order struct to the order ID\n    mapping(address => mapping(bytes32 => OrderLibrary.SwapState)) private _swapState;      //  to keep track of the swap state of an id\n    bool private locked;                                                //  boolean variable used to handle reEntrancy\n                                                    \n    \n    /// @notice locked = true\n    /// @dev    when an attacker calls the withdraw or refund function, the function is set to locked. It will only be unlocked when the function runs to the end\n    /// @dev    locked = false after the withdraw or refund function finishes executing\n\n    modifier noReEntrancy() {\n\n        require(!locked, \"no re-entrancy\");\n        locked = true;\n        _;\n        locked = false;\n    }\n\n    constructor () {\n\n        _owner = msg.sender;\n\n    }\n\n    /// @dev    Issuer initializes the order with the same orderID in the htlc1400 contract\n    /// @dev    The issuer uses the ID to withdraw USDT from this contract, while the investor uses the ID to withdraw from the htlc1400 contract\n    /// @param  _swapID is the ID of the swap order. This ID must be valid on the htlc1400 contract for swap to occur\n    /// @param _investor is the address that will fund this contract with the given _swapID\n    /// @param  _price is the price of the security token to be purchased. This contract is funded by investor for this particular order\n    /// @param _expiration is the time expected for this order to expire before a refund can enabled\n    /// @param _secretHash is the hash of the secret set on this contract and htlc1400 for this particular swap ID\n\n    function openOrder(bytes32 _swapID, address _investor, address _securityToken, uint256 _price, uint256 _amount, uint256 _expiration, bytes32 _secretHash, bytes32 _secretKey, bytes32 _partition) external {\n\n        require(_swapState[_securityToken][_swapID] == OrderLibrary.SwapState.INVALID, \"existing id\");\n        require( _secretHash == sha256(abi.encode(_secretKey)), \"invalid secret\");\n        require(_expiration > block.timestamp, \"expiration time is less than present time\");\n        _orderSwap[_securityToken][_swapID] = OrderLibrary.OrderSwap(msg.sender, _investor, address(0), _securityToken, _price, _amount, _expiration, _secretHash, bytes32(0), _swapID, _partition, false);\n        _swapState[_securityToken][_swapID] = OrderLibrary.SwapState.OPEN;\n        emit OpenedOrder(msg.sender, _investor, _securityToken, _swapID, _partition, _amount, _price, _expiration, _secretHash);\n\n    }\n\n\n    /// @param _swapID is the id of the order to be funded\n    /// @notice `_orderSwap[_swapID]._funded == false`, i.e the order must not be funded yet\n    /// @notice `_swapState[_swapID] == OrderLibrary.SwapState.OPEN` ,  i.e the order state must be opened\n    /// @dev this contract must be approved by the caller before calling this function\n\n    function fundOrder(bytes32 _swapID, address _securityToken) payable external {\n\n        require(_swapState[_securityToken][_swapID] == OrderLibrary.SwapState.OPEN, \"not opened\");\n        require(_orderSwap[_securityToken][_swapID]._funded == false, \"funded order\");\n        require(_orderSwap[_securityToken][_swapID]._investor == msg.sender, \"invalid caller\");\n        require(_orderSwap[_securityToken][_swapID]._price == msg.value, \"invalid amount\");\n        require(_orderSwap[_securityToken][_swapID]._expiration > block.timestamp, \"can't fund expired order\");\n        OrderLibrary.OrderSwap memory _order = _orderSwap[_securityToken][_swapID];\n        _orderSwap[_securityToken][_swapID]._funded = true;\n        emit Funded(_order._issuer, _order._investor, _order._ERC1400_ADDRESS, _order._partition, _order._amount, _order._price);\n\n    }\n\n\n    /// @param _swapID is the id of the order to withdrawn the usdt from\n    /// @param _secretKey is the secret the issuer must provide and reveal to the investor. The investor will in turn use this secret to withdraw the security token from the htlc1400 contract\n    /// @notice the caller is the owner of the contract\n    /// @notice the order must be OPEN\n    /// @notice the order must not be an expired order\n    /// @notice the hash of the secretKey must equal the hash in the order\n\n    function issuerWithdrawal(bytes32 _swapID, bytes32 _secretKey, address _securityToken) external noReEntrancy {\n\n        require(_orderSwap[_securityToken][_swapID]._issuer == msg.sender, \"invalid caller\");\n        require(_swapState[_securityToken][_swapID] == OrderLibrary.SwapState.OPEN, \"not opened\");\n        require(_orderSwap[_securityToken][_swapID]._funded == true, \"not funded\");\n        OrderLibrary.OrderSwap memory _order = _orderSwap[_securityToken][_swapID];\n        require(block.timestamp < _order._expiration, \"expired order\");\n        require(sha256(abi.encode(_secretKey)) == _order._secretHash, \"invalid secret\"); \n        (bool sent, ) = payable(msg.sender).call{value: _order._price}(\"\");\n        require(sent, \"Failed to release Ether\");\n        _orderSwap[_securityToken][_swapID]._secretKey = _secretKey;\n        _swapState[_securityToken][_swapID] = OrderLibrary.SwapState.CLOSED;\n        emit ClosedOrder(_order._issuer, _order._investor, _order._ERC1400_ADDRESS ,_swapID, _order._partition, _order._amount, _order._price, _order._secretKey, _order._secretHash);\n\n    }\n\n\n    /// @param _swapID is the order ID of the order to be refunded\n    /// @notice `block.timestamp ` > `expiration time`\n    /// @notice swapt state becomes `expired`\n\n\n    function refund(bytes32 _swapID, address _securityToken) noReEntrancy external  {\n\n        require(_orderSwap[_securityToken][_swapID]._investor == msg.sender, \"invalid caller\");\n        require(_swapState[_securityToken][_swapID] == OrderLibrary.SwapState.OPEN, \"not opened\");\n        require(_orderSwap[_securityToken][_swapID]._funded == true, \"not funded\");\n        require(block.timestamp > _orderSwap[_securityToken][_swapID]._expiration, \"not expired\");\n        OrderLibrary.OrderSwap memory _order = _orderSwap[_securityToken][_swapID];\n        (bool sent, ) = payable(msg.sender).call{value: _order._price}(\"\");\n        require(sent, \"Failed to release Ether\");\n        _swapState[_securityToken][_swapID] = OrderLibrary.SwapState.EXPIRED;\n        emit RefundedOrder(_order._issuer, _order._investor, _order._ERC1400_ADDRESS, _swapID, _order._price, _order._expiration);\n\n    }\n\n\n\n    /// @param _swapID is the id of the order to be fetched\n    /// @notice `_swapID` must not be INVALID. it can be OPEN, CLOSED or EXPIRED. \n\n    function checkOrder(bytes32 _swapID, address _securityToken) external view returns (address _issuer, address _investor, address _securityTokenAddress, uint256 _price, uint256 _expiration, bool _funded, bytes32 _orderID, OrderLibrary.SwapState _orderState, bytes32 _secretKey) {\n\n        require(_swapState[_securityToken][_swapID] != OrderLibrary.SwapState.INVALID, \"invalid order\");\n        OrderLibrary.OrderSwap memory _order = _orderSwap[_securityToken][_swapID];\n        OrderLibrary.SwapState _state = _swapState[_securityToken][_swapID];\n        return (_order._issuer, _order._investor, _order._ERC1400_ADDRESS, _order._price, _order._expiration, _order._funded, _order._swapID, _state, _order._secretKey);\n\n    }\n\n    \n\n    event OpenedOrder(address indexed _issuer, address indexed _investor, address indexed _securityToken ,bytes32 _swapID, bytes32 _partition, uint256 _amount, uint256 _price, uint256 _expiration, bytes32 _secretHash);\n    event ClosedOrder(address indexed _issuer, address indexed _investor, address indexed _securityToken, bytes32 _swapID, bytes32 _partition, uint256 _amount, uint256 _price, bytes32 _secretKey, bytes32 _secretHash);\n    event RefundedOrder(address indexed _issuer, address indexed _investor, address indexed _securityToken, bytes32 _swapID, uint256 _amount, uint256 _expiration);\n    event Funded(address _issuer, address indexed _investor, address indexed _securityToken, bytes32 _partition, uint256 _amount, uint256 _price);\n\n\n\n\n}",
  "sourcePath": "/home/komolehin/Documents/blockchain/TANGLE/security-token/contracts/htlc/HTLC_ETH.sol",
  "compiler": {
    "name": "solc",
    "version": "0.8.10+commit.fc410830.Emscripten.clang"
  },
  "schemaVersion": "3.4.6",
  "updatedAt": "2022-05-14T08:24:51.961Z",
  "devdoc": {
    "kind": "dev",
    "methods": {
      "checkOrder(bytes32,address)": {
        "params": {
          "_swapID": "is the id of the order to be fetched"
        }
      },
      "fundOrder(bytes32,address)": {
        "details": "this contract must be approved by the caller before calling this function",
        "params": {
          "_swapID": "is the id of the order to be funded"
        }
      },
      "issuerWithdrawal(bytes32,bytes32,address)": {
        "params": {
          "_secretKey": "is the secret the issuer must provide and reveal to the investor. The investor will in turn use this secret to withdraw the security token from the htlc1400 contract",
          "_swapID": "is the id of the order to withdrawn the usdt from"
        }
      },
      "openOrder(bytes32,address,address,uint256,uint256,uint256,bytes32,bytes32,bytes32)": {
        "details": "Issuer initializes the order with the same orderID in the htlc1400 contractThe issuer uses the ID to withdraw USDT from this contract, while the investor uses the ID to withdraw from the htlc1400 contract",
        "params": {
          "_expiration": "is the time expected for this order to expire before a refund can enabled",
          "_investor": "is the address that will fund this contract with the given _swapID",
          "_price": "is the price of the security token to be purchased. This contract is funded by investor for this particular order",
          "_secretHash": "is the hash of the secret set on this contract and htlc1400 for this particular swap ID",
          "_swapID": "is the ID of the swap order. This ID must be valid on the htlc1400 contract for swap to occur"
        }
      },
      "refund(bytes32,address)": {
        "params": {
          "_swapID": "is the order ID of the order to be refunded"
        }
      }
    },
    "version": 1
  },
  "userdoc": {
    "kind": "user",
    "methods": {
      "checkOrder(bytes32,address)": {
        "notice": "`_swapID` must not be INVALID. it can be OPEN, CLOSED or EXPIRED. "
      },
      "fundOrder(bytes32,address)": {
        "notice": "`_orderSwap[_swapID]._funded == false`, i.e the order must not be funded yet`_swapState[_swapID] == OrderLibrary.SwapState.OPEN` ,  i.e the order state must be opened"
      },
      "issuerWithdrawal(bytes32,bytes32,address)": {
        "notice": "the caller is the owner of the contractthe order must be OPENthe order must not be an expired orderthe hash of the secretKey must equal the hash in the order"
      },
      "refund(bytes32,address)": {
        "notice": "`block.timestamp ` > `expiration time`swapt state becomes `expired`"
      }
    },
    "version": 1
  }
}