{
  "contractName": "LibraryTest",
  "abi": [
    {
      "inputs": [
        {
          "internalType": "string",
          "name": "_data",
          "type": "string"
        }
      ],
      "name": "test",
      "outputs": [
        {
          "internalType": "string",
          "name": "",
          "type": "string"
        }
      ],
      "stateMutability": "view",
      "type": "function"
    },
    {
      "inputs": [
        {
          "components": [
            {
              "internalType": "string",
              "name": "name",
              "type": "string"
            }
          ],
          "internalType": "struct LibraryTest.Holder",
          "name": "_holder",
          "type": "tuple"
        }
      ],
      "name": "testStruct",
      "outputs": [
        {
          "components": [
            {
              "internalType": "string",
              "name": "name",
              "type": "string"
            }
          ],
          "internalType": "struct LibraryTest.Holder",
          "name": "",
          "type": "tuple"
        }
      ],
      "stateMutability": "pure",
      "type": "function"
    },
    {
      "inputs": [
        {
          "internalType": "bytes",
          "name": "_signature",
          "type": "bytes"
        },
        {
          "internalType": "bytes32",
          "name": "_ethHash",
          "type": "bytes32"
        }
      ],
      "name": "verifySignature",
      "outputs": [
        {
          "internalType": "address",
          "name": "",
          "type": "address"
        }
      ],
      "stateMutability": "pure",
      "type": "function"
    },
    {
      "inputs": [
        {
          "internalType": "bytes",
          "name": "_encodedSignature",
          "type": "bytes"
        }
      ],
      "name": "decodeData",
      "outputs": [
        {
          "internalType": "bytes",
          "name": "",
          "type": "bytes"
        },
        {
          "internalType": "bytes32",
          "name": "",
          "type": "bytes32"
        },
        {
          "internalType": "bool",
          "name": "",
          "type": "bool"
        },
        {
          "internalType": "bool",
          "name": "",
          "type": "bool"
        }
      ],
      "stateMutability": "pure",
      "type": "function"
    }
  ],
  "bytecode": "0x610bf5610053600b82828239805160001a607314610046577f4e487b7100000000000000000000000000000000000000000000000000000000600052600060045260246000fd5b30600052607381538281f3fe73000000000000000000000000000000000000000030146080604052600436106100565760003560e01c8063447a06f51461005b578063c7b63f291461008e578063e1989326146100be578063f9fbd554146100ee575b600080fd5b6100756004803603810190610070919061045b565b61011e565b6040516100859493929190610560565b60405180910390f35b6100a860048036038101906100a391906106af565b610148565b6040516100b59190610777565b60405180910390f35b6100d860048036038101906100d391906107c5565b610158565b6040516100e59190610862565b60405180910390f35b6101086004803603810190610103919061087d565b6102d2565b6040516101159190610910565b60405180910390f35b606060008060008480602001905181019061013991906109e3565b93509350935093509193509193565b6101506102ee565b819050919050565b60008060008060418651146101a2576040517f08c379a000000000000000000000000000000000000000000000000000000000815260040161019990610ac3565b60405180910390fd5b6020860151925060408601519150606086015160001a9050600073ffffffffffffffffffffffffffffffffffffffff16600186838686604051600081526020016040526040516101f59493929190610b0e565b6020604051602081039080840390855afa158015610217573d6000803e3d6000fd5b5050506020604051035173ffffffffffffffffffffffffffffffffffffffff161415610278576040517f08c379a000000000000000000000000000000000000000000000000000000000815260040161026f90610b9f565b60405180910390fd5b6001858285856040516000815260200160405260405161029b9493929190610b0e565b6020604051602081039080840390855afa1580156102bd573d6000803e3d6000fd5b50505060206040510351935050505092915050565b60606102dd826102e4565b9050919050565b6060819050919050565b6040518060200160405280606081525090565b6000604051905090565b600080fd5b600080fd5b600080fd5b600080fd5b6000601f19601f8301169050919050565b7f4e487b7100000000000000000000000000000000000000000000000000000000600052604160045260246000fd5b6103688261031f565b810181811067ffffffffffffffff8211171561038757610386610330565b5b80604052505050565b600061039a610301565b90506103a6828261035f565b919050565b600067ffffffffffffffff8211156103c6576103c5610330565b5b6103cf8261031f565b9050602081019050919050565b82818337600083830152505050565b60006103fe6103f9846103ab565b610390565b90508281526020810184848401111561041a5761041961031a565b5b6104258482856103dc565b509392505050565b600082601f83011261044257610441610315565b5b81356104528482602086016103eb565b91505092915050565b6000602082840312156104715761047061030b565b5b600082013567ffffffffffffffff81111561048f5761048e610310565b5b61049b8482850161042d565b91505092915050565b600081519050919050565b600082825260208201905092915050565b60005b838110156104de5780820151818401526020810190506104c3565b838111156104ed576000848401525b50505050565b60006104fe826104a4565b61050881856104af565b93506105188185602086016104c0565b6105218161031f565b840191505092915050565b6000819050919050565b61053f8161052c565b82525050565b60008115159050919050565b61055a81610545565b82525050565b6000608082019050818103600083015261057a81876104f3565b90506105896020830186610536565b6105966040830185610551565b6105a36060830184610551565b95945050505050565b600080fd5b600080fd5b600067ffffffffffffffff8211156105d1576105d0610330565b5b6105da8261031f565b9050602081019050919050565b60006105fa6105f5846105b6565b610390565b9050828152602081018484840111156106165761061561031a565b5b6106218482856103dc565b509392505050565b600082601f83011261063e5761063d610315565b5b813561064e8482602086016105e7565b91505092915050565b60006020828403121561066d5761066c6105ac565b5b6106776020610390565b9050600082013567ffffffffffffffff811115610697576106966105b1565b5b6106a384828501610629565b60008301525092915050565b6000602082840312156106c5576106c461030b565b5b600082013567ffffffffffffffff8111156106e3576106e2610310565b5b6106ef84828501610657565b91505092915050565b600081519050919050565b600082825260208201905092915050565b600061071f826106f8565b6107298185610703565b93506107398185602086016104c0565b6107428161031f565b840191505092915050565b6000602083016000830151848203600086015261076a8282610714565b9150508091505092915050565b60006020820190508181036000830152610791818461074d565b905092915050565b6107a28161052c565b81146107ad57600080fd5b50565b6000813590506107bf81610799565b92915050565b600080604083850312156107dc576107db61030b565b5b600083013567ffffffffffffffff8111156107fa576107f9610310565b5b6108068582860161042d565b9250506020610817858286016107b0565b9150509250929050565b600073ffffffffffffffffffffffffffffffffffffffff82169050919050565b600061084c82610821565b9050919050565b61085c81610841565b82525050565b60006020820190506108776000830184610853565b92915050565b6000602082840312156108935761089261030b565b5b600082013567ffffffffffffffff8111156108b1576108b0610310565b5b6108bd84828501610629565b91505092915050565b600082825260208201905092915050565b60006108e2826106f8565b6108ec81856108c6565b93506108fc8185602086016104c0565b6109058161031f565b840191505092915050565b6000602082019050818103600083015261092a81846108d7565b905092915050565b6000610945610940846103ab565b610390565b9050828152602081018484840111156109615761096061031a565b5b61096c8482856104c0565b509392505050565b600082601f83011261098957610988610315565b5b8151610999848260208601610932565b91505092915050565b6000815190506109b181610799565b92915050565b6109c081610545565b81146109cb57600080fd5b50565b6000815190506109dd816109b7565b92915050565b600080600080608085870312156109fd576109fc61030b565b5b600085015167ffffffffffffffff811115610a1b57610a1a610310565b5b610a2787828801610974565b9450506020610a38878288016109a2565b9350506040610a49878288016109ce565b9250506060610a5a878288016109ce565b91505092959194509250565b600082825260208201905092915050565b7f3078356600000000000000000000000000000000000000000000000000000000600082015250565b6000610aad600483610a66565b9150610ab882610a77565b602082019050919050565b60006020820190508181036000830152610adc81610aa0565b9050919050565b610aec8161052c565b82525050565b600060ff82169050919050565b610b0881610af2565b82525050565b6000608082019050610b236000830187610ae3565b610b306020830186610aff565b610b3d6040830185610ae3565b610b4a6060830184610ae3565b95945050505050565b7f3078353900000000000000000000000000000000000000000000000000000000600082015250565b6000610b89600483610a66565b9150610b9482610b53565b602082019050919050565b60006020820190508181036000830152610bb881610b7c565b905091905056fea26469706673582212204d4a2a774ae4b156939a4d7792d566be055b134037020502742cfde88fa1489a64736f6c634300080a0033",
  "immutableReferences": {},
  "source": "pragma solidity 0.8.10;\n\n////      Just for testing purpose.\n\n\n\nlibrary LibraryTest {\n\n    \n\n    struct Holder {\n        string name;\n    }\n\n    function add(string memory _word) internal view returns(string memory) {\n        return _word;\n    }\n\n    function test(string memory _data) external view returns(string memory) {\n        return add(_data);\n    }\n\n    function testStruct(Holder memory _holder) external pure returns(Holder memory) {\n        return _holder;\n    }\n\n    function verifySignature(bytes memory _signature, bytes32 _ethHash) external pure returns (address) {\n\n\n        //(bytes32 r, bytes32 s, uint8 v) = _split(_signature);\n        bytes32 r;\n        bytes32 s;\n        uint8 v;\n\n\n        require(_signature.length == 65, \"0x5f\"); // invalid signature length\n\n        assembly {\n\n            r := mload(add(_signature, 32))\n            s := mload(add(_signature, 64))\n            v := byte(0, mload(add(_signature, 96)))\n           \n\n        }\n\n        require (ecrecover(_ethHash, v, r, s) != address(0), \"0x59\"); // invalid signer\n        return ecrecover(_ethHash, v, r, s);\n\n    }\n\n    function decodeData(bytes memory _encodedSignature) external pure returns (bytes memory, bytes32, bool, bool) {\n        return abi.decode(_encodedSignature, (bytes, bytes32, bool, bool));\n    }\n\n\n}\n\ncontract CallLibrary {\n\n\n    function callString(string memory _word) external view returns (string memory) {\n        return LibraryTest.test(_word);\n    }\n\n    function verify(bytes memory _signature, bytes32 _ethHash) external pure returns (address) {\n        return LibraryTest.verifySignature(_signature, _ethHash);\n    }\n\n    function testStruc(LibraryTest.Holder memory _holder) external pure returns(LibraryTest.Holder memory) {\n        return LibraryTest.testStruct(_holder);\n    }\n\n\n}",
  "sourcePath": "/home/komolehin/Documents/blockchain/TANGLE/security-token/contracts/Test.sol",
  "compiler": {
    "name": "solc",
    "version": "0.8.10+commit.fc410830.Emscripten.clang"
  },
  "schemaVersion": "3.4.6",
  "updatedAt": "2022-04-26T09:47:11.803Z",
  "devdoc": {
    "kind": "dev",
    "methods": {},
    "version": 1
  },
  "userdoc": {
    "kind": "user",
    "methods": {},
    "version": 1
  }
}