{
  "contractName": "ERC1400",
  "abi": [
    {
      "inputs": [
        {
          "internalType": "string",
          "name": "_name",
          "type": "string"
        },
        {
          "internalType": "string",
          "name": "_symbol",
          "type": "string"
        },
        {
          "internalType": "uint256",
          "name": "_decimal",
          "type": "uint256"
        },
        {
          "internalType": "uint256",
          "name": "_totalSupply",
          "type": "uint256"
        }
      ],
      "stateMutability": "nonpayable",
      "type": "constructor"
    },
    {
      "anonymous": false,
      "inputs": [
        {
          "indexed": false,
          "internalType": "address",
          "name": "_tokenHolder",
          "type": "address"
        },
        {
          "indexed": false,
          "internalType": "address",
          "name": "_externalAddress",
          "type": "address"
        },
        {
          "indexed": false,
          "internalType": "uint256",
          "name": "_amount",
          "type": "uint256"
        }
      ],
      "name": "Approval",
      "type": "event"
    },
    {
      "anonymous": false,
      "inputs": [
        {
          "indexed": false,
          "internalType": "address",
          "name": "_to",
          "type": "address"
        },
        {
          "indexed": false,
          "internalType": "uint256",
          "name": "_amountIssued",
          "type": "uint256"
        },
        {
          "indexed": false,
          "internalType": "uint256",
          "name": "_totalSupply",
          "type": "uint256"
        },
        {
          "indexed": false,
          "internalType": "uint256",
          "name": "_timeIssued",
          "type": "uint256"
        }
      ],
      "name": "Issued",
      "type": "event"
    },
    {
      "anonymous": false,
      "inputs": [
        {
          "indexed": false,
          "internalType": "address",
          "name": "_from",
          "type": "address"
        },
        {
          "indexed": false,
          "internalType": "address",
          "name": "_to",
          "type": "address"
        },
        {
          "indexed": false,
          "internalType": "uint256",
          "name": "_amount",
          "type": "uint256"
        }
      ],
      "name": "Transfer",
      "type": "event"
    },
    {
      "anonymous": false,
      "inputs": [
        {
          "indexed": false,
          "internalType": "address",
          "name": "_investor",
          "type": "address"
        },
        {
          "indexed": false,
          "internalType": "uint256",
          "name": "_timeAdded",
          "type": "uint256"
        }
      ],
      "name": "WhiteList",
      "type": "event"
    },
    {
      "inputs": [
        {
          "internalType": "address",
          "name": "",
          "type": "address"
        }
      ],
      "name": "balanceOf",
      "outputs": [
        {
          "internalType": "uint256",
          "name": "",
          "type": "uint256"
        }
      ],
      "stateMutability": "view",
      "type": "function",
      "constant": true
    },
    {
      "inputs": [
        {
          "internalType": "address",
          "name": "_to",
          "type": "address"
        },
        {
          "internalType": "uint256",
          "name": "_amount",
          "type": "uint256"
        }
      ],
      "name": "issueTokens",
      "outputs": [],
      "stateMutability": "nonpayable",
      "type": "function"
    },
    {
      "inputs": [
        {
          "internalType": "address",
          "name": "_externalAddress",
          "type": "address"
        },
        {
          "internalType": "uint256",
          "name": "_value",
          "type": "uint256"
        }
      ],
      "name": "approve",
      "outputs": [
        {
          "internalType": "bool",
          "name": "success",
          "type": "bool"
        }
      ],
      "stateMutability": "nonpayable",
      "type": "function"
    },
    {
      "inputs": [
        {
          "internalType": "address",
          "name": "_to",
          "type": "address"
        },
        {
          "internalType": "uint256",
          "name": "_value",
          "type": "uint256"
        }
      ],
      "name": "canTransfer",
      "outputs": [
        {
          "internalType": "bytes1",
          "name": "status",
          "type": "bytes1"
        },
        {
          "internalType": "bytes32",
          "name": "statusDescription",
          "type": "bytes32"
        }
      ],
      "stateMutability": "view",
      "type": "function",
      "constant": true
    },
    {
      "inputs": [
        {
          "internalType": "address",
          "name": "_investor",
          "type": "address"
        }
      ],
      "name": "addToWhiteList",
      "outputs": [],
      "stateMutability": "nonpayable",
      "type": "function"
    },
    {
      "inputs": [
        {
          "internalType": "address",
          "name": "_to",
          "type": "address"
        },
        {
          "internalType": "uint256",
          "name": "_amount",
          "type": "uint256"
        }
      ],
      "name": "transfer",
      "outputs": [
        {
          "internalType": "bool",
          "name": "success",
          "type": "bool"
        }
      ],
      "stateMutability": "nonpayable",
      "type": "function"
    },
    {
      "inputs": [
        {
          "internalType": "address",
          "name": "_from",
          "type": "address"
        },
        {
          "internalType": "address",
          "name": "_to",
          "type": "address"
        },
        {
          "internalType": "uint256",
          "name": "_amount",
          "type": "uint256"
        }
      ],
      "name": "transferFrom",
      "outputs": [
        {
          "internalType": "bool",
          "name": "success",
          "type": "bool"
        }
      ],
      "stateMutability": "nonpayable",
      "type": "function"
    }
  ],
  "bytecode": "0x60806040526001600460146101000a81548160ff0219169083151502179055503480156200002c57600080fd5b506040516200140938038062001409833981810160405281019062000052919062000365565b83600090805190602001906200006a929190620000dd565b50826001908051906020019062000083929190620000dd565b50816002819055508060038190555033600460006101000a81548173ffffffffffffffffffffffffffffffffffffffff021916908373ffffffffffffffffffffffffffffffffffffffff160217905550505050506200047a565b828054620000eb9062000444565b90600052602060002090601f0160209004810192826200010f57600085556200015b565b82601f106200012a57805160ff19168380011785556200015b565b828001600101855582156200015b579182015b828111156200015a5782518255916020019190600101906200013d565b5b5090506200016a91906200016e565b5090565b5b80821115620001895760008160009055506001016200016f565b5090565b6000604051905090565b600080fd5b600080fd5b600080fd5b600080fd5b6000601f19601f8301169050919050565b7f4e487b7100000000000000000000000000000000000000000000000000000000600052604160045260246000fd5b620001f682620001ab565b810181811067ffffffffffffffff82111715620002185762000217620001bc565b5b80604052505050565b60006200022d6200018d565b90506200023b8282620001eb565b919050565b600067ffffffffffffffff8211156200025e576200025d620001bc565b5b6200026982620001ab565b9050602081019050919050565b60005b838110156200029657808201518184015260208101905062000279565b83811115620002a6576000848401525b50505050565b6000620002c3620002bd8462000240565b62000221565b905082815260208101848484011115620002e257620002e1620001a6565b5b620002ef84828562000276565b509392505050565b600082601f8301126200030f576200030e620001a1565b5b815162000321848260208601620002ac565b91505092915050565b6000819050919050565b6200033f816200032a565b81146200034b57600080fd5b50565b6000815190506200035f8162000334565b92915050565b6000806000806080858703121562000382576200038162000197565b5b600085015167ffffffffffffffff811115620003a357620003a26200019c565b5b620003b187828801620002f7565b945050602085015167ffffffffffffffff811115620003d557620003d46200019c565b5b620003e387828801620002f7565b9350506040620003f6878288016200034e565b925050606062000409878288016200034e565b91505092959194509250565b7f4e487b7100000000000000000000000000000000000000000000000000000000600052602260045260246000fd5b600060028204905060018216806200045d57607f821691505b6020821081141562000474576200047362000415565b5b50919050565b610f7f806200048a6000396000f3fe608060405234801561001057600080fd5b506004361061007d5760003560e01c806347ee03941161005b57806347ee0394146100fe57806370a082311461011a578063a9059cbb1461014a578063d45e09c11461017a5761007d565b8063095ea7b31461008257806323b872dd146100b2578063475a9fa9146100e2575b600080fd5b61009c60048036038101906100979190610a58565b6101ab565b6040516100a99190610ab3565b60405180910390f35b6100cc60048036038101906100c79190610ace565b610285565b6040516100d99190610ab3565b60405180910390f35b6100fc60048036038101906100f79190610a58565b61042b565b005b61011860048036038101906101139190610b21565b6105a7565b005b610134600480360381019061012f9190610b21565b6106c8565b6040516101419190610b5d565b60405180910390f35b610164600480360381019061015f9190610a58565b6106e0565b6040516101719190610ab3565b60405180910390f35b610194600480360381019061018f9190610a58565b6106f8565b6040516101a2929190610bcc565b60405180910390f35b600081600660003373ffffffffffffffffffffffffffffffffffffffff1673ffffffffffffffffffffffffffffffffffffffff16815260200190815260200160002060008573ffffffffffffffffffffffffffffffffffffffff1673ffffffffffffffffffffffffffffffffffffffff16815260200190815260200160002060008282546102399190610c24565b925050819055507f8c5be1e5ebec7d5bd14f71427d1e84f3dd0314c0f7b2291e5b200ac8c7c3b92533848460405161027393929190610c89565b60405180910390a16001905092915050565b600081600660008673ffffffffffffffffffffffffffffffffffffffff1673ffffffffffffffffffffffffffffffffffffffff16815260200190815260200160002060003373ffffffffffffffffffffffffffffffffffffffff1673ffffffffffffffffffffffffffffffffffffffff16815260200190815260200160002054101561031057600080fd5b61031b84848461076a565b5081600660008673ffffffffffffffffffffffffffffffffffffffff1673ffffffffffffffffffffffffffffffffffffffff16815260200190815260200160002060003373ffffffffffffffffffffffffffffffffffffffff1673ffffffffffffffffffffffffffffffffffffffff168152602001908152602001600020546103a49190610cc0565b600660008673ffffffffffffffffffffffffffffffffffffffff1673ffffffffffffffffffffffffffffffffffffffff16815260200190815260200160002060003373ffffffffffffffffffffffffffffffffffffffff1673ffffffffffffffffffffffffffffffffffffffff168152602001908152602001600020819055509392505050565b600460009054906101000a900473ffffffffffffffffffffffffffffffffffffffff1673ffffffffffffffffffffffffffffffffffffffff163373ffffffffffffffffffffffffffffffffffffffff16146104bb576040517f08c379a00000000000000000000000000000000000000000000000000000000081526004016104b290610d51565b60405180910390fd5b600073ffffffffffffffffffffffffffffffffffffffff168273ffffffffffffffffffffffffffffffffffffffff1614156104f557600080fd5b80600760008473ffffffffffffffffffffffffffffffffffffffff1673ffffffffffffffffffffffffffffffffffffffff16815260200190815260200160002060008282546105449190610c24565b92505081905550806003600082825461055d9190610c24565b925050819055507f5a1f7f24a8d262d4fd95d7324e83dcdd93b4b9911cc5f45cac5a0382242953a482826003544260405161059b9493929190610d71565b60405180910390a15050565b600560008273ffffffffffffffffffffffffffffffffffffffff1673ffffffffffffffffffffffffffffffffffffffff16815260200190815260200160002060009054906101000a900460ff1615610634576040517f08c379a000000000000000000000000000000000000000000000000000000000815260040161062b90610e28565b60405180910390fd5b6001600560008373ffffffffffffffffffffffffffffffffffffffff1673ffffffffffffffffffffffffffffffffffffffff16815260200190815260200160002060006101000a81548160ff0219169083151502179055507fcb3de9106aa8cc3efea54defa4b3ec342e8ae23607fd0255b1dcee4813f9f4bc81426040516106bd929190610e48565b60405180910390a150565b60076020528060005260406000206000915090505481565b60006106ed33848461076a565b506001905092915050565b60008060011515600460149054906101000a900460ff1615151415610762577f55000000000000000000000000000000000000000000000000000000000000007f66756e6473206c6f636b656420286c6f636b757020706572696f64290000000091509150610763565b5b9250929050565b60008073ffffffffffffffffffffffffffffffffffffffff168373ffffffffffffffffffffffffffffffffffffffff1614156107db576040517f08c379a00000000000000000000000000000000000000000000000000000000081526004016107d290610ebd565b60405180910390fd5b81600760008673ffffffffffffffffffffffffffffffffffffffff1673ffffffffffffffffffffffffffffffffffffffff16815260200190815260200160002054101561085d576040517f08c379a000000000000000000000000000000000000000000000000000000000815260040161085490610f29565b60405180910390fd5b81600760008673ffffffffffffffffffffffffffffffffffffffff1673ffffffffffffffffffffffffffffffffffffffff168152602001908152602001600020546108a89190610cc0565b600760008673ffffffffffffffffffffffffffffffffffffffff1673ffffffffffffffffffffffffffffffffffffffff1681526020019081526020016000208190555081600760008573ffffffffffffffffffffffffffffffffffffffff1673ffffffffffffffffffffffffffffffffffffffff168152602001908152602001600020546109369190610c24565b600760008573ffffffffffffffffffffffffffffffffffffffff1673ffffffffffffffffffffffffffffffffffffffff168152602001908152602001600020819055507fddf252ad1be2c89b69c2b068fc378daa952ba7f163c4a11628f55a4df523b3ef8484846040516109ac93929190610c89565b60405180910390a1600190509392505050565b600080fd5b600073ffffffffffffffffffffffffffffffffffffffff82169050919050565b60006109ef826109c4565b9050919050565b6109ff816109e4565b8114610a0a57600080fd5b50565b600081359050610a1c816109f6565b92915050565b6000819050919050565b610a3581610a22565b8114610a4057600080fd5b50565b600081359050610a5281610a2c565b92915050565b60008060408385031215610a6f57610a6e6109bf565b5b6000610a7d85828601610a0d565b9250506020610a8e85828601610a43565b9150509250929050565b60008115159050919050565b610aad81610a98565b82525050565b6000602082019050610ac86000830184610aa4565b92915050565b600080600060608486031215610ae757610ae66109bf565b5b6000610af586828701610a0d565b9350506020610b0686828701610a0d565b9250506040610b1786828701610a43565b9150509250925092565b600060208284031215610b3757610b366109bf565b5b6000610b4584828501610a0d565b91505092915050565b610b5781610a22565b82525050565b6000602082019050610b726000830184610b4e565b92915050565b60007fff0000000000000000000000000000000000000000000000000000000000000082169050919050565b610bad81610b78565b82525050565b6000819050919050565b610bc681610bb3565b82525050565b6000604082019050610be16000830185610ba4565b610bee6020830184610bbd565b9392505050565b7f4e487b7100000000000000000000000000000000000000000000000000000000600052601160045260246000fd5b6000610c2f82610a22565b9150610c3a83610a22565b9250827fffffffffffffffffffffffffffffffffffffffffffffffffffffffffffffffff03821115610c6f57610c6e610bf5565b5b828201905092915050565b610c83816109e4565b82525050565b6000606082019050610c9e6000830186610c7a565b610cab6020830185610c7a565b610cb86040830184610b4e565b949350505050565b6000610ccb82610a22565b9150610cd683610a22565b925082821015610ce957610ce8610bf5565b5b828203905092915050565b600082825260208201905092915050565b7f3078353600000000000000000000000000000000000000000000000000000000600082015250565b6000610d3b600483610cf4565b9150610d4682610d05565b602082019050919050565b60006020820190508181036000830152610d6a81610d2e565b9050919050565b6000608082019050610d866000830187610c7a565b610d936020830186610b4e565b610da06040830185610b4e565b610dad6060830184610b4e565b95945050505050565b7f63616e27742077686974656c69737420616e2061646472657373206d6f72652060008201527f7468616e206f6e63650000000000000000000000000000000000000000000000602082015250565b6000610e12602983610cf4565b9150610e1d82610db6565b604082019050919050565b60006020820190508181036000830152610e4181610e05565b9050919050565b6000604082019050610e5d6000830185610c7a565b610e6a6020830184610b4e565b9392505050565b7f63616e2774207472616e7366657220746f207a65726f20616464726573730000600082015250565b6000610ea7601e83610cf4565b9150610eb282610e71565b602082019050919050565b60006020820190508181036000830152610ed681610e9a565b9050919050565b7f696e73756666696369656e7420616d6f756e7400000000000000000000000000600082015250565b6000610f13601383610cf4565b9150610f1e82610edd565b602082019050919050565b60006020820190508181036000830152610f4281610f06565b905091905056fea26469706673582212208e72ec39d231fa38d36414afaff79f2437e1af49195aa89c25a73df0b60ab9f364736f6c634300080a0033",
  "immutableReferences": {},
  "source": "// solidity version\r\n\r\npragma solidity 0.8.10;\r\n\r\n\r\ncontract ERC1400 {\r\n\r\n\r\n    /*\r\n    \r\n     variables declaration\r\n\r\n    */\r\n\r\n    //  string\r\n\r\n    string internal name;   // token name\r\n    string internal symbol; // token symbol\r\n\r\n    //  uints\r\n    uint256 internal decimal;   // token decimal\r\n    uint256 internal totalSupply; // token total supply\r\n\r\n    //  addresses\r\n    address private owner;  // set the address of the owner to be private\r\n\r\n    // boolean\r\n    bool private lockUpTokens = true; // token lockup indicator\r\n    bool private isIssuable;    //  manage when a token can be issued\r\n    \r\n\r\n\r\n    // structs\r\n\r\n\r\n    //  events\r\n    event WhiteList (address _investor, uint256 _timeAdded); // event to be emitted whenever an address is whitelisted\r\n    event Issued (address _to, uint256 _amountIssued, uint256 _totalSupply, uint256 _timeIssued); // event to be emitted whenever new tokens are minted\r\n    event Transfer (address _from, address _to, uint256 _amount); // event to be emitted whenever token is been transferred\r\n    event Approval (address _tokenHolder, address _externalAddress, uint256 _amount); //emit the approve event\r\n    \r\n\r\n\r\n\r\n    //  mappings\r\n    mapping(address => bool) private whitelist; //  whitelist map\r\n    mapping(address => mapping(address => uint256)) private allowance;   // set the address of the allowed external operator\r\n    mapping(address => uint256) public balanceOf; // map to store the token balances of token holders\r\n\r\n\r\n    constructor (string memory _name, string memory _symbol, uint256 _decimal, uint256 _totalSupply) {\r\n\r\n        name = _name;\r\n        symbol = _symbol;\r\n        decimal = _decimal;\r\n        totalSupply = _totalSupply;\r\n        owner = msg.sender;\r\n\r\n    }\r\n\r\n    modifier restricted {\r\n        require(msg.sender == owner, \"0x56\");\r\n        _;\r\n    }\r\n\r\n    // internal functions\r\n\r\n    // 1. internal funtion to transfer tokens from an address to another address\r\n     function _transfer(address _from, address _to, uint256 _amount) internal returns (bool success) {\r\n\r\n        require(_to != address(0),  \"can't transfer to zero address\");\r\n        require(balanceOf[_from] >= _amount, \"insufficient amount\");\r\n\r\n        balanceOf[_from] = balanceOf[_from] - _amount; // reduce the sender's balance --> use safemath\r\n        balanceOf[_to] = balanceOf[_to] + _amount; // increase the value of the receiver ---> usesafemath\r\n        emit Transfer (_from, _to, _amount); // emit the Tranfer event\r\n        return true;\r\n     }\r\n\r\n    // function to mint and issue new tokens. This function is restricted to other addresses except the owner of the contract\r\n    function  issueTokens(address _to, uint256 _amount) public restricted {\r\n        \r\n        \r\n        require(_to != address(0));     // the destinaton address should not be an empty address\r\n        balanceOf[_to] += _amount;      // use safemath library to avoid under and overflow\r\n        totalSupply += _amount;         // add the new minted token to the total supply ---> use safemath library to avoid under and overflow\r\n        emit Issued(_to, _amount, totalSupply, block.timestamp);        // emit the issued event --> it emits the destination address, amount minted, updated total supply and the time issued\r\n        \r\n\r\n    }\r\n\r\n\r\n    // approve tokens to external operators\r\n    function approve(address _externalAddress, uint256 _value) public returns (bool success) {\r\n\r\n        // use safemath function here to avoid under and overflow\r\n        allowance[msg.sender][_externalAddress] += _value;\r\n        emit Approval(msg.sender, _externalAddress, _value); // emit the approved event\r\n        return true;\r\n\r\n    }\r\n\r\n\r\n\r\n    // used bytes1 instead of byte as bytes1 is now an alias for byte    \r\n    function canTransfer(address _to, uint256 _value) public view returns (bytes1 status, bytes32 statusDescription){\r\n\r\n        if( lockUpTokens == true) {\r\n\r\n            return (hex\"55\", \"funds locked (lockup period)\");\r\n        } \r\n\r\n    }\r\n\r\n\r\n\r\n    // function to add an address to whitelist\r\n    function addToWhiteList(address _investor) public {\r\n        \r\n        require(!whitelist[_investor], \"can't whitelist an address more than once\");\r\n        whitelist[_investor] = true;\r\n        emit WhiteList(_investor, block.timestamp);\r\n\r\n    }\r\n\r\n    // function to transfer tokens. the internal transfer function will be called here\r\n    function transfer(address _to, uint256 _amount) public returns (bool success) {\r\n\r\n        _transfer(msg.sender, _to, _amount);\r\n        return true;\r\n\r\n    }\r\n\r\n    // function transferFrom. The function for external addresses such as escrows to move tokens on behalf of the token holder\r\n    \r\n    function transferFrom(address _from, address _to, uint256 _amount) external returns (bool success) {\r\n\r\n        // _from is the current token holder\r\n        // _to is the destinantion address\r\n        //  msg.sender is the external address calling this function\r\n        // the token holder should have at least the amount of tokens to be transferred ----> this check has been implemented in the internal _transfer function\r\n        require(allowance[_from][msg.sender] >= _amount); // the allowed value approved by the token holder must not be less than the amount\r\n        _transfer(_from, _to, _amount); // transfer the tokens\r\n\r\n        // reset the allowance value\r\n\r\n        allowance[_from][msg.sender] =  allowance[_from][msg.sender] - _amount; // use safe math here\r\n\r\n    }  \r\n\r\n}",
  "sourcePath": "C:\\Users\\Uju Nobei\\Documents\\Israel Linux\\blockchain\\TANGL\\security token\\contracts\\ERC1400.sol",
  "compiler": {
    "name": "solc",
    "version": "0.8.10+commit.fc410830.Emscripten.clang"
  },
  "schemaVersion": "3.4.3",
  "updatedAt": "2022-01-26T18:57:18.612Z",
  "networkType": "ethereum",
  "devdoc": {
    "kind": "dev",
    "methods": {},
    "version": 1
  },
  "userdoc": {
    "kind": "user",
    "methods": {},
    "version": 1
  }
}